{"contracts/TaskCon.sol":{"TaskCon":{"abi":[{"inputs":[],"stateMutability":"nonpayable","type":"constructor"},{"anonymous":false,"inputs":[{"indexed":false,"internalType":"address","name":"recipient","type":"address"},{"indexed":false,"internalType":"uint256","name":"projectid","type":"uint256"}],"name":"AddProject","type":"event"},{"anonymous":false,"inputs":[{"indexed":false,"internalType":"uint256","name":"projectId","type":"uint256"},{"indexed":false,"internalType":"string","name":"tasktitle","type":"string"},{"indexed":false,"internalType":"string","name":"collaborator","type":"string"}],"name":"TaskFinished","type":"event"},{"inputs":[],"name":"Counter","outputs":[{"internalType":"uint256","name":"","type":"uint256"}],"stateMutability":"view","type":"function"},{"inputs":[{"internalType":"string","name":"_title","type":"string"},{"internalType":"string","name":"_description","type":"string"},{"internalType":"string","name":"_url","type":"string"},{"components":[{"internalType":"string","name":"tasktitle","type":"string"},{"internalType":"string","name":"description","type":"string"},{"internalType":"bool","name":"isdone","type":"bool"},{"internalType":"string","name":"ownerman","type":"string"}],"internalType":"struct TaskCon.task[]","name":"_tasks","type":"tuple[]"},{"internalType":"string","name":"ownerman","type":"string"}],"name":"addProject","outputs":[],"stateMutability":"nonpayable","type":"function"},{"inputs":[{"internalType":"uint256","name":"projectId","type":"uint256"},{"internalType":"string","name":"tasktitle","type":"string"},{"internalType":"string","name":"description","type":"string"},{"internalType":"string","name":"ownerman","type":"string"}],"name":"addtasks","outputs":[],"stateMutability":"nonpayable","type":"function"},{"inputs":[{"internalType":"string","name":"projectTitle","type":"string"},{"internalType":"string","name":"tasktitle","type":"string"},{"internalType":"string","name":"collaborator","type":"string"}],"name":"finishtask","outputs":[],"stateMutability":"nonpayable","type":"function"},{"inputs":[{"internalType":"uint256","name":"projectId","type":"uint256"}],"name":"getProjectTasks","outputs":[{"components":[{"internalType":"string","name":"tasktitle","type":"string"},{"internalType":"string","name":"description","type":"string"},{"internalType":"bool","name":"isdone","type":"bool"},{"internalType":"string","name":"ownerman","type":"string"}],"internalType":"struct TaskCon.task[]","name":"","type":"tuple[]"}],"stateMutability":"view","type":"function"},{"inputs":[],"name":"getfeed","outputs":[{"internalType":"string","name":"","type":"string"}],"stateMutability":"view","type":"function"},{"inputs":[],"name":"owner","outputs":[{"internalType":"address","name":"","type":"address"}],"stateMutability":"view","type":"function"},{"inputs":[{"internalType":"uint256","name":"","type":"uint256"}],"name":"projects","outputs":[{"internalType":"string","name":"title","type":"string"},{"internalType":"string","name":"description","type":"string"},{"internalType":"string","name":"url","type":"string"},{"internalType":"string","name":"projectid","type":"string"},{"internalType":"string","name":"ownerman","type":"string"}],"stateMutability":"view","type":"function"},{"inputs":[],"name":"tokenaddress","outputs":[{"internalType":"address","name":"","type":"address"}],"stateMutability":"view","type":"function"}],"evm":{"bytecode":{"linkReferences":{},"object":"608060405234801561001057600080fd5b50600080546001600160a01b0319163317905560016002556120b5806100376000396000f3fe608060405234801561001057600080fd5b50600436106100935760003560e01c80638278cf25116100665780638278cf25146101275780638da5cb5b1461013c578063a92a7fb71461014f578063b160b1d214610164578063f2c9a9091461017757600080fd5b8063107046bd146100985780633feff76d146100c55780634eeca076146100f0578063591c564f14610107575b600080fd5b6100ab6100a636600461169e565b61018a565b6040516100bc959493929190611707565b60405180910390f35b6001546100d8906001600160a01b031681565b6040516001600160a01b0390911681526020016100bc565b6100f960025481565b6040519081526020016100bc565b61011a61011536600461169e565b610478565b6040516100bc9190611774565b61013a610135366004611a33565b610726565b005b6000546100d8906001600160a01b031681565b6101576108bb565b6040516100bc9190611b05565b61013a610172366004611b1f565b610fb3565b61013a610185366004611bb1565b6110cd565b6003818154811061019a57600080fd5b90600052602060002090600602016000915090508060000180546101bd90611c39565b80601f01602080910402602001604051908101604052809291908181526020018280546101e990611c39565b80156102365780601f1061020b57610100808354040283529160200191610236565b820191906000526020600020905b81548152906001019060200180831161021957829003601f168201915b50505050509080600101805461024b90611c39565b80601f016020809104026020016040519081016040528092919081815260200182805461027790611c39565b80156102c45780601f10610299576101008083540402835291602001916102c4565b820191906000526020600020905b8154815290600101906020018083116102a757829003601f168201915b5050505050908060020180546102d990611c39565b80601f016020809104026020016040519081016040528092919081815260200182805461030590611c39565b80156103525780601f1061032757610100808354040283529160200191610352565b820191906000526020600020905b81548152906001019060200180831161033557829003601f168201915b50505050509080600401805461036790611c39565b80601f016020809104026020016040519081016040528092919081815260200182805461039390611c39565b80156103e05780601f106103b5576101008083540402835291602001916103e0565b820191906000526020600020905b8154815290600101906020018083116103c357829003601f168201915b5050505050908060050180546103f590611c39565b80601f016020809104026020016040519081016040528092919081815260200182805461042190611c39565b801561046e5780601f106104435761010080835404028352916020019161046e565b820191906000526020600020905b81548152906001019060200180831161045157829003601f168201915b5050505050905085565b606060008211801561048c57506002548211155b6104d25760405162461bcd60e51b8152602060048201526012602482015271125b9d985b1a59081c1c9bda9958dd08125160721b60448201526064015b60405180910390fd5b60036104df600184611c89565b815481106104ef576104ef611ca2565b9060005260206000209060060201600301805480602002602001604051908101604052809291908181526020016000905b8282101561071b578382906000526020600020906004020160405180608001604052908160008201805461055390611c39565b80601f016020809104026020016040519081016040528092919081815260200182805461057f90611c39565b80156105cc5780601f106105a1576101008083540402835291602001916105cc565b820191906000526020600020905b8154815290600101906020018083116105af57829003601f168201915b505050505081526020016001820180546105e590611c39565b80601f016020809104026020016040519081016040528092919081815260200182805461061190611c39565b801561065e5780601f106106335761010080835404028352916020019161065e565b820191906000526020600020905b81548152906001019060200180831161064157829003601f168201915b5050509183525050600282015460ff161515602082015260038201805460409092019161068a90611c39565b80601f01602080910402602001604051908101604052809291908181526020018280546106b690611c39565b80156107035780601f106106d857610100808354040283529160200191610703565b820191906000526020600020905b8154815290600101906020018083116106e657829003601f168201915b50505050508152505081526020019060010190610520565b505050509050919050565b6002805490600061073683611cb8565b9091555050600380546001810182556000919091526006027fc2575a0e9e593c00f959f8c92f12db2869c3395a3b0502d05e2516446f71f85b018061077b8782611d20565b506001810161078a8682611d20565b50600281016107998582611d20565b506107a5600254611347565b60048201906107b49082611d20565b50600581016107c38382611d20565b5060005b83518110156108755760008482815181106107e4576107e4611ca2565b6020908102919091018101516003850180546001810182556000918252929020815191935083926004020190819061081c9082611d20565b50602082015160018201906108319082611d20565b50604082015160028201805460ff19169115159190911790556060820151600382019061085e9082611d20565b50505050808061086d90611cb8565b9150506107c7565b506002546040805133815260208101929092527f4a31f5ac372495eeadf90f1b0d3a4693dbb858e9f2e9730987f6d93338dc06ac910160405180910390a1505050505050565b60035460609060009067ffffffffffffffff8111156108dc576108dc611822565b60405190808252806020026020018201604052801561094657816020015b6109336040518060c001604052806060815260200160608152602001606081526020016060815260200160608152602001606081525090565b8152602001906001900390816108fa5790505b5090506000805b600354811015610ec3576003818154811061096a5761096a611ca2565b90600052602060002090600602016040518060c001604052908160008201805461099390611c39565b80601f01602080910402602001604051908101604052809291908181526020018280546109bf90611c39565b8015610a0c5780601f106109e157610100808354040283529160200191610a0c565b820191906000526020600020905b8154815290600101906020018083116109ef57829003601f168201915b50505050508152602001600182018054610a2590611c39565b80601f0160208091040260200160405190810160405280929190818152602001828054610a5190611c39565b8015610a9e5780601f10610a7357610100808354040283529160200191610a9e565b820191906000526020600020905b815481529060010190602001808311610a8157829003601f168201915b50505050508152602001600282018054610ab790611c39565b80601f0160208091040260200160405190810160405280929190818152602001828054610ae390611c39565b8015610b305780601f10610b0557610100808354040283529160200191610b30565b820191906000526020600020905b815481529060010190602001808311610b1357829003601f168201915b5050505050815260200160038201805480602002602001604051908101604052809291908181526020016000905b82821015610d595783829060005260206000209060040201604051806080016040529081600082018054610b9190611c39565b80601f0160208091040260200160405190810160405280929190818152602001828054610bbd90611c39565b8015610c0a5780601f10610bdf57610100808354040283529160200191610c0a565b820191906000526020600020905b815481529060010190602001808311610bed57829003601f168201915b50505050508152602001600182018054610c2390611c39565b80601f0160208091040260200160405190810160405280929190818152602001828054610c4f90611c39565b8015610c9c5780601f10610c7157610100808354040283529160200191610c9c565b820191906000526020600020905b815481529060010190602001808311610c7f57829003601f168201915b5050509183525050600282015460ff1615156020820152600382018054604090920191610cc890611c39565b80601f0160208091040260200160405190810160405280929190818152602001828054610cf490611c39565b8015610d415780601f10610d1657610100808354040283529160200191610d41565b820191906000526020600020905b815481529060010190602001808311610d2457829003601f168201915b50505050508152505081526020019060010190610b5e565b505050508152602001600482018054610d7190611c39565b80601f0160208091040260200160405190810160405280929190818152602001828054610d9d90611c39565b8015610dea5780601f10610dbf57610100808354040283529160200191610dea565b820191906000526020600020905b815481529060010190602001808311610dcd57829003601f168201915b50505050508152602001600582018054610e0390611c39565b80601f0160208091040260200160405190810160405280929190818152602001828054610e2f90611c39565b8015610e7c5780601f10610e5157610100808354040283529160200191610e7c565b820191906000526020600020905b815481529060010190602001808311610e5f57829003601f168201915b505050505081525050838381518110610e9757610e97611ca2565b60200260200101819052508180610ead90611cb8565b9250508080610ebb90611cb8565b91505061094d565b5060008167ffffffffffffffff811115610edf57610edf611822565b604051908082528060200260200182016040528015610f4957816020015b610f366040518060c001604052806060815260200160608152602001606081526020016060815260200160608152602001606081525090565b815260200190600190039081610efd5790505b50905060005b82811015610fa157838181518110610f6957610f69611ca2565b6020026020010151828281518110610f8357610f83611ca2565b60200260200101819052508080610f9990611cb8565b915050610f4f565b50610fab81611450565b935050505090565b600084118015610fc557506002548411155b6110065760405162461bcd60e51b8152602060048201526012602482015271125b9d985b1a59081c1c9bda9958dd08125160721b60448201526064016104c9565b6040805160808101825284815260208101849052600091810191909152606081018290526003611037600187611c89565b8154811061104757611047611ca2565b6000918252602080832060036006909302019190910180546001810182559083529120825183926004029091019081906110819082611d20565b50602082015160018201906110969082611d20565b50604082015160028201805460ff1916911515919091179055606082015160038201906110c39082611d20565b5050505050505050565b60005b60035481101561134157836040516020016110eb9190611de0565b604051602081830303815290604052805190602001206003828154811061111457611114611ca2565b90600052602060002090600602016000016040516020016111359190611dfc565b604051602081830303815290604052805190602001200361132f5760006003828154811061116557611165611ca2565b9060005260206000209060060201600301905060005b815481101561132857846040516020016111959190611de0565b604051602081830303815290604052805190602001208282815481106111bd576111bd611ca2565b90600052602060002090600402016000016040516020016111de9190611dfc565b6040516020818303038152906040528051906020012014801561126e57508360405160200161120d9190611de0565b6040516020818303038152906040528051906020012082828154811061123557611235611ca2565b90600052602060002090600402016003016040516020016112569190611dfc565b60405160208183030381529060405280519060200120145b156113165760016003848154811061128857611288611ca2565b906000526020600020906006020160030182815481106112aa576112aa611ca2565b60009182526020909120600490910201600201805460ff19169115159190911790557f53206b036c54237caf9bcabddaa2d626abe8101bf96c1351562cdfcb8429ae276112f8846001611e72565b868660405161130993929190611e85565b60405180910390a1611328565b8061132081611cb8565b91505061117b565b5050611341565b8061133981611cb8565b9150506110d0565b50505050565b60608160000361136e5750506040805180820190915260018152600360fc1b602082015290565b8160005b8115611398578061138281611cb8565b91506113919050600a83611ed0565b9150611372565b60008167ffffffffffffffff8111156113b3576113b3611822565b6040519080825280601f01601f1916602001820160405280156113dd576020820181803683370190505b5090505b8415611448576113f2600183611c89565b91506113ff600a86611ee4565b61140a906030611e72565b60f81b81838151811061141f5761141f611ca2565b60200101906001600160f81b031916908160001a905350611441600a86611ed0565b94506113e1565b949350505050565b6060600060405160200161146b90605b60f81b815260010190565b604051602081830303815290604052905060005b835181101561151757816114ab85838151811061149e5761149e611ca2565b6020026020010151611540565b6040516020016114bc929190611ef8565b6040516020818303038152906040529150600184516114db9190611c89565b81101561150557816040516020016114f39190611f27565b60405160208183030381529060405291505b8061150f81611cb8565b91505061147f565b50806040516020016115299190611f4c565b60408051601f198184030181529190529392505050565b6080810151815160405160609260009261155c92602001611f71565b604051602081830303815290604052905060005b83606001515181101561161457816115a48560600151838151811061159757611597611ca2565b6020026020010151611626565b6040516020016115b5929190611ef8565b604051602081830303815290604052915060018460600151516115d89190611c89565b81101561160257816040516020016115f09190611f27565b60405160208183030381529060405291505b8061160c81611cb8565b915050611570565b50806040516020016115299190611fea565b606081600001518260400151611659576040518060400160405280600581526020016466616c736560d81b815250611677565b604051806040016040528060048152602001637472756560e01b8152505b604051602001611688929190612010565b6040516020818303038152906040529050919050565b6000602082840312156116b057600080fd5b5035919050565b60005b838110156116d25781810151838201526020016116ba565b50506000910152565b600081518084526116f38160208601602086016116b7565b601f01601f19169290920160200192915050565b60a08152600061171a60a08301886116db565b828103602084015261172c81886116db565b9050828103604084015261174081876116db565b9050828103606084015261175481866116db565b9050828103608084015261176881856116db565b98975050505050505050565b60006020808301818452808551808352604092508286019150828160051b87010184880160005b8381101561181457603f198984030185528151608081518186526117c1828701826116db565b915050888201518582038a8701526117d982826116db565b915050878201511515888601526060808301519250858203818701525061180081836116db565b96890196945050509086019060010161179b565b509098975050505050505050565b634e487b7160e01b600052604160045260246000fd5b6040516080810167ffffffffffffffff8111828210171561185b5761185b611822565b60405290565b604051601f8201601f1916810167ffffffffffffffff8111828210171561188a5761188a611822565b604052919050565b600082601f8301126118a357600080fd5b813567ffffffffffffffff8111156118bd576118bd611822565b6118d0601f8201601f1916602001611861565b8181528460208386010111156118e557600080fd5b816020850160208301376000918101602001919091529392505050565b600082601f83011261191357600080fd5b8135602067ffffffffffffffff8083111561193057611930611822565b8260051b61193f838201611861565b938452858101830193838101908886111561195957600080fd5b84880192505b85831015611768578235848111156119775760008081fd5b88016080818b03601f190181131561198f5760008081fd5b611997611838565b87830135878111156119a95760008081fd5b6119b78d8a83870101611892565b825250604080840135888111156119ce5760008081fd5b6119dc8e8b83880101611892565b8a8401525060608085013580151581146119f65760008081fd5b83830152928401359288841115611a0f57600091508182fd5b611a1d8e8b86880101611892565b908301525084525050918401919084019061195f565b600080600080600060a08688031215611a4b57600080fd5b853567ffffffffffffffff80821115611a6357600080fd5b611a6f89838a01611892565b96506020880135915080821115611a8557600080fd5b611a9189838a01611892565b95506040880135915080821115611aa757600080fd5b611ab389838a01611892565b94506060880135915080821115611ac957600080fd5b611ad589838a01611902565b93506080880135915080821115611aeb57600080fd5b50611af888828901611892565b9150509295509295909350565b602081526000611b1860208301846116db565b9392505050565b60008060008060808587031215611b3557600080fd5b84359350602085013567ffffffffffffffff80821115611b5457600080fd5b611b6088838901611892565b94506040870135915080821115611b7657600080fd5b611b8288838901611892565b93506060870135915080821115611b9857600080fd5b50611ba587828801611892565b91505092959194509250565b600080600060608486031215611bc657600080fd5b833567ffffffffffffffff80821115611bde57600080fd5b611bea87838801611892565b94506020860135915080821115611c0057600080fd5b611c0c87838801611892565b93506040860135915080821115611c2257600080fd5b50611c2f86828701611892565b9150509250925092565b600181811c90821680611c4d57607f821691505b602082108103611c6d57634e487b7160e01b600052602260045260246000fd5b50919050565b634e487b7160e01b600052601160045260246000fd5b81810381811115611c9c57611c9c611c73565b92915050565b634e487b7160e01b600052603260045260246000fd5b600060018201611cca57611cca611c73565b5060010190565b601f821115611d1b57600081815260208120601f850160051c81016020861015611cf85750805b601f850160051c820191505b81811015611d1757828155600101611d04565b5050505b505050565b815167ffffffffffffffff811115611d3a57611d3a611822565b611d4e81611d488454611c39565b84611cd1565b602080601f831160018114611d835760008415611d6b5750858301515b600019600386901b1c1916600185901b178555611d17565b600085815260208120601f198616915b82811015611db257888601518255948401946001909101908401611d93565b5085821015611dd05787850151600019600388901b60f8161c191681555b5050505050600190811b01905550565b60008251611df28184602087016116b7565b9190910192915050565b6000808354611e0a81611c39565b60018281168015611e225760018114611e3757611e66565b60ff1984168752821515830287019450611e66565b8760005260208060002060005b85811015611e5d5781548a820152908401908201611e44565b50505082870194505b50929695505050505050565b80820180821115611c9c57611c9c611c73565b838152606060208201526000611e9e60608301856116db565b8281036040840152611eb081856116db565b9695505050505050565b634e487b7160e01b600052601260045260246000fd5b600082611edf57611edf611eba565b500490565b600082611ef357611ef3611eba565b500690565b60008351611f0a8184602088016116b7565b835190830190611f1e8183602088016116b7565b01949350505050565b60008251611f398184602087016116b7565b600b60fa1b920191825250600101919050565b60008251611f5e8184602087016116b7565b605d60f81b920191825250600101919050565b6d3d91383937b532b1ba34b2111d1160911b81528251600090611f9b81600e8501602088016116b7565b6a1116113a34ba3632911d1160a91b600e918401918201528351611fc68160198401602088016116b7565b6a222c227461736b73223a5b60a81b60199290910191820152602401949350505050565b60008251611ffc8184602087016116b7565b615d7d60f01b920191825250600201919050565b6d3d913a30b9b5ba34ba3632911d1160911b8152825160009061203a81600e8501602088016116b7565b6a11161134b9b237b732911d60a91b600e9184019182015283516120658160198401602088016116b7565b607d60f81b60199290910191820152601a0194935050505056fea2646970667358221220be54fac8f3a7d0aa52a413a053e0737f4befd0de106e4ce6b73a221193f1217f64736f6c63430008140033","opcodes":"PUSH1 0x80 PUSH1 0x40 MSTORE CALLVALUE DUP1 ISZERO PUSH2 0x10 JUMPI PUSH1 0x0 DUP1 REVERT JUMPDEST POP PUSH1 0x0 DUP1 SLOAD PUSH1 0x1 PUSH1 0x1 PUSH1 0xA0 SHL SUB NOT AND CALLER OR SWAP1 SSTORE PUSH1 0x1 PUSH1 0x2 SSTORE PUSH2 0x20B5 DUP1 PUSH2 0x37 PUSH1 0x0 CODECOPY PUSH1 0x0 RETURN INVALID PUSH1 0x80 PUSH1 0x40 MSTORE CALLVALUE DUP1 ISZERO PUSH2 0x10 JUMPI PUSH1 0x0 DUP1 REVERT JUMPDEST POP PUSH1 0x4 CALLDATASIZE LT PUSH2 0x93 JUMPI PUSH1 0x0 CALLDATALOAD PUSH1 0xE0 SHR DUP1 PUSH4 0x8278CF25 GT PUSH2 0x66 JUMPI DUP1 PUSH4 0x8278CF25 EQ PUSH2 0x127 JUMPI DUP1 PUSH4 0x8DA5CB5B EQ PUSH2 0x13C JUMPI DUP1 PUSH4 0xA92A7FB7 EQ PUSH2 0x14F JUMPI DUP1 PUSH4 0xB160B1D2 EQ PUSH2 0x164 JUMPI DUP1 PUSH4 0xF2C9A909 EQ PUSH2 0x177 JUMPI PUSH1 0x0 DUP1 REVERT JUMPDEST DUP1 PUSH4 0x107046BD EQ PUSH2 0x98 JUMPI DUP1 PUSH4 0x3FEFF76D EQ PUSH2 0xC5 JUMPI DUP1 PUSH4 0x4EECA076 EQ PUSH2 0xF0 JUMPI DUP1 PUSH4 0x591C564F EQ PUSH2 0x107 JUMPI JUMPDEST PUSH1 0x0 DUP1 REVERT JUMPDEST PUSH2 0xAB PUSH2 0xA6 CALLDATASIZE PUSH1 0x4 PUSH2 0x169E JUMP JUMPDEST PUSH2 0x18A JUMP JUMPDEST PUSH1 0x40 MLOAD PUSH2 0xBC SWAP6 SWAP5 SWAP4 SWAP3 SWAP2 SWAP1 PUSH2 0x1707 JUMP JUMPDEST PUSH1 0x40 MLOAD DUP1 SWAP2 SUB SWAP1 RETURN JUMPDEST PUSH1 0x1 SLOAD PUSH2 0xD8 SWAP1 PUSH1 0x1 PUSH1 0x1 PUSH1 0xA0 SHL SUB AND DUP2 JUMP JUMPDEST PUSH1 0x40 MLOAD PUSH1 0x1 PUSH1 0x1 PUSH1 0xA0 SHL SUB SWAP1 SWAP2 AND DUP2 MSTORE PUSH1 0x20 ADD PUSH2 0xBC JUMP JUMPDEST PUSH2 0xF9 PUSH1 0x2 SLOAD DUP2 JUMP JUMPDEST PUSH1 0x40 MLOAD SWAP1 DUP2 MSTORE PUSH1 0x20 ADD PUSH2 0xBC JUMP JUMPDEST PUSH2 0x11A PUSH2 0x115 CALLDATASIZE PUSH1 0x4 PUSH2 0x169E JUMP JUMPDEST PUSH2 0x478 JUMP JUMPDEST PUSH1 0x40 MLOAD PUSH2 0xBC SWAP2 SWAP1 PUSH2 0x1774 JUMP JUMPDEST PUSH2 0x13A PUSH2 0x135 CALLDATASIZE PUSH1 0x4 PUSH2 0x1A33 JUMP JUMPDEST PUSH2 0x726 JUMP JUMPDEST STOP JUMPDEST PUSH1 0x0 SLOAD PUSH2 0xD8 SWAP1 PUSH1 0x1 PUSH1 0x1 PUSH1 0xA0 SHL SUB AND DUP2 JUMP JUMPDEST PUSH2 0x157 PUSH2 0x8BB JUMP JUMPDEST PUSH1 0x40 MLOAD PUSH2 0xBC SWAP2 SWAP1 PUSH2 0x1B05 JUMP JUMPDEST PUSH2 0x13A PUSH2 0x172 CALLDATASIZE PUSH1 0x4 PUSH2 0x1B1F JUMP JUMPDEST PUSH2 0xFB3 JUMP JUMPDEST PUSH2 0x13A PUSH2 0x185 CALLDATASIZE PUSH1 0x4 PUSH2 0x1BB1 JUMP JUMPDEST PUSH2 0x10CD JUMP JUMPDEST PUSH1 0x3 DUP2 DUP2 SLOAD DUP2 LT PUSH2 0x19A JUMPI PUSH1 0x0 DUP1 REVERT JUMPDEST SWAP1 PUSH1 0x0 MSTORE PUSH1 0x20 PUSH1 0x0 KECCAK256 SWAP1 PUSH1 0x6 MUL ADD PUSH1 0x0 SWAP2 POP SWAP1 POP DUP1 PUSH1 0x0 ADD DUP1 SLOAD PUSH2 0x1BD SWAP1 PUSH2 0x1C39 JUMP JUMPDEST DUP1 PUSH1 0x1F ADD PUSH1 0x20 DUP1 SWAP2 DIV MUL PUSH1 0x20 ADD PUSH1 0x40 MLOAD SWAP1 DUP2 ADD PUSH1 0x40 MSTORE DUP1 SWAP3 SWAP2 SWAP1 DUP2 DUP2 MSTORE PUSH1 0x20 ADD DUP3 DUP1 SLOAD PUSH2 0x1E9 SWAP1 PUSH2 0x1C39 JUMP JUMPDEST DUP1 ISZERO PUSH2 0x236 JUMPI DUP1 PUSH1 0x1F LT PUSH2 0x20B JUMPI PUSH2 0x100 DUP1 DUP4 SLOAD DIV MUL DUP4 MSTORE SWAP2 PUSH1 0x20 ADD SWAP2 PUSH2 0x236 JUMP JUMPDEST DUP3 ADD SWAP2 SWAP1 PUSH1 0x0 MSTORE PUSH1 0x20 PUSH1 0x0 KECCAK256 SWAP1 JUMPDEST DUP2 SLOAD DUP2 MSTORE SWAP1 PUSH1 0x1 ADD SWAP1 PUSH1 0x20 ADD DUP1 DUP4 GT PUSH2 0x219 JUMPI DUP3 SWAP1 SUB PUSH1 0x1F AND DUP3 ADD SWAP2 JUMPDEST POP POP POP POP POP SWAP1 DUP1 PUSH1 0x1 ADD DUP1 SLOAD PUSH2 0x24B SWAP1 PUSH2 0x1C39 JUMP JUMPDEST DUP1 PUSH1 0x1F ADD PUSH1 0x20 DUP1 SWAP2 DIV MUL PUSH1 0x20 ADD PUSH1 0x40 MLOAD SWAP1 DUP2 ADD PUSH1 0x40 MSTORE DUP1 SWAP3 SWAP2 SWAP1 DUP2 DUP2 MSTORE PUSH1 0x20 ADD DUP3 DUP1 SLOAD PUSH2 0x277 SWAP1 PUSH2 0x1C39 JUMP JUMPDEST DUP1 ISZERO PUSH2 0x2C4 JUMPI DUP1 PUSH1 0x1F LT PUSH2 0x299 JUMPI PUSH2 0x100 DUP1 DUP4 SLOAD DIV MUL DUP4 MSTORE SWAP2 PUSH1 0x20 ADD SWAP2 PUSH2 0x2C4 JUMP JUMPDEST DUP3 ADD SWAP2 SWAP1 PUSH1 0x0 MSTORE PUSH1 0x20 PUSH1 0x0 KECCAK256 SWAP1 JUMPDEST DUP2 SLOAD DUP2 MSTORE SWAP1 PUSH1 0x1 ADD SWAP1 PUSH1 0x20 ADD DUP1 DUP4 GT PUSH2 0x2A7 JUMPI DUP3 SWAP1 SUB PUSH1 0x1F AND DUP3 ADD SWAP2 JUMPDEST POP POP POP POP POP SWAP1 DUP1 PUSH1 0x2 ADD DUP1 SLOAD PUSH2 0x2D9 SWAP1 PUSH2 0x1C39 JUMP JUMPDEST DUP1 PUSH1 0x1F ADD PUSH1 0x20 DUP1 SWAP2 DIV MUL PUSH1 0x20 ADD PUSH1 0x40 MLOAD SWAP1 DUP2 ADD PUSH1 0x40 MSTORE DUP1 SWAP3 SWAP2 SWAP1 DUP2 DUP2 MSTORE PUSH1 0x20 ADD DUP3 DUP1 SLOAD PUSH2 0x305 SWAP1 PUSH2 0x1C39 JUMP JUMPDEST DUP1 ISZERO PUSH2 0x352 JUMPI DUP1 PUSH1 0x1F LT PUSH2 0x327 JUMPI PUSH2 0x100 DUP1 DUP4 SLOAD DIV MUL DUP4 MSTORE SWAP2 PUSH1 0x20 ADD SWAP2 PUSH2 0x352 JUMP JUMPDEST DUP3 ADD SWAP2 SWAP1 PUSH1 0x0 MSTORE PUSH1 0x20 PUSH1 0x0 KECCAK256 SWAP1 JUMPDEST DUP2 SLOAD DUP2 MSTORE SWAP1 PUSH1 0x1 ADD SWAP1 PUSH1 0x20 ADD DUP1 DUP4 GT PUSH2 0x335 JUMPI DUP3 SWAP1 SUB PUSH1 0x1F AND DUP3 ADD SWAP2 JUMPDEST POP POP POP POP POP SWAP1 DUP1 PUSH1 0x4 ADD DUP1 SLOAD PUSH2 0x367 SWAP1 PUSH2 0x1C39 JUMP JUMPDEST DUP1 PUSH1 0x1F ADD PUSH1 0x20 DUP1 SWAP2 DIV MUL PUSH1 0x20 ADD PUSH1 0x40 MLOAD SWAP1 DUP2 ADD PUSH1 0x40 MSTORE DUP1 SWAP3 SWAP2 SWAP1 DUP2 DUP2 MSTORE PUSH1 0x20 ADD DUP3 DUP1 SLOAD PUSH2 0x393 SWAP1 PUSH2 0x1C39 JUMP JUMPDEST DUP1 ISZERO PUSH2 0x3E0 JUMPI DUP1 PUSH1 0x1F LT PUSH2 0x3B5 JUMPI PUSH2 0x100 DUP1 DUP4 SLOAD DIV MUL DUP4 MSTORE SWAP2 PUSH1 0x20 ADD SWAP2 PUSH2 0x3E0 JUMP JUMPDEST DUP3 ADD SWAP2 SWAP1 PUSH1 0x0 MSTORE PUSH1 0x20 PUSH1 0x0 KECCAK256 SWAP1 JUMPDEST DUP2 SLOAD DUP2 MSTORE SWAP1 PUSH1 0x1 ADD SWAP1 PUSH1 0x20 ADD DUP1 DUP4 GT PUSH2 0x3C3 JUMPI DUP3 SWAP1 SUB PUSH1 0x1F AND DUP3 ADD SWAP2 JUMPDEST POP POP POP POP POP SWAP1 DUP1 PUSH1 0x5 ADD DUP1 SLOAD PUSH2 0x3F5 SWAP1 PUSH2 0x1C39 JUMP JUMPDEST DUP1 PUSH1 0x1F ADD PUSH1 0x20 DUP1 SWAP2 DIV MUL PUSH1 0x20 ADD PUSH1 0x40 MLOAD SWAP1 DUP2 ADD PUSH1 0x40 MSTORE DUP1 SWAP3 SWAP2 SWAP1 DUP2 DUP2 MSTORE PUSH1 0x20 ADD DUP3 DUP1 SLOAD PUSH2 0x421 SWAP1 PUSH2 0x1C39 JUMP JUMPDEST DUP1 ISZERO PUSH2 0x46E JUMPI DUP1 PUSH1 0x1F LT PUSH2 0x443 JUMPI PUSH2 0x100 DUP1 DUP4 SLOAD DIV MUL DUP4 MSTORE SWAP2 PUSH1 0x20 ADD SWAP2 PUSH2 0x46E JUMP JUMPDEST DUP3 ADD SWAP2 SWAP1 PUSH1 0x0 MSTORE PUSH1 0x20 PUSH1 0x0 KECCAK256 SWAP1 JUMPDEST DUP2 SLOAD DUP2 MSTORE SWAP1 PUSH1 0x1 ADD SWAP1 PUSH1 0x20 ADD DUP1 DUP4 GT PUSH2 0x451 JUMPI DUP3 SWAP1 SUB PUSH1 0x1F AND DUP3 ADD SWAP2 JUMPDEST POP POP POP POP POP SWAP1 POP DUP6 JUMP JUMPDEST PUSH1 0x60 PUSH1 0x0 DUP3 GT DUP1 ISZERO PUSH2 0x48C JUMPI POP PUSH1 0x2 SLOAD DUP3 GT ISZERO JUMPDEST PUSH2 0x4D2 JUMPI PUSH1 0x40 MLOAD PUSH3 0x461BCD PUSH1 0xE5 SHL DUP2 MSTORE PUSH1 0x20 PUSH1 0x4 DUP3 ADD MSTORE PUSH1 0x12 PUSH1 0x24 DUP3 ADD MSTORE PUSH18 0x125B9D985B1A59081C1C9BDA9958DD081251 PUSH1 0x72 SHL PUSH1 0x44 DUP3 ADD MSTORE PUSH1 0x64 ADD JUMPDEST PUSH1 0x40 MLOAD DUP1 SWAP2 SUB SWAP1 REVERT JUMPDEST PUSH1 0x3 PUSH2 0x4DF PUSH1 0x1 DUP5 PUSH2 0x1C89 JUMP JUMPDEST DUP2 SLOAD DUP2 LT PUSH2 0x4EF JUMPI PUSH2 0x4EF PUSH2 0x1CA2 JUMP JUMPDEST SWAP1 PUSH1 0x0 MSTORE PUSH1 0x20 PUSH1 0x0 KECCAK256 SWAP1 PUSH1 0x6 MUL ADD PUSH1 0x3 ADD DUP1 SLOAD DUP1 PUSH1 0x20 MUL PUSH1 0x20 ADD PUSH1 0x40 MLOAD SWAP1 DUP2 ADD PUSH1 0x40 MSTORE DUP1 SWAP3 SWAP2 SWAP1 DUP2 DUP2 MSTORE PUSH1 0x20 ADD PUSH1 0x0 SWAP1 JUMPDEST DUP3 DUP3 LT ISZERO PUSH2 0x71B JUMPI DUP4 DUP3 SWAP1 PUSH1 0x0 MSTORE PUSH1 0x20 PUSH1 0x0 KECCAK256 SWAP1 PUSH1 0x4 MUL ADD PUSH1 0x40 MLOAD DUP1 PUSH1 0x80 ADD PUSH1 0x40 MSTORE SWAP1 DUP2 PUSH1 0x0 DUP3 ADD DUP1 SLOAD PUSH2 0x553 SWAP1 PUSH2 0x1C39 JUMP JUMPDEST DUP1 PUSH1 0x1F ADD PUSH1 0x20 DUP1 SWAP2 DIV MUL PUSH1 0x20 ADD PUSH1 0x40 MLOAD SWAP1 DUP2 ADD PUSH1 0x40 MSTORE DUP1 SWAP3 SWAP2 SWAP1 DUP2 DUP2 MSTORE PUSH1 0x20 ADD DUP3 DUP1 SLOAD PUSH2 0x57F SWAP1 PUSH2 0x1C39 JUMP JUMPDEST DUP1 ISZERO PUSH2 0x5CC JUMPI DUP1 PUSH1 0x1F LT PUSH2 0x5A1 JUMPI PUSH2 0x100 DUP1 DUP4 SLOAD DIV MUL DUP4 MSTORE SWAP2 PUSH1 0x20 ADD SWAP2 PUSH2 0x5CC JUMP JUMPDEST DUP3 ADD SWAP2 SWAP1 PUSH1 0x0 MSTORE PUSH1 0x20 PUSH1 0x0 KECCAK256 SWAP1 JUMPDEST DUP2 SLOAD DUP2 MSTORE SWAP1 PUSH1 0x1 ADD SWAP1 PUSH1 0x20 ADD DUP1 DUP4 GT PUSH2 0x5AF JUMPI DUP3 SWAP1 SUB PUSH1 0x1F AND DUP3 ADD SWAP2 JUMPDEST POP POP POP POP POP DUP2 MSTORE PUSH1 0x20 ADD PUSH1 0x1 DUP3 ADD DUP1 SLOAD PUSH2 0x5E5 SWAP1 PUSH2 0x1C39 JUMP JUMPDEST DUP1 PUSH1 0x1F ADD PUSH1 0x20 DUP1 SWAP2 DIV MUL PUSH1 0x20 ADD PUSH1 0x40 MLOAD SWAP1 DUP2 ADD PUSH1 0x40 MSTORE DUP1 SWAP3 SWAP2 SWAP1 DUP2 DUP2 MSTORE PUSH1 0x20 ADD DUP3 DUP1 SLOAD PUSH2 0x611 SWAP1 PUSH2 0x1C39 JUMP JUMPDEST DUP1 ISZERO PUSH2 0x65E JUMPI DUP1 PUSH1 0x1F LT PUSH2 0x633 JUMPI PUSH2 0x100 DUP1 DUP4 SLOAD DIV MUL DUP4 MSTORE SWAP2 PUSH1 0x20 ADD SWAP2 PUSH2 0x65E JUMP JUMPDEST DUP3 ADD SWAP2 SWAP1 PUSH1 0x0 MSTORE PUSH1 0x20 PUSH1 0x0 KECCAK256 SWAP1 JUMPDEST DUP2 SLOAD DUP2 MSTORE SWAP1 PUSH1 0x1 ADD SWAP1 PUSH1 0x20 ADD DUP1 DUP4 GT PUSH2 0x641 JUMPI DUP3 SWAP1 SUB PUSH1 0x1F AND DUP3 ADD SWAP2 JUMPDEST POP POP POP SWAP2 DUP4 MSTORE POP POP PUSH1 0x2 DUP3 ADD SLOAD PUSH1 0xFF AND ISZERO ISZERO PUSH1 0x20 DUP3 ADD MSTORE PUSH1 0x3 DUP3 ADD DUP1 SLOAD PUSH1 0x40 SWAP1 SWAP3 ADD SWAP2 PUSH2 0x68A SWAP1 PUSH2 0x1C39 JUMP JUMPDEST DUP1 PUSH1 0x1F ADD PUSH1 0x20 DUP1 SWAP2 DIV MUL PUSH1 0x20 ADD PUSH1 0x40 MLOAD SWAP1 DUP2 ADD PUSH1 0x40 MSTORE DUP1 SWAP3 SWAP2 SWAP1 DUP2 DUP2 MSTORE PUSH1 0x20 ADD DUP3 DUP1 SLOAD PUSH2 0x6B6 SWAP1 PUSH2 0x1C39 JUMP JUMPDEST DUP1 ISZERO PUSH2 0x703 JUMPI DUP1 PUSH1 0x1F LT PUSH2 0x6D8 JUMPI PUSH2 0x100 DUP1 DUP4 SLOAD DIV MUL DUP4 MSTORE SWAP2 PUSH1 0x20 ADD SWAP2 PUSH2 0x703 JUMP JUMPDEST DUP3 ADD SWAP2 SWAP1 PUSH1 0x0 MSTORE PUSH1 0x20 PUSH1 0x0 KECCAK256 SWAP1 JUMPDEST DUP2 SLOAD DUP2 MSTORE SWAP1 PUSH1 0x1 ADD SWAP1 PUSH1 0x20 ADD DUP1 DUP4 GT PUSH2 0x6E6 JUMPI DUP3 SWAP1 SUB PUSH1 0x1F AND DUP3 ADD SWAP2 JUMPDEST POP POP POP POP POP DUP2 MSTORE POP POP DUP2 MSTORE PUSH1 0x20 ADD SWAP1 PUSH1 0x1 ADD SWAP1 PUSH2 0x520 JUMP JUMPDEST POP POP POP POP SWAP1 POP SWAP2 SWAP1 POP JUMP JUMPDEST PUSH1 0x2 DUP1 SLOAD SWAP1 PUSH1 0x0 PUSH2 0x736 DUP4 PUSH2 0x1CB8 JUMP JUMPDEST SWAP1 SWAP2 SSTORE POP POP PUSH1 0x3 DUP1 SLOAD PUSH1 0x1 DUP2 ADD DUP3 SSTORE PUSH1 0x0 SWAP2 SWAP1 SWAP2 MSTORE PUSH1 0x6 MUL PUSH32 0xC2575A0E9E593C00F959F8C92F12DB2869C3395A3B0502D05E2516446F71F85B ADD DUP1 PUSH2 0x77B DUP8 DUP3 PUSH2 0x1D20 JUMP JUMPDEST POP PUSH1 0x1 DUP2 ADD PUSH2 0x78A DUP7 DUP3 PUSH2 0x1D20 JUMP JUMPDEST POP PUSH1 0x2 DUP2 ADD PUSH2 0x799 DUP6 DUP3 PUSH2 0x1D20 JUMP JUMPDEST POP PUSH2 0x7A5 PUSH1 0x2 SLOAD PUSH2 0x1347 JUMP JUMPDEST PUSH1 0x4 DUP3 ADD SWAP1 PUSH2 0x7B4 SWAP1 DUP3 PUSH2 0x1D20 JUMP JUMPDEST POP PUSH1 0x5 DUP2 ADD PUSH2 0x7C3 DUP4 DUP3 PUSH2 0x1D20 JUMP JUMPDEST POP PUSH1 0x0 JUMPDEST DUP4 MLOAD DUP2 LT ISZERO PUSH2 0x875 JUMPI PUSH1 0x0 DUP5 DUP3 DUP2 MLOAD DUP2 LT PUSH2 0x7E4 JUMPI PUSH2 0x7E4 PUSH2 0x1CA2 JUMP JUMPDEST PUSH1 0x20 SWAP1 DUP2 MUL SWAP2 SWAP1 SWAP2 ADD DUP2 ADD MLOAD PUSH1 0x3 DUP6 ADD DUP1 SLOAD PUSH1 0x1 DUP2 ADD DUP3 SSTORE PUSH1 0x0 SWAP2 DUP3 MSTORE SWAP3 SWAP1 KECCAK256 DUP2 MLOAD SWAP2 SWAP4 POP DUP4 SWAP3 PUSH1 0x4 MUL ADD SWAP1 DUP2 SWAP1 PUSH2 0x81C SWAP1 DUP3 PUSH2 0x1D20 JUMP JUMPDEST POP PUSH1 0x20 DUP3 ADD MLOAD PUSH1 0x1 DUP3 ADD SWAP1 PUSH2 0x831 SWAP1 DUP3 PUSH2 0x1D20 JUMP JUMPDEST POP PUSH1 0x40 DUP3 ADD MLOAD PUSH1 0x2 DUP3 ADD DUP1 SLOAD PUSH1 0xFF NOT AND SWAP2 ISZERO ISZERO SWAP2 SWAP1 SWAP2 OR SWAP1 SSTORE PUSH1 0x60 DUP3 ADD MLOAD PUSH1 0x3 DUP3 ADD SWAP1 PUSH2 0x85E SWAP1 DUP3 PUSH2 0x1D20 JUMP JUMPDEST POP POP POP POP DUP1 DUP1 PUSH2 0x86D SWAP1 PUSH2 0x1CB8 JUMP JUMPDEST SWAP2 POP POP PUSH2 0x7C7 JUMP JUMPDEST POP PUSH1 0x2 SLOAD PUSH1 0x40 DUP1 MLOAD CALLER DUP2 MSTORE PUSH1 0x20 DUP2 ADD SWAP3 SWAP1 SWAP3 MSTORE PUSH32 0x4A31F5AC372495EEADF90F1B0D3A4693DBB858E9F2E9730987F6D93338DC06AC SWAP2 ADD PUSH1 0x40 MLOAD DUP1 SWAP2 SUB SWAP1 LOG1 POP POP POP POP POP POP JUMP JUMPDEST PUSH1 0x3 SLOAD PUSH1 0x60 SWAP1 PUSH1 0x0 SWAP1 PUSH8 0xFFFFFFFFFFFFFFFF DUP2 GT ISZERO PUSH2 0x8DC JUMPI PUSH2 0x8DC PUSH2 0x1822 JUMP JUMPDEST PUSH1 0x40 MLOAD SWAP1 DUP1 DUP3 MSTORE DUP1 PUSH1 0x20 MUL PUSH1 0x20 ADD DUP3 ADD PUSH1 0x40 MSTORE DUP1 ISZERO PUSH2 0x946 JUMPI DUP2 PUSH1 0x20 ADD JUMPDEST PUSH2 0x933 PUSH1 0x40 MLOAD DUP1 PUSH1 0xC0 ADD PUSH1 0x40 MSTORE DUP1 PUSH1 0x60 DUP2 MSTORE PUSH1 0x20 ADD PUSH1 0x60 DUP2 MSTORE PUSH1 0x20 ADD PUSH1 0x60 DUP2 MSTORE PUSH1 0x20 ADD PUSH1 0x60 DUP2 MSTORE PUSH1 0x20 ADD PUSH1 0x60 DUP2 MSTORE PUSH1 0x20 ADD PUSH1 0x60 DUP2 MSTORE POP SWAP1 JUMP JUMPDEST DUP2 MSTORE PUSH1 0x20 ADD SWAP1 PUSH1 0x1 SWAP1 SUB SWAP1 DUP2 PUSH2 0x8FA JUMPI SWAP1 POP JUMPDEST POP SWAP1 POP PUSH1 0x0 DUP1 JUMPDEST PUSH1 0x3 SLOAD DUP2 LT ISZERO PUSH2 0xEC3 JUMPI PUSH1 0x3 DUP2 DUP2 SLOAD DUP2 LT PUSH2 0x96A JUMPI PUSH2 0x96A PUSH2 0x1CA2 JUMP JUMPDEST SWAP1 PUSH1 0x0 MSTORE PUSH1 0x20 PUSH1 0x0 KECCAK256 SWAP1 PUSH1 0x6 MUL ADD PUSH1 0x40 MLOAD DUP1 PUSH1 0xC0 ADD PUSH1 0x40 MSTORE SWAP1 DUP2 PUSH1 0x0 DUP3 ADD DUP1 SLOAD PUSH2 0x993 SWAP1 PUSH2 0x1C39 JUMP JUMPDEST DUP1 PUSH1 0x1F ADD PUSH1 0x20 DUP1 SWAP2 DIV MUL PUSH1 0x20 ADD PUSH1 0x40 MLOAD SWAP1 DUP2 ADD PUSH1 0x40 MSTORE DUP1 SWAP3 SWAP2 SWAP1 DUP2 DUP2 MSTORE PUSH1 0x20 ADD DUP3 DUP1 SLOAD PUSH2 0x9BF SWAP1 PUSH2 0x1C39 JUMP JUMPDEST DUP1 ISZERO PUSH2 0xA0C JUMPI DUP1 PUSH1 0x1F LT PUSH2 0x9E1 JUMPI PUSH2 0x100 DUP1 DUP4 SLOAD DIV MUL DUP4 MSTORE SWAP2 PUSH1 0x20 ADD SWAP2 PUSH2 0xA0C JUMP JUMPDEST DUP3 ADD SWAP2 SWAP1 PUSH1 0x0 MSTORE PUSH1 0x20 PUSH1 0x0 KECCAK256 SWAP1 JUMPDEST DUP2 SLOAD DUP2 MSTORE SWAP1 PUSH1 0x1 ADD SWAP1 PUSH1 0x20 ADD DUP1 DUP4 GT PUSH2 0x9EF JUMPI DUP3 SWAP1 SUB PUSH1 0x1F AND DUP3 ADD SWAP2 JUMPDEST POP POP POP POP POP DUP2 MSTORE PUSH1 0x20 ADD PUSH1 0x1 DUP3 ADD DUP1 SLOAD PUSH2 0xA25 SWAP1 PUSH2 0x1C39 JUMP JUMPDEST DUP1 PUSH1 0x1F ADD PUSH1 0x20 DUP1 SWAP2 DIV MUL PUSH1 0x20 ADD PUSH1 0x40 MLOAD SWAP1 DUP2 ADD PUSH1 0x40 MSTORE DUP1 SWAP3 SWAP2 SWAP1 DUP2 DUP2 MSTORE PUSH1 0x20 ADD DUP3 DUP1 SLOAD PUSH2 0xA51 SWAP1 PUSH2 0x1C39 JUMP JUMPDEST DUP1 ISZERO PUSH2 0xA9E JUMPI DUP1 PUSH1 0x1F LT PUSH2 0xA73 JUMPI PUSH2 0x100 DUP1 DUP4 SLOAD DIV MUL DUP4 MSTORE SWAP2 PUSH1 0x20 ADD SWAP2 PUSH2 0xA9E JUMP JUMPDEST DUP3 ADD SWAP2 SWAP1 PUSH1 0x0 MSTORE PUSH1 0x20 PUSH1 0x0 KECCAK256 SWAP1 JUMPDEST DUP2 SLOAD DUP2 MSTORE SWAP1 PUSH1 0x1 ADD SWAP1 PUSH1 0x20 ADD DUP1 DUP4 GT PUSH2 0xA81 JUMPI DUP3 SWAP1 SUB PUSH1 0x1F AND DUP3 ADD SWAP2 JUMPDEST POP POP POP POP POP DUP2 MSTORE PUSH1 0x20 ADD PUSH1 0x2 DUP3 ADD DUP1 SLOAD PUSH2 0xAB7 SWAP1 PUSH2 0x1C39 JUMP JUMPDEST DUP1 PUSH1 0x1F ADD PUSH1 0x20 DUP1 SWAP2 DIV MUL PUSH1 0x20 ADD PUSH1 0x40 MLOAD SWAP1 DUP2 ADD PUSH1 0x40 MSTORE DUP1 SWAP3 SWAP2 SWAP1 DUP2 DUP2 MSTORE PUSH1 0x20 ADD DUP3 DUP1 SLOAD PUSH2 0xAE3 SWAP1 PUSH2 0x1C39 JUMP JUMPDEST DUP1 ISZERO PUSH2 0xB30 JUMPI DUP1 PUSH1 0x1F LT PUSH2 0xB05 JUMPI PUSH2 0x100 DUP1 DUP4 SLOAD DIV MUL DUP4 MSTORE SWAP2 PUSH1 0x20 ADD SWAP2 PUSH2 0xB30 JUMP JUMPDEST DUP3 ADD SWAP2 SWAP1 PUSH1 0x0 MSTORE PUSH1 0x20 PUSH1 0x0 KECCAK256 SWAP1 JUMPDEST DUP2 SLOAD DUP2 MSTORE SWAP1 PUSH1 0x1 ADD SWAP1 PUSH1 0x20 ADD DUP1 DUP4 GT PUSH2 0xB13 JUMPI DUP3 SWAP1 SUB PUSH1 0x1F AND DUP3 ADD SWAP2 JUMPDEST POP POP POP POP POP DUP2 MSTORE PUSH1 0x20 ADD PUSH1 0x3 DUP3 ADD DUP1 SLOAD DUP1 PUSH1 0x20 MUL PUSH1 0x20 ADD PUSH1 0x40 MLOAD SWAP1 DUP2 ADD PUSH1 0x40 MSTORE DUP1 SWAP3 SWAP2 SWAP1 DUP2 DUP2 MSTORE PUSH1 0x20 ADD PUSH1 0x0 SWAP1 JUMPDEST DUP3 DUP3 LT ISZERO PUSH2 0xD59 JUMPI DUP4 DUP3 SWAP1 PUSH1 0x0 MSTORE PUSH1 0x20 PUSH1 0x0 KECCAK256 SWAP1 PUSH1 0x4 MUL ADD PUSH1 0x40 MLOAD DUP1 PUSH1 0x80 ADD PUSH1 0x40 MSTORE SWAP1 DUP2 PUSH1 0x0 DUP3 ADD DUP1 SLOAD PUSH2 0xB91 SWAP1 PUSH2 0x1C39 JUMP JUMPDEST DUP1 PUSH1 0x1F ADD PUSH1 0x20 DUP1 SWAP2 DIV MUL PUSH1 0x20 ADD PUSH1 0x40 MLOAD SWAP1 DUP2 ADD PUSH1 0x40 MSTORE DUP1 SWAP3 SWAP2 SWAP1 DUP2 DUP2 MSTORE PUSH1 0x20 ADD DUP3 DUP1 SLOAD PUSH2 0xBBD SWAP1 PUSH2 0x1C39 JUMP JUMPDEST DUP1 ISZERO PUSH2 0xC0A JUMPI DUP1 PUSH1 0x1F LT PUSH2 0xBDF JUMPI PUSH2 0x100 DUP1 DUP4 SLOAD DIV MUL DUP4 MSTORE SWAP2 PUSH1 0x20 ADD SWAP2 PUSH2 0xC0A JUMP JUMPDEST DUP3 ADD SWAP2 SWAP1 PUSH1 0x0 MSTORE PUSH1 0x20 PUSH1 0x0 KECCAK256 SWAP1 JUMPDEST DUP2 SLOAD DUP2 MSTORE SWAP1 PUSH1 0x1 ADD SWAP1 PUSH1 0x20 ADD DUP1 DUP4 GT PUSH2 0xBED JUMPI DUP3 SWAP1 SUB PUSH1 0x1F AND DUP3 ADD SWAP2 JUMPDEST POP POP POP POP POP DUP2 MSTORE PUSH1 0x20 ADD PUSH1 0x1 DUP3 ADD DUP1 SLOAD PUSH2 0xC23 SWAP1 PUSH2 0x1C39 JUMP JUMPDEST DUP1 PUSH1 0x1F ADD PUSH1 0x20 DUP1 SWAP2 DIV MUL PUSH1 0x20 ADD PUSH1 0x40 MLOAD SWAP1 DUP2 ADD PUSH1 0x40 MSTORE DUP1 SWAP3 SWAP2 SWAP1 DUP2 DUP2 MSTORE PUSH1 0x20 ADD DUP3 DUP1 SLOAD PUSH2 0xC4F SWAP1 PUSH2 0x1C39 JUMP JUMPDEST DUP1 ISZERO PUSH2 0xC9C JUMPI DUP1 PUSH1 0x1F LT PUSH2 0xC71 JUMPI PUSH2 0x100 DUP1 DUP4 SLOAD DIV MUL DUP4 MSTORE SWAP2 PUSH1 0x20 ADD SWAP2 PUSH2 0xC9C JUMP JUMPDEST DUP3 ADD SWAP2 SWAP1 PUSH1 0x0 MSTORE PUSH1 0x20 PUSH1 0x0 KECCAK256 SWAP1 JUMPDEST DUP2 SLOAD DUP2 MSTORE SWAP1 PUSH1 0x1 ADD SWAP1 PUSH1 0x20 ADD DUP1 DUP4 GT PUSH2 0xC7F JUMPI DUP3 SWAP1 SUB PUSH1 0x1F AND DUP3 ADD SWAP2 JUMPDEST POP POP POP SWAP2 DUP4 MSTORE POP POP PUSH1 0x2 DUP3 ADD SLOAD PUSH1 0xFF AND ISZERO ISZERO PUSH1 0x20 DUP3 ADD MSTORE PUSH1 0x3 DUP3 ADD DUP1 SLOAD PUSH1 0x40 SWAP1 SWAP3 ADD SWAP2 PUSH2 0xCC8 SWAP1 PUSH2 0x1C39 JUMP JUMPDEST DUP1 PUSH1 0x1F ADD PUSH1 0x20 DUP1 SWAP2 DIV MUL PUSH1 0x20 ADD PUSH1 0x40 MLOAD SWAP1 DUP2 ADD PUSH1 0x40 MSTORE DUP1 SWAP3 SWAP2 SWAP1 DUP2 DUP2 MSTORE PUSH1 0x20 ADD DUP3 DUP1 SLOAD PUSH2 0xCF4 SWAP1 PUSH2 0x1C39 JUMP JUMPDEST DUP1 ISZERO PUSH2 0xD41 JUMPI DUP1 PUSH1 0x1F LT PUSH2 0xD16 JUMPI PUSH2 0x100 DUP1 DUP4 SLOAD DIV MUL DUP4 MSTORE SWAP2 PUSH1 0x20 ADD SWAP2 PUSH2 0xD41 JUMP JUMPDEST DUP3 ADD SWAP2 SWAP1 PUSH1 0x0 MSTORE PUSH1 0x20 PUSH1 0x0 KECCAK256 SWAP1 JUMPDEST DUP2 SLOAD DUP2 MSTORE SWAP1 PUSH1 0x1 ADD SWAP1 PUSH1 0x20 ADD DUP1 DUP4 GT PUSH2 0xD24 JUMPI DUP3 SWAP1 SUB PUSH1 0x1F AND DUP3 ADD SWAP2 JUMPDEST POP POP POP POP POP DUP2 MSTORE POP POP DUP2 MSTORE PUSH1 0x20 ADD SWAP1 PUSH1 0x1 ADD SWAP1 PUSH2 0xB5E JUMP JUMPDEST POP POP POP POP DUP2 MSTORE PUSH1 0x20 ADD PUSH1 0x4 DUP3 ADD DUP1 SLOAD PUSH2 0xD71 SWAP1 PUSH2 0x1C39 JUMP JUMPDEST DUP1 PUSH1 0x1F ADD PUSH1 0x20 DUP1 SWAP2 DIV MUL PUSH1 0x20 ADD PUSH1 0x40 MLOAD SWAP1 DUP2 ADD PUSH1 0x40 MSTORE DUP1 SWAP3 SWAP2 SWAP1 DUP2 DUP2 MSTORE PUSH1 0x20 ADD DUP3 DUP1 SLOAD PUSH2 0xD9D SWAP1 PUSH2 0x1C39 JUMP JUMPDEST DUP1 ISZERO PUSH2 0xDEA JUMPI DUP1 PUSH1 0x1F LT PUSH2 0xDBF JUMPI PUSH2 0x100 DUP1 DUP4 SLOAD DIV MUL DUP4 MSTORE SWAP2 PUSH1 0x20 ADD SWAP2 PUSH2 0xDEA JUMP JUMPDEST DUP3 ADD SWAP2 SWAP1 PUSH1 0x0 MSTORE PUSH1 0x20 PUSH1 0x0 KECCAK256 SWAP1 JUMPDEST DUP2 SLOAD DUP2 MSTORE SWAP1 PUSH1 0x1 ADD SWAP1 PUSH1 0x20 ADD DUP1 DUP4 GT PUSH2 0xDCD JUMPI DUP3 SWAP1 SUB PUSH1 0x1F AND DUP3 ADD SWAP2 JUMPDEST POP POP POP POP POP DUP2 MSTORE PUSH1 0x20 ADD PUSH1 0x5 DUP3 ADD DUP1 SLOAD PUSH2 0xE03 SWAP1 PUSH2 0x1C39 JUMP JUMPDEST DUP1 PUSH1 0x1F ADD PUSH1 0x20 DUP1 SWAP2 DIV MUL PUSH1 0x20 ADD PUSH1 0x40 MLOAD SWAP1 DUP2 ADD PUSH1 0x40 MSTORE DUP1 SWAP3 SWAP2 SWAP1 DUP2 DUP2 MSTORE PUSH1 0x20 ADD DUP3 DUP1 SLOAD PUSH2 0xE2F SWAP1 PUSH2 0x1C39 JUMP JUMPDEST DUP1 ISZERO PUSH2 0xE7C JUMPI DUP1 PUSH1 0x1F LT PUSH2 0xE51 JUMPI PUSH2 0x100 DUP1 DUP4 SLOAD DIV MUL DUP4 MSTORE SWAP2 PUSH1 0x20 ADD SWAP2 PUSH2 0xE7C JUMP JUMPDEST DUP3 ADD SWAP2 SWAP1 PUSH1 0x0 MSTORE PUSH1 0x20 PUSH1 0x0 KECCAK256 SWAP1 JUMPDEST DUP2 SLOAD DUP2 MSTORE SWAP1 PUSH1 0x1 ADD SWAP1 PUSH1 0x20 ADD DUP1 DUP4 GT PUSH2 0xE5F JUMPI DUP3 SWAP1 SUB PUSH1 0x1F AND DUP3 ADD SWAP2 JUMPDEST POP POP POP POP POP DUP2 MSTORE POP POP DUP4 DUP4 DUP2 MLOAD DUP2 LT PUSH2 0xE97 JUMPI PUSH2 0xE97 PUSH2 0x1CA2 JUMP JUMPDEST PUSH1 0x20 MUL PUSH1 0x20 ADD ADD DUP2 SWAP1 MSTORE POP DUP2 DUP1 PUSH2 0xEAD SWAP1 PUSH2 0x1CB8 JUMP JUMPDEST SWAP3 POP POP DUP1 DUP1 PUSH2 0xEBB SWAP1 PUSH2 0x1CB8 JUMP JUMPDEST SWAP2 POP POP PUSH2 0x94D JUMP JUMPDEST POP PUSH1 0x0 DUP2 PUSH8 0xFFFFFFFFFFFFFFFF DUP2 GT ISZERO PUSH2 0xEDF JUMPI PUSH2 0xEDF PUSH2 0x1822 JUMP JUMPDEST PUSH1 0x40 MLOAD SWAP1 DUP1 DUP3 MSTORE DUP1 PUSH1 0x20 MUL PUSH1 0x20 ADD DUP3 ADD PUSH1 0x40 MSTORE DUP1 ISZERO PUSH2 0xF49 JUMPI DUP2 PUSH1 0x20 ADD JUMPDEST PUSH2 0xF36 PUSH1 0x40 MLOAD DUP1 PUSH1 0xC0 ADD PUSH1 0x40 MSTORE DUP1 PUSH1 0x60 DUP2 MSTORE PUSH1 0x20 ADD PUSH1 0x60 DUP2 MSTORE PUSH1 0x20 ADD PUSH1 0x60 DUP2 MSTORE PUSH1 0x20 ADD PUSH1 0x60 DUP2 MSTORE PUSH1 0x20 ADD PUSH1 0x60 DUP2 MSTORE PUSH1 0x20 ADD PUSH1 0x60 DUP2 MSTORE POP SWAP1 JUMP JUMPDEST DUP2 MSTORE PUSH1 0x20 ADD SWAP1 PUSH1 0x1 SWAP1 SUB SWAP1 DUP2 PUSH2 0xEFD JUMPI SWAP1 POP JUMPDEST POP SWAP1 POP PUSH1 0x0 JUMPDEST DUP3 DUP2 LT ISZERO PUSH2 0xFA1 JUMPI DUP4 DUP2 DUP2 MLOAD DUP2 LT PUSH2 0xF69 JUMPI PUSH2 0xF69 PUSH2 0x1CA2 JUMP JUMPDEST PUSH1 0x20 MUL PUSH1 0x20 ADD ADD MLOAD DUP3 DUP3 DUP2 MLOAD DUP2 LT PUSH2 0xF83 JUMPI PUSH2 0xF83 PUSH2 0x1CA2 JUMP JUMPDEST PUSH1 0x20 MUL PUSH1 0x20 ADD ADD DUP2 SWAP1 MSTORE POP DUP1 DUP1 PUSH2 0xF99 SWAP1 PUSH2 0x1CB8 JUMP JUMPDEST SWAP2 POP POP PUSH2 0xF4F JUMP JUMPDEST POP PUSH2 0xFAB DUP2 PUSH2 0x1450 JUMP JUMPDEST SWAP4 POP POP POP POP SWAP1 JUMP JUMPDEST PUSH1 0x0 DUP5 GT DUP1 ISZERO PUSH2 0xFC5 JUMPI POP PUSH1 0x2 SLOAD DUP5 GT ISZERO JUMPDEST PUSH2 0x1006 JUMPI PUSH1 0x40 MLOAD PUSH3 0x461BCD PUSH1 0xE5 SHL DUP2 MSTORE PUSH1 0x20 PUSH1 0x4 DUP3 ADD MSTORE PUSH1 0x12 PUSH1 0x24 DUP3 ADD MSTORE PUSH18 0x125B9D985B1A59081C1C9BDA9958DD081251 PUSH1 0x72 SHL PUSH1 0x44 DUP3 ADD MSTORE PUSH1 0x64 ADD PUSH2 0x4C9 JUMP JUMPDEST PUSH1 0x40 DUP1 MLOAD PUSH1 0x80 DUP2 ADD DUP3 MSTORE DUP5 DUP2 MSTORE PUSH1 0x20 DUP2 ADD DUP5 SWAP1 MSTORE PUSH1 0x0 SWAP2 DUP2 ADD SWAP2 SWAP1 SWAP2 MSTORE PUSH1 0x60 DUP2 ADD DUP3 SWAP1 MSTORE PUSH1 0x3 PUSH2 0x1037 PUSH1 0x1 DUP8 PUSH2 0x1C89 JUMP JUMPDEST DUP2 SLOAD DUP2 LT PUSH2 0x1047 JUMPI PUSH2 0x1047 PUSH2 0x1CA2 JUMP JUMPDEST PUSH1 0x0 SWAP2 DUP3 MSTORE PUSH1 0x20 DUP1 DUP4 KECCAK256 PUSH1 0x3 PUSH1 0x6 SWAP1 SWAP4 MUL ADD SWAP2 SWAP1 SWAP2 ADD DUP1 SLOAD PUSH1 0x1 DUP2 ADD DUP3 SSTORE SWAP1 DUP4 MSTORE SWAP2 KECCAK256 DUP3 MLOAD DUP4 SWAP3 PUSH1 0x4 MUL SWAP1 SWAP2 ADD SWAP1 DUP2 SWAP1 PUSH2 0x1081 SWAP1 DUP3 PUSH2 0x1D20 JUMP JUMPDEST POP PUSH1 0x20 DUP3 ADD MLOAD PUSH1 0x1 DUP3 ADD SWAP1 PUSH2 0x1096 SWAP1 DUP3 PUSH2 0x1D20 JUMP JUMPDEST POP PUSH1 0x40 DUP3 ADD MLOAD PUSH1 0x2 DUP3 ADD DUP1 SLOAD PUSH1 0xFF NOT AND SWAP2 ISZERO ISZERO SWAP2 SWAP1 SWAP2 OR SWAP1 SSTORE PUSH1 0x60 DUP3 ADD MLOAD PUSH1 0x3 DUP3 ADD SWAP1 PUSH2 0x10C3 SWAP1 DUP3 PUSH2 0x1D20 JUMP JUMPDEST POP POP POP POP POP POP POP POP JUMP JUMPDEST PUSH1 0x0 JUMPDEST PUSH1 0x3 SLOAD DUP2 LT ISZERO PUSH2 0x1341 JUMPI DUP4 PUSH1 0x40 MLOAD PUSH1 0x20 ADD PUSH2 0x10EB SWAP2 SWAP1 PUSH2 0x1DE0 JUMP JUMPDEST PUSH1 0x40 MLOAD PUSH1 0x20 DUP2 DUP4 SUB SUB DUP2 MSTORE SWAP1 PUSH1 0x40 MSTORE DUP1 MLOAD SWAP1 PUSH1 0x20 ADD KECCAK256 PUSH1 0x3 DUP3 DUP2 SLOAD DUP2 LT PUSH2 0x1114 JUMPI PUSH2 0x1114 PUSH2 0x1CA2 JUMP JUMPDEST SWAP1 PUSH1 0x0 MSTORE PUSH1 0x20 PUSH1 0x0 KECCAK256 SWAP1 PUSH1 0x6 MUL ADD PUSH1 0x0 ADD PUSH1 0x40 MLOAD PUSH1 0x20 ADD PUSH2 0x1135 SWAP2 SWAP1 PUSH2 0x1DFC JUMP JUMPDEST PUSH1 0x40 MLOAD PUSH1 0x20 DUP2 DUP4 SUB SUB DUP2 MSTORE SWAP1 PUSH1 0x40 MSTORE DUP1 MLOAD SWAP1 PUSH1 0x20 ADD KECCAK256 SUB PUSH2 0x132F JUMPI PUSH1 0x0 PUSH1 0x3 DUP3 DUP2 SLOAD DUP2 LT PUSH2 0x1165 JUMPI PUSH2 0x1165 PUSH2 0x1CA2 JUMP JUMPDEST SWAP1 PUSH1 0x0 MSTORE PUSH1 0x20 PUSH1 0x0 KECCAK256 SWAP1 PUSH1 0x6 MUL ADD PUSH1 0x3 ADD SWAP1 POP PUSH1 0x0 JUMPDEST DUP2 SLOAD DUP2 LT ISZERO PUSH2 0x1328 JUMPI DUP5 PUSH1 0x40 MLOAD PUSH1 0x20 ADD PUSH2 0x1195 SWAP2 SWAP1 PUSH2 0x1DE0 JUMP JUMPDEST PUSH1 0x40 MLOAD PUSH1 0x20 DUP2 DUP4 SUB SUB DUP2 MSTORE SWAP1 PUSH1 0x40 MSTORE DUP1 MLOAD SWAP1 PUSH1 0x20 ADD KECCAK256 DUP3 DUP3 DUP2 SLOAD DUP2 LT PUSH2 0x11BD JUMPI PUSH2 0x11BD PUSH2 0x1CA2 JUMP JUMPDEST SWAP1 PUSH1 0x0 MSTORE PUSH1 0x20 PUSH1 0x0 KECCAK256 SWAP1 PUSH1 0x4 MUL ADD PUSH1 0x0 ADD PUSH1 0x40 MLOAD PUSH1 0x20 ADD PUSH2 0x11DE SWAP2 SWAP1 PUSH2 0x1DFC JUMP JUMPDEST PUSH1 0x40 MLOAD PUSH1 0x20 DUP2 DUP4 SUB SUB DUP2 MSTORE SWAP1 PUSH1 0x40 MSTORE DUP1 MLOAD SWAP1 PUSH1 0x20 ADD KECCAK256 EQ DUP1 ISZERO PUSH2 0x126E JUMPI POP DUP4 PUSH1 0x40 MLOAD PUSH1 0x20 ADD PUSH2 0x120D SWAP2 SWAP1 PUSH2 0x1DE0 JUMP JUMPDEST PUSH1 0x40 MLOAD PUSH1 0x20 DUP2 DUP4 SUB SUB DUP2 MSTORE SWAP1 PUSH1 0x40 MSTORE DUP1 MLOAD SWAP1 PUSH1 0x20 ADD KECCAK256 DUP3 DUP3 DUP2 SLOAD DUP2 LT PUSH2 0x1235 JUMPI PUSH2 0x1235 PUSH2 0x1CA2 JUMP JUMPDEST SWAP1 PUSH1 0x0 MSTORE PUSH1 0x20 PUSH1 0x0 KECCAK256 SWAP1 PUSH1 0x4 MUL ADD PUSH1 0x3 ADD PUSH1 0x40 MLOAD PUSH1 0x20 ADD PUSH2 0x1256 SWAP2 SWAP1 PUSH2 0x1DFC JUMP JUMPDEST PUSH1 0x40 MLOAD PUSH1 0x20 DUP2 DUP4 SUB SUB DUP2 MSTORE SWAP1 PUSH1 0x40 MSTORE DUP1 MLOAD SWAP1 PUSH1 0x20 ADD KECCAK256 EQ JUMPDEST ISZERO PUSH2 0x1316 JUMPI PUSH1 0x1 PUSH1 0x3 DUP5 DUP2 SLOAD DUP2 LT PUSH2 0x1288 JUMPI PUSH2 0x1288 PUSH2 0x1CA2 JUMP JUMPDEST SWAP1 PUSH1 0x0 MSTORE PUSH1 0x20 PUSH1 0x0 KECCAK256 SWAP1 PUSH1 0x6 MUL ADD PUSH1 0x3 ADD DUP3 DUP2 SLOAD DUP2 LT PUSH2 0x12AA JUMPI PUSH2 0x12AA PUSH2 0x1CA2 JUMP JUMPDEST PUSH1 0x0 SWAP2 DUP3 MSTORE PUSH1 0x20 SWAP1 SWAP2 KECCAK256 PUSH1 0x4 SWAP1 SWAP2 MUL ADD PUSH1 0x2 ADD DUP1 SLOAD PUSH1 0xFF NOT AND SWAP2 ISZERO ISZERO SWAP2 SWAP1 SWAP2 OR SWAP1 SSTORE PUSH32 0x53206B036C54237CAF9BCABDDAA2D626ABE8101BF96C1351562CDFCB8429AE27 PUSH2 0x12F8 DUP5 PUSH1 0x1 PUSH2 0x1E72 JUMP JUMPDEST DUP7 DUP7 PUSH1 0x40 MLOAD PUSH2 0x1309 SWAP4 SWAP3 SWAP2 SWAP1 PUSH2 0x1E85 JUMP JUMPDEST PUSH1 0x40 MLOAD DUP1 SWAP2 SUB SWAP1 LOG1 PUSH2 0x1328 JUMP JUMPDEST DUP1 PUSH2 0x1320 DUP2 PUSH2 0x1CB8 JUMP JUMPDEST SWAP2 POP POP PUSH2 0x117B JUMP JUMPDEST POP POP PUSH2 0x1341 JUMP JUMPDEST DUP1 PUSH2 0x1339 DUP2 PUSH2 0x1CB8 JUMP JUMPDEST SWAP2 POP POP PUSH2 0x10D0 JUMP JUMPDEST POP POP POP POP JUMP JUMPDEST PUSH1 0x60 DUP2 PUSH1 0x0 SUB PUSH2 0x136E JUMPI POP POP PUSH1 0x40 DUP1 MLOAD DUP1 DUP3 ADD SWAP1 SWAP2 MSTORE PUSH1 0x1 DUP2 MSTORE PUSH1 0x3 PUSH1 0xFC SHL PUSH1 0x20 DUP3 ADD MSTORE SWAP1 JUMP JUMPDEST DUP2 PUSH1 0x0 JUMPDEST DUP2 ISZERO PUSH2 0x1398 JUMPI DUP1 PUSH2 0x1382 DUP2 PUSH2 0x1CB8 JUMP JUMPDEST SWAP2 POP PUSH2 0x1391 SWAP1 POP PUSH1 0xA DUP4 PUSH2 0x1ED0 JUMP JUMPDEST SWAP2 POP PUSH2 0x1372 JUMP JUMPDEST PUSH1 0x0 DUP2 PUSH8 0xFFFFFFFFFFFFFFFF DUP2 GT ISZERO PUSH2 0x13B3 JUMPI PUSH2 0x13B3 PUSH2 0x1822 JUMP JUMPDEST PUSH1 0x40 MLOAD SWAP1 DUP1 DUP3 MSTORE DUP1 PUSH1 0x1F ADD PUSH1 0x1F NOT AND PUSH1 0x20 ADD DUP3 ADD PUSH1 0x40 MSTORE DUP1 ISZERO PUSH2 0x13DD JUMPI PUSH1 0x20 DUP3 ADD DUP2 DUP1 CALLDATASIZE DUP4 CALLDATACOPY ADD SWAP1 POP JUMPDEST POP SWAP1 POP JUMPDEST DUP5 ISZERO PUSH2 0x1448 JUMPI PUSH2 0x13F2 PUSH1 0x1 DUP4 PUSH2 0x1C89 JUMP JUMPDEST SWAP2 POP PUSH2 0x13FF PUSH1 0xA DUP7 PUSH2 0x1EE4 JUMP JUMPDEST PUSH2 0x140A SWAP1 PUSH1 0x30 PUSH2 0x1E72 JUMP JUMPDEST PUSH1 0xF8 SHL DUP2 DUP4 DUP2 MLOAD DUP2 LT PUSH2 0x141F JUMPI PUSH2 0x141F PUSH2 0x1CA2 JUMP JUMPDEST PUSH1 0x20 ADD ADD SWAP1 PUSH1 0x1 PUSH1 0x1 PUSH1 0xF8 SHL SUB NOT AND SWAP1 DUP2 PUSH1 0x0 BYTE SWAP1 MSTORE8 POP PUSH2 0x1441 PUSH1 0xA DUP7 PUSH2 0x1ED0 JUMP JUMPDEST SWAP5 POP PUSH2 0x13E1 JUMP JUMPDEST SWAP5 SWAP4 POP POP POP POP JUMP JUMPDEST PUSH1 0x60 PUSH1 0x0 PUSH1 0x40 MLOAD PUSH1 0x20 ADD PUSH2 0x146B SWAP1 PUSH1 0x5B PUSH1 0xF8 SHL DUP2 MSTORE PUSH1 0x1 ADD SWAP1 JUMP JUMPDEST PUSH1 0x40 MLOAD PUSH1 0x20 DUP2 DUP4 SUB SUB DUP2 MSTORE SWAP1 PUSH1 0x40 MSTORE SWAP1 POP PUSH1 0x0 JUMPDEST DUP4 MLOAD DUP2 LT ISZERO PUSH2 0x1517 JUMPI DUP2 PUSH2 0x14AB DUP6 DUP4 DUP2 MLOAD DUP2 LT PUSH2 0x149E JUMPI PUSH2 0x149E PUSH2 0x1CA2 JUMP JUMPDEST PUSH1 0x20 MUL PUSH1 0x20 ADD ADD MLOAD PUSH2 0x1540 JUMP JUMPDEST PUSH1 0x40 MLOAD PUSH1 0x20 ADD PUSH2 0x14BC SWAP3 SWAP2 SWAP1 PUSH2 0x1EF8 JUMP JUMPDEST PUSH1 0x40 MLOAD PUSH1 0x20 DUP2 DUP4 SUB SUB DUP2 MSTORE SWAP1 PUSH1 0x40 MSTORE SWAP2 POP PUSH1 0x1 DUP5 MLOAD PUSH2 0x14DB SWAP2 SWAP1 PUSH2 0x1C89 JUMP JUMPDEST DUP2 LT ISZERO PUSH2 0x1505 JUMPI DUP2 PUSH1 0x40 MLOAD PUSH1 0x20 ADD PUSH2 0x14F3 SWAP2 SWAP1 PUSH2 0x1F27 JUMP JUMPDEST PUSH1 0x40 MLOAD PUSH1 0x20 DUP2 DUP4 SUB SUB DUP2 MSTORE SWAP1 PUSH1 0x40 MSTORE SWAP2 POP JUMPDEST DUP1 PUSH2 0x150F DUP2 PUSH2 0x1CB8 JUMP JUMPDEST SWAP2 POP POP PUSH2 0x147F JUMP JUMPDEST POP DUP1 PUSH1 0x40 MLOAD PUSH1 0x20 ADD PUSH2 0x1529 SWAP2 SWAP1 PUSH2 0x1F4C JUMP JUMPDEST PUSH1 0x40 DUP1 MLOAD PUSH1 0x1F NOT DUP2 DUP5 SUB ADD DUP2 MSTORE SWAP2 SWAP1 MSTORE SWAP4 SWAP3 POP POP POP JUMP JUMPDEST PUSH1 0x80 DUP2 ADD MLOAD DUP2 MLOAD PUSH1 0x40 MLOAD PUSH1 0x60 SWAP3 PUSH1 0x0 SWAP3 PUSH2 0x155C SWAP3 PUSH1 0x20 ADD PUSH2 0x1F71 JUMP JUMPDEST PUSH1 0x40 MLOAD PUSH1 0x20 DUP2 DUP4 SUB SUB DUP2 MSTORE SWAP1 PUSH1 0x40 MSTORE SWAP1 POP PUSH1 0x0 JUMPDEST DUP4 PUSH1 0x60 ADD MLOAD MLOAD DUP2 LT ISZERO PUSH2 0x1614 JUMPI DUP2 PUSH2 0x15A4 DUP6 PUSH1 0x60 ADD MLOAD DUP4 DUP2 MLOAD DUP2 LT PUSH2 0x1597 JUMPI PUSH2 0x1597 PUSH2 0x1CA2 JUMP JUMPDEST PUSH1 0x20 MUL PUSH1 0x20 ADD ADD MLOAD PUSH2 0x1626 JUMP JUMPDEST PUSH1 0x40 MLOAD PUSH1 0x20 ADD PUSH2 0x15B5 SWAP3 SWAP2 SWAP1 PUSH2 0x1EF8 JUMP JUMPDEST PUSH1 0x40 MLOAD PUSH1 0x20 DUP2 DUP4 SUB SUB DUP2 MSTORE SWAP1 PUSH1 0x40 MSTORE SWAP2 POP PUSH1 0x1 DUP5 PUSH1 0x60 ADD MLOAD MLOAD PUSH2 0x15D8 SWAP2 SWAP1 PUSH2 0x1C89 JUMP JUMPDEST DUP2 LT ISZERO PUSH2 0x1602 JUMPI DUP2 PUSH1 0x40 MLOAD PUSH1 0x20 ADD PUSH2 0x15F0 SWAP2 SWAP1 PUSH2 0x1F27 JUMP JUMPDEST PUSH1 0x40 MLOAD PUSH1 0x20 DUP2 DUP4 SUB SUB DUP2 MSTORE SWAP1 PUSH1 0x40 MSTORE SWAP2 POP JUMPDEST DUP1 PUSH2 0x160C DUP2 PUSH2 0x1CB8 JUMP JUMPDEST SWAP2 POP POP PUSH2 0x1570 JUMP JUMPDEST POP DUP1 PUSH1 0x40 MLOAD PUSH1 0x20 ADD PUSH2 0x1529 SWAP2 SWAP1 PUSH2 0x1FEA JUMP JUMPDEST PUSH1 0x60 DUP2 PUSH1 0x0 ADD MLOAD DUP3 PUSH1 0x40 ADD MLOAD PUSH2 0x1659 JUMPI PUSH1 0x40 MLOAD DUP1 PUSH1 0x40 ADD PUSH1 0x40 MSTORE DUP1 PUSH1 0x5 DUP2 MSTORE PUSH1 0x20 ADD PUSH5 0x66616C7365 PUSH1 0xD8 SHL DUP2 MSTORE POP PUSH2 0x1677 JUMP JUMPDEST PUSH1 0x40 MLOAD DUP1 PUSH1 0x40 ADD PUSH1 0x40 MSTORE DUP1 PUSH1 0x4 DUP2 MSTORE PUSH1 0x20 ADD PUSH4 0x74727565 PUSH1 0xE0 SHL DUP2 MSTORE POP JUMPDEST PUSH1 0x40 MLOAD PUSH1 0x20 ADD PUSH2 0x1688 SWAP3 SWAP2 SWAP1 PUSH2 0x2010 JUMP JUMPDEST PUSH1 0x40 MLOAD PUSH1 0x20 DUP2 DUP4 SUB SUB DUP2 MSTORE SWAP1 PUSH1 0x40 MSTORE SWAP1 POP SWAP2 SWAP1 POP JUMP JUMPDEST PUSH1 0x0 PUSH1 0x20 DUP3 DUP5 SUB SLT ISZERO PUSH2 0x16B0 JUMPI PUSH1 0x0 DUP1 REVERT JUMPDEST POP CALLDATALOAD SWAP2 SWAP1 POP JUMP JUMPDEST PUSH1 0x0 JUMPDEST DUP4 DUP2 LT ISZERO PUSH2 0x16D2 JUMPI DUP2 DUP2 ADD MLOAD DUP4 DUP3 ADD MSTORE PUSH1 0x20 ADD PUSH2 0x16BA JUMP JUMPDEST POP POP PUSH1 0x0 SWAP2 ADD MSTORE JUMP JUMPDEST PUSH1 0x0 DUP2 MLOAD DUP1 DUP5 MSTORE PUSH2 0x16F3 DUP2 PUSH1 0x20 DUP7 ADD PUSH1 0x20 DUP7 ADD PUSH2 0x16B7 JUMP JUMPDEST PUSH1 0x1F ADD PUSH1 0x1F NOT AND SWAP3 SWAP1 SWAP3 ADD PUSH1 0x20 ADD SWAP3 SWAP2 POP POP JUMP JUMPDEST PUSH1 0xA0 DUP2 MSTORE PUSH1 0x0 PUSH2 0x171A PUSH1 0xA0 DUP4 ADD DUP9 PUSH2 0x16DB JUMP JUMPDEST DUP3 DUP2 SUB PUSH1 0x20 DUP5 ADD MSTORE PUSH2 0x172C DUP2 DUP9 PUSH2 0x16DB JUMP JUMPDEST SWAP1 POP DUP3 DUP2 SUB PUSH1 0x40 DUP5 ADD MSTORE PUSH2 0x1740 DUP2 DUP8 PUSH2 0x16DB JUMP JUMPDEST SWAP1 POP DUP3 DUP2 SUB PUSH1 0x60 DUP5 ADD MSTORE PUSH2 0x1754 DUP2 DUP7 PUSH2 0x16DB JUMP JUMPDEST SWAP1 POP DUP3 DUP2 SUB PUSH1 0x80 DUP5 ADD MSTORE PUSH2 0x1768 DUP2 DUP6 PUSH2 0x16DB JUMP JUMPDEST SWAP9 SWAP8 POP POP POP POP POP POP POP POP JUMP JUMPDEST PUSH1 0x0 PUSH1 0x20 DUP1 DUP4 ADD DUP2 DUP5 MSTORE DUP1 DUP6 MLOAD DUP1 DUP4 MSTORE PUSH1 0x40 SWAP3 POP DUP3 DUP7 ADD SWAP2 POP DUP3 DUP2 PUSH1 0x5 SHL DUP8 ADD ADD DUP5 DUP9 ADD PUSH1 0x0 JUMPDEST DUP4 DUP2 LT ISZERO PUSH2 0x1814 JUMPI PUSH1 0x3F NOT DUP10 DUP5 SUB ADD DUP6 MSTORE DUP2 MLOAD PUSH1 0x80 DUP2 MLOAD DUP2 DUP7 MSTORE PUSH2 0x17C1 DUP3 DUP8 ADD DUP3 PUSH2 0x16DB JUMP JUMPDEST SWAP2 POP POP DUP9 DUP3 ADD MLOAD DUP6 DUP3 SUB DUP11 DUP8 ADD MSTORE PUSH2 0x17D9 DUP3 DUP3 PUSH2 0x16DB JUMP JUMPDEST SWAP2 POP POP DUP8 DUP3 ADD MLOAD ISZERO ISZERO DUP9 DUP7 ADD MSTORE PUSH1 0x60 DUP1 DUP4 ADD MLOAD SWAP3 POP DUP6 DUP3 SUB DUP2 DUP8 ADD MSTORE POP PUSH2 0x1800 DUP2 DUP4 PUSH2 0x16DB JUMP JUMPDEST SWAP7 DUP10 ADD SWAP7 SWAP5 POP POP POP SWAP1 DUP7 ADD SWAP1 PUSH1 0x1 ADD PUSH2 0x179B JUMP JUMPDEST POP SWAP1 SWAP9 SWAP8 POP POP POP POP POP POP POP POP JUMP JUMPDEST PUSH4 0x4E487B71 PUSH1 0xE0 SHL PUSH1 0x0 MSTORE PUSH1 0x41 PUSH1 0x4 MSTORE PUSH1 0x24 PUSH1 0x0 REVERT JUMPDEST PUSH1 0x40 MLOAD PUSH1 0x80 DUP2 ADD PUSH8 0xFFFFFFFFFFFFFFFF DUP2 GT DUP3 DUP3 LT OR ISZERO PUSH2 0x185B JUMPI PUSH2 0x185B PUSH2 0x1822 JUMP JUMPDEST PUSH1 0x40 MSTORE SWAP1 JUMP JUMPDEST PUSH1 0x40 MLOAD PUSH1 0x1F DUP3 ADD PUSH1 0x1F NOT AND DUP2 ADD PUSH8 0xFFFFFFFFFFFFFFFF DUP2 GT DUP3 DUP3 LT OR ISZERO PUSH2 0x188A JUMPI PUSH2 0x188A PUSH2 0x1822 JUMP JUMPDEST PUSH1 0x40 MSTORE SWAP2 SWAP1 POP JUMP JUMPDEST PUSH1 0x0 DUP3 PUSH1 0x1F DUP4 ADD SLT PUSH2 0x18A3 JUMPI PUSH1 0x0 DUP1 REVERT JUMPDEST DUP2 CALLDATALOAD PUSH8 0xFFFFFFFFFFFFFFFF DUP2 GT ISZERO PUSH2 0x18BD JUMPI PUSH2 0x18BD PUSH2 0x1822 JUMP JUMPDEST PUSH2 0x18D0 PUSH1 0x1F DUP3 ADD PUSH1 0x1F NOT AND PUSH1 0x20 ADD PUSH2 0x1861 JUMP JUMPDEST DUP2 DUP2 MSTORE DUP5 PUSH1 0x20 DUP4 DUP7 ADD ADD GT ISZERO PUSH2 0x18E5 JUMPI PUSH1 0x0 DUP1 REVERT JUMPDEST DUP2 PUSH1 0x20 DUP6 ADD PUSH1 0x20 DUP4 ADD CALLDATACOPY PUSH1 0x0 SWAP2 DUP2 ADD PUSH1 0x20 ADD SWAP2 SWAP1 SWAP2 MSTORE SWAP4 SWAP3 POP POP POP JUMP JUMPDEST PUSH1 0x0 DUP3 PUSH1 0x1F DUP4 ADD SLT PUSH2 0x1913 JUMPI PUSH1 0x0 DUP1 REVERT JUMPDEST DUP2 CALLDATALOAD PUSH1 0x20 PUSH8 0xFFFFFFFFFFFFFFFF DUP1 DUP4 GT ISZERO PUSH2 0x1930 JUMPI PUSH2 0x1930 PUSH2 0x1822 JUMP JUMPDEST DUP3 PUSH1 0x5 SHL PUSH2 0x193F DUP4 DUP3 ADD PUSH2 0x1861 JUMP JUMPDEST SWAP4 DUP5 MSTORE DUP6 DUP2 ADD DUP4 ADD SWAP4 DUP4 DUP2 ADD SWAP1 DUP9 DUP7 GT ISZERO PUSH2 0x1959 JUMPI PUSH1 0x0 DUP1 REVERT JUMPDEST DUP5 DUP9 ADD SWAP3 POP JUMPDEST DUP6 DUP4 LT ISZERO PUSH2 0x1768 JUMPI DUP3 CALLDATALOAD DUP5 DUP2 GT ISZERO PUSH2 0x1977 JUMPI PUSH1 0x0 DUP1 DUP2 REVERT JUMPDEST DUP9 ADD PUSH1 0x80 DUP2 DUP12 SUB PUSH1 0x1F NOT ADD DUP2 SGT ISZERO PUSH2 0x198F JUMPI PUSH1 0x0 DUP1 DUP2 REVERT JUMPDEST PUSH2 0x1997 PUSH2 0x1838 JUMP JUMPDEST DUP8 DUP4 ADD CALLDATALOAD DUP8 DUP2 GT ISZERO PUSH2 0x19A9 JUMPI PUSH1 0x0 DUP1 DUP2 REVERT JUMPDEST PUSH2 0x19B7 DUP14 DUP11 DUP4 DUP8 ADD ADD PUSH2 0x1892 JUMP JUMPDEST DUP3 MSTORE POP PUSH1 0x40 DUP1 DUP5 ADD CALLDATALOAD DUP9 DUP2 GT ISZERO PUSH2 0x19CE JUMPI PUSH1 0x0 DUP1 DUP2 REVERT JUMPDEST PUSH2 0x19DC DUP15 DUP12 DUP4 DUP9 ADD ADD PUSH2 0x1892 JUMP JUMPDEST DUP11 DUP5 ADD MSTORE POP PUSH1 0x60 DUP1 DUP6 ADD CALLDATALOAD DUP1 ISZERO ISZERO DUP2 EQ PUSH2 0x19F6 JUMPI PUSH1 0x0 DUP1 DUP2 REVERT JUMPDEST DUP4 DUP4 ADD MSTORE SWAP3 DUP5 ADD CALLDATALOAD SWAP3 DUP9 DUP5 GT ISZERO PUSH2 0x1A0F JUMPI PUSH1 0x0 SWAP2 POP DUP2 DUP3 REVERT JUMPDEST PUSH2 0x1A1D DUP15 DUP12 DUP7 DUP9 ADD ADD PUSH2 0x1892 JUMP JUMPDEST SWAP1 DUP4 ADD MSTORE POP DUP5 MSTORE POP POP SWAP2 DUP5 ADD SWAP2 SWAP1 DUP5 ADD SWAP1 PUSH2 0x195F JUMP JUMPDEST PUSH1 0x0 DUP1 PUSH1 0x0 DUP1 PUSH1 0x0 PUSH1 0xA0 DUP7 DUP9 SUB SLT ISZERO PUSH2 0x1A4B JUMPI PUSH1 0x0 DUP1 REVERT JUMPDEST DUP6 CALLDATALOAD PUSH8 0xFFFFFFFFFFFFFFFF DUP1 DUP3 GT ISZERO PUSH2 0x1A63 JUMPI PUSH1 0x0 DUP1 REVERT JUMPDEST PUSH2 0x1A6F DUP10 DUP4 DUP11 ADD PUSH2 0x1892 JUMP JUMPDEST SWAP7 POP PUSH1 0x20 DUP9 ADD CALLDATALOAD SWAP2 POP DUP1 DUP3 GT ISZERO PUSH2 0x1A85 JUMPI PUSH1 0x0 DUP1 REVERT JUMPDEST PUSH2 0x1A91 DUP10 DUP4 DUP11 ADD PUSH2 0x1892 JUMP JUMPDEST SWAP6 POP PUSH1 0x40 DUP9 ADD CALLDATALOAD SWAP2 POP DUP1 DUP3 GT ISZERO PUSH2 0x1AA7 JUMPI PUSH1 0x0 DUP1 REVERT JUMPDEST PUSH2 0x1AB3 DUP10 DUP4 DUP11 ADD PUSH2 0x1892 JUMP JUMPDEST SWAP5 POP PUSH1 0x60 DUP9 ADD CALLDATALOAD SWAP2 POP DUP1 DUP3 GT ISZERO PUSH2 0x1AC9 JUMPI PUSH1 0x0 DUP1 REVERT JUMPDEST PUSH2 0x1AD5 DUP10 DUP4 DUP11 ADD PUSH2 0x1902 JUMP JUMPDEST SWAP4 POP PUSH1 0x80 DUP9 ADD CALLDATALOAD SWAP2 POP DUP1 DUP3 GT ISZERO PUSH2 0x1AEB JUMPI PUSH1 0x0 DUP1 REVERT JUMPDEST POP PUSH2 0x1AF8 DUP9 DUP3 DUP10 ADD PUSH2 0x1892 JUMP JUMPDEST SWAP2 POP POP SWAP3 SWAP6 POP SWAP3 SWAP6 SWAP1 SWAP4 POP JUMP JUMPDEST PUSH1 0x20 DUP2 MSTORE PUSH1 0x0 PUSH2 0x1B18 PUSH1 0x20 DUP4 ADD DUP5 PUSH2 0x16DB JUMP JUMPDEST SWAP4 SWAP3 POP POP POP JUMP JUMPDEST PUSH1 0x0 DUP1 PUSH1 0x0 DUP1 PUSH1 0x80 DUP6 DUP8 SUB SLT ISZERO PUSH2 0x1B35 JUMPI PUSH1 0x0 DUP1 REVERT JUMPDEST DUP5 CALLDATALOAD SWAP4 POP PUSH1 0x20 DUP6 ADD CALLDATALOAD PUSH8 0xFFFFFFFFFFFFFFFF DUP1 DUP3 GT ISZERO PUSH2 0x1B54 JUMPI PUSH1 0x0 DUP1 REVERT JUMPDEST PUSH2 0x1B60 DUP9 DUP4 DUP10 ADD PUSH2 0x1892 JUMP JUMPDEST SWAP5 POP PUSH1 0x40 DUP8 ADD CALLDATALOAD SWAP2 POP DUP1 DUP3 GT ISZERO PUSH2 0x1B76 JUMPI PUSH1 0x0 DUP1 REVERT JUMPDEST PUSH2 0x1B82 DUP9 DUP4 DUP10 ADD PUSH2 0x1892 JUMP JUMPDEST SWAP4 POP PUSH1 0x60 DUP8 ADD CALLDATALOAD SWAP2 POP DUP1 DUP3 GT ISZERO PUSH2 0x1B98 JUMPI PUSH1 0x0 DUP1 REVERT JUMPDEST POP PUSH2 0x1BA5 DUP8 DUP3 DUP9 ADD PUSH2 0x1892 JUMP JUMPDEST SWAP2 POP POP SWAP3 SWAP6 SWAP2 SWAP5 POP SWAP3 POP JUMP JUMPDEST PUSH1 0x0 DUP1 PUSH1 0x0 PUSH1 0x60 DUP5 DUP7 SUB SLT ISZERO PUSH2 0x1BC6 JUMPI PUSH1 0x0 DUP1 REVERT JUMPDEST DUP4 CALLDATALOAD PUSH8 0xFFFFFFFFFFFFFFFF DUP1 DUP3 GT ISZERO PUSH2 0x1BDE JUMPI PUSH1 0x0 DUP1 REVERT JUMPDEST PUSH2 0x1BEA DUP8 DUP4 DUP9 ADD PUSH2 0x1892 JUMP JUMPDEST SWAP5 POP PUSH1 0x20 DUP7 ADD CALLDATALOAD SWAP2 POP DUP1 DUP3 GT ISZERO PUSH2 0x1C00 JUMPI PUSH1 0x0 DUP1 REVERT JUMPDEST PUSH2 0x1C0C DUP8 DUP4 DUP9 ADD PUSH2 0x1892 JUMP JUMPDEST SWAP4 POP PUSH1 0x40 DUP7 ADD CALLDATALOAD SWAP2 POP DUP1 DUP3 GT ISZERO PUSH2 0x1C22 JUMPI PUSH1 0x0 DUP1 REVERT JUMPDEST POP PUSH2 0x1C2F DUP7 DUP3 DUP8 ADD PUSH2 0x1892 JUMP JUMPDEST SWAP2 POP POP SWAP3 POP SWAP3 POP SWAP3 JUMP JUMPDEST PUSH1 0x1 DUP2 DUP2 SHR SWAP1 DUP3 AND DUP1 PUSH2 0x1C4D JUMPI PUSH1 0x7F DUP3 AND SWAP2 POP JUMPDEST PUSH1 0x20 DUP3 LT DUP2 SUB PUSH2 0x1C6D JUMPI PUSH4 0x4E487B71 PUSH1 0xE0 SHL PUSH1 0x0 MSTORE PUSH1 0x22 PUSH1 0x4 MSTORE PUSH1 0x24 PUSH1 0x0 REVERT JUMPDEST POP SWAP2 SWAP1 POP JUMP JUMPDEST PUSH4 0x4E487B71 PUSH1 0xE0 SHL PUSH1 0x0 MSTORE PUSH1 0x11 PUSH1 0x4 MSTORE PUSH1 0x24 PUSH1 0x0 REVERT JUMPDEST DUP2 DUP2 SUB DUP2 DUP2 GT ISZERO PUSH2 0x1C9C JUMPI PUSH2 0x1C9C PUSH2 0x1C73 JUMP JUMPDEST SWAP3 SWAP2 POP POP JUMP JUMPDEST PUSH4 0x4E487B71 PUSH1 0xE0 SHL PUSH1 0x0 MSTORE PUSH1 0x32 PUSH1 0x4 MSTORE PUSH1 0x24 PUSH1 0x0 REVERT JUMPDEST PUSH1 0x0 PUSH1 0x1 DUP3 ADD PUSH2 0x1CCA JUMPI PUSH2 0x1CCA PUSH2 0x1C73 JUMP JUMPDEST POP PUSH1 0x1 ADD SWAP1 JUMP JUMPDEST PUSH1 0x1F DUP3 GT ISZERO PUSH2 0x1D1B JUMPI PUSH1 0x0 DUP2 DUP2 MSTORE PUSH1 0x20 DUP2 KECCAK256 PUSH1 0x1F DUP6 ADD PUSH1 0x5 SHR DUP2 ADD PUSH1 0x20 DUP7 LT ISZERO PUSH2 0x1CF8 JUMPI POP DUP1 JUMPDEST PUSH1 0x1F DUP6 ADD PUSH1 0x5 SHR DUP3 ADD SWAP2 POP JUMPDEST DUP2 DUP2 LT ISZERO PUSH2 0x1D17 JUMPI DUP3 DUP2 SSTORE PUSH1 0x1 ADD PUSH2 0x1D04 JUMP JUMPDEST POP POP POP JUMPDEST POP POP POP JUMP JUMPDEST DUP2 MLOAD PUSH8 0xFFFFFFFFFFFFFFFF DUP2 GT ISZERO PUSH2 0x1D3A JUMPI PUSH2 0x1D3A PUSH2 0x1822 JUMP JUMPDEST PUSH2 0x1D4E DUP2 PUSH2 0x1D48 DUP5 SLOAD PUSH2 0x1C39 JUMP JUMPDEST DUP5 PUSH2 0x1CD1 JUMP JUMPDEST PUSH1 0x20 DUP1 PUSH1 0x1F DUP4 GT PUSH1 0x1 DUP2 EQ PUSH2 0x1D83 JUMPI PUSH1 0x0 DUP5 ISZERO PUSH2 0x1D6B JUMPI POP DUP6 DUP4 ADD MLOAD JUMPDEST PUSH1 0x0 NOT PUSH1 0x3 DUP7 SWAP1 SHL SHR NOT AND PUSH1 0x1 DUP6 SWAP1 SHL OR DUP6 SSTORE PUSH2 0x1D17 JUMP JUMPDEST PUSH1 0x0 DUP6 DUP2 MSTORE PUSH1 0x20 DUP2 KECCAK256 PUSH1 0x1F NOT DUP7 AND SWAP2 JUMPDEST DUP3 DUP2 LT ISZERO PUSH2 0x1DB2 JUMPI DUP9 DUP7 ADD MLOAD DUP3 SSTORE SWAP5 DUP5 ADD SWAP5 PUSH1 0x1 SWAP1 SWAP2 ADD SWAP1 DUP5 ADD PUSH2 0x1D93 JUMP JUMPDEST POP DUP6 DUP3 LT ISZERO PUSH2 0x1DD0 JUMPI DUP8 DUP6 ADD MLOAD PUSH1 0x0 NOT PUSH1 0x3 DUP9 SWAP1 SHL PUSH1 0xF8 AND SHR NOT AND DUP2 SSTORE JUMPDEST POP POP POP POP POP PUSH1 0x1 SWAP1 DUP2 SHL ADD SWAP1 SSTORE POP JUMP JUMPDEST PUSH1 0x0 DUP3 MLOAD PUSH2 0x1DF2 DUP2 DUP5 PUSH1 0x20 DUP8 ADD PUSH2 0x16B7 JUMP JUMPDEST SWAP2 SWAP1 SWAP2 ADD SWAP3 SWAP2 POP POP JUMP JUMPDEST PUSH1 0x0 DUP1 DUP4 SLOAD PUSH2 0x1E0A DUP2 PUSH2 0x1C39 JUMP JUMPDEST PUSH1 0x1 DUP3 DUP2 AND DUP1 ISZERO PUSH2 0x1E22 JUMPI PUSH1 0x1 DUP2 EQ PUSH2 0x1E37 JUMPI PUSH2 0x1E66 JUMP JUMPDEST PUSH1 0xFF NOT DUP5 AND DUP8 MSTORE DUP3 ISZERO ISZERO DUP4 MUL DUP8 ADD SWAP5 POP PUSH2 0x1E66 JUMP JUMPDEST DUP8 PUSH1 0x0 MSTORE PUSH1 0x20 DUP1 PUSH1 0x0 KECCAK256 PUSH1 0x0 JUMPDEST DUP6 DUP2 LT ISZERO PUSH2 0x1E5D JUMPI DUP2 SLOAD DUP11 DUP3 ADD MSTORE SWAP1 DUP5 ADD SWAP1 DUP3 ADD PUSH2 0x1E44 JUMP JUMPDEST POP POP POP DUP3 DUP8 ADD SWAP5 POP JUMPDEST POP SWAP3 SWAP7 SWAP6 POP POP POP POP POP POP JUMP JUMPDEST DUP1 DUP3 ADD DUP1 DUP3 GT ISZERO PUSH2 0x1C9C JUMPI PUSH2 0x1C9C PUSH2 0x1C73 JUMP JUMPDEST DUP4 DUP2 MSTORE PUSH1 0x60 PUSH1 0x20 DUP3 ADD MSTORE PUSH1 0x0 PUSH2 0x1E9E PUSH1 0x60 DUP4 ADD DUP6 PUSH2 0x16DB JUMP JUMPDEST DUP3 DUP2 SUB PUSH1 0x40 DUP5 ADD MSTORE PUSH2 0x1EB0 DUP2 DUP6 PUSH2 0x16DB JUMP JUMPDEST SWAP7 SWAP6 POP POP POP POP POP POP JUMP JUMPDEST PUSH4 0x4E487B71 PUSH1 0xE0 SHL PUSH1 0x0 MSTORE PUSH1 0x12 PUSH1 0x4 MSTORE PUSH1 0x24 PUSH1 0x0 REVERT JUMPDEST PUSH1 0x0 DUP3 PUSH2 0x1EDF JUMPI PUSH2 0x1EDF PUSH2 0x1EBA JUMP JUMPDEST POP DIV SWAP1 JUMP JUMPDEST PUSH1 0x0 DUP3 PUSH2 0x1EF3 JUMPI PUSH2 0x1EF3 PUSH2 0x1EBA JUMP JUMPDEST POP MOD SWAP1 JUMP JUMPDEST PUSH1 0x0 DUP4 MLOAD PUSH2 0x1F0A DUP2 DUP5 PUSH1 0x20 DUP9 ADD PUSH2 0x16B7 JUMP JUMPDEST DUP4 MLOAD SWAP1 DUP4 ADD SWAP1 PUSH2 0x1F1E DUP2 DUP4 PUSH1 0x20 DUP9 ADD PUSH2 0x16B7 JUMP JUMPDEST ADD SWAP5 SWAP4 POP POP POP POP JUMP JUMPDEST PUSH1 0x0 DUP3 MLOAD PUSH2 0x1F39 DUP2 DUP5 PUSH1 0x20 DUP8 ADD PUSH2 0x16B7 JUMP JUMPDEST PUSH1 0xB PUSH1 0xFA SHL SWAP3 ADD SWAP2 DUP3 MSTORE POP PUSH1 0x1 ADD SWAP2 SWAP1 POP JUMP JUMPDEST PUSH1 0x0 DUP3 MLOAD PUSH2 0x1F5E DUP2 DUP5 PUSH1 0x20 DUP8 ADD PUSH2 0x16B7 JUMP JUMPDEST PUSH1 0x5D PUSH1 0xF8 SHL SWAP3 ADD SWAP2 DUP3 MSTORE POP PUSH1 0x1 ADD SWAP2 SWAP1 POP JUMP JUMPDEST PUSH14 0x3D91383937B532B1BA34B2111D11 PUSH1 0x91 SHL DUP2 MSTORE DUP3 MLOAD PUSH1 0x0 SWAP1 PUSH2 0x1F9B DUP2 PUSH1 0xE DUP6 ADD PUSH1 0x20 DUP9 ADD PUSH2 0x16B7 JUMP JUMPDEST PUSH11 0x1116113A34BA3632911D11 PUSH1 0xA9 SHL PUSH1 0xE SWAP2 DUP5 ADD SWAP2 DUP3 ADD MSTORE DUP4 MLOAD PUSH2 0x1FC6 DUP2 PUSH1 0x19 DUP5 ADD PUSH1 0x20 DUP9 ADD PUSH2 0x16B7 JUMP JUMPDEST PUSH11 0x222C227461736B73223A5B PUSH1 0xA8 SHL PUSH1 0x19 SWAP3 SWAP1 SWAP2 ADD SWAP2 DUP3 ADD MSTORE PUSH1 0x24 ADD SWAP5 SWAP4 POP POP POP POP JUMP JUMPDEST PUSH1 0x0 DUP3 MLOAD PUSH2 0x1FFC DUP2 DUP5 PUSH1 0x20 DUP8 ADD PUSH2 0x16B7 JUMP JUMPDEST PUSH2 0x5D7D PUSH1 0xF0 SHL SWAP3 ADD SWAP2 DUP3 MSTORE POP PUSH1 0x2 ADD SWAP2 SWAP1 POP JUMP JUMPDEST PUSH14 0x3D913A30B9B5BA34BA3632911D11 PUSH1 0x91 SHL DUP2 MSTORE DUP3 MLOAD PUSH1 0x0 SWAP1 PUSH2 0x203A DUP2 PUSH1 0xE DUP6 ADD PUSH1 0x20 DUP9 ADD PUSH2 0x16B7 JUMP JUMPDEST PUSH11 0x11161134B9B237B732911D PUSH1 0xA9 SHL PUSH1 0xE SWAP2 DUP5 ADD SWAP2 DUP3 ADD MSTORE DUP4 MLOAD PUSH2 0x2065 DUP2 PUSH1 0x19 DUP5 ADD PUSH1 0x20 DUP9 ADD PUSH2 0x16B7 JUMP JUMPDEST PUSH1 0x7D PUSH1 0xF8 SHL PUSH1 0x19 SWAP3 SWAP1 SWAP2 ADD SWAP2 DUP3 ADD MSTORE PUSH1 0x1A ADD SWAP5 SWAP4 POP POP POP POP JUMP INVALID LOG2 PUSH5 0x6970667358 0x22 SLT KECCAK256 0xBE SLOAD STATICCALL 0xC8 RETURN 0xA7 0xD0 0xAA MSTORE LOG4 SGT LOG0 MSTORE8 0xE0 PUSH20 0x7F4BEFD0DE106E4CE6B73A221193F1217F64736F PUSH13 0x63430008140033000000000000 "},"methodIdentifiers":{"Counter()":"4eeca076","addProject(string,string,string,(string,string,bool,string)[],string)":"8278cf25","addtasks(uint256,string,string,string)":"b160b1d2","finishtask(string,string,string)":"f2c9a909","getProjectTasks(uint256)":"591c564f","getfeed()":"a92a7fb7","owner()":"8da5cb5b","projects(uint256)":"107046bd","tokenaddress()":"3feff76d"}}}}}