{"contracts/TaskCon.sol":{"TaskCon":{"abi":[{"inputs":[],"stateMutability":"nonpayable","type":"constructor"},{"anonymous":false,"inputs":[{"indexed":false,"internalType":"address","name":"recipient","type":"address"},{"indexed":false,"internalType":"uint256","name":"projectid","type":"uint256"}],"name":"AddProject","type":"event"},{"inputs":[],"name":"Counter","outputs":[{"internalType":"uint256","name":"","type":"uint256"}],"stateMutability":"view","type":"function"},{"inputs":[{"internalType":"string","name":"_title","type":"string"},{"internalType":"string","name":"_description","type":"string"},{"internalType":"string","name":"_url","type":"string"},{"components":[{"internalType":"string","name":"tasktitle","type":"string"},{"internalType":"string","name":"description","type":"string"},{"internalType":"bool","name":"isdone","type":"bool"}],"internalType":"struct TaskCon.task[]","name":"_tasks","type":"tuple[]"}],"name":"addProject","outputs":[],"stateMutability":"nonpayable","type":"function"},{"inputs":[{"internalType":"uint256","name":"projectId","type":"uint256"},{"internalType":"string","name":"tasktitle","type":"string"},{"internalType":"string","name":"description","type":"string"}],"name":"addtasks","outputs":[],"stateMutability":"nonpayable","type":"function"},{"inputs":[{"internalType":"uint256","name":"projectId","type":"uint256"},{"internalType":"string","name":"tasktitle","type":"string"}],"name":"finishtask","outputs":[],"stateMutability":"nonpayable","type":"function"},{"inputs":[{"internalType":"uint256","name":"projectId","type":"uint256"}],"name":"getProjectTasks","outputs":[{"components":[{"internalType":"string","name":"tasktitle","type":"string"},{"internalType":"string","name":"description","type":"string"},{"internalType":"bool","name":"isdone","type":"bool"}],"internalType":"struct TaskCon.task[]","name":"","type":"tuple[]"}],"stateMutability":"view","type":"function"},{"inputs":[],"name":"getfeed","outputs":[{"internalType":"string","name":"","type":"string"}],"stateMutability":"view","type":"function"},{"inputs":[],"name":"owner","outputs":[{"internalType":"address","name":"","type":"address"}],"stateMutability":"view","type":"function"},{"inputs":[{"internalType":"uint256","name":"","type":"uint256"}],"name":"projects","outputs":[{"internalType":"string","name":"title","type":"string"},{"internalType":"string","name":"description","type":"string"},{"internalType":"string","name":"url","type":"string"},{"internalType":"string","name":"projectid","type":"string"}],"stateMutability":"view","type":"function"},{"inputs":[],"name":"tokenaddress","outputs":[{"internalType":"address","name":"","type":"address"}],"stateMutability":"view","type":"function"}],"evm":{"bytecode":{"linkReferences":{},"object":"608060405234801561001057600080fd5b50600080546001600160a01b03191633178155600255611b5f806100356000396000f3fe608060405234801561001057600080fd5b50600436106100935760003560e01c80638da5cb5b116100665780638da5cb5b14610126578063a92a7fb714610139578063b78543281461014e578063ba5cdd5414610163578063d95deebd1461017657600080fd5b8063107046bd146100985780633feff76d146100c45780634eeca076146100ef578063591c564f14610106575b600080fd5b6100ab6100a6366004611276565b610189565b6040516100bb94939291906112df565b60405180910390f35b6001546100d7906001600160a01b031681565b6040516001600160a01b0390911681526020016100bb565b6100f860025481565b6040519081526020016100bb565b610119610114366004611276565b6103e9565b6040516100bb9190611337565b6000546100d7906001600160a01b031681565b6101416105e3565b6040516100bb91906113ca565b61016161015c3660046114c4565b610ba8565b005b61016161017136600461150b565b610cdc565b610161610184366004611578565b610db1565b6003818154811061019957600080fd5b90600052602060002090600502016000915090508060000180546101bc9061171d565b80601f01602080910402602001604051908101604052809291908181526020018280546101e89061171d565b80156102355780601f1061020a57610100808354040283529160200191610235565b820191906000526020600020905b81548152906001019060200180831161021857829003601f168201915b50505050509080600101805461024a9061171d565b80601f01602080910402602001604051908101604052809291908181526020018280546102769061171d565b80156102c35780601f10610298576101008083540402835291602001916102c3565b820191906000526020600020905b8154815290600101906020018083116102a657829003601f168201915b5050505050908060020180546102d89061171d565b80601f01602080910402602001604051908101604052809291908181526020018280546103049061171d565b80156103515780601f1061032657610100808354040283529160200191610351565b820191906000526020600020905b81548152906001019060200180831161033457829003601f168201915b5050505050908060040180546103669061171d565b80601f01602080910402602001604051908101604052809291908181526020018280546103929061171d565b80156103df5780601f106103b4576101008083540402835291602001916103df565b820191906000526020600020905b8154815290600101906020018083116103c257829003601f168201915b5050505050905084565b60606000821180156103fd57506002548211155b6104225760405162461bcd60e51b815260040161041990611757565b60405180910390fd5b600361042f600184611799565b8154811061043f5761043f6117b2565b9060005260206000209060050201600301805480602002602001604051908101604052809291908181526020016000905b828210156105d857838290600052602060002090600302016040518060600160405290816000820180546104a39061171d565b80601f01602080910402602001604051908101604052809291908181526020018280546104cf9061171d565b801561051c5780601f106104f15761010080835404028352916020019161051c565b820191906000526020600020905b8154815290600101906020018083116104ff57829003601f168201915b505050505081526020016001820180546105359061171d565b80601f01602080910402602001604051908101604052809291908181526020018280546105619061171d565b80156105ae5780601f10610583576101008083540402835291602001916105ae565b820191906000526020600020905b81548152906001019060200180831161059157829003601f168201915b50505091835250506002919091015460ff1615156020918201529082526001929092019101610470565b505050509050919050565b60035460609060009067ffffffffffffffff811115610604576106046113e4565b60405190808252806020026020018201604052801561066757816020015b6106546040518060a0016040528060608152602001606081526020016060815260200160608152602001606081525090565b8152602001906001900390816106225790505b5090506000805b600354811015610abf576003818154811061068b5761068b6117b2565b90600052602060002090600502016040518060a00160405290816000820180546106b49061171d565b80601f01602080910402602001604051908101604052809291908181526020018280546106e09061171d565b801561072d5780601f106107025761010080835404028352916020019161072d565b820191906000526020600020905b81548152906001019060200180831161071057829003601f168201915b505050505081526020016001820180546107469061171d565b80601f01602080910402602001604051908101604052809291908181526020018280546107729061171d565b80156107bf5780601f10610794576101008083540402835291602001916107bf565b820191906000526020600020905b8154815290600101906020018083116107a257829003601f168201915b505050505081526020016002820180546107d89061171d565b80601f01602080910402602001604051908101604052809291908181526020018280546108049061171d565b80156108515780601f1061082657610100808354040283529160200191610851565b820191906000526020600020905b81548152906001019060200180831161083457829003601f168201915b5050505050815260200160038201805480602002602001604051908101604052809291908181526020016000905b828210156109e757838290600052602060002090600302016040518060600160405290816000820180546108b29061171d565b80601f01602080910402602001604051908101604052809291908181526020018280546108de9061171d565b801561092b5780601f106109005761010080835404028352916020019161092b565b820191906000526020600020905b81548152906001019060200180831161090e57829003601f168201915b505050505081526020016001820180546109449061171d565b80601f01602080910402602001604051908101604052809291908181526020018280546109709061171d565b80156109bd5780601f10610992576101008083540402835291602001916109bd565b820191906000526020600020905b8154815290600101906020018083116109a057829003601f168201915b50505091835250506002919091015460ff161515602091820152908252600192909201910161087f565b5050505081526020016004820180546109ff9061171d565b80601f0160208091040260200160405190810160405280929190818152602001828054610a2b9061171d565b8015610a785780601f10610a4d57610100808354040283529160200191610a78565b820191906000526020600020905b815481529060010190602001808311610a5b57829003601f168201915b505050505081525050838381518110610a9357610a936117b2565b60200260200101819052508180610aa9906117c8565b9250508080610ab7906117c8565b91505061066e565b5060008167ffffffffffffffff811115610adb57610adb6113e4565b604051908082528060200260200182016040528015610b3e57816020015b610b2b6040518060a0016040528060608152602001606081526020016060815260200160608152602001606081525090565b815260200190600190039081610af95790505b50905060005b82811015610b9657838181518110610b5e57610b5e6117b2565b6020026020010151828281518110610b7857610b786117b2565b60200260200101819052508080610b8e906117c8565b915050610b44565b50610ba081610f22565b935050505090565b600082118015610bba57506002548211155b610bd65760405162461bcd60e51b815260040161041990611757565b60006003610be5600185611799565b81548110610bf557610bf56117b2565b9060005260206000209060050201600301905060005b8154811015610cd65782604051602001610c2591906117e1565b60405160208183030381529060405280519060200120828281548110610c4d57610c4d6117b2565b9060005260206000209060030201600001604051602001610c6e91906117fd565b6040516020818303038152906040528051906020012003610cc4576001828281548110610c9d57610c9d6117b2565b60009182526020909120600390910201600201805460ff1916911515919091179055610cd6565b80610cce816117c8565b915050610c0b565b50505050565b600083118015610cee57506002548311155b610d0a5760405162461bcd60e51b815260040161041990611757565b60408051606081018252838152602081018390526000918101919091526003610d34600186611799565b81548110610d4457610d446117b2565b6000918252602080832060036005909302018201805460018101825590845292208351849390920201908190610d7a90826118c2565b5060208201516001820190610d8f90826118c2565b50604091909101516002909101805460ff191691151591909117905550505050565b60028054906000610dc1836117c8565b9091555050600380546001810182556000919091526005027fc2575a0e9e593c00f959f8c92f12db2869c3395a3b0502d05e2516446f71f85b0180610e0686826118c2565b5060018101610e1585826118c2565b5060028101610e2484826118c2565b50610e30600254611012565b6004820190610e3f90826118c2565b5060005b8251811015610edd576000838281518110610e6057610e606117b2565b6020908102919091018101516003808601805460018101825560009182529390208251929450849390910201908190610e9990826118c2565b5060208201516001820190610eae90826118c2565b50604091909101516002909101805460ff19169115159190911790555080610ed5816117c8565b915050610e43565b506002546040805133815260208101929092527f4a31f5ac372495eeadf90f1b0d3a4693dbb858e9f2e9730987f6d93338dc06ac910160405180910390a15050505050565b60606000604051602001610f3d90605b60f81b815260010190565b604051602081830303815290604052905060005b8351811015610fe95781610f7d858381518110610f7057610f706117b2565b602002602001015161111b565b604051602001610f8e929190611982565b604051602081830303815290604052915060018451610fad9190611799565b811015610fd75781604051602001610fc591906119b1565b60405160208183030381529060405291505b80610fe1816117c8565b915050610f51565b5080604051602001610ffb91906119d6565b60408051601f198184030181529190529392505050565b6060816000036110395750506040805180820190915260018152600360fc1b602082015290565b8160005b8115611063578061104d816117c8565b915061105c9050600a83611a11565b915061103d565b60008167ffffffffffffffff81111561107e5761107e6113e4565b6040519080825280601f01601f1916602001820160405280156110a8576020820181803683370190505b5090505b8415611113576110bd600183611799565b91506110ca600a86611a25565b6110d5906030611a39565b60f81b8183815181106110ea576110ea6117b2565b60200101906001600160f81b031916908160001a90535061110c600a86611a11565b94506110ac565b949350505050565b6060600082600001516040516020016111349190611a4c565b604051602081830303815290604052905060005b8360600151518110156111ec578161117c8560600151838151811061116f5761116f6117b2565b60200260200101516111fe565b60405160200161118d929190611982565b604051602081830303815290604052915060018460600151516111b09190611799565b8110156111da57816040516020016111c891906119b1565b60405160208183030381529060405291505b806111e4816117c8565b915050611148565b5080604051602001610ffb9190611a94565b606081600001518260400151611231576040518060400160405280600581526020016466616c736560d81b81525061124f565b604051806040016040528060048152602001637472756560e01b8152505b604051602001611260929190611aba565b6040516020818303038152906040529050919050565b60006020828403121561128857600080fd5b5035919050565b60005b838110156112aa578181015183820152602001611292565b50506000910152565b600081518084526112cb81602086016020860161128f565b601f01601f19169290920160200192915050565b6080815260006112f260808301876112b3565b828103602084015261130481876112b3565b9050828103604084015261131881866112b3565b9050828103606084015261132c81856112b3565b979650505050505050565b60006020808301818452808551808352604092508286019150828160051b87010184880160005b838110156113bc57603f19898403018552815160608151818652611384828701826112b3565b915050888201518582038a87015261139c82826112b3565b92890151151595890195909552509487019492509086019060010161135e565b509098975050505050505050565b6020815260006113dd60208301846112b3565b9392505050565b634e487b7160e01b600052604160045260246000fd5b6040516060810167ffffffffffffffff8111828210171561141d5761141d6113e4565b60405290565b604051601f8201601f1916810167ffffffffffffffff8111828210171561144c5761144c6113e4565b604052919050565b600082601f83011261146557600080fd5b813567ffffffffffffffff81111561147f5761147f6113e4565b611492601f8201601f1916602001611423565b8181528460208386010111156114a757600080fd5b816020850160208301376000918101602001919091529392505050565b600080604083850312156114d757600080fd5b82359150602083013567ffffffffffffffff8111156114f557600080fd5b61150185828601611454565b9150509250929050565b60008060006060848603121561152057600080fd5b83359250602084013567ffffffffffffffff8082111561153f57600080fd5b61154b87838801611454565b9350604086013591508082111561156157600080fd5b5061156e86828701611454565b9150509250925092565b6000806000806080858703121561158e57600080fd5b67ffffffffffffffff80863511156115a557600080fd5b6115b28787358801611454565b94506020860135818111156115c657600080fd5b6115d288828901611454565b9450506040860135818111156115e757600080fd5b6115f388828901611454565b93505060608601358181111561160857600080fd5b8601601f8101881361161957600080fd5b80358281111561162b5761162b6113e4565b61163a60208260051b01611423565b8082825260208201915060208360051b85010192508a83111561165c57600080fd5b602084015b8381101561170d57858135111561167757600080fd5b803585016060818e03601f1901121561168f57600080fd5b6116976113fa565b6020820135888111156116a957600080fd5b6116b88f602083860101611454565b8252506040820135888111156116cd57600080fd5b6116dc8f602083860101611454565b6020830152506060820135915081151582146116f757600080fd5b6040810191909152835260209283019201611661565b50979a9699509497505050505050565b600181811c9082168061173157607f821691505b60208210810361175157634e487b7160e01b600052602260045260246000fd5b50919050565b602080825260129082015271125b9d985b1a59081c1c9bda9958dd08125160721b604082015260600190565b634e487b7160e01b600052601160045260246000fd5b818103818111156117ac576117ac611783565b92915050565b634e487b7160e01b600052603260045260246000fd5b6000600182016117da576117da611783565b5060010190565b600082516117f381846020870161128f565b9190910192915050565b600080835461180b8161171d565b60018281168015611823576001811461183857611867565b60ff1984168752821515830287019450611867565b8760005260208060002060005b8581101561185e5781548a820152908401908201611845565b50505082870194505b50929695505050505050565b601f8211156118bd57600081815260208120601f850160051c8101602086101561189a5750805b601f850160051c820191505b818110156118b9578281556001016118a6565b5050505b505050565b815167ffffffffffffffff8111156118dc576118dc6113e4565b6118f0816118ea845461171d565b84611873565b602080601f831160018114611925576000841561190d5750858301515b600019600386901b1c1916600185901b1785556118b9565b600085815260208120601f198616915b8281101561195457888601518255948401946001909101908401611935565b50858210156119725787850151600019600388901b60f8161c191681555b5050505050600190811b01905550565b6000835161199481846020880161128f565b8351908301906119a881836020880161128f565b01949350505050565b600082516119c381846020870161128f565b600b60fa1b920191825250600101919050565b600082516119e881846020870161128f565b605d60f81b920191825250600101919050565b634e487b7160e01b600052601260045260246000fd5b600082611a2057611a206119fb565b500490565b600082611a3457611a346119fb565b500690565b808201808211156117ac576117ac611783565b693d913a34ba3632911d1160b11b81528151600090611a7281600a85016020870161128f565b6a222c227461736b73223a5b60a81b600a939091019283015250601501919050565b60008251611aa681846020870161128f565b615d7d60f01b920191825250600201919050565b6d3d913a30b9b5ba34ba3632911d1160911b81528251600090611ae481600e85016020880161128f565b6a11161134b9b237b732911d60a91b600e918401918201528351611b0f81601984016020880161128f565b607d60f81b60199290910191820152601a0194935050505056fea26469706673582212208acc36793326935c22af83b5d64f2ef64f69d6b09d7372edd9905ceb1d1cf1b064736f6c63430008140033","opcodes":"PUSH1 0x80 PUSH1 0x40 MSTORE CALLVALUE DUP1 ISZERO PUSH2 0x10 JUMPI PUSH1 0x0 DUP1 REVERT JUMPDEST POP PUSH1 0x0 DUP1 SLOAD PUSH1 0x1 PUSH1 0x1 PUSH1 0xA0 SHL SUB NOT AND CALLER OR DUP2 SSTORE PUSH1 0x2 SSTORE PUSH2 0x1B5F DUP1 PUSH2 0x35 PUSH1 0x0 CODECOPY PUSH1 0x0 RETURN INVALID PUSH1 0x80 PUSH1 0x40 MSTORE CALLVALUE DUP1 ISZERO PUSH2 0x10 JUMPI PUSH1 0x0 DUP1 REVERT JUMPDEST POP PUSH1 0x4 CALLDATASIZE LT PUSH2 0x93 JUMPI PUSH1 0x0 CALLDATALOAD PUSH1 0xE0 SHR DUP1 PUSH4 0x8DA5CB5B GT PUSH2 0x66 JUMPI DUP1 PUSH4 0x8DA5CB5B EQ PUSH2 0x126 JUMPI DUP1 PUSH4 0xA92A7FB7 EQ PUSH2 0x139 JUMPI DUP1 PUSH4 0xB7854328 EQ PUSH2 0x14E JUMPI DUP1 PUSH4 0xBA5CDD54 EQ PUSH2 0x163 JUMPI DUP1 PUSH4 0xD95DEEBD EQ PUSH2 0x176 JUMPI PUSH1 0x0 DUP1 REVERT JUMPDEST DUP1 PUSH4 0x107046BD EQ PUSH2 0x98 JUMPI DUP1 PUSH4 0x3FEFF76D EQ PUSH2 0xC4 JUMPI DUP1 PUSH4 0x4EECA076 EQ PUSH2 0xEF JUMPI DUP1 PUSH4 0x591C564F EQ PUSH2 0x106 JUMPI JUMPDEST PUSH1 0x0 DUP1 REVERT JUMPDEST PUSH2 0xAB PUSH2 0xA6 CALLDATASIZE PUSH1 0x4 PUSH2 0x1276 JUMP JUMPDEST PUSH2 0x189 JUMP JUMPDEST PUSH1 0x40 MLOAD PUSH2 0xBB SWAP5 SWAP4 SWAP3 SWAP2 SWAP1 PUSH2 0x12DF JUMP JUMPDEST PUSH1 0x40 MLOAD DUP1 SWAP2 SUB SWAP1 RETURN JUMPDEST PUSH1 0x1 SLOAD PUSH2 0xD7 SWAP1 PUSH1 0x1 PUSH1 0x1 PUSH1 0xA0 SHL SUB AND DUP2 JUMP JUMPDEST PUSH1 0x40 MLOAD PUSH1 0x1 PUSH1 0x1 PUSH1 0xA0 SHL SUB SWAP1 SWAP2 AND DUP2 MSTORE PUSH1 0x20 ADD PUSH2 0xBB JUMP JUMPDEST PUSH2 0xF8 PUSH1 0x2 SLOAD DUP2 JUMP JUMPDEST PUSH1 0x40 MLOAD SWAP1 DUP2 MSTORE PUSH1 0x20 ADD PUSH2 0xBB JUMP JUMPDEST PUSH2 0x119 PUSH2 0x114 CALLDATASIZE PUSH1 0x4 PUSH2 0x1276 JUMP JUMPDEST PUSH2 0x3E9 JUMP JUMPDEST PUSH1 0x40 MLOAD PUSH2 0xBB SWAP2 SWAP1 PUSH2 0x1337 JUMP JUMPDEST PUSH1 0x0 SLOAD PUSH2 0xD7 SWAP1 PUSH1 0x1 PUSH1 0x1 PUSH1 0xA0 SHL SUB AND DUP2 JUMP JUMPDEST PUSH2 0x141 PUSH2 0x5E3 JUMP JUMPDEST PUSH1 0x40 MLOAD PUSH2 0xBB SWAP2 SWAP1 PUSH2 0x13CA JUMP JUMPDEST PUSH2 0x161 PUSH2 0x15C CALLDATASIZE PUSH1 0x4 PUSH2 0x14C4 JUMP JUMPDEST PUSH2 0xBA8 JUMP JUMPDEST STOP JUMPDEST PUSH2 0x161 PUSH2 0x171 CALLDATASIZE PUSH1 0x4 PUSH2 0x150B JUMP JUMPDEST PUSH2 0xCDC JUMP JUMPDEST PUSH2 0x161 PUSH2 0x184 CALLDATASIZE PUSH1 0x4 PUSH2 0x1578 JUMP JUMPDEST PUSH2 0xDB1 JUMP JUMPDEST PUSH1 0x3 DUP2 DUP2 SLOAD DUP2 LT PUSH2 0x199 JUMPI PUSH1 0x0 DUP1 REVERT JUMPDEST SWAP1 PUSH1 0x0 MSTORE PUSH1 0x20 PUSH1 0x0 KECCAK256 SWAP1 PUSH1 0x5 MUL ADD PUSH1 0x0 SWAP2 POP SWAP1 POP DUP1 PUSH1 0x0 ADD DUP1 SLOAD PUSH2 0x1BC SWAP1 PUSH2 0x171D JUMP JUMPDEST DUP1 PUSH1 0x1F ADD PUSH1 0x20 DUP1 SWAP2 DIV MUL PUSH1 0x20 ADD PUSH1 0x40 MLOAD SWAP1 DUP2 ADD PUSH1 0x40 MSTORE DUP1 SWAP3 SWAP2 SWAP1 DUP2 DUP2 MSTORE PUSH1 0x20 ADD DUP3 DUP1 SLOAD PUSH2 0x1E8 SWAP1 PUSH2 0x171D JUMP JUMPDEST DUP1 ISZERO PUSH2 0x235 JUMPI DUP1 PUSH1 0x1F LT PUSH2 0x20A JUMPI PUSH2 0x100 DUP1 DUP4 SLOAD DIV MUL DUP4 MSTORE SWAP2 PUSH1 0x20 ADD SWAP2 PUSH2 0x235 JUMP JUMPDEST DUP3 ADD SWAP2 SWAP1 PUSH1 0x0 MSTORE PUSH1 0x20 PUSH1 0x0 KECCAK256 SWAP1 JUMPDEST DUP2 SLOAD DUP2 MSTORE SWAP1 PUSH1 0x1 ADD SWAP1 PUSH1 0x20 ADD DUP1 DUP4 GT PUSH2 0x218 JUMPI DUP3 SWAP1 SUB PUSH1 0x1F AND DUP3 ADD SWAP2 JUMPDEST POP POP POP POP POP SWAP1 DUP1 PUSH1 0x1 ADD DUP1 SLOAD PUSH2 0x24A SWAP1 PUSH2 0x171D JUMP JUMPDEST DUP1 PUSH1 0x1F ADD PUSH1 0x20 DUP1 SWAP2 DIV MUL PUSH1 0x20 ADD PUSH1 0x40 MLOAD SWAP1 DUP2 ADD PUSH1 0x40 MSTORE DUP1 SWAP3 SWAP2 SWAP1 DUP2 DUP2 MSTORE PUSH1 0x20 ADD DUP3 DUP1 SLOAD PUSH2 0x276 SWAP1 PUSH2 0x171D JUMP JUMPDEST DUP1 ISZERO PUSH2 0x2C3 JUMPI DUP1 PUSH1 0x1F LT PUSH2 0x298 JUMPI PUSH2 0x100 DUP1 DUP4 SLOAD DIV MUL DUP4 MSTORE SWAP2 PUSH1 0x20 ADD SWAP2 PUSH2 0x2C3 JUMP JUMPDEST DUP3 ADD SWAP2 SWAP1 PUSH1 0x0 MSTORE PUSH1 0x20 PUSH1 0x0 KECCAK256 SWAP1 JUMPDEST DUP2 SLOAD DUP2 MSTORE SWAP1 PUSH1 0x1 ADD SWAP1 PUSH1 0x20 ADD DUP1 DUP4 GT PUSH2 0x2A6 JUMPI DUP3 SWAP1 SUB PUSH1 0x1F AND DUP3 ADD SWAP2 JUMPDEST POP POP POP POP POP SWAP1 DUP1 PUSH1 0x2 ADD DUP1 SLOAD PUSH2 0x2D8 SWAP1 PUSH2 0x171D JUMP JUMPDEST DUP1 PUSH1 0x1F ADD PUSH1 0x20 DUP1 SWAP2 DIV MUL PUSH1 0x20 ADD PUSH1 0x40 MLOAD SWAP1 DUP2 ADD PUSH1 0x40 MSTORE DUP1 SWAP3 SWAP2 SWAP1 DUP2 DUP2 MSTORE PUSH1 0x20 ADD DUP3 DUP1 SLOAD PUSH2 0x304 SWAP1 PUSH2 0x171D JUMP JUMPDEST DUP1 ISZERO PUSH2 0x351 JUMPI DUP1 PUSH1 0x1F LT PUSH2 0x326 JUMPI PUSH2 0x100 DUP1 DUP4 SLOAD DIV MUL DUP4 MSTORE SWAP2 PUSH1 0x20 ADD SWAP2 PUSH2 0x351 JUMP JUMPDEST DUP3 ADD SWAP2 SWAP1 PUSH1 0x0 MSTORE PUSH1 0x20 PUSH1 0x0 KECCAK256 SWAP1 JUMPDEST DUP2 SLOAD DUP2 MSTORE SWAP1 PUSH1 0x1 ADD SWAP1 PUSH1 0x20 ADD DUP1 DUP4 GT PUSH2 0x334 JUMPI DUP3 SWAP1 SUB PUSH1 0x1F AND DUP3 ADD SWAP2 JUMPDEST POP POP POP POP POP SWAP1 DUP1 PUSH1 0x4 ADD DUP1 SLOAD PUSH2 0x366 SWAP1 PUSH2 0x171D JUMP JUMPDEST DUP1 PUSH1 0x1F ADD PUSH1 0x20 DUP1 SWAP2 DIV MUL PUSH1 0x20 ADD PUSH1 0x40 MLOAD SWAP1 DUP2 ADD PUSH1 0x40 MSTORE DUP1 SWAP3 SWAP2 SWAP1 DUP2 DUP2 MSTORE PUSH1 0x20 ADD DUP3 DUP1 SLOAD PUSH2 0x392 SWAP1 PUSH2 0x171D JUMP JUMPDEST DUP1 ISZERO PUSH2 0x3DF JUMPI DUP1 PUSH1 0x1F LT PUSH2 0x3B4 JUMPI PUSH2 0x100 DUP1 DUP4 SLOAD DIV MUL DUP4 MSTORE SWAP2 PUSH1 0x20 ADD SWAP2 PUSH2 0x3DF JUMP JUMPDEST DUP3 ADD SWAP2 SWAP1 PUSH1 0x0 MSTORE PUSH1 0x20 PUSH1 0x0 KECCAK256 SWAP1 JUMPDEST DUP2 SLOAD DUP2 MSTORE SWAP1 PUSH1 0x1 ADD SWAP1 PUSH1 0x20 ADD DUP1 DUP4 GT PUSH2 0x3C2 JUMPI DUP3 SWAP1 SUB PUSH1 0x1F AND DUP3 ADD SWAP2 JUMPDEST POP POP POP POP POP SWAP1 POP DUP5 JUMP JUMPDEST PUSH1 0x60 PUSH1 0x0 DUP3 GT DUP1 ISZERO PUSH2 0x3FD JUMPI POP PUSH1 0x2 SLOAD DUP3 GT ISZERO JUMPDEST PUSH2 0x422 JUMPI PUSH1 0x40 MLOAD PUSH3 0x461BCD PUSH1 0xE5 SHL DUP2 MSTORE PUSH1 0x4 ADD PUSH2 0x419 SWAP1 PUSH2 0x1757 JUMP JUMPDEST PUSH1 0x40 MLOAD DUP1 SWAP2 SUB SWAP1 REVERT JUMPDEST PUSH1 0x3 PUSH2 0x42F PUSH1 0x1 DUP5 PUSH2 0x1799 JUMP JUMPDEST DUP2 SLOAD DUP2 LT PUSH2 0x43F JUMPI PUSH2 0x43F PUSH2 0x17B2 JUMP JUMPDEST SWAP1 PUSH1 0x0 MSTORE PUSH1 0x20 PUSH1 0x0 KECCAK256 SWAP1 PUSH1 0x5 MUL ADD PUSH1 0x3 ADD DUP1 SLOAD DUP1 PUSH1 0x20 MUL PUSH1 0x20 ADD PUSH1 0x40 MLOAD SWAP1 DUP2 ADD PUSH1 0x40 MSTORE DUP1 SWAP3 SWAP2 SWAP1 DUP2 DUP2 MSTORE PUSH1 0x20 ADD PUSH1 0x0 SWAP1 JUMPDEST DUP3 DUP3 LT ISZERO PUSH2 0x5D8 JUMPI DUP4 DUP3 SWAP1 PUSH1 0x0 MSTORE PUSH1 0x20 PUSH1 0x0 KECCAK256 SWAP1 PUSH1 0x3 MUL ADD PUSH1 0x40 MLOAD DUP1 PUSH1 0x60 ADD PUSH1 0x40 MSTORE SWAP1 DUP2 PUSH1 0x0 DUP3 ADD DUP1 SLOAD PUSH2 0x4A3 SWAP1 PUSH2 0x171D JUMP JUMPDEST DUP1 PUSH1 0x1F ADD PUSH1 0x20 DUP1 SWAP2 DIV MUL PUSH1 0x20 ADD PUSH1 0x40 MLOAD SWAP1 DUP2 ADD PUSH1 0x40 MSTORE DUP1 SWAP3 SWAP2 SWAP1 DUP2 DUP2 MSTORE PUSH1 0x20 ADD DUP3 DUP1 SLOAD PUSH2 0x4CF SWAP1 PUSH2 0x171D JUMP JUMPDEST DUP1 ISZERO PUSH2 0x51C JUMPI DUP1 PUSH1 0x1F LT PUSH2 0x4F1 JUMPI PUSH2 0x100 DUP1 DUP4 SLOAD DIV MUL DUP4 MSTORE SWAP2 PUSH1 0x20 ADD SWAP2 PUSH2 0x51C JUMP JUMPDEST DUP3 ADD SWAP2 SWAP1 PUSH1 0x0 MSTORE PUSH1 0x20 PUSH1 0x0 KECCAK256 SWAP1 JUMPDEST DUP2 SLOAD DUP2 MSTORE SWAP1 PUSH1 0x1 ADD SWAP1 PUSH1 0x20 ADD DUP1 DUP4 GT PUSH2 0x4FF JUMPI DUP3 SWAP1 SUB PUSH1 0x1F AND DUP3 ADD SWAP2 JUMPDEST POP POP POP POP POP DUP2 MSTORE PUSH1 0x20 ADD PUSH1 0x1 DUP3 ADD DUP1 SLOAD PUSH2 0x535 SWAP1 PUSH2 0x171D JUMP JUMPDEST DUP1 PUSH1 0x1F ADD PUSH1 0x20 DUP1 SWAP2 DIV MUL PUSH1 0x20 ADD PUSH1 0x40 MLOAD SWAP1 DUP2 ADD PUSH1 0x40 MSTORE DUP1 SWAP3 SWAP2 SWAP1 DUP2 DUP2 MSTORE PUSH1 0x20 ADD DUP3 DUP1 SLOAD PUSH2 0x561 SWAP1 PUSH2 0x171D JUMP JUMPDEST DUP1 ISZERO PUSH2 0x5AE JUMPI DUP1 PUSH1 0x1F LT PUSH2 0x583 JUMPI PUSH2 0x100 DUP1 DUP4 SLOAD DIV MUL DUP4 MSTORE SWAP2 PUSH1 0x20 ADD SWAP2 PUSH2 0x5AE JUMP JUMPDEST DUP3 ADD SWAP2 SWAP1 PUSH1 0x0 MSTORE PUSH1 0x20 PUSH1 0x0 KECCAK256 SWAP1 JUMPDEST DUP2 SLOAD DUP2 MSTORE SWAP1 PUSH1 0x1 ADD SWAP1 PUSH1 0x20 ADD DUP1 DUP4 GT PUSH2 0x591 JUMPI DUP3 SWAP1 SUB PUSH1 0x1F AND DUP3 ADD SWAP2 JUMPDEST POP POP POP SWAP2 DUP4 MSTORE POP POP PUSH1 0x2 SWAP2 SWAP1 SWAP2 ADD SLOAD PUSH1 0xFF AND ISZERO ISZERO PUSH1 0x20 SWAP2 DUP3 ADD MSTORE SWAP1 DUP3 MSTORE PUSH1 0x1 SWAP3 SWAP1 SWAP3 ADD SWAP2 ADD PUSH2 0x470 JUMP JUMPDEST POP POP POP POP SWAP1 POP SWAP2 SWAP1 POP JUMP JUMPDEST PUSH1 0x3 SLOAD PUSH1 0x60 SWAP1 PUSH1 0x0 SWAP1 PUSH8 0xFFFFFFFFFFFFFFFF DUP2 GT ISZERO PUSH2 0x604 JUMPI PUSH2 0x604 PUSH2 0x13E4 JUMP JUMPDEST PUSH1 0x40 MLOAD SWAP1 DUP1 DUP3 MSTORE DUP1 PUSH1 0x20 MUL PUSH1 0x20 ADD DUP3 ADD PUSH1 0x40 MSTORE DUP1 ISZERO PUSH2 0x667 JUMPI DUP2 PUSH1 0x20 ADD JUMPDEST PUSH2 0x654 PUSH1 0x40 MLOAD DUP1 PUSH1 0xA0 ADD PUSH1 0x40 MSTORE DUP1 PUSH1 0x60 DUP2 MSTORE PUSH1 0x20 ADD PUSH1 0x60 DUP2 MSTORE PUSH1 0x20 ADD PUSH1 0x60 DUP2 MSTORE PUSH1 0x20 ADD PUSH1 0x60 DUP2 MSTORE PUSH1 0x20 ADD PUSH1 0x60 DUP2 MSTORE POP SWAP1 JUMP JUMPDEST DUP2 MSTORE PUSH1 0x20 ADD SWAP1 PUSH1 0x1 SWAP1 SUB SWAP1 DUP2 PUSH2 0x622 JUMPI SWAP1 POP JUMPDEST POP SWAP1 POP PUSH1 0x0 DUP1 JUMPDEST PUSH1 0x3 SLOAD DUP2 LT ISZERO PUSH2 0xABF JUMPI PUSH1 0x3 DUP2 DUP2 SLOAD DUP2 LT PUSH2 0x68B JUMPI PUSH2 0x68B PUSH2 0x17B2 JUMP JUMPDEST SWAP1 PUSH1 0x0 MSTORE PUSH1 0x20 PUSH1 0x0 KECCAK256 SWAP1 PUSH1 0x5 MUL ADD PUSH1 0x40 MLOAD DUP1 PUSH1 0xA0 ADD PUSH1 0x40 MSTORE SWAP1 DUP2 PUSH1 0x0 DUP3 ADD DUP1 SLOAD PUSH2 0x6B4 SWAP1 PUSH2 0x171D JUMP JUMPDEST DUP1 PUSH1 0x1F ADD PUSH1 0x20 DUP1 SWAP2 DIV MUL PUSH1 0x20 ADD PUSH1 0x40 MLOAD SWAP1 DUP2 ADD PUSH1 0x40 MSTORE DUP1 SWAP3 SWAP2 SWAP1 DUP2 DUP2 MSTORE PUSH1 0x20 ADD DUP3 DUP1 SLOAD PUSH2 0x6E0 SWAP1 PUSH2 0x171D JUMP JUMPDEST DUP1 ISZERO PUSH2 0x72D JUMPI DUP1 PUSH1 0x1F LT PUSH2 0x702 JUMPI PUSH2 0x100 DUP1 DUP4 SLOAD DIV MUL DUP4 MSTORE SWAP2 PUSH1 0x20 ADD SWAP2 PUSH2 0x72D JUMP JUMPDEST DUP3 ADD SWAP2 SWAP1 PUSH1 0x0 MSTORE PUSH1 0x20 PUSH1 0x0 KECCAK256 SWAP1 JUMPDEST DUP2 SLOAD DUP2 MSTORE SWAP1 PUSH1 0x1 ADD SWAP1 PUSH1 0x20 ADD DUP1 DUP4 GT PUSH2 0x710 JUMPI DUP3 SWAP1 SUB PUSH1 0x1F AND DUP3 ADD SWAP2 JUMPDEST POP POP POP POP POP DUP2 MSTORE PUSH1 0x20 ADD PUSH1 0x1 DUP3 ADD DUP1 SLOAD PUSH2 0x746 SWAP1 PUSH2 0x171D JUMP JUMPDEST DUP1 PUSH1 0x1F ADD PUSH1 0x20 DUP1 SWAP2 DIV MUL PUSH1 0x20 ADD PUSH1 0x40 MLOAD SWAP1 DUP2 ADD PUSH1 0x40 MSTORE DUP1 SWAP3 SWAP2 SWAP1 DUP2 DUP2 MSTORE PUSH1 0x20 ADD DUP3 DUP1 SLOAD PUSH2 0x772 SWAP1 PUSH2 0x171D JUMP JUMPDEST DUP1 ISZERO PUSH2 0x7BF JUMPI DUP1 PUSH1 0x1F LT PUSH2 0x794 JUMPI PUSH2 0x100 DUP1 DUP4 SLOAD DIV MUL DUP4 MSTORE SWAP2 PUSH1 0x20 ADD SWAP2 PUSH2 0x7BF JUMP JUMPDEST DUP3 ADD SWAP2 SWAP1 PUSH1 0x0 MSTORE PUSH1 0x20 PUSH1 0x0 KECCAK256 SWAP1 JUMPDEST DUP2 SLOAD DUP2 MSTORE SWAP1 PUSH1 0x1 ADD SWAP1 PUSH1 0x20 ADD DUP1 DUP4 GT PUSH2 0x7A2 JUMPI DUP3 SWAP1 SUB PUSH1 0x1F AND DUP3 ADD SWAP2 JUMPDEST POP POP POP POP POP DUP2 MSTORE PUSH1 0x20 ADD PUSH1 0x2 DUP3 ADD DUP1 SLOAD PUSH2 0x7D8 SWAP1 PUSH2 0x171D JUMP JUMPDEST DUP1 PUSH1 0x1F ADD PUSH1 0x20 DUP1 SWAP2 DIV MUL PUSH1 0x20 ADD PUSH1 0x40 MLOAD SWAP1 DUP2 ADD PUSH1 0x40 MSTORE DUP1 SWAP3 SWAP2 SWAP1 DUP2 DUP2 MSTORE PUSH1 0x20 ADD DUP3 DUP1 SLOAD PUSH2 0x804 SWAP1 PUSH2 0x171D JUMP JUMPDEST DUP1 ISZERO PUSH2 0x851 JUMPI DUP1 PUSH1 0x1F LT PUSH2 0x826 JUMPI PUSH2 0x100 DUP1 DUP4 SLOAD DIV MUL DUP4 MSTORE SWAP2 PUSH1 0x20 ADD SWAP2 PUSH2 0x851 JUMP JUMPDEST DUP3 ADD SWAP2 SWAP1 PUSH1 0x0 MSTORE PUSH1 0x20 PUSH1 0x0 KECCAK256 SWAP1 JUMPDEST DUP2 SLOAD DUP2 MSTORE SWAP1 PUSH1 0x1 ADD SWAP1 PUSH1 0x20 ADD DUP1 DUP4 GT PUSH2 0x834 JUMPI DUP3 SWAP1 SUB PUSH1 0x1F AND DUP3 ADD SWAP2 JUMPDEST POP POP POP POP POP DUP2 MSTORE PUSH1 0x20 ADD PUSH1 0x3 DUP3 ADD DUP1 SLOAD DUP1 PUSH1 0x20 MUL PUSH1 0x20 ADD PUSH1 0x40 MLOAD SWAP1 DUP2 ADD PUSH1 0x40 MSTORE DUP1 SWAP3 SWAP2 SWAP1 DUP2 DUP2 MSTORE PUSH1 0x20 ADD PUSH1 0x0 SWAP1 JUMPDEST DUP3 DUP3 LT ISZERO PUSH2 0x9E7 JUMPI DUP4 DUP3 SWAP1 PUSH1 0x0 MSTORE PUSH1 0x20 PUSH1 0x0 KECCAK256 SWAP1 PUSH1 0x3 MUL ADD PUSH1 0x40 MLOAD DUP1 PUSH1 0x60 ADD PUSH1 0x40 MSTORE SWAP1 DUP2 PUSH1 0x0 DUP3 ADD DUP1 SLOAD PUSH2 0x8B2 SWAP1 PUSH2 0x171D JUMP JUMPDEST DUP1 PUSH1 0x1F ADD PUSH1 0x20 DUP1 SWAP2 DIV MUL PUSH1 0x20 ADD PUSH1 0x40 MLOAD SWAP1 DUP2 ADD PUSH1 0x40 MSTORE DUP1 SWAP3 SWAP2 SWAP1 DUP2 DUP2 MSTORE PUSH1 0x20 ADD DUP3 DUP1 SLOAD PUSH2 0x8DE SWAP1 PUSH2 0x171D JUMP JUMPDEST DUP1 ISZERO PUSH2 0x92B JUMPI DUP1 PUSH1 0x1F LT PUSH2 0x900 JUMPI PUSH2 0x100 DUP1 DUP4 SLOAD DIV MUL DUP4 MSTORE SWAP2 PUSH1 0x20 ADD SWAP2 PUSH2 0x92B JUMP JUMPDEST DUP3 ADD SWAP2 SWAP1 PUSH1 0x0 MSTORE PUSH1 0x20 PUSH1 0x0 KECCAK256 SWAP1 JUMPDEST DUP2 SLOAD DUP2 MSTORE SWAP1 PUSH1 0x1 ADD SWAP1 PUSH1 0x20 ADD DUP1 DUP4 GT PUSH2 0x90E JUMPI DUP3 SWAP1 SUB PUSH1 0x1F AND DUP3 ADD SWAP2 JUMPDEST POP POP POP POP POP DUP2 MSTORE PUSH1 0x20 ADD PUSH1 0x1 DUP3 ADD DUP1 SLOAD PUSH2 0x944 SWAP1 PUSH2 0x171D JUMP JUMPDEST DUP1 PUSH1 0x1F ADD PUSH1 0x20 DUP1 SWAP2 DIV MUL PUSH1 0x20 ADD PUSH1 0x40 MLOAD SWAP1 DUP2 ADD PUSH1 0x40 MSTORE DUP1 SWAP3 SWAP2 SWAP1 DUP2 DUP2 MSTORE PUSH1 0x20 ADD DUP3 DUP1 SLOAD PUSH2 0x970 SWAP1 PUSH2 0x171D JUMP JUMPDEST DUP1 ISZERO PUSH2 0x9BD JUMPI DUP1 PUSH1 0x1F LT PUSH2 0x992 JUMPI PUSH2 0x100 DUP1 DUP4 SLOAD DIV MUL DUP4 MSTORE SWAP2 PUSH1 0x20 ADD SWAP2 PUSH2 0x9BD JUMP JUMPDEST DUP3 ADD SWAP2 SWAP1 PUSH1 0x0 MSTORE PUSH1 0x20 PUSH1 0x0 KECCAK256 SWAP1 JUMPDEST DUP2 SLOAD DUP2 MSTORE SWAP1 PUSH1 0x1 ADD SWAP1 PUSH1 0x20 ADD DUP1 DUP4 GT PUSH2 0x9A0 JUMPI DUP3 SWAP1 SUB PUSH1 0x1F AND DUP3 ADD SWAP2 JUMPDEST POP POP POP SWAP2 DUP4 MSTORE POP POP PUSH1 0x2 SWAP2 SWAP1 SWAP2 ADD SLOAD PUSH1 0xFF AND ISZERO ISZERO PUSH1 0x20 SWAP2 DUP3 ADD MSTORE SWAP1 DUP3 MSTORE PUSH1 0x1 SWAP3 SWAP1 SWAP3 ADD SWAP2 ADD PUSH2 0x87F JUMP JUMPDEST POP POP POP POP DUP2 MSTORE PUSH1 0x20 ADD PUSH1 0x4 DUP3 ADD DUP1 SLOAD PUSH2 0x9FF SWAP1 PUSH2 0x171D JUMP JUMPDEST DUP1 PUSH1 0x1F ADD PUSH1 0x20 DUP1 SWAP2 DIV MUL PUSH1 0x20 ADD PUSH1 0x40 MLOAD SWAP1 DUP2 ADD PUSH1 0x40 MSTORE DUP1 SWAP3 SWAP2 SWAP1 DUP2 DUP2 MSTORE PUSH1 0x20 ADD DUP3 DUP1 SLOAD PUSH2 0xA2B SWAP1 PUSH2 0x171D JUMP JUMPDEST DUP1 ISZERO PUSH2 0xA78 JUMPI DUP1 PUSH1 0x1F LT PUSH2 0xA4D JUMPI PUSH2 0x100 DUP1 DUP4 SLOAD DIV MUL DUP4 MSTORE SWAP2 PUSH1 0x20 ADD SWAP2 PUSH2 0xA78 JUMP JUMPDEST DUP3 ADD SWAP2 SWAP1 PUSH1 0x0 MSTORE PUSH1 0x20 PUSH1 0x0 KECCAK256 SWAP1 JUMPDEST DUP2 SLOAD DUP2 MSTORE SWAP1 PUSH1 0x1 ADD SWAP1 PUSH1 0x20 ADD DUP1 DUP4 GT PUSH2 0xA5B JUMPI DUP3 SWAP1 SUB PUSH1 0x1F AND DUP3 ADD SWAP2 JUMPDEST POP POP POP POP POP DUP2 MSTORE POP POP DUP4 DUP4 DUP2 MLOAD DUP2 LT PUSH2 0xA93 JUMPI PUSH2 0xA93 PUSH2 0x17B2 JUMP JUMPDEST PUSH1 0x20 MUL PUSH1 0x20 ADD ADD DUP2 SWAP1 MSTORE POP DUP2 DUP1 PUSH2 0xAA9 SWAP1 PUSH2 0x17C8 JUMP JUMPDEST SWAP3 POP POP DUP1 DUP1 PUSH2 0xAB7 SWAP1 PUSH2 0x17C8 JUMP JUMPDEST SWAP2 POP POP PUSH2 0x66E JUMP JUMPDEST POP PUSH1 0x0 DUP2 PUSH8 0xFFFFFFFFFFFFFFFF DUP2 GT ISZERO PUSH2 0xADB JUMPI PUSH2 0xADB PUSH2 0x13E4 JUMP JUMPDEST PUSH1 0x40 MLOAD SWAP1 DUP1 DUP3 MSTORE DUP1 PUSH1 0x20 MUL PUSH1 0x20 ADD DUP3 ADD PUSH1 0x40 MSTORE DUP1 ISZERO PUSH2 0xB3E JUMPI DUP2 PUSH1 0x20 ADD JUMPDEST PUSH2 0xB2B PUSH1 0x40 MLOAD DUP1 PUSH1 0xA0 ADD PUSH1 0x40 MSTORE DUP1 PUSH1 0x60 DUP2 MSTORE PUSH1 0x20 ADD PUSH1 0x60 DUP2 MSTORE PUSH1 0x20 ADD PUSH1 0x60 DUP2 MSTORE PUSH1 0x20 ADD PUSH1 0x60 DUP2 MSTORE PUSH1 0x20 ADD PUSH1 0x60 DUP2 MSTORE POP SWAP1 JUMP JUMPDEST DUP2 MSTORE PUSH1 0x20 ADD SWAP1 PUSH1 0x1 SWAP1 SUB SWAP1 DUP2 PUSH2 0xAF9 JUMPI SWAP1 POP JUMPDEST POP SWAP1 POP PUSH1 0x0 JUMPDEST DUP3 DUP2 LT ISZERO PUSH2 0xB96 JUMPI DUP4 DUP2 DUP2 MLOAD DUP2 LT PUSH2 0xB5E JUMPI PUSH2 0xB5E PUSH2 0x17B2 JUMP JUMPDEST PUSH1 0x20 MUL PUSH1 0x20 ADD ADD MLOAD DUP3 DUP3 DUP2 MLOAD DUP2 LT PUSH2 0xB78 JUMPI PUSH2 0xB78 PUSH2 0x17B2 JUMP JUMPDEST PUSH1 0x20 MUL PUSH1 0x20 ADD ADD DUP2 SWAP1 MSTORE POP DUP1 DUP1 PUSH2 0xB8E SWAP1 PUSH2 0x17C8 JUMP JUMPDEST SWAP2 POP POP PUSH2 0xB44 JUMP JUMPDEST POP PUSH2 0xBA0 DUP2 PUSH2 0xF22 JUMP JUMPDEST SWAP4 POP POP POP POP SWAP1 JUMP JUMPDEST PUSH1 0x0 DUP3 GT DUP1 ISZERO PUSH2 0xBBA JUMPI POP PUSH1 0x2 SLOAD DUP3 GT ISZERO JUMPDEST PUSH2 0xBD6 JUMPI PUSH1 0x40 MLOAD PUSH3 0x461BCD PUSH1 0xE5 SHL DUP2 MSTORE PUSH1 0x4 ADD PUSH2 0x419 SWAP1 PUSH2 0x1757 JUMP JUMPDEST PUSH1 0x0 PUSH1 0x3 PUSH2 0xBE5 PUSH1 0x1 DUP6 PUSH2 0x1799 JUMP JUMPDEST DUP2 SLOAD DUP2 LT PUSH2 0xBF5 JUMPI PUSH2 0xBF5 PUSH2 0x17B2 JUMP JUMPDEST SWAP1 PUSH1 0x0 MSTORE PUSH1 0x20 PUSH1 0x0 KECCAK256 SWAP1 PUSH1 0x5 MUL ADD PUSH1 0x3 ADD SWAP1 POP PUSH1 0x0 JUMPDEST DUP2 SLOAD DUP2 LT ISZERO PUSH2 0xCD6 JUMPI DUP3 PUSH1 0x40 MLOAD PUSH1 0x20 ADD PUSH2 0xC25 SWAP2 SWAP1 PUSH2 0x17E1 JUMP JUMPDEST PUSH1 0x40 MLOAD PUSH1 0x20 DUP2 DUP4 SUB SUB DUP2 MSTORE SWAP1 PUSH1 0x40 MSTORE DUP1 MLOAD SWAP1 PUSH1 0x20 ADD KECCAK256 DUP3 DUP3 DUP2 SLOAD DUP2 LT PUSH2 0xC4D JUMPI PUSH2 0xC4D PUSH2 0x17B2 JUMP JUMPDEST SWAP1 PUSH1 0x0 MSTORE PUSH1 0x20 PUSH1 0x0 KECCAK256 SWAP1 PUSH1 0x3 MUL ADD PUSH1 0x0 ADD PUSH1 0x40 MLOAD PUSH1 0x20 ADD PUSH2 0xC6E SWAP2 SWAP1 PUSH2 0x17FD JUMP JUMPDEST PUSH1 0x40 MLOAD PUSH1 0x20 DUP2 DUP4 SUB SUB DUP2 MSTORE SWAP1 PUSH1 0x40 MSTORE DUP1 MLOAD SWAP1 PUSH1 0x20 ADD KECCAK256 SUB PUSH2 0xCC4 JUMPI PUSH1 0x1 DUP3 DUP3 DUP2 SLOAD DUP2 LT PUSH2 0xC9D JUMPI PUSH2 0xC9D PUSH2 0x17B2 JUMP JUMPDEST PUSH1 0x0 SWAP2 DUP3 MSTORE PUSH1 0x20 SWAP1 SWAP2 KECCAK256 PUSH1 0x3 SWAP1 SWAP2 MUL ADD PUSH1 0x2 ADD DUP1 SLOAD PUSH1 0xFF NOT AND SWAP2 ISZERO ISZERO SWAP2 SWAP1 SWAP2 OR SWAP1 SSTORE PUSH2 0xCD6 JUMP JUMPDEST DUP1 PUSH2 0xCCE DUP2 PUSH2 0x17C8 JUMP JUMPDEST SWAP2 POP POP PUSH2 0xC0B JUMP JUMPDEST POP POP POP POP JUMP JUMPDEST PUSH1 0x0 DUP4 GT DUP1 ISZERO PUSH2 0xCEE JUMPI POP PUSH1 0x2 SLOAD DUP4 GT ISZERO JUMPDEST PUSH2 0xD0A JUMPI PUSH1 0x40 MLOAD PUSH3 0x461BCD PUSH1 0xE5 SHL DUP2 MSTORE PUSH1 0x4 ADD PUSH2 0x419 SWAP1 PUSH2 0x1757 JUMP JUMPDEST PUSH1 0x40 DUP1 MLOAD PUSH1 0x60 DUP2 ADD DUP3 MSTORE DUP4 DUP2 MSTORE PUSH1 0x20 DUP2 ADD DUP4 SWAP1 MSTORE PUSH1 0x0 SWAP2 DUP2 ADD SWAP2 SWAP1 SWAP2 MSTORE PUSH1 0x3 PUSH2 0xD34 PUSH1 0x1 DUP7 PUSH2 0x1799 JUMP JUMPDEST DUP2 SLOAD DUP2 LT PUSH2 0xD44 JUMPI PUSH2 0xD44 PUSH2 0x17B2 JUMP JUMPDEST PUSH1 0x0 SWAP2 DUP3 MSTORE PUSH1 0x20 DUP1 DUP4 KECCAK256 PUSH1 0x3 PUSH1 0x5 SWAP1 SWAP4 MUL ADD DUP3 ADD DUP1 SLOAD PUSH1 0x1 DUP2 ADD DUP3 SSTORE SWAP1 DUP5 MSTORE SWAP3 KECCAK256 DUP4 MLOAD DUP5 SWAP4 SWAP1 SWAP3 MUL ADD SWAP1 DUP2 SWAP1 PUSH2 0xD7A SWAP1 DUP3 PUSH2 0x18C2 JUMP JUMPDEST POP PUSH1 0x20 DUP3 ADD MLOAD PUSH1 0x1 DUP3 ADD SWAP1 PUSH2 0xD8F SWAP1 DUP3 PUSH2 0x18C2 JUMP JUMPDEST POP PUSH1 0x40 SWAP2 SWAP1 SWAP2 ADD MLOAD PUSH1 0x2 SWAP1 SWAP2 ADD DUP1 SLOAD PUSH1 0xFF NOT AND SWAP2 ISZERO ISZERO SWAP2 SWAP1 SWAP2 OR SWAP1 SSTORE POP POP POP POP JUMP JUMPDEST PUSH1 0x2 DUP1 SLOAD SWAP1 PUSH1 0x0 PUSH2 0xDC1 DUP4 PUSH2 0x17C8 JUMP JUMPDEST SWAP1 SWAP2 SSTORE POP POP PUSH1 0x3 DUP1 SLOAD PUSH1 0x1 DUP2 ADD DUP3 SSTORE PUSH1 0x0 SWAP2 SWAP1 SWAP2 MSTORE PUSH1 0x5 MUL PUSH32 0xC2575A0E9E593C00F959F8C92F12DB2869C3395A3B0502D05E2516446F71F85B ADD DUP1 PUSH2 0xE06 DUP7 DUP3 PUSH2 0x18C2 JUMP JUMPDEST POP PUSH1 0x1 DUP2 ADD PUSH2 0xE15 DUP6 DUP3 PUSH2 0x18C2 JUMP JUMPDEST POP PUSH1 0x2 DUP2 ADD PUSH2 0xE24 DUP5 DUP3 PUSH2 0x18C2 JUMP JUMPDEST POP PUSH2 0xE30 PUSH1 0x2 SLOAD PUSH2 0x1012 JUMP JUMPDEST PUSH1 0x4 DUP3 ADD SWAP1 PUSH2 0xE3F SWAP1 DUP3 PUSH2 0x18C2 JUMP JUMPDEST POP PUSH1 0x0 JUMPDEST DUP3 MLOAD DUP2 LT ISZERO PUSH2 0xEDD JUMPI PUSH1 0x0 DUP4 DUP3 DUP2 MLOAD DUP2 LT PUSH2 0xE60 JUMPI PUSH2 0xE60 PUSH2 0x17B2 JUMP JUMPDEST PUSH1 0x20 SWAP1 DUP2 MUL SWAP2 SWAP1 SWAP2 ADD DUP2 ADD MLOAD PUSH1 0x3 DUP1 DUP7 ADD DUP1 SLOAD PUSH1 0x1 DUP2 ADD DUP3 SSTORE PUSH1 0x0 SWAP2 DUP3 MSTORE SWAP4 SWAP1 KECCAK256 DUP3 MLOAD SWAP3 SWAP5 POP DUP5 SWAP4 SWAP1 SWAP2 MUL ADD SWAP1 DUP2 SWAP1 PUSH2 0xE99 SWAP1 DUP3 PUSH2 0x18C2 JUMP JUMPDEST POP PUSH1 0x20 DUP3 ADD MLOAD PUSH1 0x1 DUP3 ADD SWAP1 PUSH2 0xEAE SWAP1 DUP3 PUSH2 0x18C2 JUMP JUMPDEST POP PUSH1 0x40 SWAP2 SWAP1 SWAP2 ADD MLOAD PUSH1 0x2 SWAP1 SWAP2 ADD DUP1 SLOAD PUSH1 0xFF NOT AND SWAP2 ISZERO ISZERO SWAP2 SWAP1 SWAP2 OR SWAP1 SSTORE POP DUP1 PUSH2 0xED5 DUP2 PUSH2 0x17C8 JUMP JUMPDEST SWAP2 POP POP PUSH2 0xE43 JUMP JUMPDEST POP PUSH1 0x2 SLOAD PUSH1 0x40 DUP1 MLOAD CALLER DUP2 MSTORE PUSH1 0x20 DUP2 ADD SWAP3 SWAP1 SWAP3 MSTORE PUSH32 0x4A31F5AC372495EEADF90F1B0D3A4693DBB858E9F2E9730987F6D93338DC06AC SWAP2 ADD PUSH1 0x40 MLOAD DUP1 SWAP2 SUB SWAP1 LOG1 POP POP POP POP POP JUMP JUMPDEST PUSH1 0x60 PUSH1 0x0 PUSH1 0x40 MLOAD PUSH1 0x20 ADD PUSH2 0xF3D SWAP1 PUSH1 0x5B PUSH1 0xF8 SHL DUP2 MSTORE PUSH1 0x1 ADD SWAP1 JUMP JUMPDEST PUSH1 0x40 MLOAD PUSH1 0x20 DUP2 DUP4 SUB SUB DUP2 MSTORE SWAP1 PUSH1 0x40 MSTORE SWAP1 POP PUSH1 0x0 JUMPDEST DUP4 MLOAD DUP2 LT ISZERO PUSH2 0xFE9 JUMPI DUP2 PUSH2 0xF7D DUP6 DUP4 DUP2 MLOAD DUP2 LT PUSH2 0xF70 JUMPI PUSH2 0xF70 PUSH2 0x17B2 JUMP JUMPDEST PUSH1 0x20 MUL PUSH1 0x20 ADD ADD MLOAD PUSH2 0x111B JUMP JUMPDEST PUSH1 0x40 MLOAD PUSH1 0x20 ADD PUSH2 0xF8E SWAP3 SWAP2 SWAP1 PUSH2 0x1982 JUMP JUMPDEST PUSH1 0x40 MLOAD PUSH1 0x20 DUP2 DUP4 SUB SUB DUP2 MSTORE SWAP1 PUSH1 0x40 MSTORE SWAP2 POP PUSH1 0x1 DUP5 MLOAD PUSH2 0xFAD SWAP2 SWAP1 PUSH2 0x1799 JUMP JUMPDEST DUP2 LT ISZERO PUSH2 0xFD7 JUMPI DUP2 PUSH1 0x40 MLOAD PUSH1 0x20 ADD PUSH2 0xFC5 SWAP2 SWAP1 PUSH2 0x19B1 JUMP JUMPDEST PUSH1 0x40 MLOAD PUSH1 0x20 DUP2 DUP4 SUB SUB DUP2 MSTORE SWAP1 PUSH1 0x40 MSTORE SWAP2 POP JUMPDEST DUP1 PUSH2 0xFE1 DUP2 PUSH2 0x17C8 JUMP JUMPDEST SWAP2 POP POP PUSH2 0xF51 JUMP JUMPDEST POP DUP1 PUSH1 0x40 MLOAD PUSH1 0x20 ADD PUSH2 0xFFB SWAP2 SWAP1 PUSH2 0x19D6 JUMP JUMPDEST PUSH1 0x40 DUP1 MLOAD PUSH1 0x1F NOT DUP2 DUP5 SUB ADD DUP2 MSTORE SWAP2 SWAP1 MSTORE SWAP4 SWAP3 POP POP POP JUMP JUMPDEST PUSH1 0x60 DUP2 PUSH1 0x0 SUB PUSH2 0x1039 JUMPI POP POP PUSH1 0x40 DUP1 MLOAD DUP1 DUP3 ADD SWAP1 SWAP2 MSTORE PUSH1 0x1 DUP2 MSTORE PUSH1 0x3 PUSH1 0xFC SHL PUSH1 0x20 DUP3 ADD MSTORE SWAP1 JUMP JUMPDEST DUP2 PUSH1 0x0 JUMPDEST DUP2 ISZERO PUSH2 0x1063 JUMPI DUP1 PUSH2 0x104D DUP2 PUSH2 0x17C8 JUMP JUMPDEST SWAP2 POP PUSH2 0x105C SWAP1 POP PUSH1 0xA DUP4 PUSH2 0x1A11 JUMP JUMPDEST SWAP2 POP PUSH2 0x103D JUMP JUMPDEST PUSH1 0x0 DUP2 PUSH8 0xFFFFFFFFFFFFFFFF DUP2 GT ISZERO PUSH2 0x107E JUMPI PUSH2 0x107E PUSH2 0x13E4 JUMP JUMPDEST PUSH1 0x40 MLOAD SWAP1 DUP1 DUP3 MSTORE DUP1 PUSH1 0x1F ADD PUSH1 0x1F NOT AND PUSH1 0x20 ADD DUP3 ADD PUSH1 0x40 MSTORE DUP1 ISZERO PUSH2 0x10A8 JUMPI PUSH1 0x20 DUP3 ADD DUP2 DUP1 CALLDATASIZE DUP4 CALLDATACOPY ADD SWAP1 POP JUMPDEST POP SWAP1 POP JUMPDEST DUP5 ISZERO PUSH2 0x1113 JUMPI PUSH2 0x10BD PUSH1 0x1 DUP4 PUSH2 0x1799 JUMP JUMPDEST SWAP2 POP PUSH2 0x10CA PUSH1 0xA DUP7 PUSH2 0x1A25 JUMP JUMPDEST PUSH2 0x10D5 SWAP1 PUSH1 0x30 PUSH2 0x1A39 JUMP JUMPDEST PUSH1 0xF8 SHL DUP2 DUP4 DUP2 MLOAD DUP2 LT PUSH2 0x10EA JUMPI PUSH2 0x10EA PUSH2 0x17B2 JUMP JUMPDEST PUSH1 0x20 ADD ADD SWAP1 PUSH1 0x1 PUSH1 0x1 PUSH1 0xF8 SHL SUB NOT AND SWAP1 DUP2 PUSH1 0x0 BYTE SWAP1 MSTORE8 POP PUSH2 0x110C PUSH1 0xA DUP7 PUSH2 0x1A11 JUMP JUMPDEST SWAP5 POP PUSH2 0x10AC JUMP JUMPDEST SWAP5 SWAP4 POP POP POP POP JUMP JUMPDEST PUSH1 0x60 PUSH1 0x0 DUP3 PUSH1 0x0 ADD MLOAD PUSH1 0x40 MLOAD PUSH1 0x20 ADD PUSH2 0x1134 SWAP2 SWAP1 PUSH2 0x1A4C JUMP JUMPDEST PUSH1 0x40 MLOAD PUSH1 0x20 DUP2 DUP4 SUB SUB DUP2 MSTORE SWAP1 PUSH1 0x40 MSTORE SWAP1 POP PUSH1 0x0 JUMPDEST DUP4 PUSH1 0x60 ADD MLOAD MLOAD DUP2 LT ISZERO PUSH2 0x11EC JUMPI DUP2 PUSH2 0x117C DUP6 PUSH1 0x60 ADD MLOAD DUP4 DUP2 MLOAD DUP2 LT PUSH2 0x116F JUMPI PUSH2 0x116F PUSH2 0x17B2 JUMP JUMPDEST PUSH1 0x20 MUL PUSH1 0x20 ADD ADD MLOAD PUSH2 0x11FE JUMP JUMPDEST PUSH1 0x40 MLOAD PUSH1 0x20 ADD PUSH2 0x118D SWAP3 SWAP2 SWAP1 PUSH2 0x1982 JUMP JUMPDEST PUSH1 0x40 MLOAD PUSH1 0x20 DUP2 DUP4 SUB SUB DUP2 MSTORE SWAP1 PUSH1 0x40 MSTORE SWAP2 POP PUSH1 0x1 DUP5 PUSH1 0x60 ADD MLOAD MLOAD PUSH2 0x11B0 SWAP2 SWAP1 PUSH2 0x1799 JUMP JUMPDEST DUP2 LT ISZERO PUSH2 0x11DA JUMPI DUP2 PUSH1 0x40 MLOAD PUSH1 0x20 ADD PUSH2 0x11C8 SWAP2 SWAP1 PUSH2 0x19B1 JUMP JUMPDEST PUSH1 0x40 MLOAD PUSH1 0x20 DUP2 DUP4 SUB SUB DUP2 MSTORE SWAP1 PUSH1 0x40 MSTORE SWAP2 POP JUMPDEST DUP1 PUSH2 0x11E4 DUP2 PUSH2 0x17C8 JUMP JUMPDEST SWAP2 POP POP PUSH2 0x1148 JUMP JUMPDEST POP DUP1 PUSH1 0x40 MLOAD PUSH1 0x20 ADD PUSH2 0xFFB SWAP2 SWAP1 PUSH2 0x1A94 JUMP JUMPDEST PUSH1 0x60 DUP2 PUSH1 0x0 ADD MLOAD DUP3 PUSH1 0x40 ADD MLOAD PUSH2 0x1231 JUMPI PUSH1 0x40 MLOAD DUP1 PUSH1 0x40 ADD PUSH1 0x40 MSTORE DUP1 PUSH1 0x5 DUP2 MSTORE PUSH1 0x20 ADD PUSH5 0x66616C7365 PUSH1 0xD8 SHL DUP2 MSTORE POP PUSH2 0x124F JUMP JUMPDEST PUSH1 0x40 MLOAD DUP1 PUSH1 0x40 ADD PUSH1 0x40 MSTORE DUP1 PUSH1 0x4 DUP2 MSTORE PUSH1 0x20 ADD PUSH4 0x74727565 PUSH1 0xE0 SHL DUP2 MSTORE POP JUMPDEST PUSH1 0x40 MLOAD PUSH1 0x20 ADD PUSH2 0x1260 SWAP3 SWAP2 SWAP1 PUSH2 0x1ABA JUMP JUMPDEST PUSH1 0x40 MLOAD PUSH1 0x20 DUP2 DUP4 SUB SUB DUP2 MSTORE SWAP1 PUSH1 0x40 MSTORE SWAP1 POP SWAP2 SWAP1 POP JUMP JUMPDEST PUSH1 0x0 PUSH1 0x20 DUP3 DUP5 SUB SLT ISZERO PUSH2 0x1288 JUMPI PUSH1 0x0 DUP1 REVERT JUMPDEST POP CALLDATALOAD SWAP2 SWAP1 POP JUMP JUMPDEST PUSH1 0x0 JUMPDEST DUP4 DUP2 LT ISZERO PUSH2 0x12AA JUMPI DUP2 DUP2 ADD MLOAD DUP4 DUP3 ADD MSTORE PUSH1 0x20 ADD PUSH2 0x1292 JUMP JUMPDEST POP POP PUSH1 0x0 SWAP2 ADD MSTORE JUMP JUMPDEST PUSH1 0x0 DUP2 MLOAD DUP1 DUP5 MSTORE PUSH2 0x12CB DUP2 PUSH1 0x20 DUP7 ADD PUSH1 0x20 DUP7 ADD PUSH2 0x128F JUMP JUMPDEST PUSH1 0x1F ADD PUSH1 0x1F NOT AND SWAP3 SWAP1 SWAP3 ADD PUSH1 0x20 ADD SWAP3 SWAP2 POP POP JUMP JUMPDEST PUSH1 0x80 DUP2 MSTORE PUSH1 0x0 PUSH2 0x12F2 PUSH1 0x80 DUP4 ADD DUP8 PUSH2 0x12B3 JUMP JUMPDEST DUP3 DUP2 SUB PUSH1 0x20 DUP5 ADD MSTORE PUSH2 0x1304 DUP2 DUP8 PUSH2 0x12B3 JUMP JUMPDEST SWAP1 POP DUP3 DUP2 SUB PUSH1 0x40 DUP5 ADD MSTORE PUSH2 0x1318 DUP2 DUP7 PUSH2 0x12B3 JUMP JUMPDEST SWAP1 POP DUP3 DUP2 SUB PUSH1 0x60 DUP5 ADD MSTORE PUSH2 0x132C DUP2 DUP6 PUSH2 0x12B3 JUMP JUMPDEST SWAP8 SWAP7 POP POP POP POP POP POP POP JUMP JUMPDEST PUSH1 0x0 PUSH1 0x20 DUP1 DUP4 ADD DUP2 DUP5 MSTORE DUP1 DUP6 MLOAD DUP1 DUP4 MSTORE PUSH1 0x40 SWAP3 POP DUP3 DUP7 ADD SWAP2 POP DUP3 DUP2 PUSH1 0x5 SHL DUP8 ADD ADD DUP5 DUP9 ADD PUSH1 0x0 JUMPDEST DUP4 DUP2 LT ISZERO PUSH2 0x13BC JUMPI PUSH1 0x3F NOT DUP10 DUP5 SUB ADD DUP6 MSTORE DUP2 MLOAD PUSH1 0x60 DUP2 MLOAD DUP2 DUP7 MSTORE PUSH2 0x1384 DUP3 DUP8 ADD DUP3 PUSH2 0x12B3 JUMP JUMPDEST SWAP2 POP POP DUP9 DUP3 ADD MLOAD DUP6 DUP3 SUB DUP11 DUP8 ADD MSTORE PUSH2 0x139C DUP3 DUP3 PUSH2 0x12B3 JUMP JUMPDEST SWAP3 DUP10 ADD MLOAD ISZERO ISZERO SWAP6 DUP10 ADD SWAP6 SWAP1 SWAP6 MSTORE POP SWAP5 DUP8 ADD SWAP5 SWAP3 POP SWAP1 DUP7 ADD SWAP1 PUSH1 0x1 ADD PUSH2 0x135E JUMP JUMPDEST POP SWAP1 SWAP9 SWAP8 POP POP POP POP POP POP POP POP JUMP JUMPDEST PUSH1 0x20 DUP2 MSTORE PUSH1 0x0 PUSH2 0x13DD PUSH1 0x20 DUP4 ADD DUP5 PUSH2 0x12B3 JUMP JUMPDEST SWAP4 SWAP3 POP POP POP JUMP JUMPDEST PUSH4 0x4E487B71 PUSH1 0xE0 SHL PUSH1 0x0 MSTORE PUSH1 0x41 PUSH1 0x4 MSTORE PUSH1 0x24 PUSH1 0x0 REVERT JUMPDEST PUSH1 0x40 MLOAD PUSH1 0x60 DUP2 ADD PUSH8 0xFFFFFFFFFFFFFFFF DUP2 GT DUP3 DUP3 LT OR ISZERO PUSH2 0x141D JUMPI PUSH2 0x141D PUSH2 0x13E4 JUMP JUMPDEST PUSH1 0x40 MSTORE SWAP1 JUMP JUMPDEST PUSH1 0x40 MLOAD PUSH1 0x1F DUP3 ADD PUSH1 0x1F NOT AND DUP2 ADD PUSH8 0xFFFFFFFFFFFFFFFF DUP2 GT DUP3 DUP3 LT OR ISZERO PUSH2 0x144C JUMPI PUSH2 0x144C PUSH2 0x13E4 JUMP JUMPDEST PUSH1 0x40 MSTORE SWAP2 SWAP1 POP JUMP JUMPDEST PUSH1 0x0 DUP3 PUSH1 0x1F DUP4 ADD SLT PUSH2 0x1465 JUMPI PUSH1 0x0 DUP1 REVERT JUMPDEST DUP2 CALLDATALOAD PUSH8 0xFFFFFFFFFFFFFFFF DUP2 GT ISZERO PUSH2 0x147F JUMPI PUSH2 0x147F PUSH2 0x13E4 JUMP JUMPDEST PUSH2 0x1492 PUSH1 0x1F DUP3 ADD PUSH1 0x1F NOT AND PUSH1 0x20 ADD PUSH2 0x1423 JUMP JUMPDEST DUP2 DUP2 MSTORE DUP5 PUSH1 0x20 DUP4 DUP7 ADD ADD GT ISZERO PUSH2 0x14A7 JUMPI PUSH1 0x0 DUP1 REVERT JUMPDEST DUP2 PUSH1 0x20 DUP6 ADD PUSH1 0x20 DUP4 ADD CALLDATACOPY PUSH1 0x0 SWAP2 DUP2 ADD PUSH1 0x20 ADD SWAP2 SWAP1 SWAP2 MSTORE SWAP4 SWAP3 POP POP POP JUMP JUMPDEST PUSH1 0x0 DUP1 PUSH1 0x40 DUP4 DUP6 SUB SLT ISZERO PUSH2 0x14D7 JUMPI PUSH1 0x0 DUP1 REVERT JUMPDEST DUP3 CALLDATALOAD SWAP2 POP PUSH1 0x20 DUP4 ADD CALLDATALOAD PUSH8 0xFFFFFFFFFFFFFFFF DUP2 GT ISZERO PUSH2 0x14F5 JUMPI PUSH1 0x0 DUP1 REVERT JUMPDEST PUSH2 0x1501 DUP6 DUP3 DUP7 ADD PUSH2 0x1454 JUMP JUMPDEST SWAP2 POP POP SWAP3 POP SWAP3 SWAP1 POP JUMP JUMPDEST PUSH1 0x0 DUP1 PUSH1 0x0 PUSH1 0x60 DUP5 DUP7 SUB SLT ISZERO PUSH2 0x1520 JUMPI PUSH1 0x0 DUP1 REVERT JUMPDEST DUP4 CALLDATALOAD SWAP3 POP PUSH1 0x20 DUP5 ADD CALLDATALOAD PUSH8 0xFFFFFFFFFFFFFFFF DUP1 DUP3 GT ISZERO PUSH2 0x153F JUMPI PUSH1 0x0 DUP1 REVERT JUMPDEST PUSH2 0x154B DUP8 DUP4 DUP9 ADD PUSH2 0x1454 JUMP JUMPDEST SWAP4 POP PUSH1 0x40 DUP7 ADD CALLDATALOAD SWAP2 POP DUP1 DUP3 GT ISZERO PUSH2 0x1561 JUMPI PUSH1 0x0 DUP1 REVERT JUMPDEST POP PUSH2 0x156E DUP7 DUP3 DUP8 ADD PUSH2 0x1454 JUMP JUMPDEST SWAP2 POP POP SWAP3 POP SWAP3 POP SWAP3 JUMP JUMPDEST PUSH1 0x0 DUP1 PUSH1 0x0 DUP1 PUSH1 0x80 DUP6 DUP8 SUB SLT ISZERO PUSH2 0x158E JUMPI PUSH1 0x0 DUP1 REVERT JUMPDEST PUSH8 0xFFFFFFFFFFFFFFFF DUP1 DUP7 CALLDATALOAD GT ISZERO PUSH2 0x15A5 JUMPI PUSH1 0x0 DUP1 REVERT JUMPDEST PUSH2 0x15B2 DUP8 DUP8 CALLDATALOAD DUP9 ADD PUSH2 0x1454 JUMP JUMPDEST SWAP5 POP PUSH1 0x20 DUP7 ADD CALLDATALOAD DUP2 DUP2 GT ISZERO PUSH2 0x15C6 JUMPI PUSH1 0x0 DUP1 REVERT JUMPDEST PUSH2 0x15D2 DUP9 DUP3 DUP10 ADD PUSH2 0x1454 JUMP JUMPDEST SWAP5 POP POP PUSH1 0x40 DUP7 ADD CALLDATALOAD DUP2 DUP2 GT ISZERO PUSH2 0x15E7 JUMPI PUSH1 0x0 DUP1 REVERT JUMPDEST PUSH2 0x15F3 DUP9 DUP3 DUP10 ADD PUSH2 0x1454 JUMP JUMPDEST SWAP4 POP POP PUSH1 0x60 DUP7 ADD CALLDATALOAD DUP2 DUP2 GT ISZERO PUSH2 0x1608 JUMPI PUSH1 0x0 DUP1 REVERT JUMPDEST DUP7 ADD PUSH1 0x1F DUP2 ADD DUP9 SGT PUSH2 0x1619 JUMPI PUSH1 0x0 DUP1 REVERT JUMPDEST DUP1 CALLDATALOAD DUP3 DUP2 GT ISZERO PUSH2 0x162B JUMPI PUSH2 0x162B PUSH2 0x13E4 JUMP JUMPDEST PUSH2 0x163A PUSH1 0x20 DUP3 PUSH1 0x5 SHL ADD PUSH2 0x1423 JUMP JUMPDEST DUP1 DUP3 DUP3 MSTORE PUSH1 0x20 DUP3 ADD SWAP2 POP PUSH1 0x20 DUP4 PUSH1 0x5 SHL DUP6 ADD ADD SWAP3 POP DUP11 DUP4 GT ISZERO PUSH2 0x165C JUMPI PUSH1 0x0 DUP1 REVERT JUMPDEST PUSH1 0x20 DUP5 ADD JUMPDEST DUP4 DUP2 LT ISZERO PUSH2 0x170D JUMPI DUP6 DUP2 CALLDATALOAD GT ISZERO PUSH2 0x1677 JUMPI PUSH1 0x0 DUP1 REVERT JUMPDEST DUP1 CALLDATALOAD DUP6 ADD PUSH1 0x60 DUP2 DUP15 SUB PUSH1 0x1F NOT ADD SLT ISZERO PUSH2 0x168F JUMPI PUSH1 0x0 DUP1 REVERT JUMPDEST PUSH2 0x1697 PUSH2 0x13FA JUMP JUMPDEST PUSH1 0x20 DUP3 ADD CALLDATALOAD DUP9 DUP2 GT ISZERO PUSH2 0x16A9 JUMPI PUSH1 0x0 DUP1 REVERT JUMPDEST PUSH2 0x16B8 DUP16 PUSH1 0x20 DUP4 DUP7 ADD ADD PUSH2 0x1454 JUMP JUMPDEST DUP3 MSTORE POP PUSH1 0x40 DUP3 ADD CALLDATALOAD DUP9 DUP2 GT ISZERO PUSH2 0x16CD JUMPI PUSH1 0x0 DUP1 REVERT JUMPDEST PUSH2 0x16DC DUP16 PUSH1 0x20 DUP4 DUP7 ADD ADD PUSH2 0x1454 JUMP JUMPDEST PUSH1 0x20 DUP4 ADD MSTORE POP PUSH1 0x60 DUP3 ADD CALLDATALOAD SWAP2 POP DUP2 ISZERO ISZERO DUP3 EQ PUSH2 0x16F7 JUMPI PUSH1 0x0 DUP1 REVERT JUMPDEST PUSH1 0x40 DUP2 ADD SWAP2 SWAP1 SWAP2 MSTORE DUP4 MSTORE PUSH1 0x20 SWAP3 DUP4 ADD SWAP3 ADD PUSH2 0x1661 JUMP JUMPDEST POP SWAP8 SWAP11 SWAP7 SWAP10 POP SWAP5 SWAP8 POP POP POP POP POP POP JUMP JUMPDEST PUSH1 0x1 DUP2 DUP2 SHR SWAP1 DUP3 AND DUP1 PUSH2 0x1731 JUMPI PUSH1 0x7F DUP3 AND SWAP2 POP JUMPDEST PUSH1 0x20 DUP3 LT DUP2 SUB PUSH2 0x1751 JUMPI PUSH4 0x4E487B71 PUSH1 0xE0 SHL PUSH1 0x0 MSTORE PUSH1 0x22 PUSH1 0x4 MSTORE PUSH1 0x24 PUSH1 0x0 REVERT JUMPDEST POP SWAP2 SWAP1 POP JUMP JUMPDEST PUSH1 0x20 DUP1 DUP3 MSTORE PUSH1 0x12 SWAP1 DUP3 ADD MSTORE PUSH18 0x125B9D985B1A59081C1C9BDA9958DD081251 PUSH1 0x72 SHL PUSH1 0x40 DUP3 ADD MSTORE PUSH1 0x60 ADD SWAP1 JUMP JUMPDEST PUSH4 0x4E487B71 PUSH1 0xE0 SHL PUSH1 0x0 MSTORE PUSH1 0x11 PUSH1 0x4 MSTORE PUSH1 0x24 PUSH1 0x0 REVERT JUMPDEST DUP2 DUP2 SUB DUP2 DUP2 GT ISZERO PUSH2 0x17AC JUMPI PUSH2 0x17AC PUSH2 0x1783 JUMP JUMPDEST SWAP3 SWAP2 POP POP JUMP JUMPDEST PUSH4 0x4E487B71 PUSH1 0xE0 SHL PUSH1 0x0 MSTORE PUSH1 0x32 PUSH1 0x4 MSTORE PUSH1 0x24 PUSH1 0x0 REVERT JUMPDEST PUSH1 0x0 PUSH1 0x1 DUP3 ADD PUSH2 0x17DA JUMPI PUSH2 0x17DA PUSH2 0x1783 JUMP JUMPDEST POP PUSH1 0x1 ADD SWAP1 JUMP JUMPDEST PUSH1 0x0 DUP3 MLOAD PUSH2 0x17F3 DUP2 DUP5 PUSH1 0x20 DUP8 ADD PUSH2 0x128F JUMP JUMPDEST SWAP2 SWAP1 SWAP2 ADD SWAP3 SWAP2 POP POP JUMP JUMPDEST PUSH1 0x0 DUP1 DUP4 SLOAD PUSH2 0x180B DUP2 PUSH2 0x171D JUMP JUMPDEST PUSH1 0x1 DUP3 DUP2 AND DUP1 ISZERO PUSH2 0x1823 JUMPI PUSH1 0x1 DUP2 EQ PUSH2 0x1838 JUMPI PUSH2 0x1867 JUMP JUMPDEST PUSH1 0xFF NOT DUP5 AND DUP8 MSTORE DUP3 ISZERO ISZERO DUP4 MUL DUP8 ADD SWAP5 POP PUSH2 0x1867 JUMP JUMPDEST DUP8 PUSH1 0x0 MSTORE PUSH1 0x20 DUP1 PUSH1 0x0 KECCAK256 PUSH1 0x0 JUMPDEST DUP6 DUP2 LT ISZERO PUSH2 0x185E JUMPI DUP2 SLOAD DUP11 DUP3 ADD MSTORE SWAP1 DUP5 ADD SWAP1 DUP3 ADD PUSH2 0x1845 JUMP JUMPDEST POP POP POP DUP3 DUP8 ADD SWAP5 POP JUMPDEST POP SWAP3 SWAP7 SWAP6 POP POP POP POP POP POP JUMP JUMPDEST PUSH1 0x1F DUP3 GT ISZERO PUSH2 0x18BD JUMPI PUSH1 0x0 DUP2 DUP2 MSTORE PUSH1 0x20 DUP2 KECCAK256 PUSH1 0x1F DUP6 ADD PUSH1 0x5 SHR DUP2 ADD PUSH1 0x20 DUP7 LT ISZERO PUSH2 0x189A JUMPI POP DUP1 JUMPDEST PUSH1 0x1F DUP6 ADD PUSH1 0x5 SHR DUP3 ADD SWAP2 POP JUMPDEST DUP2 DUP2 LT ISZERO PUSH2 0x18B9 JUMPI DUP3 DUP2 SSTORE PUSH1 0x1 ADD PUSH2 0x18A6 JUMP JUMPDEST POP POP POP JUMPDEST POP POP POP JUMP JUMPDEST DUP2 MLOAD PUSH8 0xFFFFFFFFFFFFFFFF DUP2 GT ISZERO PUSH2 0x18DC JUMPI PUSH2 0x18DC PUSH2 0x13E4 JUMP JUMPDEST PUSH2 0x18F0 DUP2 PUSH2 0x18EA DUP5 SLOAD PUSH2 0x171D JUMP JUMPDEST DUP5 PUSH2 0x1873 JUMP JUMPDEST PUSH1 0x20 DUP1 PUSH1 0x1F DUP4 GT PUSH1 0x1 DUP2 EQ PUSH2 0x1925 JUMPI PUSH1 0x0 DUP5 ISZERO PUSH2 0x190D JUMPI POP DUP6 DUP4 ADD MLOAD JUMPDEST PUSH1 0x0 NOT PUSH1 0x3 DUP7 SWAP1 SHL SHR NOT AND PUSH1 0x1 DUP6 SWAP1 SHL OR DUP6 SSTORE PUSH2 0x18B9 JUMP JUMPDEST PUSH1 0x0 DUP6 DUP2 MSTORE PUSH1 0x20 DUP2 KECCAK256 PUSH1 0x1F NOT DUP7 AND SWAP2 JUMPDEST DUP3 DUP2 LT ISZERO PUSH2 0x1954 JUMPI DUP9 DUP7 ADD MLOAD DUP3 SSTORE SWAP5 DUP5 ADD SWAP5 PUSH1 0x1 SWAP1 SWAP2 ADD SWAP1 DUP5 ADD PUSH2 0x1935 JUMP JUMPDEST POP DUP6 DUP3 LT ISZERO PUSH2 0x1972 JUMPI DUP8 DUP6 ADD MLOAD PUSH1 0x0 NOT PUSH1 0x3 DUP9 SWAP1 SHL PUSH1 0xF8 AND SHR NOT AND DUP2 SSTORE JUMPDEST POP POP POP POP POP PUSH1 0x1 SWAP1 DUP2 SHL ADD SWAP1 SSTORE POP JUMP JUMPDEST PUSH1 0x0 DUP4 MLOAD PUSH2 0x1994 DUP2 DUP5 PUSH1 0x20 DUP9 ADD PUSH2 0x128F JUMP JUMPDEST DUP4 MLOAD SWAP1 DUP4 ADD SWAP1 PUSH2 0x19A8 DUP2 DUP4 PUSH1 0x20 DUP9 ADD PUSH2 0x128F JUMP JUMPDEST ADD SWAP5 SWAP4 POP POP POP POP JUMP JUMPDEST PUSH1 0x0 DUP3 MLOAD PUSH2 0x19C3 DUP2 DUP5 PUSH1 0x20 DUP8 ADD PUSH2 0x128F JUMP JUMPDEST PUSH1 0xB PUSH1 0xFA SHL SWAP3 ADD SWAP2 DUP3 MSTORE POP PUSH1 0x1 ADD SWAP2 SWAP1 POP JUMP JUMPDEST PUSH1 0x0 DUP3 MLOAD PUSH2 0x19E8 DUP2 DUP5 PUSH1 0x20 DUP8 ADD PUSH2 0x128F JUMP JUMPDEST PUSH1 0x5D PUSH1 0xF8 SHL SWAP3 ADD SWAP2 DUP3 MSTORE POP PUSH1 0x1 ADD SWAP2 SWAP1 POP JUMP JUMPDEST PUSH4 0x4E487B71 PUSH1 0xE0 SHL PUSH1 0x0 MSTORE PUSH1 0x12 PUSH1 0x4 MSTORE PUSH1 0x24 PUSH1 0x0 REVERT JUMPDEST PUSH1 0x0 DUP3 PUSH2 0x1A20 JUMPI PUSH2 0x1A20 PUSH2 0x19FB JUMP JUMPDEST POP DIV SWAP1 JUMP JUMPDEST PUSH1 0x0 DUP3 PUSH2 0x1A34 JUMPI PUSH2 0x1A34 PUSH2 0x19FB JUMP JUMPDEST POP MOD SWAP1 JUMP JUMPDEST DUP1 DUP3 ADD DUP1 DUP3 GT ISZERO PUSH2 0x17AC JUMPI PUSH2 0x17AC PUSH2 0x1783 JUMP JUMPDEST PUSH10 0x3D913A34BA3632911D11 PUSH1 0xB1 SHL DUP2 MSTORE DUP2 MLOAD PUSH1 0x0 SWAP1 PUSH2 0x1A72 DUP2 PUSH1 0xA DUP6 ADD PUSH1 0x20 DUP8 ADD PUSH2 0x128F JUMP JUMPDEST PUSH11 0x222C227461736B73223A5B PUSH1 0xA8 SHL PUSH1 0xA SWAP4 SWAP1 SWAP2 ADD SWAP3 DUP4 ADD MSTORE POP PUSH1 0x15 ADD SWAP2 SWAP1 POP JUMP JUMPDEST PUSH1 0x0 DUP3 MLOAD PUSH2 0x1AA6 DUP2 DUP5 PUSH1 0x20 DUP8 ADD PUSH2 0x128F JUMP JUMPDEST PUSH2 0x5D7D PUSH1 0xF0 SHL SWAP3 ADD SWAP2 DUP3 MSTORE POP PUSH1 0x2 ADD SWAP2 SWAP1 POP JUMP JUMPDEST PUSH14 0x3D913A30B9B5BA34BA3632911D11 PUSH1 0x91 SHL DUP2 MSTORE DUP3 MLOAD PUSH1 0x0 SWAP1 PUSH2 0x1AE4 DUP2 PUSH1 0xE DUP6 ADD PUSH1 0x20 DUP9 ADD PUSH2 0x128F JUMP JUMPDEST PUSH11 0x11161134B9B237B732911D PUSH1 0xA9 SHL PUSH1 0xE SWAP2 DUP5 ADD SWAP2 DUP3 ADD MSTORE DUP4 MLOAD PUSH2 0x1B0F DUP2 PUSH1 0x19 DUP5 ADD PUSH1 0x20 DUP9 ADD PUSH2 0x128F JUMP JUMPDEST PUSH1 0x7D PUSH1 0xF8 SHL PUSH1 0x19 SWAP3 SWAP1 SWAP2 ADD SWAP2 DUP3 ADD MSTORE PUSH1 0x1A ADD SWAP5 SWAP4 POP POP POP POP JUMP INVALID LOG2 PUSH5 0x6970667358 0x22 SLT KECCAK256 DUP11 0xCC CALLDATASIZE PUSH26 0x3326935C22AF83B5D64F2EF64F69D6B09D7372EDD9905CEB1D1C CALL 0xB0 PUSH5 0x736F6C6343 STOP ADDMOD EQ STOP CALLER "},"methodIdentifiers":{"Counter()":"4eeca076","addProject(string,string,string,(string,string,bool)[])":"d95deebd","addtasks(uint256,string,string)":"ba5cdd54","finishtask(uint256,string)":"b7854328","getProjectTasks(uint256)":"591c564f","getfeed()":"a92a7fb7","owner()":"8da5cb5b","projects(uint256)":"107046bd","tokenaddress()":"3feff76d"}}}}}