{"contracts/TaskCon.sol":{"TaskCon":{"abi":[{"inputs":[],"stateMutability":"nonpayable","type":"constructor"},{"anonymous":false,"inputs":[{"indexed":false,"internalType":"address","name":"recipient","type":"address"},{"indexed":false,"internalType":"uint256","name":"projectid","type":"uint256"}],"name":"AddProject","type":"event"},{"inputs":[],"name":"Counter","outputs":[{"internalType":"uint256","name":"","type":"uint256"}],"stateMutability":"view","type":"function"},{"inputs":[{"internalType":"string","name":"_title","type":"string"},{"internalType":"string","name":"_description","type":"string"},{"internalType":"string","name":"_url","type":"string"},{"components":[{"internalType":"string","name":"tasktitle","type":"string"},{"internalType":"string","name":"description","type":"string"},{"internalType":"bool","name":"isdone","type":"bool"}],"internalType":"struct TaskCon.task[]","name":"_tasks","type":"tuple[]"}],"name":"addProject","outputs":[],"stateMutability":"nonpayable","type":"function"},{"inputs":[{"internalType":"uint256","name":"projectId","type":"uint256"},{"internalType":"string","name":"tasktitle","type":"string"},{"internalType":"string","name":"description","type":"string"}],"name":"addtasks","outputs":[],"stateMutability":"nonpayable","type":"function"},{"inputs":[{"internalType":"uint256","name":"projectId","type":"uint256"},{"internalType":"string","name":"tasktitle","type":"string"}],"name":"finishtasks","outputs":[],"stateMutability":"nonpayable","type":"function"},{"inputs":[{"internalType":"uint256","name":"projectId","type":"uint256"}],"name":"getProjectTasks","outputs":[{"components":[{"internalType":"string","name":"tasktitle","type":"string"},{"internalType":"string","name":"description","type":"string"},{"internalType":"bool","name":"isdone","type":"bool"}],"internalType":"struct TaskCon.task[]","name":"","type":"tuple[]"}],"stateMutability":"view","type":"function"},{"inputs":[],"name":"owner","outputs":[{"internalType":"address","name":"","type":"address"}],"stateMutability":"view","type":"function"},{"inputs":[{"internalType":"uint256","name":"","type":"uint256"}],"name":"projects","outputs":[{"internalType":"string","name":"title","type":"string"},{"internalType":"string","name":"description","type":"string"},{"internalType":"string","name":"url","type":"string"},{"internalType":"string","name":"projectid","type":"string"}],"stateMutability":"view","type":"function"},{"inputs":[],"name":"tokenaddress","outputs":[{"internalType":"address","name":"","type":"address"}],"stateMutability":"view","type":"function"}],"evm":{"bytecode":{"linkReferences":{},"object":"608060405234801561001057600080fd5b50600080546001600160a01b031916331781556002556111bf806100356000396000f3fe608060405234801561001057600080fd5b50600436106100885760003560e01c80635a69e55b1161005b5780635a69e55b1461011b5780638da5cb5b14610130578063ba5cdd5414610143578063d95deebd1461015657600080fd5b8063107046bd1461008d5780633feff76d146100b95780634eeca076146100e4578063591c564f146100fb575b600080fd5b6100a061009b366004610a46565b610169565b6040516100b09493929190610aaf565b60405180910390f35b6001546100cc906001600160a01b031681565b6040516001600160a01b0390911681526020016100b0565b6100ed60025481565b6040519081526020016100b0565b61010e610109366004610a46565b6103c9565b6040516100b09190610b07565b61012e610129366004610c7a565b6105c3565b005b6000546100cc906001600160a01b031681565b61012e610151366004610cc1565b6106f7565b61012e610164366004610d2e565b6107cc565b6003818154811061017957600080fd5b906000526020600020906005020160009150905080600001805461019c90610ed3565b80601f01602080910402602001604051908101604052809291908181526020018280546101c890610ed3565b80156102155780601f106101ea57610100808354040283529160200191610215565b820191906000526020600020905b8154815290600101906020018083116101f857829003601f168201915b50505050509080600101805461022a90610ed3565b80601f016020809104026020016040519081016040528092919081815260200182805461025690610ed3565b80156102a35780601f10610278576101008083540402835291602001916102a3565b820191906000526020600020905b81548152906001019060200180831161028657829003601f168201915b5050505050908060020180546102b890610ed3565b80601f01602080910402602001604051908101604052809291908181526020018280546102e490610ed3565b80156103315780601f1061030657610100808354040283529160200191610331565b820191906000526020600020905b81548152906001019060200180831161031457829003601f168201915b50505050509080600401805461034690610ed3565b80601f016020809104026020016040519081016040528092919081815260200182805461037290610ed3565b80156103bf5780601f10610394576101008083540402835291602001916103bf565b820191906000526020600020905b8154815290600101906020018083116103a257829003601f168201915b5050505050905084565b60606000821180156103dd57506002548211155b6104025760405162461bcd60e51b81526004016103f990610f0d565b60405180910390fd5b600361040f600184610f4f565b8154811061041f5761041f610f68565b9060005260206000209060050201600301805480602002602001604051908101604052809291908181526020016000905b828210156105b8578382906000526020600020906003020160405180606001604052908160008201805461048390610ed3565b80601f01602080910402602001604051908101604052809291908181526020018280546104af90610ed3565b80156104fc5780601f106104d1576101008083540402835291602001916104fc565b820191906000526020600020905b8154815290600101906020018083116104df57829003601f168201915b5050505050815260200160018201805461051590610ed3565b80601f016020809104026020016040519081016040528092919081815260200182805461054190610ed3565b801561058e5780601f106105635761010080835404028352916020019161058e565b820191906000526020600020905b81548152906001019060200180831161057157829003601f168201915b50505091835250506002919091015460ff1615156020918201529082526001929092019101610450565b505050509050919050565b6000821180156105d557506002548211155b6105f15760405162461bcd60e51b81526004016103f990610f0d565b60006003610600600185610f4f565b8154811061061057610610610f68565b9060005260206000209060050201600301905060005b81548110156106f157826040516020016106409190610f7e565b6040516020818303038152906040528051906020012082828154811061066857610668610f68565b90600052602060002090600302016000016040516020016106899190610f9a565b60405160208183030381529060405280519060200120036106df5760018282815481106106b8576106b8610f68565b60009182526020909120600390910201600201805460ff19169115159190911790556106f1565b806106e981611010565b915050610626565b50505050565b60008311801561070957506002548311155b6107255760405162461bcd60e51b81526004016103f990610f0d565b6040805160608101825283815260208101839052600091810191909152600361074f600186610f4f565b8154811061075f5761075f610f68565b60009182526020808320600360059093020182018054600181018255908452922083518493909202019081906107959082611078565b50602082015160018201906107aa9082611078565b50604091909101516002909101805460ff191691151591909117905550505050565b600280549060006107dc83611010565b9091555050600380546001810182556000919091526005027fc2575a0e9e593c00f959f8c92f12db2869c3395a3b0502d05e2516446f71f85b01806108218682611078565b50600181016108308582611078565b506002810161083f8482611078565b5061084b60025461093d565b600482019061085a9082611078565b5060005b82518110156108f857600083828151811061087b5761087b610f68565b60209081029190910181015160038086018054600181018255600091825293902082519294508493909102019081906108b49082611078565b50602082015160018201906108c99082611078565b50604091909101516002909101805460ff191691151591909117905550806108f081611010565b91505061085e565b506002546040805133815260208101929092527f4a31f5ac372495eeadf90f1b0d3a4693dbb858e9f2e9730987f6d93338dc06ac910160405180910390a15050505050565b6060816000036109645750506040805180820190915260018152600360fc1b602082015290565b8160005b811561098e578061097881611010565b91506109879050600a8361114e565b9150610968565b60008167ffffffffffffffff8111156109a9576109a9610b9a565b6040519080825280601f01601f1916602001820160405280156109d3576020820181803683370190505b5090505b8415610a3e576109e8600183610f4f565b91506109f5600a86611162565b610a00906030611176565b60f81b818381518110610a1557610a15610f68565b60200101906001600160f81b031916908160001a905350610a37600a8661114e565b94506109d7565b949350505050565b600060208284031215610a5857600080fd5b5035919050565b60005b83811015610a7a578181015183820152602001610a62565b50506000910152565b60008151808452610a9b816020860160208601610a5f565b601f01601f19169290920160200192915050565b608081526000610ac26080830187610a83565b8281036020840152610ad48187610a83565b90508281036040840152610ae88186610a83565b90508281036060840152610afc8185610a83565b979650505050505050565b60006020808301818452808551808352604092508286019150828160051b87010184880160005b83811015610b8c57603f19898403018552815160608151818652610b5482870182610a83565b915050888201518582038a870152610b6c8282610a83565b928901511515958901959095525094870194925090860190600101610b2e565b509098975050505050505050565b634e487b7160e01b600052604160045260246000fd5b6040516060810167ffffffffffffffff81118282101715610bd357610bd3610b9a565b60405290565b604051601f8201601f1916810167ffffffffffffffff81118282101715610c0257610c02610b9a565b604052919050565b600082601f830112610c1b57600080fd5b813567ffffffffffffffff811115610c3557610c35610b9a565b610c48601f8201601f1916602001610bd9565b818152846020838601011115610c5d57600080fd5b816020850160208301376000918101602001919091529392505050565b60008060408385031215610c8d57600080fd5b82359150602083013567ffffffffffffffff811115610cab57600080fd5b610cb785828601610c0a565b9150509250929050565b600080600060608486031215610cd657600080fd5b83359250602084013567ffffffffffffffff80821115610cf557600080fd5b610d0187838801610c0a565b93506040860135915080821115610d1757600080fd5b50610d2486828701610c0a565b9150509250925092565b60008060008060808587031215610d4457600080fd5b67ffffffffffffffff8086351115610d5b57600080fd5b610d688787358801610c0a565b9450602086013581811115610d7c57600080fd5b610d8888828901610c0a565b945050604086013581811115610d9d57600080fd5b610da988828901610c0a565b935050606086013581811115610dbe57600080fd5b8601601f81018813610dcf57600080fd5b803582811115610de157610de1610b9a565b610df060208260051b01610bd9565b8082825260208201915060208360051b85010192508a831115610e1257600080fd5b602084015b83811015610ec3578581351115610e2d57600080fd5b803585016060818e03601f19011215610e4557600080fd5b610e4d610bb0565b602082013588811115610e5f57600080fd5b610e6e8f602083860101610c0a565b825250604082013588811115610e8357600080fd5b610e928f602083860101610c0a565b602083015250606082013591508115158214610ead57600080fd5b6040810191909152835260209283019201610e17565b50979a9699509497505050505050565b600181811c90821680610ee757607f821691505b602082108103610f0757634e487b7160e01b600052602260045260246000fd5b50919050565b602080825260129082015271125b9d985b1a59081c1c9bda9958dd08125160721b604082015260600190565b634e487b7160e01b600052601160045260246000fd5b81810381811115610f6257610f62610f39565b92915050565b634e487b7160e01b600052603260045260246000fd5b60008251610f90818460208701610a5f565b9190910192915050565b6000808354610fa881610ed3565b60018281168015610fc05760018114610fd557611004565b60ff1984168752821515830287019450611004565b8760005260208060002060005b85811015610ffb5781548a820152908401908201610fe2565b50505082870194505b50929695505050505050565b60006001820161102257611022610f39565b5060010190565b601f82111561107357600081815260208120601f850160051c810160208610156110505750805b601f850160051c820191505b8181101561106f5782815560010161105c565b5050505b505050565b815167ffffffffffffffff81111561109257611092610b9a565b6110a6816110a08454610ed3565b84611029565b602080601f8311600181146110db57600084156110c35750858301515b600019600386901b1c1916600185901b17855561106f565b600085815260208120601f198616915b8281101561110a578886015182559484019460019091019084016110eb565b50858210156111285787850151600019600388901b60f8161c191681555b5050505050600190811b01905550565b634e487b7160e01b600052601260045260246000fd5b60008261115d5761115d611138565b500490565b60008261117157611171611138565b500690565b80820180821115610f6257610f62610f3956fea2646970667358221220166e02d0cb65980df3aa19e7991c179e27c4cfb7932a79bef3f1eb239d9e822864736f6c63430008140033","opcodes":"PUSH1 0x80 PUSH1 0x40 MSTORE CALLVALUE DUP1 ISZERO PUSH2 0x10 JUMPI PUSH1 0x0 DUP1 REVERT JUMPDEST POP PUSH1 0x0 DUP1 SLOAD PUSH1 0x1 PUSH1 0x1 PUSH1 0xA0 SHL SUB NOT AND CALLER OR DUP2 SSTORE PUSH1 0x2 SSTORE PUSH2 0x11BF DUP1 PUSH2 0x35 PUSH1 0x0 CODECOPY PUSH1 0x0 RETURN INVALID PUSH1 0x80 PUSH1 0x40 MSTORE CALLVALUE DUP1 ISZERO PUSH2 0x10 JUMPI PUSH1 0x0 DUP1 REVERT JUMPDEST POP PUSH1 0x4 CALLDATASIZE LT PUSH2 0x88 JUMPI PUSH1 0x0 CALLDATALOAD PUSH1 0xE0 SHR DUP1 PUSH4 0x5A69E55B GT PUSH2 0x5B JUMPI DUP1 PUSH4 0x5A69E55B EQ PUSH2 0x11B JUMPI DUP1 PUSH4 0x8DA5CB5B EQ PUSH2 0x130 JUMPI DUP1 PUSH4 0xBA5CDD54 EQ PUSH2 0x143 JUMPI DUP1 PUSH4 0xD95DEEBD EQ PUSH2 0x156 JUMPI PUSH1 0x0 DUP1 REVERT JUMPDEST DUP1 PUSH4 0x107046BD EQ PUSH2 0x8D JUMPI DUP1 PUSH4 0x3FEFF76D EQ PUSH2 0xB9 JUMPI DUP1 PUSH4 0x4EECA076 EQ PUSH2 0xE4 JUMPI DUP1 PUSH4 0x591C564F EQ PUSH2 0xFB JUMPI JUMPDEST PUSH1 0x0 DUP1 REVERT JUMPDEST PUSH2 0xA0 PUSH2 0x9B CALLDATASIZE PUSH1 0x4 PUSH2 0xA46 JUMP JUMPDEST PUSH2 0x169 JUMP JUMPDEST PUSH1 0x40 MLOAD PUSH2 0xB0 SWAP5 SWAP4 SWAP3 SWAP2 SWAP1 PUSH2 0xAAF JUMP JUMPDEST PUSH1 0x40 MLOAD DUP1 SWAP2 SUB SWAP1 RETURN JUMPDEST PUSH1 0x1 SLOAD PUSH2 0xCC SWAP1 PUSH1 0x1 PUSH1 0x1 PUSH1 0xA0 SHL SUB AND DUP2 JUMP JUMPDEST PUSH1 0x40 MLOAD PUSH1 0x1 PUSH1 0x1 PUSH1 0xA0 SHL SUB SWAP1 SWAP2 AND DUP2 MSTORE PUSH1 0x20 ADD PUSH2 0xB0 JUMP JUMPDEST PUSH2 0xED PUSH1 0x2 SLOAD DUP2 JUMP JUMPDEST PUSH1 0x40 MLOAD SWAP1 DUP2 MSTORE PUSH1 0x20 ADD PUSH2 0xB0 JUMP JUMPDEST PUSH2 0x10E PUSH2 0x109 CALLDATASIZE PUSH1 0x4 PUSH2 0xA46 JUMP JUMPDEST PUSH2 0x3C9 JUMP JUMPDEST PUSH1 0x40 MLOAD PUSH2 0xB0 SWAP2 SWAP1 PUSH2 0xB07 JUMP JUMPDEST PUSH2 0x12E PUSH2 0x129 CALLDATASIZE PUSH1 0x4 PUSH2 0xC7A JUMP JUMPDEST PUSH2 0x5C3 JUMP JUMPDEST STOP JUMPDEST PUSH1 0x0 SLOAD PUSH2 0xCC SWAP1 PUSH1 0x1 PUSH1 0x1 PUSH1 0xA0 SHL SUB AND DUP2 JUMP JUMPDEST PUSH2 0x12E PUSH2 0x151 CALLDATASIZE PUSH1 0x4 PUSH2 0xCC1 JUMP JUMPDEST PUSH2 0x6F7 JUMP JUMPDEST PUSH2 0x12E PUSH2 0x164 CALLDATASIZE PUSH1 0x4 PUSH2 0xD2E JUMP JUMPDEST PUSH2 0x7CC JUMP JUMPDEST PUSH1 0x3 DUP2 DUP2 SLOAD DUP2 LT PUSH2 0x179 JUMPI PUSH1 0x0 DUP1 REVERT JUMPDEST SWAP1 PUSH1 0x0 MSTORE PUSH1 0x20 PUSH1 0x0 KECCAK256 SWAP1 PUSH1 0x5 MUL ADD PUSH1 0x0 SWAP2 POP SWAP1 POP DUP1 PUSH1 0x0 ADD DUP1 SLOAD PUSH2 0x19C SWAP1 PUSH2 0xED3 JUMP JUMPDEST DUP1 PUSH1 0x1F ADD PUSH1 0x20 DUP1 SWAP2 DIV MUL PUSH1 0x20 ADD PUSH1 0x40 MLOAD SWAP1 DUP2 ADD PUSH1 0x40 MSTORE DUP1 SWAP3 SWAP2 SWAP1 DUP2 DUP2 MSTORE PUSH1 0x20 ADD DUP3 DUP1 SLOAD PUSH2 0x1C8 SWAP1 PUSH2 0xED3 JUMP JUMPDEST DUP1 ISZERO PUSH2 0x215 JUMPI DUP1 PUSH1 0x1F LT PUSH2 0x1EA JUMPI PUSH2 0x100 DUP1 DUP4 SLOAD DIV MUL DUP4 MSTORE SWAP2 PUSH1 0x20 ADD SWAP2 PUSH2 0x215 JUMP JUMPDEST DUP3 ADD SWAP2 SWAP1 PUSH1 0x0 MSTORE PUSH1 0x20 PUSH1 0x0 KECCAK256 SWAP1 JUMPDEST DUP2 SLOAD DUP2 MSTORE SWAP1 PUSH1 0x1 ADD SWAP1 PUSH1 0x20 ADD DUP1 DUP4 GT PUSH2 0x1F8 JUMPI DUP3 SWAP1 SUB PUSH1 0x1F AND DUP3 ADD SWAP2 JUMPDEST POP POP POP POP POP SWAP1 DUP1 PUSH1 0x1 ADD DUP1 SLOAD PUSH2 0x22A SWAP1 PUSH2 0xED3 JUMP JUMPDEST DUP1 PUSH1 0x1F ADD PUSH1 0x20 DUP1 SWAP2 DIV MUL PUSH1 0x20 ADD PUSH1 0x40 MLOAD SWAP1 DUP2 ADD PUSH1 0x40 MSTORE DUP1 SWAP3 SWAP2 SWAP1 DUP2 DUP2 MSTORE PUSH1 0x20 ADD DUP3 DUP1 SLOAD PUSH2 0x256 SWAP1 PUSH2 0xED3 JUMP JUMPDEST DUP1 ISZERO PUSH2 0x2A3 JUMPI DUP1 PUSH1 0x1F LT PUSH2 0x278 JUMPI PUSH2 0x100 DUP1 DUP4 SLOAD DIV MUL DUP4 MSTORE SWAP2 PUSH1 0x20 ADD SWAP2 PUSH2 0x2A3 JUMP JUMPDEST DUP3 ADD SWAP2 SWAP1 PUSH1 0x0 MSTORE PUSH1 0x20 PUSH1 0x0 KECCAK256 SWAP1 JUMPDEST DUP2 SLOAD DUP2 MSTORE SWAP1 PUSH1 0x1 ADD SWAP1 PUSH1 0x20 ADD DUP1 DUP4 GT PUSH2 0x286 JUMPI DUP3 SWAP1 SUB PUSH1 0x1F AND DUP3 ADD SWAP2 JUMPDEST POP POP POP POP POP SWAP1 DUP1 PUSH1 0x2 ADD DUP1 SLOAD PUSH2 0x2B8 SWAP1 PUSH2 0xED3 JUMP JUMPDEST DUP1 PUSH1 0x1F ADD PUSH1 0x20 DUP1 SWAP2 DIV MUL PUSH1 0x20 ADD PUSH1 0x40 MLOAD SWAP1 DUP2 ADD PUSH1 0x40 MSTORE DUP1 SWAP3 SWAP2 SWAP1 DUP2 DUP2 MSTORE PUSH1 0x20 ADD DUP3 DUP1 SLOAD PUSH2 0x2E4 SWAP1 PUSH2 0xED3 JUMP JUMPDEST DUP1 ISZERO PUSH2 0x331 JUMPI DUP1 PUSH1 0x1F LT PUSH2 0x306 JUMPI PUSH2 0x100 DUP1 DUP4 SLOAD DIV MUL DUP4 MSTORE SWAP2 PUSH1 0x20 ADD SWAP2 PUSH2 0x331 JUMP JUMPDEST DUP3 ADD SWAP2 SWAP1 PUSH1 0x0 MSTORE PUSH1 0x20 PUSH1 0x0 KECCAK256 SWAP1 JUMPDEST DUP2 SLOAD DUP2 MSTORE SWAP1 PUSH1 0x1 ADD SWAP1 PUSH1 0x20 ADD DUP1 DUP4 GT PUSH2 0x314 JUMPI DUP3 SWAP1 SUB PUSH1 0x1F AND DUP3 ADD SWAP2 JUMPDEST POP POP POP POP POP SWAP1 DUP1 PUSH1 0x4 ADD DUP1 SLOAD PUSH2 0x346 SWAP1 PUSH2 0xED3 JUMP JUMPDEST DUP1 PUSH1 0x1F ADD PUSH1 0x20 DUP1 SWAP2 DIV MUL PUSH1 0x20 ADD PUSH1 0x40 MLOAD SWAP1 DUP2 ADD PUSH1 0x40 MSTORE DUP1 SWAP3 SWAP2 SWAP1 DUP2 DUP2 MSTORE PUSH1 0x20 ADD DUP3 DUP1 SLOAD PUSH2 0x372 SWAP1 PUSH2 0xED3 JUMP JUMPDEST DUP1 ISZERO PUSH2 0x3BF JUMPI DUP1 PUSH1 0x1F LT PUSH2 0x394 JUMPI PUSH2 0x100 DUP1 DUP4 SLOAD DIV MUL DUP4 MSTORE SWAP2 PUSH1 0x20 ADD SWAP2 PUSH2 0x3BF JUMP JUMPDEST DUP3 ADD SWAP2 SWAP1 PUSH1 0x0 MSTORE PUSH1 0x20 PUSH1 0x0 KECCAK256 SWAP1 JUMPDEST DUP2 SLOAD DUP2 MSTORE SWAP1 PUSH1 0x1 ADD SWAP1 PUSH1 0x20 ADD DUP1 DUP4 GT PUSH2 0x3A2 JUMPI DUP3 SWAP1 SUB PUSH1 0x1F AND DUP3 ADD SWAP2 JUMPDEST POP POP POP POP POP SWAP1 POP DUP5 JUMP JUMPDEST PUSH1 0x60 PUSH1 0x0 DUP3 GT DUP1 ISZERO PUSH2 0x3DD JUMPI POP PUSH1 0x2 SLOAD DUP3 GT ISZERO JUMPDEST PUSH2 0x402 JUMPI PUSH1 0x40 MLOAD PUSH3 0x461BCD PUSH1 0xE5 SHL DUP2 MSTORE PUSH1 0x4 ADD PUSH2 0x3F9 SWAP1 PUSH2 0xF0D JUMP JUMPDEST PUSH1 0x40 MLOAD DUP1 SWAP2 SUB SWAP1 REVERT JUMPDEST PUSH1 0x3 PUSH2 0x40F PUSH1 0x1 DUP5 PUSH2 0xF4F JUMP JUMPDEST DUP2 SLOAD DUP2 LT PUSH2 0x41F JUMPI PUSH2 0x41F PUSH2 0xF68 JUMP JUMPDEST SWAP1 PUSH1 0x0 MSTORE PUSH1 0x20 PUSH1 0x0 KECCAK256 SWAP1 PUSH1 0x5 MUL ADD PUSH1 0x3 ADD DUP1 SLOAD DUP1 PUSH1 0x20 MUL PUSH1 0x20 ADD PUSH1 0x40 MLOAD SWAP1 DUP2 ADD PUSH1 0x40 MSTORE DUP1 SWAP3 SWAP2 SWAP1 DUP2 DUP2 MSTORE PUSH1 0x20 ADD PUSH1 0x0 SWAP1 JUMPDEST DUP3 DUP3 LT ISZERO PUSH2 0x5B8 JUMPI DUP4 DUP3 SWAP1 PUSH1 0x0 MSTORE PUSH1 0x20 PUSH1 0x0 KECCAK256 SWAP1 PUSH1 0x3 MUL ADD PUSH1 0x40 MLOAD DUP1 PUSH1 0x60 ADD PUSH1 0x40 MSTORE SWAP1 DUP2 PUSH1 0x0 DUP3 ADD DUP1 SLOAD PUSH2 0x483 SWAP1 PUSH2 0xED3 JUMP JUMPDEST DUP1 PUSH1 0x1F ADD PUSH1 0x20 DUP1 SWAP2 DIV MUL PUSH1 0x20 ADD PUSH1 0x40 MLOAD SWAP1 DUP2 ADD PUSH1 0x40 MSTORE DUP1 SWAP3 SWAP2 SWAP1 DUP2 DUP2 MSTORE PUSH1 0x20 ADD DUP3 DUP1 SLOAD PUSH2 0x4AF SWAP1 PUSH2 0xED3 JUMP JUMPDEST DUP1 ISZERO PUSH2 0x4FC JUMPI DUP1 PUSH1 0x1F LT PUSH2 0x4D1 JUMPI PUSH2 0x100 DUP1 DUP4 SLOAD DIV MUL DUP4 MSTORE SWAP2 PUSH1 0x20 ADD SWAP2 PUSH2 0x4FC JUMP JUMPDEST DUP3 ADD SWAP2 SWAP1 PUSH1 0x0 MSTORE PUSH1 0x20 PUSH1 0x0 KECCAK256 SWAP1 JUMPDEST DUP2 SLOAD DUP2 MSTORE SWAP1 PUSH1 0x1 ADD SWAP1 PUSH1 0x20 ADD DUP1 DUP4 GT PUSH2 0x4DF JUMPI DUP3 SWAP1 SUB PUSH1 0x1F AND DUP3 ADD SWAP2 JUMPDEST POP POP POP POP POP DUP2 MSTORE PUSH1 0x20 ADD PUSH1 0x1 DUP3 ADD DUP1 SLOAD PUSH2 0x515 SWAP1 PUSH2 0xED3 JUMP JUMPDEST DUP1 PUSH1 0x1F ADD PUSH1 0x20 DUP1 SWAP2 DIV MUL PUSH1 0x20 ADD PUSH1 0x40 MLOAD SWAP1 DUP2 ADD PUSH1 0x40 MSTORE DUP1 SWAP3 SWAP2 SWAP1 DUP2 DUP2 MSTORE PUSH1 0x20 ADD DUP3 DUP1 SLOAD PUSH2 0x541 SWAP1 PUSH2 0xED3 JUMP JUMPDEST DUP1 ISZERO PUSH2 0x58E JUMPI DUP1 PUSH1 0x1F LT PUSH2 0x563 JUMPI PUSH2 0x100 DUP1 DUP4 SLOAD DIV MUL DUP4 MSTORE SWAP2 PUSH1 0x20 ADD SWAP2 PUSH2 0x58E JUMP JUMPDEST DUP3 ADD SWAP2 SWAP1 PUSH1 0x0 MSTORE PUSH1 0x20 PUSH1 0x0 KECCAK256 SWAP1 JUMPDEST DUP2 SLOAD DUP2 MSTORE SWAP1 PUSH1 0x1 ADD SWAP1 PUSH1 0x20 ADD DUP1 DUP4 GT PUSH2 0x571 JUMPI DUP3 SWAP1 SUB PUSH1 0x1F AND DUP3 ADD SWAP2 JUMPDEST POP POP POP SWAP2 DUP4 MSTORE POP POP PUSH1 0x2 SWAP2 SWAP1 SWAP2 ADD SLOAD PUSH1 0xFF AND ISZERO ISZERO PUSH1 0x20 SWAP2 DUP3 ADD MSTORE SWAP1 DUP3 MSTORE PUSH1 0x1 SWAP3 SWAP1 SWAP3 ADD SWAP2 ADD PUSH2 0x450 JUMP JUMPDEST POP POP POP POP SWAP1 POP SWAP2 SWAP1 POP JUMP JUMPDEST PUSH1 0x0 DUP3 GT DUP1 ISZERO PUSH2 0x5D5 JUMPI POP PUSH1 0x2 SLOAD DUP3 GT ISZERO JUMPDEST PUSH2 0x5F1 JUMPI PUSH1 0x40 MLOAD PUSH3 0x461BCD PUSH1 0xE5 SHL DUP2 MSTORE PUSH1 0x4 ADD PUSH2 0x3F9 SWAP1 PUSH2 0xF0D JUMP JUMPDEST PUSH1 0x0 PUSH1 0x3 PUSH2 0x600 PUSH1 0x1 DUP6 PUSH2 0xF4F JUMP JUMPDEST DUP2 SLOAD DUP2 LT PUSH2 0x610 JUMPI PUSH2 0x610 PUSH2 0xF68 JUMP JUMPDEST SWAP1 PUSH1 0x0 MSTORE PUSH1 0x20 PUSH1 0x0 KECCAK256 SWAP1 PUSH1 0x5 MUL ADD PUSH1 0x3 ADD SWAP1 POP PUSH1 0x0 JUMPDEST DUP2 SLOAD DUP2 LT ISZERO PUSH2 0x6F1 JUMPI DUP3 PUSH1 0x40 MLOAD PUSH1 0x20 ADD PUSH2 0x640 SWAP2 SWAP1 PUSH2 0xF7E JUMP JUMPDEST PUSH1 0x40 MLOAD PUSH1 0x20 DUP2 DUP4 SUB SUB DUP2 MSTORE SWAP1 PUSH1 0x40 MSTORE DUP1 MLOAD SWAP1 PUSH1 0x20 ADD KECCAK256 DUP3 DUP3 DUP2 SLOAD DUP2 LT PUSH2 0x668 JUMPI PUSH2 0x668 PUSH2 0xF68 JUMP JUMPDEST SWAP1 PUSH1 0x0 MSTORE PUSH1 0x20 PUSH1 0x0 KECCAK256 SWAP1 PUSH1 0x3 MUL ADD PUSH1 0x0 ADD PUSH1 0x40 MLOAD PUSH1 0x20 ADD PUSH2 0x689 SWAP2 SWAP1 PUSH2 0xF9A JUMP JUMPDEST PUSH1 0x40 MLOAD PUSH1 0x20 DUP2 DUP4 SUB SUB DUP2 MSTORE SWAP1 PUSH1 0x40 MSTORE DUP1 MLOAD SWAP1 PUSH1 0x20 ADD KECCAK256 SUB PUSH2 0x6DF JUMPI PUSH1 0x1 DUP3 DUP3 DUP2 SLOAD DUP2 LT PUSH2 0x6B8 JUMPI PUSH2 0x6B8 PUSH2 0xF68 JUMP JUMPDEST PUSH1 0x0 SWAP2 DUP3 MSTORE PUSH1 0x20 SWAP1 SWAP2 KECCAK256 PUSH1 0x3 SWAP1 SWAP2 MUL ADD PUSH1 0x2 ADD DUP1 SLOAD PUSH1 0xFF NOT AND SWAP2 ISZERO ISZERO SWAP2 SWAP1 SWAP2 OR SWAP1 SSTORE PUSH2 0x6F1 JUMP JUMPDEST DUP1 PUSH2 0x6E9 DUP2 PUSH2 0x1010 JUMP JUMPDEST SWAP2 POP POP PUSH2 0x626 JUMP JUMPDEST POP POP POP POP JUMP JUMPDEST PUSH1 0x0 DUP4 GT DUP1 ISZERO PUSH2 0x709 JUMPI POP PUSH1 0x2 SLOAD DUP4 GT ISZERO JUMPDEST PUSH2 0x725 JUMPI PUSH1 0x40 MLOAD PUSH3 0x461BCD PUSH1 0xE5 SHL DUP2 MSTORE PUSH1 0x4 ADD PUSH2 0x3F9 SWAP1 PUSH2 0xF0D JUMP JUMPDEST PUSH1 0x40 DUP1 MLOAD PUSH1 0x60 DUP2 ADD DUP3 MSTORE DUP4 DUP2 MSTORE PUSH1 0x20 DUP2 ADD DUP4 SWAP1 MSTORE PUSH1 0x0 SWAP2 DUP2 ADD SWAP2 SWAP1 SWAP2 MSTORE PUSH1 0x3 PUSH2 0x74F PUSH1 0x1 DUP7 PUSH2 0xF4F JUMP JUMPDEST DUP2 SLOAD DUP2 LT PUSH2 0x75F JUMPI PUSH2 0x75F PUSH2 0xF68 JUMP JUMPDEST PUSH1 0x0 SWAP2 DUP3 MSTORE PUSH1 0x20 DUP1 DUP4 KECCAK256 PUSH1 0x3 PUSH1 0x5 SWAP1 SWAP4 MUL ADD DUP3 ADD DUP1 SLOAD PUSH1 0x1 DUP2 ADD DUP3 SSTORE SWAP1 DUP5 MSTORE SWAP3 KECCAK256 DUP4 MLOAD DUP5 SWAP4 SWAP1 SWAP3 MUL ADD SWAP1 DUP2 SWAP1 PUSH2 0x795 SWAP1 DUP3 PUSH2 0x1078 JUMP JUMPDEST POP PUSH1 0x20 DUP3 ADD MLOAD PUSH1 0x1 DUP3 ADD SWAP1 PUSH2 0x7AA SWAP1 DUP3 PUSH2 0x1078 JUMP JUMPDEST POP PUSH1 0x40 SWAP2 SWAP1 SWAP2 ADD MLOAD PUSH1 0x2 SWAP1 SWAP2 ADD DUP1 SLOAD PUSH1 0xFF NOT AND SWAP2 ISZERO ISZERO SWAP2 SWAP1 SWAP2 OR SWAP1 SSTORE POP POP POP POP JUMP JUMPDEST PUSH1 0x2 DUP1 SLOAD SWAP1 PUSH1 0x0 PUSH2 0x7DC DUP4 PUSH2 0x1010 JUMP JUMPDEST SWAP1 SWAP2 SSTORE POP POP PUSH1 0x3 DUP1 SLOAD PUSH1 0x1 DUP2 ADD DUP3 SSTORE PUSH1 0x0 SWAP2 SWAP1 SWAP2 MSTORE PUSH1 0x5 MUL PUSH32 0xC2575A0E9E593C00F959F8C92F12DB2869C3395A3B0502D05E2516446F71F85B ADD DUP1 PUSH2 0x821 DUP7 DUP3 PUSH2 0x1078 JUMP JUMPDEST POP PUSH1 0x1 DUP2 ADD PUSH2 0x830 DUP6 DUP3 PUSH2 0x1078 JUMP JUMPDEST POP PUSH1 0x2 DUP2 ADD PUSH2 0x83F DUP5 DUP3 PUSH2 0x1078 JUMP JUMPDEST POP PUSH2 0x84B PUSH1 0x2 SLOAD PUSH2 0x93D JUMP JUMPDEST PUSH1 0x4 DUP3 ADD SWAP1 PUSH2 0x85A SWAP1 DUP3 PUSH2 0x1078 JUMP JUMPDEST POP PUSH1 0x0 JUMPDEST DUP3 MLOAD DUP2 LT ISZERO PUSH2 0x8F8 JUMPI PUSH1 0x0 DUP4 DUP3 DUP2 MLOAD DUP2 LT PUSH2 0x87B JUMPI PUSH2 0x87B PUSH2 0xF68 JUMP JUMPDEST PUSH1 0x20 SWAP1 DUP2 MUL SWAP2 SWAP1 SWAP2 ADD DUP2 ADD MLOAD PUSH1 0x3 DUP1 DUP7 ADD DUP1 SLOAD PUSH1 0x1 DUP2 ADD DUP3 SSTORE PUSH1 0x0 SWAP2 DUP3 MSTORE SWAP4 SWAP1 KECCAK256 DUP3 MLOAD SWAP3 SWAP5 POP DUP5 SWAP4 SWAP1 SWAP2 MUL ADD SWAP1 DUP2 SWAP1 PUSH2 0x8B4 SWAP1 DUP3 PUSH2 0x1078 JUMP JUMPDEST POP PUSH1 0x20 DUP3 ADD MLOAD PUSH1 0x1 DUP3 ADD SWAP1 PUSH2 0x8C9 SWAP1 DUP3 PUSH2 0x1078 JUMP JUMPDEST POP PUSH1 0x40 SWAP2 SWAP1 SWAP2 ADD MLOAD PUSH1 0x2 SWAP1 SWAP2 ADD DUP1 SLOAD PUSH1 0xFF NOT AND SWAP2 ISZERO ISZERO SWAP2 SWAP1 SWAP2 OR SWAP1 SSTORE POP DUP1 PUSH2 0x8F0 DUP2 PUSH2 0x1010 JUMP JUMPDEST SWAP2 POP POP PUSH2 0x85E JUMP JUMPDEST POP PUSH1 0x2 SLOAD PUSH1 0x40 DUP1 MLOAD CALLER DUP2 MSTORE PUSH1 0x20 DUP2 ADD SWAP3 SWAP1 SWAP3 MSTORE PUSH32 0x4A31F5AC372495EEADF90F1B0D3A4693DBB858E9F2E9730987F6D93338DC06AC SWAP2 ADD PUSH1 0x40 MLOAD DUP1 SWAP2 SUB SWAP1 LOG1 POP POP POP POP POP JUMP JUMPDEST PUSH1 0x60 DUP2 PUSH1 0x0 SUB PUSH2 0x964 JUMPI POP POP PUSH1 0x40 DUP1 MLOAD DUP1 DUP3 ADD SWAP1 SWAP2 MSTORE PUSH1 0x1 DUP2 MSTORE PUSH1 0x3 PUSH1 0xFC SHL PUSH1 0x20 DUP3 ADD MSTORE SWAP1 JUMP JUMPDEST DUP2 PUSH1 0x0 JUMPDEST DUP2 ISZERO PUSH2 0x98E JUMPI DUP1 PUSH2 0x978 DUP2 PUSH2 0x1010 JUMP JUMPDEST SWAP2 POP PUSH2 0x987 SWAP1 POP PUSH1 0xA DUP4 PUSH2 0x114E JUMP JUMPDEST SWAP2 POP PUSH2 0x968 JUMP JUMPDEST PUSH1 0x0 DUP2 PUSH8 0xFFFFFFFFFFFFFFFF DUP2 GT ISZERO PUSH2 0x9A9 JUMPI PUSH2 0x9A9 PUSH2 0xB9A JUMP JUMPDEST PUSH1 0x40 MLOAD SWAP1 DUP1 DUP3 MSTORE DUP1 PUSH1 0x1F ADD PUSH1 0x1F NOT AND PUSH1 0x20 ADD DUP3 ADD PUSH1 0x40 MSTORE DUP1 ISZERO PUSH2 0x9D3 JUMPI PUSH1 0x20 DUP3 ADD DUP2 DUP1 CALLDATASIZE DUP4 CALLDATACOPY ADD SWAP1 POP JUMPDEST POP SWAP1 POP JUMPDEST DUP5 ISZERO PUSH2 0xA3E JUMPI PUSH2 0x9E8 PUSH1 0x1 DUP4 PUSH2 0xF4F JUMP JUMPDEST SWAP2 POP PUSH2 0x9F5 PUSH1 0xA DUP7 PUSH2 0x1162 JUMP JUMPDEST PUSH2 0xA00 SWAP1 PUSH1 0x30 PUSH2 0x1176 JUMP JUMPDEST PUSH1 0xF8 SHL DUP2 DUP4 DUP2 MLOAD DUP2 LT PUSH2 0xA15 JUMPI PUSH2 0xA15 PUSH2 0xF68 JUMP JUMPDEST PUSH1 0x20 ADD ADD SWAP1 PUSH1 0x1 PUSH1 0x1 PUSH1 0xF8 SHL SUB NOT AND SWAP1 DUP2 PUSH1 0x0 BYTE SWAP1 MSTORE8 POP PUSH2 0xA37 PUSH1 0xA DUP7 PUSH2 0x114E JUMP JUMPDEST SWAP5 POP PUSH2 0x9D7 JUMP JUMPDEST SWAP5 SWAP4 POP POP POP POP JUMP JUMPDEST PUSH1 0x0 PUSH1 0x20 DUP3 DUP5 SUB SLT ISZERO PUSH2 0xA58 JUMPI PUSH1 0x0 DUP1 REVERT JUMPDEST POP CALLDATALOAD SWAP2 SWAP1 POP JUMP JUMPDEST PUSH1 0x0 JUMPDEST DUP4 DUP2 LT ISZERO PUSH2 0xA7A JUMPI DUP2 DUP2 ADD MLOAD DUP4 DUP3 ADD MSTORE PUSH1 0x20 ADD PUSH2 0xA62 JUMP JUMPDEST POP POP PUSH1 0x0 SWAP2 ADD MSTORE JUMP JUMPDEST PUSH1 0x0 DUP2 MLOAD DUP1 DUP5 MSTORE PUSH2 0xA9B DUP2 PUSH1 0x20 DUP7 ADD PUSH1 0x20 DUP7 ADD PUSH2 0xA5F JUMP JUMPDEST PUSH1 0x1F ADD PUSH1 0x1F NOT AND SWAP3 SWAP1 SWAP3 ADD PUSH1 0x20 ADD SWAP3 SWAP2 POP POP JUMP JUMPDEST PUSH1 0x80 DUP2 MSTORE PUSH1 0x0 PUSH2 0xAC2 PUSH1 0x80 DUP4 ADD DUP8 PUSH2 0xA83 JUMP JUMPDEST DUP3 DUP2 SUB PUSH1 0x20 DUP5 ADD MSTORE PUSH2 0xAD4 DUP2 DUP8 PUSH2 0xA83 JUMP JUMPDEST SWAP1 POP DUP3 DUP2 SUB PUSH1 0x40 DUP5 ADD MSTORE PUSH2 0xAE8 DUP2 DUP7 PUSH2 0xA83 JUMP JUMPDEST SWAP1 POP DUP3 DUP2 SUB PUSH1 0x60 DUP5 ADD MSTORE PUSH2 0xAFC DUP2 DUP6 PUSH2 0xA83 JUMP JUMPDEST SWAP8 SWAP7 POP POP POP POP POP POP POP JUMP JUMPDEST PUSH1 0x0 PUSH1 0x20 DUP1 DUP4 ADD DUP2 DUP5 MSTORE DUP1 DUP6 MLOAD DUP1 DUP4 MSTORE PUSH1 0x40 SWAP3 POP DUP3 DUP7 ADD SWAP2 POP DUP3 DUP2 PUSH1 0x5 SHL DUP8 ADD ADD DUP5 DUP9 ADD PUSH1 0x0 JUMPDEST DUP4 DUP2 LT ISZERO PUSH2 0xB8C JUMPI PUSH1 0x3F NOT DUP10 DUP5 SUB ADD DUP6 MSTORE DUP2 MLOAD PUSH1 0x60 DUP2 MLOAD DUP2 DUP7 MSTORE PUSH2 0xB54 DUP3 DUP8 ADD DUP3 PUSH2 0xA83 JUMP JUMPDEST SWAP2 POP POP DUP9 DUP3 ADD MLOAD DUP6 DUP3 SUB DUP11 DUP8 ADD MSTORE PUSH2 0xB6C DUP3 DUP3 PUSH2 0xA83 JUMP JUMPDEST SWAP3 DUP10 ADD MLOAD ISZERO ISZERO SWAP6 DUP10 ADD SWAP6 SWAP1 SWAP6 MSTORE POP SWAP5 DUP8 ADD SWAP5 SWAP3 POP SWAP1 DUP7 ADD SWAP1 PUSH1 0x1 ADD PUSH2 0xB2E JUMP JUMPDEST POP SWAP1 SWAP9 SWAP8 POP POP POP POP POP POP POP POP JUMP JUMPDEST PUSH4 0x4E487B71 PUSH1 0xE0 SHL PUSH1 0x0 MSTORE PUSH1 0x41 PUSH1 0x4 MSTORE PUSH1 0x24 PUSH1 0x0 REVERT JUMPDEST PUSH1 0x40 MLOAD PUSH1 0x60 DUP2 ADD PUSH8 0xFFFFFFFFFFFFFFFF DUP2 GT DUP3 DUP3 LT OR ISZERO PUSH2 0xBD3 JUMPI PUSH2 0xBD3 PUSH2 0xB9A JUMP JUMPDEST PUSH1 0x40 MSTORE SWAP1 JUMP JUMPDEST PUSH1 0x40 MLOAD PUSH1 0x1F DUP3 ADD PUSH1 0x1F NOT AND DUP2 ADD PUSH8 0xFFFFFFFFFFFFFFFF DUP2 GT DUP3 DUP3 LT OR ISZERO PUSH2 0xC02 JUMPI PUSH2 0xC02 PUSH2 0xB9A JUMP JUMPDEST PUSH1 0x40 MSTORE SWAP2 SWAP1 POP JUMP JUMPDEST PUSH1 0x0 DUP3 PUSH1 0x1F DUP4 ADD SLT PUSH2 0xC1B JUMPI PUSH1 0x0 DUP1 REVERT JUMPDEST DUP2 CALLDATALOAD PUSH8 0xFFFFFFFFFFFFFFFF DUP2 GT ISZERO PUSH2 0xC35 JUMPI PUSH2 0xC35 PUSH2 0xB9A JUMP JUMPDEST PUSH2 0xC48 PUSH1 0x1F DUP3 ADD PUSH1 0x1F NOT AND PUSH1 0x20 ADD PUSH2 0xBD9 JUMP JUMPDEST DUP2 DUP2 MSTORE DUP5 PUSH1 0x20 DUP4 DUP7 ADD ADD GT ISZERO PUSH2 0xC5D JUMPI PUSH1 0x0 DUP1 REVERT JUMPDEST DUP2 PUSH1 0x20 DUP6 ADD PUSH1 0x20 DUP4 ADD CALLDATACOPY PUSH1 0x0 SWAP2 DUP2 ADD PUSH1 0x20 ADD SWAP2 SWAP1 SWAP2 MSTORE SWAP4 SWAP3 POP POP POP JUMP JUMPDEST PUSH1 0x0 DUP1 PUSH1 0x40 DUP4 DUP6 SUB SLT ISZERO PUSH2 0xC8D JUMPI PUSH1 0x0 DUP1 REVERT JUMPDEST DUP3 CALLDATALOAD SWAP2 POP PUSH1 0x20 DUP4 ADD CALLDATALOAD PUSH8 0xFFFFFFFFFFFFFFFF DUP2 GT ISZERO PUSH2 0xCAB JUMPI PUSH1 0x0 DUP1 REVERT JUMPDEST PUSH2 0xCB7 DUP6 DUP3 DUP7 ADD PUSH2 0xC0A JUMP JUMPDEST SWAP2 POP POP SWAP3 POP SWAP3 SWAP1 POP JUMP JUMPDEST PUSH1 0x0 DUP1 PUSH1 0x0 PUSH1 0x60 DUP5 DUP7 SUB SLT ISZERO PUSH2 0xCD6 JUMPI PUSH1 0x0 DUP1 REVERT JUMPDEST DUP4 CALLDATALOAD SWAP3 POP PUSH1 0x20 DUP5 ADD CALLDATALOAD PUSH8 0xFFFFFFFFFFFFFFFF DUP1 DUP3 GT ISZERO PUSH2 0xCF5 JUMPI PUSH1 0x0 DUP1 REVERT JUMPDEST PUSH2 0xD01 DUP8 DUP4 DUP9 ADD PUSH2 0xC0A JUMP JUMPDEST SWAP4 POP PUSH1 0x40 DUP7 ADD CALLDATALOAD SWAP2 POP DUP1 DUP3 GT ISZERO PUSH2 0xD17 JUMPI PUSH1 0x0 DUP1 REVERT JUMPDEST POP PUSH2 0xD24 DUP7 DUP3 DUP8 ADD PUSH2 0xC0A JUMP JUMPDEST SWAP2 POP POP SWAP3 POP SWAP3 POP SWAP3 JUMP JUMPDEST PUSH1 0x0 DUP1 PUSH1 0x0 DUP1 PUSH1 0x80 DUP6 DUP8 SUB SLT ISZERO PUSH2 0xD44 JUMPI PUSH1 0x0 DUP1 REVERT JUMPDEST PUSH8 0xFFFFFFFFFFFFFFFF DUP1 DUP7 CALLDATALOAD GT ISZERO PUSH2 0xD5B JUMPI PUSH1 0x0 DUP1 REVERT JUMPDEST PUSH2 0xD68 DUP8 DUP8 CALLDATALOAD DUP9 ADD PUSH2 0xC0A JUMP JUMPDEST SWAP5 POP PUSH1 0x20 DUP7 ADD CALLDATALOAD DUP2 DUP2 GT ISZERO PUSH2 0xD7C JUMPI PUSH1 0x0 DUP1 REVERT JUMPDEST PUSH2 0xD88 DUP9 DUP3 DUP10 ADD PUSH2 0xC0A JUMP JUMPDEST SWAP5 POP POP PUSH1 0x40 DUP7 ADD CALLDATALOAD DUP2 DUP2 GT ISZERO PUSH2 0xD9D JUMPI PUSH1 0x0 DUP1 REVERT JUMPDEST PUSH2 0xDA9 DUP9 DUP3 DUP10 ADD PUSH2 0xC0A JUMP JUMPDEST SWAP4 POP POP PUSH1 0x60 DUP7 ADD CALLDATALOAD DUP2 DUP2 GT ISZERO PUSH2 0xDBE JUMPI PUSH1 0x0 DUP1 REVERT JUMPDEST DUP7 ADD PUSH1 0x1F DUP2 ADD DUP9 SGT PUSH2 0xDCF JUMPI PUSH1 0x0 DUP1 REVERT JUMPDEST DUP1 CALLDATALOAD DUP3 DUP2 GT ISZERO PUSH2 0xDE1 JUMPI PUSH2 0xDE1 PUSH2 0xB9A JUMP JUMPDEST PUSH2 0xDF0 PUSH1 0x20 DUP3 PUSH1 0x5 SHL ADD PUSH2 0xBD9 JUMP JUMPDEST DUP1 DUP3 DUP3 MSTORE PUSH1 0x20 DUP3 ADD SWAP2 POP PUSH1 0x20 DUP4 PUSH1 0x5 SHL DUP6 ADD ADD SWAP3 POP DUP11 DUP4 GT ISZERO PUSH2 0xE12 JUMPI PUSH1 0x0 DUP1 REVERT JUMPDEST PUSH1 0x20 DUP5 ADD JUMPDEST DUP4 DUP2 LT ISZERO PUSH2 0xEC3 JUMPI DUP6 DUP2 CALLDATALOAD GT ISZERO PUSH2 0xE2D JUMPI PUSH1 0x0 DUP1 REVERT JUMPDEST DUP1 CALLDATALOAD DUP6 ADD PUSH1 0x60 DUP2 DUP15 SUB PUSH1 0x1F NOT ADD SLT ISZERO PUSH2 0xE45 JUMPI PUSH1 0x0 DUP1 REVERT JUMPDEST PUSH2 0xE4D PUSH2 0xBB0 JUMP JUMPDEST PUSH1 0x20 DUP3 ADD CALLDATALOAD DUP9 DUP2 GT ISZERO PUSH2 0xE5F JUMPI PUSH1 0x0 DUP1 REVERT JUMPDEST PUSH2 0xE6E DUP16 PUSH1 0x20 DUP4 DUP7 ADD ADD PUSH2 0xC0A JUMP JUMPDEST DUP3 MSTORE POP PUSH1 0x40 DUP3 ADD CALLDATALOAD DUP9 DUP2 GT ISZERO PUSH2 0xE83 JUMPI PUSH1 0x0 DUP1 REVERT JUMPDEST PUSH2 0xE92 DUP16 PUSH1 0x20 DUP4 DUP7 ADD ADD PUSH2 0xC0A JUMP JUMPDEST PUSH1 0x20 DUP4 ADD MSTORE POP PUSH1 0x60 DUP3 ADD CALLDATALOAD SWAP2 POP DUP2 ISZERO ISZERO DUP3 EQ PUSH2 0xEAD JUMPI PUSH1 0x0 DUP1 REVERT JUMPDEST PUSH1 0x40 DUP2 ADD SWAP2 SWAP1 SWAP2 MSTORE DUP4 MSTORE PUSH1 0x20 SWAP3 DUP4 ADD SWAP3 ADD PUSH2 0xE17 JUMP JUMPDEST POP SWAP8 SWAP11 SWAP7 SWAP10 POP SWAP5 SWAP8 POP POP POP POP POP POP JUMP JUMPDEST PUSH1 0x1 DUP2 DUP2 SHR SWAP1 DUP3 AND DUP1 PUSH2 0xEE7 JUMPI PUSH1 0x7F DUP3 AND SWAP2 POP JUMPDEST PUSH1 0x20 DUP3 LT DUP2 SUB PUSH2 0xF07 JUMPI PUSH4 0x4E487B71 PUSH1 0xE0 SHL PUSH1 0x0 MSTORE PUSH1 0x22 PUSH1 0x4 MSTORE PUSH1 0x24 PUSH1 0x0 REVERT JUMPDEST POP SWAP2 SWAP1 POP JUMP JUMPDEST PUSH1 0x20 DUP1 DUP3 MSTORE PUSH1 0x12 SWAP1 DUP3 ADD MSTORE PUSH18 0x125B9D985B1A59081C1C9BDA9958DD081251 PUSH1 0x72 SHL PUSH1 0x40 DUP3 ADD MSTORE PUSH1 0x60 ADD SWAP1 JUMP JUMPDEST PUSH4 0x4E487B71 PUSH1 0xE0 SHL PUSH1 0x0 MSTORE PUSH1 0x11 PUSH1 0x4 MSTORE PUSH1 0x24 PUSH1 0x0 REVERT JUMPDEST DUP2 DUP2 SUB DUP2 DUP2 GT ISZERO PUSH2 0xF62 JUMPI PUSH2 0xF62 PUSH2 0xF39 JUMP JUMPDEST SWAP3 SWAP2 POP POP JUMP JUMPDEST PUSH4 0x4E487B71 PUSH1 0xE0 SHL PUSH1 0x0 MSTORE PUSH1 0x32 PUSH1 0x4 MSTORE PUSH1 0x24 PUSH1 0x0 REVERT JUMPDEST PUSH1 0x0 DUP3 MLOAD PUSH2 0xF90 DUP2 DUP5 PUSH1 0x20 DUP8 ADD PUSH2 0xA5F JUMP JUMPDEST SWAP2 SWAP1 SWAP2 ADD SWAP3 SWAP2 POP POP JUMP JUMPDEST PUSH1 0x0 DUP1 DUP4 SLOAD PUSH2 0xFA8 DUP2 PUSH2 0xED3 JUMP JUMPDEST PUSH1 0x1 DUP3 DUP2 AND DUP1 ISZERO PUSH2 0xFC0 JUMPI PUSH1 0x1 DUP2 EQ PUSH2 0xFD5 JUMPI PUSH2 0x1004 JUMP JUMPDEST PUSH1 0xFF NOT DUP5 AND DUP8 MSTORE DUP3 ISZERO ISZERO DUP4 MUL DUP8 ADD SWAP5 POP PUSH2 0x1004 JUMP JUMPDEST DUP8 PUSH1 0x0 MSTORE PUSH1 0x20 DUP1 PUSH1 0x0 KECCAK256 PUSH1 0x0 JUMPDEST DUP6 DUP2 LT ISZERO PUSH2 0xFFB JUMPI DUP2 SLOAD DUP11 DUP3 ADD MSTORE SWAP1 DUP5 ADD SWAP1 DUP3 ADD PUSH2 0xFE2 JUMP JUMPDEST POP POP POP DUP3 DUP8 ADD SWAP5 POP JUMPDEST POP SWAP3 SWAP7 SWAP6 POP POP POP POP POP POP JUMP JUMPDEST PUSH1 0x0 PUSH1 0x1 DUP3 ADD PUSH2 0x1022 JUMPI PUSH2 0x1022 PUSH2 0xF39 JUMP JUMPDEST POP PUSH1 0x1 ADD SWAP1 JUMP JUMPDEST PUSH1 0x1F DUP3 GT ISZERO PUSH2 0x1073 JUMPI PUSH1 0x0 DUP2 DUP2 MSTORE PUSH1 0x20 DUP2 KECCAK256 PUSH1 0x1F DUP6 ADD PUSH1 0x5 SHR DUP2 ADD PUSH1 0x20 DUP7 LT ISZERO PUSH2 0x1050 JUMPI POP DUP1 JUMPDEST PUSH1 0x1F DUP6 ADD PUSH1 0x5 SHR DUP3 ADD SWAP2 POP JUMPDEST DUP2 DUP2 LT ISZERO PUSH2 0x106F JUMPI DUP3 DUP2 SSTORE PUSH1 0x1 ADD PUSH2 0x105C JUMP JUMPDEST POP POP POP JUMPDEST POP POP POP JUMP JUMPDEST DUP2 MLOAD PUSH8 0xFFFFFFFFFFFFFFFF DUP2 GT ISZERO PUSH2 0x1092 JUMPI PUSH2 0x1092 PUSH2 0xB9A JUMP JUMPDEST PUSH2 0x10A6 DUP2 PUSH2 0x10A0 DUP5 SLOAD PUSH2 0xED3 JUMP JUMPDEST DUP5 PUSH2 0x1029 JUMP JUMPDEST PUSH1 0x20 DUP1 PUSH1 0x1F DUP4 GT PUSH1 0x1 DUP2 EQ PUSH2 0x10DB JUMPI PUSH1 0x0 DUP5 ISZERO PUSH2 0x10C3 JUMPI POP DUP6 DUP4 ADD MLOAD JUMPDEST PUSH1 0x0 NOT PUSH1 0x3 DUP7 SWAP1 SHL SHR NOT AND PUSH1 0x1 DUP6 SWAP1 SHL OR DUP6 SSTORE PUSH2 0x106F JUMP JUMPDEST PUSH1 0x0 DUP6 DUP2 MSTORE PUSH1 0x20 DUP2 KECCAK256 PUSH1 0x1F NOT DUP7 AND SWAP2 JUMPDEST DUP3 DUP2 LT ISZERO PUSH2 0x110A JUMPI DUP9 DUP7 ADD MLOAD DUP3 SSTORE SWAP5 DUP5 ADD SWAP5 PUSH1 0x1 SWAP1 SWAP2 ADD SWAP1 DUP5 ADD PUSH2 0x10EB JUMP JUMPDEST POP DUP6 DUP3 LT ISZERO PUSH2 0x1128 JUMPI DUP8 DUP6 ADD MLOAD PUSH1 0x0 NOT PUSH1 0x3 DUP9 SWAP1 SHL PUSH1 0xF8 AND SHR NOT AND DUP2 SSTORE JUMPDEST POP POP POP POP POP PUSH1 0x1 SWAP1 DUP2 SHL ADD SWAP1 SSTORE POP JUMP JUMPDEST PUSH4 0x4E487B71 PUSH1 0xE0 SHL PUSH1 0x0 MSTORE PUSH1 0x12 PUSH1 0x4 MSTORE PUSH1 0x24 PUSH1 0x0 REVERT JUMPDEST PUSH1 0x0 DUP3 PUSH2 0x115D JUMPI PUSH2 0x115D PUSH2 0x1138 JUMP JUMPDEST POP DIV SWAP1 JUMP JUMPDEST PUSH1 0x0 DUP3 PUSH2 0x1171 JUMPI PUSH2 0x1171 PUSH2 0x1138 JUMP JUMPDEST POP MOD SWAP1 JUMP JUMPDEST DUP1 DUP3 ADD DUP1 DUP3 GT ISZERO PUSH2 0xF62 JUMPI PUSH2 0xF62 PUSH2 0xF39 JUMP INVALID LOG2 PUSH5 0x6970667358 0x22 SLT KECCAK256 AND PUSH15 0x2D0CB65980DF3AA19E7991C179E27 0xC4 0xCF 0xB7 SWAP4 0x2A PUSH26 0xBEF3F1EB239D9E822864736F6C63430008140033000000000000 "},"methodIdentifiers":{"Counter()":"4eeca076","addProject(string,string,string,(string,string,bool)[])":"d95deebd","addtasks(uint256,string,string)":"ba5cdd54","finishtasks(uint256,string)":"5a69e55b","getProjectTasks(uint256)":"591c564f","owner()":"8da5cb5b","projects(uint256)":"107046bd","tokenaddress()":"3feff76d"}}}}}