{
  "_format": "hh-sol-artifact-1",
  "contractName": "TaskCon",
  "sourceName": "contracts/TaskCon.sol",
  "abi": [
    {
      "inputs": [],
      "stateMutability": "nonpayable",
      "type": "constructor"
    },
    {
      "anonymous": false,
      "inputs": [
        {
          "indexed": false,
          "internalType": "address",
          "name": "recipient",
          "type": "address"
        },
        {
          "indexed": false,
          "internalType": "uint256",
          "name": "projectid",
          "type": "uint256"
        }
      ],
      "name": "AddProject",
      "type": "event"
    },
    {
      "anonymous": false,
      "inputs": [
        {
          "indexed": false,
          "internalType": "uint256",
          "name": "projectId",
          "type": "uint256"
        },
        {
          "indexed": false,
          "internalType": "uint256",
          "name": "taskId",
          "type": "uint256"
        }
      ],
      "name": "TaskFinished",
      "type": "event"
    },
    {
      "inputs": [],
      "name": "CollaboratorToken",
      "outputs": [
        {
          "internalType": "contract IERC20",
          "name": "",
          "type": "address"
        }
      ],
      "stateMutability": "view",
      "type": "function"
    },
    {
      "inputs": [],
      "name": "Counter",
      "outputs": [
        {
          "internalType": "uint256",
          "name": "",
          "type": "uint256"
        }
      ],
      "stateMutability": "view",
      "type": "function"
    },
    {
      "inputs": [
        {
          "internalType": "string",
          "name": "_title",
          "type": "string"
        },
        {
          "internalType": "string",
          "name": "_description",
          "type": "string"
        },
        {
          "internalType": "string",
          "name": "_url",
          "type": "string"
        },
        {
          "components": [
            {
              "internalType": "string",
              "name": "tasktitle",
              "type": "string"
            },
            {
              "internalType": "string",
              "name": "description",
              "type": "string"
            },
            {
              "internalType": "uint256",
              "name": "isdone",
              "type": "uint256"
            },
            {
              "internalType": "string",
              "name": "ownerman",
              "type": "string"
            },
            {
              "internalType": "string",
              "name": "collaborator",
              "type": "string"
            }
          ],
          "internalType": "struct TaskCon.task[]",
          "name": "_tasks",
          "type": "tuple[]"
        },
        {
          "internalType": "string",
          "name": "ownerman",
          "type": "string"
        }
      ],
      "name": "addProject",
      "outputs": [],
      "stateMutability": "nonpayable",
      "type": "function"
    },
    {
      "inputs": [
        {
          "internalType": "uint256",
          "name": "projectId",
          "type": "uint256"
        },
        {
          "internalType": "string",
          "name": "tasktitle",
          "type": "string"
        },
        {
          "internalType": "string",
          "name": "description",
          "type": "string"
        },
        {
          "internalType": "string",
          "name": "ownerman",
          "type": "string"
        }
      ],
      "name": "addtasks",
      "outputs": [],
      "stateMutability": "nonpayable",
      "type": "function"
    },
    {
      "inputs": [
        {
          "internalType": "uint256",
          "name": "",
          "type": "uint256"
        }
      ],
      "name": "attempts",
      "outputs": [
        {
          "internalType": "uint256",
          "name": "projectid",
          "type": "uint256"
        },
        {
          "internalType": "string",
          "name": "tasktitle",
          "type": "string"
        },
        {
          "internalType": "uint256",
          "name": "taskid",
          "type": "uint256"
        },
        {
          "internalType": "string",
          "name": "collaborator",
          "type": "string"
        },
        {
          "internalType": "uint256",
          "name": "status",
          "type": "uint256"
        }
      ],
      "stateMutability": "view",
      "type": "function"
    },
    {
      "inputs": [
        {
          "internalType": "address",
          "name": "",
          "type": "address"
        }
      ],
      "name": "balances",
      "outputs": [
        {
          "internalType": "uint256",
          "name": "",
          "type": "uint256"
        }
      ],
      "stateMutability": "view",
      "type": "function"
    },
    {
      "inputs": [
        {
          "internalType": "uint256",
          "name": "projectId",
          "type": "uint256"
        },
        {
          "internalType": "uint256",
          "name": "taskId",
          "type": "uint256"
        },
        {
          "internalType": "string",
          "name": "tasktitle",
          "type": "string"
        },
        {
          "internalType": "string",
          "name": "collaborator",
          "type": "string"
        }
      ],
      "name": "create_attempt",
      "outputs": [],
      "stateMutability": "nonpayable",
      "type": "function"
    },
    {
      "inputs": [],
      "name": "deposit",
      "outputs": [],
      "stateMutability": "payable",
      "type": "function"
    },
    {
      "inputs": [
        {
          "internalType": "uint256",
          "name": "projectId",
          "type": "uint256"
        },
        {
          "internalType": "string",
          "name": "newTitle",
          "type": "string"
        }
      ],
      "name": "editProjectTitle",
      "outputs": [],
      "stateMutability": "nonpayable",
      "type": "function"
    },
    {
      "inputs": [
        {
          "internalType": "uint256",
          "name": "projectId",
          "type": "uint256"
        },
        {
          "internalType": "uint256",
          "name": "taskId",
          "type": "uint256"
        },
        {
          "internalType": "string",
          "name": "collaborator",
          "type": "string"
        }
      ],
      "name": "finishtask",
      "outputs": [],
      "stateMutability": "nonpayable",
      "type": "function"
    },
    {
      "inputs": [],
      "name": "getContractBalance",
      "outputs": [
        {
          "internalType": "uint256",
          "name": "",
          "type": "uint256"
        }
      ],
      "stateMutability": "view",
      "type": "function"
    },
    {
      "inputs": [
        {
          "internalType": "uint256",
          "name": "projectId",
          "type": "uint256"
        }
      ],
      "name": "getProjectTasks",
      "outputs": [
        {
          "components": [
            {
              "internalType": "string",
              "name": "tasktitle",
              "type": "string"
            },
            {
              "internalType": "string",
              "name": "description",
              "type": "string"
            },
            {
              "internalType": "uint256",
              "name": "isdone",
              "type": "uint256"
            },
            {
              "internalType": "string",
              "name": "ownerman",
              "type": "string"
            },
            {
              "internalType": "string",
              "name": "collaborator",
              "type": "string"
            }
          ],
          "internalType": "struct TaskCon.task[]",
          "name": "",
          "type": "tuple[]"
        }
      ],
      "stateMutability": "view",
      "type": "function"
    },
    {
      "inputs": [],
      "name": "getattempts",
      "outputs": [
        {
          "internalType": "string",
          "name": "",
          "type": "string"
        }
      ],
      "stateMutability": "view",
      "type": "function"
    },
    {
      "inputs": [],
      "name": "getfeed",
      "outputs": [
        {
          "internalType": "string",
          "name": "",
          "type": "string"
        }
      ],
      "stateMutability": "view",
      "type": "function"
    },
    {
      "inputs": [],
      "name": "owner",
      "outputs": [
        {
          "internalType": "address",
          "name": "",
          "type": "address"
        }
      ],
      "stateMutability": "view",
      "type": "function"
    },
    {
      "inputs": [
        {
          "internalType": "uint256",
          "name": "",
          "type": "uint256"
        }
      ],
      "name": "projects",
      "outputs": [
        {
          "internalType": "string",
          "name": "title",
          "type": "string"
        },
        {
          "internalType": "string",
          "name": "description",
          "type": "string"
        },
        {
          "internalType": "string",
          "name": "url",
          "type": "string"
        },
        {
          "internalType": "string",
          "name": "projectid",
          "type": "string"
        },
        {
          "internalType": "string",
          "name": "ownerman",
          "type": "string"
        }
      ],
      "stateMutability": "view",
      "type": "function"
    },
    {
      "inputs": [],
      "name": "tokenaddress",
      "outputs": [
        {
          "internalType": "address",
          "name": "",
          "type": "address"
        }
      ],
      "stateMutability": "view",
      "type": "function"
    }
  ],
  "bytecode": "0x60806040523480156200001157600080fd5b50600280546001600160a01b03191633179055604051620000329062000084565b604051809103906000f0801580156200004f573d6000803e3d6000fd5b50600180546001600160a01b03929092166001600160a01b031992831681179091556000805490921617815560035562000092565b610c2f8062002fa983390190565b612f0780620000a26000396000f3fe6080604052600436106100fe5760003560e01c806350d4be90116100955780638da5cb5b116100645780638da5cb5b146102db578063a92a7fb7146102fb578063b160b1d214610310578063c6edc8d314610330578063d0e30db01461035057600080fd5b806350d4be901461025b578063591c564f1461027b5780636f431d82146102a85780636f9fb98a146102c857600080fd5b80633feff76d116100d15780633feff76d146101bc57806342b343a3146101f457806346c48649146102255780634eeca0761461024557600080fd5b806301162b6014610103578063107046bd1461012e5780631bc25d781461015f57806327e235e314610181575b600080fd5b34801561010f57600080fd5b50610118610358565b6040516101259190612359565b60405180910390f35b34801561013a57600080fd5b5061014e610149366004612373565b610680565b60405161012595949392919061238c565b34801561016b57600080fd5b5061017f61017a36600461261f565b61096e565b005b34801561018d57600080fd5b506101ae61019c3660046126f0565b60046020526000908152604090205481565b604051908152602001610125565b3480156101c857600080fd5b506001546101dc906001600160a01b031681565b6040516001600160a01b039091168152602001610125565b34801561020057600080fd5b5061021461020f366004612373565b610b0b565b604051610125959493929190612719565b34801561023157600080fd5b5061017f61024036600461275d565b610c5d565b34801561025157600080fd5b506101ae60035481565b34801561026757600080fd5b506000546101dc906001600160a01b031681565b34801561028757600080fd5b5061029b610296366004612373565b610cd4565b60405161012591906127a3565b3480156102b457600080fd5b5061017f6102c336600461286a565b610fe1565b3480156102d457600080fd5b50476101ae565b3480156102e757600080fd5b506002546101dc906001600160a01b031681565b34801561030757600080fd5b506101186110ac565b34801561031c57600080fd5b5061017f61032b3660046128e0565b611823565b34801561033c57600080fd5b5061017f61034b366004612936565b611938565b61017f611bee565b6006546060906000906001600160401b03811115610378576103786123f9565b6040519080825280602002602001820160405280156103db57816020015b6103c86040518060a0016040528060008152602001606081526020016000815260200160608152602001600081525090565b8152602001906001900390816103965790505b5090506000805b60065481101561059857600681815481106103ff576103ff612985565b90600052602060002090600502016040518060a0016040529081600082015481526020016001820180546104329061299b565b80601f016020809104026020016040519081016040528092919081815260200182805461045e9061299b565b80156104ab5780601f10610480576101008083540402835291602001916104ab565b820191906000526020600020905b81548152906001019060200180831161048e57829003601f168201915b50505050508152602001600282015481526020016003820180546104ce9061299b565b80601f01602080910402602001604051908101604052809291908181526020018280546104fa9061299b565b80156105475780601f1061051c57610100808354040283529160200191610547565b820191906000526020600020905b81548152906001019060200180831161052a57829003601f168201915b5050505050815260200160048201548152505083838151811061056c5761056c612985565b60200260200101819052508180610582906129eb565b9250508080610590906129eb565b9150506103e2565b506000816001600160401b038111156105b3576105b36123f9565b60405190808252806020026020018201604052801561061657816020015b6106036040518060a0016040528060008152602001606081526020016000815260200160608152602001600081525090565b8152602001906001900390816105d15790505b50905060005b8281101561066e5783818151811061063657610636612985565b602002602001015182828151811061065057610650612985565b60200260200101819052508080610666906129eb565b91505061061c565b5061067881611c75565b935050505090565b6005818154811061069057600080fd5b90600052602060002090600602016000915090508060000180546106b39061299b565b80601f01602080910402602001604051908101604052809291908181526020018280546106df9061299b565b801561072c5780601f106107015761010080835404028352916020019161072c565b820191906000526020600020905b81548152906001019060200180831161070f57829003601f168201915b5050505050908060010180546107419061299b565b80601f016020809104026020016040519081016040528092919081815260200182805461076d9061299b565b80156107ba5780601f1061078f576101008083540402835291602001916107ba565b820191906000526020600020905b81548152906001019060200180831161079d57829003601f168201915b5050505050908060020180546107cf9061299b565b80601f01602080910402602001604051908101604052809291908181526020018280546107fb9061299b565b80156108485780601f1061081d57610100808354040283529160200191610848565b820191906000526020600020905b81548152906001019060200180831161082b57829003601f168201915b50505050509080600401805461085d9061299b565b80601f01602080910402602001604051908101604052809291908181526020018280546108899061299b565b80156108d65780601f106108ab576101008083540402835291602001916108d6565b820191906000526020600020905b8154815290600101906020018083116108b957829003601f168201915b5050505050908060050180546108eb9061299b565b80601f01602080910402602001604051908101604052809291908181526020018280546109179061299b565b80156109645780601f1061093957610100808354040283529160200191610964565b820191906000526020600020905b81548152906001019060200180831161094757829003601f168201915b5050505050905085565b6003805490600061097e836129eb565b9091555050600580546001810182556000919091526006027f036b6384b5eca791c62761152d0c79bb0604c104a5fb6f4eb0703f3154bb3db001806109c38782612a52565b50600181016109d28682612a52565b50600281016109e18582612a52565b506109ed600354611d65565b60048201906109fc9082612a52565b5060058101610a0b8382612a52565b5060005b8351811015610ac4576000848281518110610a2c57610a2c612985565b60209081029190910181015160038501805460018101825560009182529290208151919350839260050201908190610a649082612a52565b5060208201516001820190610a799082612a52565b506040820151600282015560608201516003820190610a989082612a52565b5060808201516004820190610aad9082612a52565b505050508080610abc906129eb565b915050610a0f565b506003546040805133815260208101929092527f4a31f5ac372495eeadf90f1b0d3a4693dbb858e9f2e9730987f6d93338dc06ac91015b60405180910390a1505050505050565b60068181548110610b1b57600080fd5b60009182526020909120600590910201805460018201805491935090610b409061299b565b80601f0160208091040260200160405190810160405280929190818152602001828054610b6c9061299b565b8015610bb95780601f10610b8e57610100808354040283529160200191610bb9565b820191906000526020600020905b815481529060010190602001808311610b9c57829003601f168201915b505050505090806002015490806003018054610bd49061299b565b80601f0160208091040260200160405190810160405280929190818152602001828054610c009061299b565b8015610c4d5780601f10610c2257610100808354040283529160200191610c4d565b820191906000526020600020905b815481529060010190602001808311610c3057829003601f168201915b5050505050908060040154905085565b600082118015610c6f57506003548211155b610c945760405162461bcd60e51b8152600401610c8b90612b11565b60405180910390fd5b806005610ca2600185612b3d565b81548110610cb257610cb2612985565b90600052602060002090600602016000019081610ccf9190612a52565b505050565b6060600082118015610ce857506003548211155b610d045760405162461bcd60e51b8152600401610c8b90612b11565b6005610d11600184612b3d565b81548110610d2157610d21612985565b9060005260206000209060060201600301805480602002602001604051908101604052809291908181526020016000905b82821015610fd657838290600052602060002090600502016040518060a0016040529081600082018054610d859061299b565b80601f0160208091040260200160405190810160405280929190818152602001828054610db19061299b565b8015610dfe5780601f10610dd357610100808354040283529160200191610dfe565b820191906000526020600020905b815481529060010190602001808311610de157829003601f168201915b50505050508152602001600182018054610e179061299b565b80601f0160208091040260200160405190810160405280929190818152602001828054610e439061299b565b8015610e905780601f10610e6557610100808354040283529160200191610e90565b820191906000526020600020905b815481529060010190602001808311610e7357829003601f168201915b5050505050815260200160028201548152602001600382018054610eb39061299b565b80601f0160208091040260200160405190810160405280929190818152602001828054610edf9061299b565b8015610f2c5780601f10610f0157610100808354040283529160200191610f2c565b820191906000526020600020905b815481529060010190602001808311610f0f57829003601f168201915b50505050508152602001600482018054610f459061299b565b80601f0160208091040260200160405190810160405280929190818152602001828054610f719061299b565b8015610fbe5780601f10610f9357610100808354040283529160200191610fbe565b820191906000526020600020905b815481529060010190602001808311610fa157829003601f168201915b50505050508152505081526020019060010190610d52565b505050509050919050565b6040805160a0810182528581526020810184815291810185905260608101839052600060808201819052600680546001810182559152815160059091027ff652222313e28459528d920b65115c16c04f3efc82aaedc97be59f3f377c0d3f81019182559251919283927ff652222313e28459528d920b65115c16c04f3efc82aaedc97be59f3f377c0d40909101906110799082612a52565b5060408201516002820155606082015160038201906110989082612a52565b506080820151816004015550505050505050565b6005546060906000906001600160401b038111156110cc576110cc6123f9565b60405190808252806020026020018201604052801561113657816020015b6111236040518060c001604052806060815260200160608152602001606081526020016060815260200160608152602001606081525090565b8152602001906001900390816110ea5790505b5090506000805b60055481101561173c576005818154811061115a5761115a612985565b90600052602060002090600602016040518060c00160405290816000820180546111839061299b565b80601f01602080910402602001604051908101604052809291908181526020018280546111af9061299b565b80156111fc5780601f106111d1576101008083540402835291602001916111fc565b820191906000526020600020905b8154815290600101906020018083116111df57829003601f168201915b505050505081526020016001820180546112159061299b565b80601f01602080910402602001604051908101604052809291908181526020018280546112419061299b565b801561128e5780601f106112635761010080835404028352916020019161128e565b820191906000526020600020905b81548152906001019060200180831161127157829003601f168201915b505050505081526020016002820180546112a79061299b565b80601f01602080910402602001604051908101604052809291908181526020018280546112d39061299b565b80156113205780601f106112f557610100808354040283529160200191611320565b820191906000526020600020905b81548152906001019060200180831161130357829003601f168201915b5050505050815260200160038201805480602002602001604051908101604052809291908181526020016000905b828210156115d257838290600052602060002090600502016040518060a00160405290816000820180546113819061299b565b80601f01602080910402602001604051908101604052809291908181526020018280546113ad9061299b565b80156113fa5780601f106113cf576101008083540402835291602001916113fa565b820191906000526020600020905b8154815290600101906020018083116113dd57829003601f168201915b505050505081526020016001820180546114139061299b565b80601f016020809104026020016040519081016040528092919081815260200182805461143f9061299b565b801561148c5780601f106114615761010080835404028352916020019161148c565b820191906000526020600020905b81548152906001019060200180831161146f57829003601f168201915b50505050508152602001600282015481526020016003820180546114af9061299b565b80601f01602080910402602001604051908101604052809291908181526020018280546114db9061299b565b80156115285780601f106114fd57610100808354040283529160200191611528565b820191906000526020600020905b81548152906001019060200180831161150b57829003601f168201915b505050505081526020016004820180546115419061299b565b80601f016020809104026020016040519081016040528092919081815260200182805461156d9061299b565b80156115ba5780601f1061158f576101008083540402835291602001916115ba565b820191906000526020600020905b81548152906001019060200180831161159d57829003601f168201915b5050505050815250508152602001906001019061134e565b5050505081526020016004820180546115ea9061299b565b80601f01602080910402602001604051908101604052809291908181526020018280546116169061299b565b80156116635780601f1061163857610100808354040283529160200191611663565b820191906000526020600020905b81548152906001019060200180831161164657829003601f168201915b5050505050815260200160058201805461167c9061299b565b80601f01602080910402602001604051908101604052809291908181526020018280546116a89061299b565b80156116f55780601f106116ca576101008083540402835291602001916116f5565b820191906000526020600020905b8154815290600101906020018083116116d857829003601f168201915b50505050508152505083838151811061171057611710612985565b60200260200101819052508180611726906129eb565b9250508080611734906129eb565b91505061113d565b506000816001600160401b03811115611757576117576123f9565b6040519080825280602002602001820160405280156117c157816020015b6117ae6040518060c001604052806060815260200160608152602001606081526020016060815260200160608152602001606081525090565b8152602001906001900390816117755790505b50905060005b82811015611819578381815181106117e1576117e1612985565b60200260200101518282815181106117fb576117fb612985565b60200260200101819052508080611811906129eb565b9150506117c7565b5061067881611e6d565b60008411801561183557506003548411155b6118515760405162461bcd60e51b8152600401610c8b90612b11565b60006040518060a0016040528085815260200184815260200160008152602001838152602001604051806020016040528060008152508152509050600560018661189b9190612b3d565b815481106118ab576118ab612985565b6000918252602080832060036006909302019190910180546001810182559083529120825183926005029091019081906118e59082612a52565b50602082015160018201906118fa9082612a52565b5060408201516002820155606082015160038201906119199082612a52565b506080820151600482019061192e9082612a52565b5050505050505050565b60008311801561194a57506005548311155b6119665760405162461bcd60e51b8152600401610c8b90612b11565b6000821180156119a75750600561197e600185612b3d565b8154811061198e5761198e612985565b9060005260206000209060060201600301805490508211155b6119e55760405162461bcd60e51b815260206004820152600f60248201526e125b9d985b1a59081d185cdac81251608a1b6044820152606401610c8b565b600060056119f4600186612b3d565b81548110611a0457611a04612985565b90600052602060002090600602016003019050600181600185611a279190612b3d565b81548110611a3757611a37612985565b60009182526020909120600260059092020101558181611a58600186612b3d565b81548110611a6857611a68612985565b90600052602060002090600502016004019081611a859190612a52565b5060005b600654811015611b2f578460068281548110611aa757611aa7612985565b906000526020600020906005020160000154148015611ae957508360068281548110611ad557611ad5612985565b906000526020600020906005020160020154145b15611b1d57600160068281548110611b0357611b03612985565b906000526020600020906005020160040181905550611b2f565b80611b27816129eb565b915050611a89565b506000611b3b83611f34565b60005460405163a9059cbb60e01b81526001600160a01b0380841660048301526064602483018190529394509091169063a9059cbb906044016020604051808303816000875af1158015611b93573d6000803e3d6000fd5b505050506040513d601f19601f82011682018060405250810190611bb79190612b56565b5060408051878152602081018790527fa5f5ad5a3ae74375cb014de63dd7396355489c697ef6034ca9c958d1ed6343e09101610afb565b60003411611c4f5760405162461bcd60e51b815260206004820152602860248201527f4465706f73697420616d6f756e74206d7573742062652067726561746572207460448201526768616e207a65726f60c01b6064820152608401610c8b565b3360009081526004602052604081208054349290611c6e908490612b78565b9091555050565b60606000604051602001611c9090605b60f81b815260010190565b604051602081830303815290604052905060005b8351811015611d3c5781611cd0858381518110611cc357611cc3612985565b6020026020010151612121565b604051602001611ce1929190612b8b565b604051602081830303815290604052915060018451611d009190612b3d565b811015611d2a5781604051602001611d189190612bba565b60405160208183030381529060405291505b80611d34816129eb565b915050611ca4565b5080604051602001611d4e9190612bdf565b60408051601f198184030181529190529392505050565b606081600003611d8c5750506040805180820190915260018152600360fc1b602082015290565b8160005b8115611db65780611da0816129eb565b9150611daf9050600a83612c1a565b9150611d90565b6000816001600160401b03811115611dd057611dd06123f9565b6040519080825280601f01601f191660200182016040528015611dfa576020820181803683370190505b5090505b8415611e6557611e0f600183612b3d565b9150611e1c600a86612c2e565b611e27906030612b78565b60f81b818381518110611e3c57611e3c612985565b60200101906001600160f81b031916908160001a905350611e5e600a86612c1a565b9450611dfe565b949350505050565b60606000604051602001611e8890605b60f81b815260010190565b604051602081830303815290604052905060005b8351811015611d3c5781611ec8858381518110611ebb57611ebb612985565b60200260200101516121be565b604051602001611ed9929190612b8b565b604051602081830303815290604052915060018451611ef89190612b3d565b811015611f225781604051602001611f109190612bba565b60405160208183030381529060405291505b80611f2c816129eb565b915050611e9c565b60008181808060025b602a81101561211657611f5261010085612c42565b9350848181518110611f6657611f66612985565b016020015160f81c925084611f7c826001612b78565b81518110611f8c57611f8c612985565b016020015160f81c915060616001600160a01b03841610801590611fba57506066836001600160a01b031611155b15611fd157611fca605784612c74565b925061203c565b6041836001600160a01b031610158015611ff557506046836001600160a01b031611155b1561200557611fca603784612c74565b6030836001600160a01b03161015801561202957506039836001600160a01b031611155b1561203c57612039603084612c74565b92505b6061826001600160a01b03161015801561206057506066826001600160a01b031611155b1561207757612070605783612c74565b91506120e2565b6041826001600160a01b03161015801561209b57506046826001600160a01b031611155b156120ab57612070603783612c74565b6030826001600160a01b0316101580156120cf57506039826001600160a01b031611155b156120e2576120df603083612c74565b91505b816120ee846010612c42565b6120f89190612c9b565b6121029085612c9b565b935061210f600282612b78565b9050611f3d565b509195945050505050565b60606121308260000151611d65565b82602001516121428460400151611d65565b84606001518560800151600114612176576040518060400160405280600581526020016466616c736560d81b815250612194565b604051806040016040528060048152602001637472756560e01b8152505b6040516020016121a8959493929190612cbb565b6040516020818303038152906040529050919050565b608081015181516040516060926000926121da92602001612dc3565b604051602081830303815290604052905060005b83606001515181101561229257816122228560600151838151811061221557612215612985565b60200260200101516122a4565b604051602001612233929190612b8b565b604051602081830303815290604052915060018460600151516122569190612b3d565b811015612280578160405160200161226e9190612bba565b60405160208183030381529060405291505b8061228a816129eb565b9150506121ee565b5080604051602001611d4e9190612e3c565b6060816000015182604001516001146122da576040518060400160405280600581526020016466616c736560d81b8152506122f8565b604051806040016040528060048152602001637472756560e01b8152505b6040516020016121a8929190612e62565b60005b8381101561232457818101518382015260200161230c565b50506000910152565b60008151808452612345816020860160208601612309565b601f01601f19169290920160200192915050565b60208152600061236c602083018461232d565b9392505050565b60006020828403121561238557600080fd5b5035919050565b60a08152600061239f60a083018861232d565b82810360208401526123b1818861232d565b905082810360408401526123c5818761232d565b905082810360608401526123d9818661232d565b905082810360808401526123ed818561232d565b98975050505050505050565b634e487b7160e01b600052604160045260246000fd5b60405160a081016001600160401b0381118282101715612431576124316123f9565b60405290565b604051601f8201601f191681016001600160401b038111828210171561245f5761245f6123f9565b604052919050565b600082601f83011261247857600080fd5b81356001600160401b03811115612491576124916123f9565b6124a4601f8201601f1916602001612437565b8181528460208386010111156124b957600080fd5b816020850160208301376000918101602001919091529392505050565b600082601f8301126124e757600080fd5b813560206001600160401b0380831115612503576125036123f9565b8260051b612512838201612437565b938452858101830193838101908886111561252c57600080fd5b84880192505b858310156123ed5782358481111561254a5760008081fd5b880160a0818b03601f19018113156125625760008081fd5b61256a61240f565b878301358781111561257c5760008081fd5b61258a8d8a83870101612467565b825250604080840135888111156125a15760008081fd5b6125af8e8b83880101612467565b8a84015250606080850135828401526080915081850135898111156125d45760008081fd5b6125e28f8c83890101612467565b828501525050828401359250878311156125fc5760008081fd5b61260a8d8a85870101612467565b90820152845250509184019190840190612532565b600080600080600060a0868803121561263757600080fd5b85356001600160401b038082111561264e57600080fd5b61265a89838a01612467565b9650602088013591508082111561267057600080fd5b61267c89838a01612467565b9550604088013591508082111561269257600080fd5b61269e89838a01612467565b945060608801359150808211156126b457600080fd5b6126c089838a016124d6565b935060808801359150808211156126d657600080fd5b506126e388828901612467565b9150509295509295909350565b60006020828403121561270257600080fd5b81356001600160a01b038116811461236c57600080fd5b85815260a06020820152600061273260a083018761232d565b856040840152828103606084015261274a818661232d565b9150508260808301529695505050505050565b6000806040838503121561277057600080fd5b8235915060208301356001600160401b0381111561278d57600080fd5b61279985828601612467565b9150509250929050565b60006020808301818452808551808352604092508286019150828160051b87010184880160005b8381101561285c57603f19898403018552815160a081518186526127f08287018261232d565b915050888201518582038a870152612808828261232d565b91505087820151888601526060808301518683038288015261282a838261232d565b9250505060808083015192508582038187015250612848818361232d565b9689019694505050908601906001016127ca565b509098975050505050505050565b6000806000806080858703121561288057600080fd5b843593506020850135925060408501356001600160401b03808211156128a557600080fd5b6128b188838901612467565b935060608701359150808211156128c757600080fd5b506128d487828801612467565b91505092959194509250565b600080600080608085870312156128f657600080fd5b8435935060208501356001600160401b038082111561291457600080fd5b61292088838901612467565b945060408701359150808211156128a557600080fd5b60008060006060848603121561294b57600080fd5b833592506020840135915060408401356001600160401b0381111561296f57600080fd5b61297b86828701612467565b9150509250925092565b634e487b7160e01b600052603260045260246000fd5b600181811c908216806129af57607f821691505b6020821081036129cf57634e487b7160e01b600052602260045260246000fd5b50919050565b634e487b7160e01b600052601160045260246000fd5b6000600182016129fd576129fd6129d5565b5060010190565b601f821115610ccf57600081815260208120601f850160051c81016020861015612a2b5750805b601f850160051c820191505b81811015612a4a57828155600101612a37565b505050505050565b81516001600160401b03811115612a6b57612a6b6123f9565b612a7f81612a79845461299b565b84612a04565b602080601f831160018114612ab45760008415612a9c5750858301515b600019600386901b1c1916600185901b178555612a4a565b600085815260208120601f198616915b82811015612ae357888601518255948401946001909101908401612ac4565b5085821015612b015787850151600019600388901b60f8161c191681555b5050505050600190811b01905550565b602080825260129082015271125b9d985b1a59081c1c9bda9958dd08125160721b604082015260600190565b81810381811115612b5057612b506129d5565b92915050565b600060208284031215612b6857600080fd5b8151801515811461236c57600080fd5b80820180821115612b5057612b506129d5565b60008351612b9d818460208801612309565b835190830190612bb1818360208801612309565b01949350505050565b60008251612bcc818460208701612309565b600b60fa1b920191825250600101919050565b60008251612bf1818460208701612309565b605d60f81b920191825250600101919050565b634e487b7160e01b600052601260045260246000fd5b600082612c2957612c29612c04565b500490565b600082612c3d57612c3d612c04565b500690565b6001600160a01b03828116828216818102831692918115828504821417612c6b57612c6b6129d5565b50505092915050565b6001600160a01b03828116828216039080821115612c9457612c946129d5565b5092915050565b6001600160a01b03818116838216019080821115612c9457612c946129d5565b6d3d91383937b532b1ba34b2111d1160911b81528551600090612ce581600e850160208b01612309565b6e1116113a30b9b5ba34ba3632911d1160891b600e918401918201528651612d1481601d840160208b01612309565b6b1116113a30b9b5b4b2111d1160a11b601d92909101918201528551612d41816029840160208a01612309565b7111161131b7b63630b137b930ba37b9111d1160711b602992909101918201528451612d7481603b840160208901612309565b6a11161139ba30ba3ab9911d60a91b603b92909101918201528351612da0816046840160208801612309565b612db6604682840101607d60f81b815260010190565b9998505050505050505050565b6d3d91383937b532b1ba34b2111d1160911b81528251600090612ded81600e850160208801612309565b6a1116113a34ba3632911d1160a91b600e918401918201528351612e18816019840160208801612309565b6a222c227461736b73223a5b60a81b60199290910191820152602401949350505050565b60008251612e4e818460208701612309565b615d7d60f01b920191825250600201919050565b6d3d913a30b9b5ba34ba3632911d1160911b81528251600090612e8c81600e850160208801612309565b6a11161134b9b237b732911d60a91b600e918401918201528351612eb7816019840160208801612309565b607d60f81b60199290910191820152601a0194935050505056fea2646970667358221220db997e5f083f08fbf868739d3a4bd24760c96ca701047063e4e04344d24b43e664736f6c6343000814003360806040523480156200001157600080fd5b506040518060400160405280601181526020017021b7b63630b137b930ba37b92a37b5b2b760791b81525060405180604001604052806002815260200161434b60f01b8152508160039081620000689190620002d6565b506004620000778282620002d6565b505050620000b1336200008f620000b760201b60201c565b6200009c90600a620004b7565b620000ab90620f4240620004cf565b620000bc565b620004ff565b601290565b6001600160a01b038216620000ec5760405163ec442f0560e01b8152600060048201526024015b60405180910390fd5b620000fa60008383620000fe565b5050565b6001600160a01b0383166200012d578060026000828254620001219190620004e9565b90915550620001a19050565b6001600160a01b03831660009081526020819052604090205481811015620001825760405163391434e360e21b81526001600160a01b03851660048201526024810182905260448101839052606401620000e3565b6001600160a01b03841660009081526020819052604090209082900390555b6001600160a01b038216620001bf57600280548290039055620001de565b6001600160a01b03821660009081526020819052604090208054820190555b816001600160a01b0316836001600160a01b03167fddf252ad1be2c89b69c2b068fc378daa952ba7f163c4a11628f55a4df523b3ef836040516200022491815260200190565b60405180910390a3505050565b634e487b7160e01b600052604160045260246000fd5b600181811c908216806200025c57607f821691505b6020821081036200027d57634e487b7160e01b600052602260045260246000fd5b50919050565b601f821115620002d157600081815260208120601f850160051c81016020861015620002ac5750805b601f850160051c820191505b81811015620002cd57828155600101620002b8565b5050505b505050565b81516001600160401b03811115620002f257620002f262000231565b6200030a8162000303845462000247565b8462000283565b602080601f831160018114620003425760008415620003295750858301515b600019600386901b1c1916600185901b178555620002cd565b600085815260208120601f198616915b82811015620003735788860151825594840194600190910190840162000352565b5085821015620003925787850151600019600388901b60f8161c191681555b5050505050600190811b01905550565b634e487b7160e01b600052601160045260246000fd5b600181815b80851115620003f9578160001904821115620003dd57620003dd620003a2565b80851615620003eb57918102915b93841c9390800290620003bd565b509250929050565b6000826200041257506001620004b1565b816200042157506000620004b1565b81600181146200043a5760028114620004455762000465565b6001915050620004b1565b60ff841115620004595762000459620003a2565b50506001821b620004b1565b5060208310610133831016604e8410600b84101617156200048a575081810a620004b1565b620004968383620003b8565b8060001904821115620004ad57620004ad620003a2565b0290505b92915050565b6000620004c860ff84168362000401565b9392505050565b8082028115828204841417620004b157620004b1620003a2565b80820180821115620004b157620004b1620003a2565b610720806200050f6000396000f3fe608060405234801561001057600080fd5b50600436106100935760003560e01c8063313ce56711610066578063313ce567146100fe57806370a082311461010d57806395d89b4114610136578063a9059cbb1461013e578063dd62ed3e1461015157600080fd5b806306fdde0314610098578063095ea7b3146100b657806318160ddd146100d957806323b872dd146100eb575b600080fd5b6100a061018a565b6040516100ad919061056a565b60405180910390f35b6100c96100c43660046105d4565b61021c565b60405190151581526020016100ad565b6002545b6040519081526020016100ad565b6100c96100f93660046105fe565b610236565b604051601281526020016100ad565b6100dd61011b36600461063a565b6001600160a01b031660009081526020819052604090205490565b6100a061025a565b6100c961014c3660046105d4565b610269565b6100dd61015f36600461065c565b6001600160a01b03918216600090815260016020908152604080832093909416825291909152205490565b6060600380546101999061068f565b80601f01602080910402602001604051908101604052809291908181526020018280546101c59061068f565b80156102125780601f106101e757610100808354040283529160200191610212565b820191906000526020600020905b8154815290600101906020018083116101f557829003601f168201915b5050505050905090565b60003361022a818585610277565b60019150505b92915050565b600033610244858285610289565b61024f85858561030c565b506001949350505050565b6060600480546101999061068f565b60003361022a81858561030c565b610284838383600161036b565b505050565b6001600160a01b03838116600090815260016020908152604080832093861683529290522054600019811461030657818110156102f757604051637dc7a0d960e11b81526001600160a01b038416600482015260248101829052604481018390526064015b60405180910390fd5b6103068484848403600061036b565b50505050565b6001600160a01b03831661033657604051634b637e8f60e11b8152600060048201526024016102ee565b6001600160a01b0382166103605760405163ec442f0560e01b8152600060048201526024016102ee565b610284838383610440565b6001600160a01b0384166103955760405163e602df0560e01b8152600060048201526024016102ee565b6001600160a01b0383166103bf57604051634a1406b160e11b8152600060048201526024016102ee565b6001600160a01b038085166000908152600160209081526040808320938716835292905220829055801561030657826001600160a01b0316846001600160a01b03167f8c5be1e5ebec7d5bd14f71427d1e84f3dd0314c0f7b2291e5b200ac8c7c3b9258460405161043291815260200190565b60405180910390a350505050565b6001600160a01b03831661046b57806002600082825461046091906106c9565b909155506104dd9050565b6001600160a01b038316600090815260208190526040902054818110156104be5760405163391434e360e21b81526001600160a01b038516600482015260248101829052604481018390526064016102ee565b6001600160a01b03841660009081526020819052604090209082900390555b6001600160a01b0382166104f957600280548290039055610518565b6001600160a01b03821660009081526020819052604090208054820190555b816001600160a01b0316836001600160a01b03167fddf252ad1be2c89b69c2b068fc378daa952ba7f163c4a11628f55a4df523b3ef8360405161055d91815260200190565b60405180910390a3505050565b600060208083528351808285015260005b818110156105975785810183015185820160400152820161057b565b506000604082860101526040601f19601f8301168501019250505092915050565b80356001600160a01b03811681146105cf57600080fd5b919050565b600080604083850312156105e757600080fd5b6105f0836105b8565b946020939093013593505050565b60008060006060848603121561061357600080fd5b61061c846105b8565b925061062a602085016105b8565b9150604084013590509250925092565b60006020828403121561064c57600080fd5b610655826105b8565b9392505050565b6000806040838503121561066f57600080fd5b610678836105b8565b9150610686602084016105b8565b90509250929050565b600181811c908216806106a357607f821691505b6020821081036106c357634e487b7160e01b600052602260045260246000fd5b50919050565b8082018082111561023057634e487b7160e01b600052601160045260246000fdfea264697066735822122034a82d6635d83e2f7607e76434c19be811c224f2eb0619e72bde1f4d03ff9d2464736f6c63430008140033",
  "linkReferences": {},
  "deployedLinkReferences": {}
}