{
  "_format": "hh-sol-artifact-1",
  "contractName": "TaskCon",
  "sourceName": "contracts/TaskCon.sol",
  "abi": [
    {
      "inputs": [],
      "stateMutability": "nonpayable",
      "type": "constructor"
    },
    {
      "anonymous": false,
      "inputs": [
        {
          "indexed": false,
          "internalType": "address",
          "name": "recipient",
          "type": "address"
        },
        {
          "indexed": false,
          "internalType": "uint256",
          "name": "projectid",
          "type": "uint256"
        }
      ],
      "name": "AddProject",
      "type": "event"
    },
    {
      "inputs": [],
      "name": "Counter",
      "outputs": [
        {
          "internalType": "uint256",
          "name": "",
          "type": "uint256"
        }
      ],
      "stateMutability": "view",
      "type": "function"
    },
    {
      "inputs": [
        {
          "internalType": "string",
          "name": "_title",
          "type": "string"
        },
        {
          "internalType": "string",
          "name": "_description",
          "type": "string"
        },
        {
          "internalType": "string",
          "name": "_url",
          "type": "string"
        },
        {
          "components": [
            {
              "internalType": "string",
              "name": "tasktitle",
              "type": "string"
            },
            {
              "internalType": "string",
              "name": "description",
              "type": "string"
            },
            {
              "internalType": "bool",
              "name": "isdone",
              "type": "bool"
            }
          ],
          "internalType": "struct TaskCon.task[]",
          "name": "_tasks",
          "type": "tuple[]"
        }
      ],
      "name": "addProject",
      "outputs": [],
      "stateMutability": "nonpayable",
      "type": "function"
    },
    {
      "inputs": [
        {
          "internalType": "uint256",
          "name": "projectId",
          "type": "uint256"
        },
        {
          "internalType": "string",
          "name": "tasktitle",
          "type": "string"
        },
        {
          "internalType": "string",
          "name": "description",
          "type": "string"
        }
      ],
      "name": "addtasks",
      "outputs": [],
      "stateMutability": "nonpayable",
      "type": "function"
    },
    {
      "inputs": [
        {
          "internalType": "uint256",
          "name": "projectId",
          "type": "uint256"
        },
        {
          "internalType": "string",
          "name": "tasktitle",
          "type": "string"
        }
      ],
      "name": "finishtasks",
      "outputs": [],
      "stateMutability": "nonpayable",
      "type": "function"
    },
    {
      "inputs": [
        {
          "internalType": "uint256",
          "name": "projectId",
          "type": "uint256"
        }
      ],
      "name": "getProjectTasks",
      "outputs": [
        {
          "components": [
            {
              "internalType": "string",
              "name": "tasktitle",
              "type": "string"
            },
            {
              "internalType": "string",
              "name": "description",
              "type": "string"
            },
            {
              "internalType": "bool",
              "name": "isdone",
              "type": "bool"
            }
          ],
          "internalType": "struct TaskCon.task[]",
          "name": "",
          "type": "tuple[]"
        }
      ],
      "stateMutability": "view",
      "type": "function"
    },
    {
      "inputs": [],
      "name": "owner",
      "outputs": [
        {
          "internalType": "address",
          "name": "",
          "type": "address"
        }
      ],
      "stateMutability": "view",
      "type": "function"
    },
    {
      "inputs": [
        {
          "internalType": "uint256",
          "name": "",
          "type": "uint256"
        }
      ],
      "name": "projects",
      "outputs": [
        {
          "internalType": "string",
          "name": "title",
          "type": "string"
        },
        {
          "internalType": "string",
          "name": "description",
          "type": "string"
        },
        {
          "internalType": "string",
          "name": "url",
          "type": "string"
        },
        {
          "internalType": "string",
          "name": "projectid",
          "type": "string"
        }
      ],
      "stateMutability": "view",
      "type": "function"
    },
    {
      "inputs": [],
      "name": "tokenaddress",
      "outputs": [
        {
          "internalType": "address",
          "name": "",
          "type": "address"
        }
      ],
      "stateMutability": "view",
      "type": "function"
    }
  ],
  "bytecode": "0x608060405234801561001057600080fd5b50600080546001600160a01b031916331781556002556111bf806100356000396000f3fe608060405234801561001057600080fd5b50600436106100885760003560e01c80635a69e55b1161005b5780635a69e55b1461011b5780638da5cb5b14610130578063ba5cdd5414610143578063d95deebd1461015657600080fd5b8063107046bd1461008d5780633feff76d146100b95780634eeca076146100e4578063591c564f146100fb575b600080fd5b6100a061009b366004610a46565b610169565b6040516100b09493929190610aaf565b60405180910390f35b6001546100cc906001600160a01b031681565b6040516001600160a01b0390911681526020016100b0565b6100ed60025481565b6040519081526020016100b0565b61010e610109366004610a46565b6103c9565b6040516100b09190610b07565b61012e610129366004610c7a565b6105c3565b005b6000546100cc906001600160a01b031681565b61012e610151366004610cc1565b6106f7565b61012e610164366004610d2e565b6107cc565b6003818154811061017957600080fd5b906000526020600020906005020160009150905080600001805461019c90610ed3565b80601f01602080910402602001604051908101604052809291908181526020018280546101c890610ed3565b80156102155780601f106101ea57610100808354040283529160200191610215565b820191906000526020600020905b8154815290600101906020018083116101f857829003601f168201915b50505050509080600101805461022a90610ed3565b80601f016020809104026020016040519081016040528092919081815260200182805461025690610ed3565b80156102a35780601f10610278576101008083540402835291602001916102a3565b820191906000526020600020905b81548152906001019060200180831161028657829003601f168201915b5050505050908060020180546102b890610ed3565b80601f01602080910402602001604051908101604052809291908181526020018280546102e490610ed3565b80156103315780601f1061030657610100808354040283529160200191610331565b820191906000526020600020905b81548152906001019060200180831161031457829003601f168201915b50505050509080600401805461034690610ed3565b80601f016020809104026020016040519081016040528092919081815260200182805461037290610ed3565b80156103bf5780601f10610394576101008083540402835291602001916103bf565b820191906000526020600020905b8154815290600101906020018083116103a257829003601f168201915b5050505050905084565b60606000821180156103dd57506002548211155b6104025760405162461bcd60e51b81526004016103f990610f0d565b60405180910390fd5b600361040f600184610f4f565b8154811061041f5761041f610f68565b9060005260206000209060050201600301805480602002602001604051908101604052809291908181526020016000905b828210156105b8578382906000526020600020906003020160405180606001604052908160008201805461048390610ed3565b80601f01602080910402602001604051908101604052809291908181526020018280546104af90610ed3565b80156104fc5780601f106104d1576101008083540402835291602001916104fc565b820191906000526020600020905b8154815290600101906020018083116104df57829003601f168201915b5050505050815260200160018201805461051590610ed3565b80601f016020809104026020016040519081016040528092919081815260200182805461054190610ed3565b801561058e5780601f106105635761010080835404028352916020019161058e565b820191906000526020600020905b81548152906001019060200180831161057157829003601f168201915b50505091835250506002919091015460ff1615156020918201529082526001929092019101610450565b505050509050919050565b6000821180156105d557506002548211155b6105f15760405162461bcd60e51b81526004016103f990610f0d565b60006003610600600185610f4f565b8154811061061057610610610f68565b9060005260206000209060050201600301905060005b81548110156106f157826040516020016106409190610f7e565b6040516020818303038152906040528051906020012082828154811061066857610668610f68565b90600052602060002090600302016000016040516020016106899190610f9a565b60405160208183030381529060405280519060200120036106df5760018282815481106106b8576106b8610f68565b60009182526020909120600390910201600201805460ff19169115159190911790556106f1565b806106e981611010565b915050610626565b50505050565b60008311801561070957506002548311155b6107255760405162461bcd60e51b81526004016103f990610f0d565b6040805160608101825283815260208101839052600091810191909152600361074f600186610f4f565b8154811061075f5761075f610f68565b60009182526020808320600360059093020182018054600181018255908452922083518493909202019081906107959082611078565b50602082015160018201906107aa9082611078565b50604091909101516002909101805460ff191691151591909117905550505050565b600280549060006107dc83611010565b9091555050600380546001810182556000919091526005027fc2575a0e9e593c00f959f8c92f12db2869c3395a3b0502d05e2516446f71f85b01806108218682611078565b50600181016108308582611078565b506002810161083f8482611078565b5061084b60025461093d565b600482019061085a9082611078565b5060005b82518110156108f857600083828151811061087b5761087b610f68565b60209081029190910181015160038086018054600181018255600091825293902082519294508493909102019081906108b49082611078565b50602082015160018201906108c99082611078565b50604091909101516002909101805460ff191691151591909117905550806108f081611010565b91505061085e565b506002546040805133815260208101929092527f4a31f5ac372495eeadf90f1b0d3a4693dbb858e9f2e9730987f6d93338dc06ac910160405180910390a15050505050565b6060816000036109645750506040805180820190915260018152600360fc1b602082015290565b8160005b811561098e578061097881611010565b91506109879050600a8361114e565b9150610968565b60008167ffffffffffffffff8111156109a9576109a9610b9a565b6040519080825280601f01601f1916602001820160405280156109d3576020820181803683370190505b5090505b8415610a3e576109e8600183610f4f565b91506109f5600a86611162565b610a00906030611176565b60f81b818381518110610a1557610a15610f68565b60200101906001600160f81b031916908160001a905350610a37600a8661114e565b94506109d7565b949350505050565b600060208284031215610a5857600080fd5b5035919050565b60005b83811015610a7a578181015183820152602001610a62565b50506000910152565b60008151808452610a9b816020860160208601610a5f565b601f01601f19169290920160200192915050565b608081526000610ac26080830187610a83565b8281036020840152610ad48187610a83565b90508281036040840152610ae88186610a83565b90508281036060840152610afc8185610a83565b979650505050505050565b60006020808301818452808551808352604092508286019150828160051b87010184880160005b83811015610b8c57603f19898403018552815160608151818652610b5482870182610a83565b915050888201518582038a870152610b6c8282610a83565b928901511515958901959095525094870194925090860190600101610b2e565b509098975050505050505050565b634e487b7160e01b600052604160045260246000fd5b6040516060810167ffffffffffffffff81118282101715610bd357610bd3610b9a565b60405290565b604051601f8201601f1916810167ffffffffffffffff81118282101715610c0257610c02610b9a565b604052919050565b600082601f830112610c1b57600080fd5b813567ffffffffffffffff811115610c3557610c35610b9a565b610c48601f8201601f1916602001610bd9565b818152846020838601011115610c5d57600080fd5b816020850160208301376000918101602001919091529392505050565b60008060408385031215610c8d57600080fd5b82359150602083013567ffffffffffffffff811115610cab57600080fd5b610cb785828601610c0a565b9150509250929050565b600080600060608486031215610cd657600080fd5b83359250602084013567ffffffffffffffff80821115610cf557600080fd5b610d0187838801610c0a565b93506040860135915080821115610d1757600080fd5b50610d2486828701610c0a565b9150509250925092565b60008060008060808587031215610d4457600080fd5b67ffffffffffffffff8086351115610d5b57600080fd5b610d688787358801610c0a565b9450602086013581811115610d7c57600080fd5b610d8888828901610c0a565b945050604086013581811115610d9d57600080fd5b610da988828901610c0a565b935050606086013581811115610dbe57600080fd5b8601601f81018813610dcf57600080fd5b803582811115610de157610de1610b9a565b610df060208260051b01610bd9565b8082825260208201915060208360051b85010192508a831115610e1257600080fd5b602084015b83811015610ec3578581351115610e2d57600080fd5b803585016060818e03601f19011215610e4557600080fd5b610e4d610bb0565b602082013588811115610e5f57600080fd5b610e6e8f602083860101610c0a565b825250604082013588811115610e8357600080fd5b610e928f602083860101610c0a565b602083015250606082013591508115158214610ead57600080fd5b6040810191909152835260209283019201610e17565b50979a9699509497505050505050565b600181811c90821680610ee757607f821691505b602082108103610f0757634e487b7160e01b600052602260045260246000fd5b50919050565b602080825260129082015271125b9d985b1a59081c1c9bda9958dd08125160721b604082015260600190565b634e487b7160e01b600052601160045260246000fd5b81810381811115610f6257610f62610f39565b92915050565b634e487b7160e01b600052603260045260246000fd5b60008251610f90818460208701610a5f565b9190910192915050565b6000808354610fa881610ed3565b60018281168015610fc05760018114610fd557611004565b60ff1984168752821515830287019450611004565b8760005260208060002060005b85811015610ffb5781548a820152908401908201610fe2565b50505082870194505b50929695505050505050565b60006001820161102257611022610f39565b5060010190565b601f82111561107357600081815260208120601f850160051c810160208610156110505750805b601f850160051c820191505b8181101561106f5782815560010161105c565b5050505b505050565b815167ffffffffffffffff81111561109257611092610b9a565b6110a6816110a08454610ed3565b84611029565b602080601f8311600181146110db57600084156110c35750858301515b600019600386901b1c1916600185901b17855561106f565b600085815260208120601f198616915b8281101561110a578886015182559484019460019091019084016110eb565b50858210156111285787850151600019600388901b60f8161c191681555b5050505050600190811b01905550565b634e487b7160e01b600052601260045260246000fd5b60008261115d5761115d611138565b500490565b60008261117157611171611138565b500690565b80820180821115610f6257610f62610f3956fea2646970667358221220166e02d0cb65980df3aa19e7991c179e27c4cfb7932a79bef3f1eb239d9e822864736f6c63430008140033",
  "linkReferences": {},
  "deployedLinkReferences": {}
}