{
  "_format": "hh-sol-artifact-1",
  "contractName": "TaskCon",
  "sourceName": "contracts/TaskCon.sol",
  "abi": [
    {
      "inputs": [],
      "stateMutability": "nonpayable",
      "type": "constructor"
    },
    {
      "anonymous": false,
      "inputs": [
        {
          "indexed": false,
          "internalType": "address",
          "name": "recipient",
          "type": "address"
        },
        {
          "indexed": false,
          "internalType": "uint256",
          "name": "projectid",
          "type": "uint256"
        }
      ],
      "name": "AddProject",
      "type": "event"
    },
    {
      "anonymous": false,
      "inputs": [
        {
          "indexed": false,
          "internalType": "uint256",
          "name": "projectId",
          "type": "uint256"
        },
        {
          "indexed": false,
          "internalType": "string",
          "name": "tasktitle",
          "type": "string"
        },
        {
          "indexed": false,
          "internalType": "string",
          "name": "collaborator",
          "type": "string"
        }
      ],
      "name": "TaskFinished",
      "type": "event"
    },
    {
      "inputs": [],
      "name": "Counter",
      "outputs": [
        {
          "internalType": "uint256",
          "name": "",
          "type": "uint256"
        }
      ],
      "stateMutability": "view",
      "type": "function"
    },
    {
      "inputs": [
        {
          "internalType": "string",
          "name": "_title",
          "type": "string"
        },
        {
          "internalType": "string",
          "name": "_description",
          "type": "string"
        },
        {
          "internalType": "string",
          "name": "_url",
          "type": "string"
        },
        {
          "components": [
            {
              "internalType": "string",
              "name": "tasktitle",
              "type": "string"
            },
            {
              "internalType": "string",
              "name": "description",
              "type": "string"
            },
            {
              "internalType": "bool",
              "name": "isdone",
              "type": "bool"
            },
            {
              "internalType": "string",
              "name": "ownerman",
              "type": "string"
            }
          ],
          "internalType": "struct TaskCon.task[]",
          "name": "_tasks",
          "type": "tuple[]"
        },
        {
          "internalType": "string",
          "name": "ownerman",
          "type": "string"
        }
      ],
      "name": "addProject",
      "outputs": [],
      "stateMutability": "nonpayable",
      "type": "function"
    },
    {
      "inputs": [
        {
          "internalType": "uint256",
          "name": "projectId",
          "type": "uint256"
        },
        {
          "internalType": "string",
          "name": "tasktitle",
          "type": "string"
        },
        {
          "internalType": "string",
          "name": "description",
          "type": "string"
        },
        {
          "internalType": "string",
          "name": "ownerman",
          "type": "string"
        }
      ],
      "name": "addtasks",
      "outputs": [],
      "stateMutability": "nonpayable",
      "type": "function"
    },
    {
      "inputs": [
        {
          "internalType": "uint256",
          "name": "projectId",
          "type": "uint256"
        },
        {
          "internalType": "string",
          "name": "newTitle",
          "type": "string"
        }
      ],
      "name": "editProjectTitle",
      "outputs": [],
      "stateMutability": "nonpayable",
      "type": "function"
    },
    {
      "inputs": [
        {
          "internalType": "string",
          "name": "projectTitle",
          "type": "string"
        },
        {
          "internalType": "string",
          "name": "tasktitle",
          "type": "string"
        },
        {
          "internalType": "string",
          "name": "collaborator",
          "type": "string"
        }
      ],
      "name": "finishtask",
      "outputs": [],
      "stateMutability": "nonpayable",
      "type": "function"
    },
    {
      "inputs": [
        {
          "internalType": "uint256",
          "name": "projectId",
          "type": "uint256"
        }
      ],
      "name": "getProjectTasks",
      "outputs": [
        {
          "components": [
            {
              "internalType": "string",
              "name": "tasktitle",
              "type": "string"
            },
            {
              "internalType": "string",
              "name": "description",
              "type": "string"
            },
            {
              "internalType": "bool",
              "name": "isdone",
              "type": "bool"
            },
            {
              "internalType": "string",
              "name": "ownerman",
              "type": "string"
            }
          ],
          "internalType": "struct TaskCon.task[]",
          "name": "",
          "type": "tuple[]"
        }
      ],
      "stateMutability": "view",
      "type": "function"
    },
    {
      "inputs": [],
      "name": "getfeed",
      "outputs": [
        {
          "internalType": "string",
          "name": "",
          "type": "string"
        }
      ],
      "stateMutability": "view",
      "type": "function"
    },
    {
      "inputs": [],
      "name": "owner",
      "outputs": [
        {
          "internalType": "address",
          "name": "",
          "type": "address"
        }
      ],
      "stateMutability": "view",
      "type": "function"
    },
    {
      "inputs": [
        {
          "internalType": "uint256",
          "name": "",
          "type": "uint256"
        }
      ],
      "name": "projects",
      "outputs": [
        {
          "internalType": "string",
          "name": "title",
          "type": "string"
        },
        {
          "internalType": "string",
          "name": "description",
          "type": "string"
        },
        {
          "internalType": "string",
          "name": "url",
          "type": "string"
        },
        {
          "internalType": "string",
          "name": "projectid",
          "type": "string"
        },
        {
          "internalType": "string",
          "name": "ownerman",
          "type": "string"
        }
      ],
      "stateMutability": "view",
      "type": "function"
    },
    {
      "inputs": [],
      "name": "tokenaddress",
      "outputs": [
        {
          "internalType": "address",
          "name": "",
          "type": "address"
        }
      ],
      "stateMutability": "view",
      "type": "function"
    }
  ],
  "bytecode": "0x608060405234801561001057600080fd5b50600080546001600160a01b03191633179055600160025561216d806100376000396000f3fe608060405234801561001057600080fd5b506004361061009e5760003560e01c80638278cf25116100665780638278cf25146101475780638da5cb5b1461015a578063a92a7fb71461016d578063b160b1d214610182578063f2c9a9091461019557600080fd5b8063107046bd146100a35780633feff76d146100d057806346c48649146100fb5780634eeca07614610110578063591c564f14610127575b600080fd5b6100b66100b13660046116e4565b6101a8565b6040516100c795949392919061174d565b60405180910390f35b6001546100e3906001600160a01b031681565b6040516001600160a01b0390911681526020016100c7565b61010e61010936600461189a565b610496565b005b61011960025481565b6040519081526020016100c7565b61013a6101353660046116e4565b61050d565b6040516100c791906118e1565b61010e610155366004611ac0565b610791565b6000546100e3906001600160a01b031681565b610175610926565b6040516100c79190611b92565b61010e610190366004611bac565b61101e565b61010e6101a3366004611c3e565b611113565b600381815481106101b857600080fd5b90600052602060002090600602016000915090508060000180546101db90611cc6565b80601f016020809104026020016040519081016040528092919081815260200182805461020790611cc6565b80156102545780601f1061022957610100808354040283529160200191610254565b820191906000526020600020905b81548152906001019060200180831161023757829003601f168201915b50505050509080600101805461026990611cc6565b80601f016020809104026020016040519081016040528092919081815260200182805461029590611cc6565b80156102e25780601f106102b7576101008083540402835291602001916102e2565b820191906000526020600020905b8154815290600101906020018083116102c557829003601f168201915b5050505050908060020180546102f790611cc6565b80601f016020809104026020016040519081016040528092919081815260200182805461032390611cc6565b80156103705780601f1061034557610100808354040283529160200191610370565b820191906000526020600020905b81548152906001019060200180831161035357829003601f168201915b50505050509080600401805461038590611cc6565b80601f01602080910402602001604051908101604052809291908181526020018280546103b190611cc6565b80156103fe5780601f106103d3576101008083540402835291602001916103fe565b820191906000526020600020905b8154815290600101906020018083116103e157829003601f168201915b50505050509080600501805461041390611cc6565b80601f016020809104026020016040519081016040528092919081815260200182805461043f90611cc6565b801561048c5780601f106104615761010080835404028352916020019161048c565b820191906000526020600020905b81548152906001019060200180831161046f57829003601f168201915b5050505050905085565b6000821180156104a857506002548211155b6104cd5760405162461bcd60e51b81526004016104c490611d00565b60405180910390fd5b8060036104db600185611d42565b815481106104eb576104eb611d5b565b906000526020600020906006020160000190816105089190611dbf565b505050565b606060008211801561052157506002548211155b61053d5760405162461bcd60e51b81526004016104c490611d00565b600361054a600184611d42565b8154811061055a5761055a611d5b565b9060005260206000209060060201600301805480602002602001604051908101604052809291908181526020016000905b8282101561078657838290600052602060002090600402016040518060800160405290816000820180546105be90611cc6565b80601f01602080910402602001604051908101604052809291908181526020018280546105ea90611cc6565b80156106375780601f1061060c57610100808354040283529160200191610637565b820191906000526020600020905b81548152906001019060200180831161061a57829003601f168201915b5050505050815260200160018201805461065090611cc6565b80601f016020809104026020016040519081016040528092919081815260200182805461067c90611cc6565b80156106c95780601f1061069e576101008083540402835291602001916106c9565b820191906000526020600020905b8154815290600101906020018083116106ac57829003601f168201915b5050509183525050600282015460ff16151560208201526003820180546040909201916106f590611cc6565b80601f016020809104026020016040519081016040528092919081815260200182805461072190611cc6565b801561076e5780601f106107435761010080835404028352916020019161076e565b820191906000526020600020905b81548152906001019060200180831161075157829003601f168201915b5050505050815250508152602001906001019061058b565b505050509050919050565b600280549060006107a183611e7f565b9091555050600380546001810182556000919091526006027fc2575a0e9e593c00f959f8c92f12db2869c3395a3b0502d05e2516446f71f85b01806107e68782611dbf565b50600181016107f58682611dbf565b50600281016108048582611dbf565b5061081060025461138d565b600482019061081f9082611dbf565b506005810161082e8382611dbf565b5060005b83518110156108e057600084828151811061084f5761084f611d5b565b602090810291909101810151600385018054600181018255600091825292902081519193508392600402019081906108879082611dbf565b506020820151600182019061089c9082611dbf565b50604082015160028201805460ff1916911515919091179055606082015160038201906108c99082611dbf565b5050505080806108d890611e7f565b915050610832565b506002546040805133815260208101929092527f4a31f5ac372495eeadf90f1b0d3a4693dbb858e9f2e9730987f6d93338dc06ac910160405180910390a1505050505050565b60035460609060009067ffffffffffffffff811115610947576109476117ba565b6040519080825280602002602001820160405280156109b157816020015b61099e6040518060c001604052806060815260200160608152602001606081526020016060815260200160608152602001606081525090565b8152602001906001900390816109655790505b5090506000805b600354811015610f2e57600381815481106109d5576109d5611d5b565b90600052602060002090600602016040518060c00160405290816000820180546109fe90611cc6565b80601f0160208091040260200160405190810160405280929190818152602001828054610a2a90611cc6565b8015610a775780601f10610a4c57610100808354040283529160200191610a77565b820191906000526020600020905b815481529060010190602001808311610a5a57829003601f168201915b50505050508152602001600182018054610a9090611cc6565b80601f0160208091040260200160405190810160405280929190818152602001828054610abc90611cc6565b8015610b095780601f10610ade57610100808354040283529160200191610b09565b820191906000526020600020905b815481529060010190602001808311610aec57829003601f168201915b50505050508152602001600282018054610b2290611cc6565b80601f0160208091040260200160405190810160405280929190818152602001828054610b4e90611cc6565b8015610b9b5780601f10610b7057610100808354040283529160200191610b9b565b820191906000526020600020905b815481529060010190602001808311610b7e57829003601f168201915b5050505050815260200160038201805480602002602001604051908101604052809291908181526020016000905b82821015610dc45783829060005260206000209060040201604051806080016040529081600082018054610bfc90611cc6565b80601f0160208091040260200160405190810160405280929190818152602001828054610c2890611cc6565b8015610c755780601f10610c4a57610100808354040283529160200191610c75565b820191906000526020600020905b815481529060010190602001808311610c5857829003601f168201915b50505050508152602001600182018054610c8e90611cc6565b80601f0160208091040260200160405190810160405280929190818152602001828054610cba90611cc6565b8015610d075780601f10610cdc57610100808354040283529160200191610d07565b820191906000526020600020905b815481529060010190602001808311610cea57829003601f168201915b5050509183525050600282015460ff1615156020820152600382018054604090920191610d3390611cc6565b80601f0160208091040260200160405190810160405280929190818152602001828054610d5f90611cc6565b8015610dac5780601f10610d8157610100808354040283529160200191610dac565b820191906000526020600020905b815481529060010190602001808311610d8f57829003601f168201915b50505050508152505081526020019060010190610bc9565b505050508152602001600482018054610ddc90611cc6565b80601f0160208091040260200160405190810160405280929190818152602001828054610e0890611cc6565b8015610e555780601f10610e2a57610100808354040283529160200191610e55565b820191906000526020600020905b815481529060010190602001808311610e3857829003601f168201915b50505050508152602001600582018054610e6e90611cc6565b80601f0160208091040260200160405190810160405280929190818152602001828054610e9a90611cc6565b8015610ee75780601f10610ebc57610100808354040283529160200191610ee7565b820191906000526020600020905b815481529060010190602001808311610eca57829003601f168201915b505050505081525050838381518110610f0257610f02611d5b565b60200260200101819052508180610f1890611e7f565b9250508080610f2690611e7f565b9150506109b8565b5060008167ffffffffffffffff811115610f4a57610f4a6117ba565b604051908082528060200260200182016040528015610fb457816020015b610fa16040518060c001604052806060815260200160608152602001606081526020016060815260200160608152602001606081525090565b815260200190600190039081610f685790505b50905060005b8281101561100c57838181518110610fd457610fd4611d5b565b6020026020010151828281518110610fee57610fee611d5b565b6020026020010181905250808061100490611e7f565b915050610fba565b5061101681611496565b935050505090565b60008411801561103057506002548411155b61104c5760405162461bcd60e51b81526004016104c490611d00565b604080516080810182528481526020810184905260009181019190915260608101829052600361107d600187611d42565b8154811061108d5761108d611d5b565b6000918252602080832060036006909302019190910180546001810182559083529120825183926004029091019081906110c79082611dbf565b50602082015160018201906110dc9082611dbf565b50604082015160028201805460ff1916911515919091179055606082015160038201906111099082611dbf565b5050505050505050565b60005b60035481101561138757836040516020016111319190611e98565b604051602081830303815290604052805190602001206003828154811061115a5761115a611d5b565b906000526020600020906006020160000160405160200161117b9190611eb4565b6040516020818303038152906040528051906020012003611375576000600382815481106111ab576111ab611d5b565b9060005260206000209060060201600301905060005b815481101561136e57846040516020016111db9190611e98565b6040516020818303038152906040528051906020012082828154811061120357611203611d5b565b90600052602060002090600402016000016040516020016112249190611eb4565b604051602081830303815290604052805190602001201480156112b45750836040516020016112539190611e98565b6040516020818303038152906040528051906020012082828154811061127b5761127b611d5b565b906000526020600020906004020160030160405160200161129c9190611eb4565b60405160208183030381529060405280519060200120145b1561135c576001600384815481106112ce576112ce611d5b565b906000526020600020906006020160030182815481106112f0576112f0611d5b565b60009182526020909120600490910201600201805460ff19169115159190911790557f53206b036c54237caf9bcabddaa2d626abe8101bf96c1351562cdfcb8429ae2761133e846001611f2a565b868660405161134f93929190611f3d565b60405180910390a161136e565b8061136681611e7f565b9150506111c1565b5050611387565b8061137f81611e7f565b915050611116565b50505050565b6060816000036113b45750506040805180820190915260018152600360fc1b602082015290565b8160005b81156113de57806113c881611e7f565b91506113d79050600a83611f88565b91506113b8565b60008167ffffffffffffffff8111156113f9576113f96117ba565b6040519080825280601f01601f191660200182016040528015611423576020820181803683370190505b5090505b841561148e57611438600183611d42565b9150611445600a86611f9c565b611450906030611f2a565b60f81b81838151811061146557611465611d5b565b60200101906001600160f81b031916908160001a905350611487600a86611f88565b9450611427565b949350505050565b606060006040516020016114b190605b60f81b815260010190565b604051602081830303815290604052905060005b835181101561155d57816114f18583815181106114e4576114e4611d5b565b6020026020010151611586565b604051602001611502929190611fb0565b6040516020818303038152906040529150600184516115219190611d42565b81101561154b57816040516020016115399190611fdf565b60405160208183030381529060405291505b8061155581611e7f565b9150506114c5565b508060405160200161156f9190612004565b60408051601f198184030181529190529392505050565b608081015181516040516060926000926115a292602001612029565b604051602081830303815290604052905060005b83606001515181101561165a57816115ea856060015183815181106115dd576115dd611d5b565b602002602001015161166c565b6040516020016115fb929190611fb0565b6040516020818303038152906040529150600184606001515161161e9190611d42565b81101561164857816040516020016116369190611fdf565b60405160208183030381529060405291505b8061165281611e7f565b9150506115b6565b508060405160200161156f91906120a2565b60608160000151826040015161169f576040518060400160405280600581526020016466616c736560d81b8152506116bd565b604051806040016040528060048152602001637472756560e01b8152505b6040516020016116ce9291906120c8565b6040516020818303038152906040529050919050565b6000602082840312156116f657600080fd5b5035919050565b60005b83811015611718578181015183820152602001611700565b50506000910152565b600081518084526117398160208601602086016116fd565b601f01601f19169290920160200192915050565b60a08152600061176060a0830188611721565b82810360208401526117728188611721565b905082810360408401526117868187611721565b9050828103606084015261179a8186611721565b905082810360808401526117ae8185611721565b98975050505050505050565b634e487b7160e01b600052604160045260246000fd5b6040516080810167ffffffffffffffff811182821017156117f3576117f36117ba565b60405290565b604051601f8201601f1916810167ffffffffffffffff81118282101715611822576118226117ba565b604052919050565b600082601f83011261183b57600080fd5b813567ffffffffffffffff811115611855576118556117ba565b611868601f8201601f19166020016117f9565b81815284602083860101111561187d57600080fd5b816020850160208301376000918101602001919091529392505050565b600080604083850312156118ad57600080fd5b82359150602083013567ffffffffffffffff8111156118cb57600080fd5b6118d78582860161182a565b9150509250929050565b60006020808301818452808551808352604092508286019150828160051b87010184880160005b8381101561198157603f1989840301855281516080815181865261192e82870182611721565b915050888201518582038a8701526119468282611721565b915050878201511515888601526060808301519250858203818701525061196d8183611721565b968901969450505090860190600101611908565b509098975050505050505050565b600082601f8301126119a057600080fd5b8135602067ffffffffffffffff808311156119bd576119bd6117ba565b8260051b6119cc8382016117f9565b93845285810183019383810190888611156119e657600080fd5b84880192505b858310156117ae57823584811115611a045760008081fd5b88016080818b03601f1901811315611a1c5760008081fd5b611a246117d0565b8783013587811115611a365760008081fd5b611a448d8a8387010161182a565b82525060408084013588811115611a5b5760008081fd5b611a698e8b8388010161182a565b8a840152506060808501358015158114611a835760008081fd5b83830152928401359288841115611a9c57600091508182fd5b611aaa8e8b8688010161182a565b90830152508452505091840191908401906119ec565b600080600080600060a08688031215611ad857600080fd5b853567ffffffffffffffff80821115611af057600080fd5b611afc89838a0161182a565b96506020880135915080821115611b1257600080fd5b611b1e89838a0161182a565b95506040880135915080821115611b3457600080fd5b611b4089838a0161182a565b94506060880135915080821115611b5657600080fd5b611b6289838a0161198f565b93506080880135915080821115611b7857600080fd5b50611b858882890161182a565b9150509295509295909350565b602081526000611ba56020830184611721565b9392505050565b60008060008060808587031215611bc257600080fd5b84359350602085013567ffffffffffffffff80821115611be157600080fd5b611bed8883890161182a565b94506040870135915080821115611c0357600080fd5b611c0f8883890161182a565b93506060870135915080821115611c2557600080fd5b50611c328782880161182a565b91505092959194509250565b600080600060608486031215611c5357600080fd5b833567ffffffffffffffff80821115611c6b57600080fd5b611c778783880161182a565b94506020860135915080821115611c8d57600080fd5b611c998783880161182a565b93506040860135915080821115611caf57600080fd5b50611cbc8682870161182a565b9150509250925092565b600181811c90821680611cda57607f821691505b602082108103611cfa57634e487b7160e01b600052602260045260246000fd5b50919050565b602080825260129082015271125b9d985b1a59081c1c9bda9958dd08125160721b604082015260600190565b634e487b7160e01b600052601160045260246000fd5b81810381811115611d5557611d55611d2c565b92915050565b634e487b7160e01b600052603260045260246000fd5b601f82111561050857600081815260208120601f850160051c81016020861015611d985750805b601f850160051c820191505b81811015611db757828155600101611da4565b505050505050565b815167ffffffffffffffff811115611dd957611dd96117ba565b611ded81611de78454611cc6565b84611d71565b602080601f831160018114611e225760008415611e0a5750858301515b600019600386901b1c1916600185901b178555611db7565b600085815260208120601f198616915b82811015611e5157888601518255948401946001909101908401611e32565b5085821015611e6f5787850151600019600388901b60f8161c191681555b5050505050600190811b01905550565b600060018201611e9157611e91611d2c565b5060010190565b60008251611eaa8184602087016116fd565b9190910192915050565b6000808354611ec281611cc6565b60018281168015611eda5760018114611eef57611f1e565b60ff1984168752821515830287019450611f1e565b8760005260208060002060005b85811015611f155781548a820152908401908201611efc565b50505082870194505b50929695505050505050565b80820180821115611d5557611d55611d2c565b838152606060208201526000611f566060830185611721565b8281036040840152611f688185611721565b9695505050505050565b634e487b7160e01b600052601260045260246000fd5b600082611f9757611f97611f72565b500490565b600082611fab57611fab611f72565b500690565b60008351611fc28184602088016116fd565b835190830190611fd68183602088016116fd565b01949350505050565b60008251611ff18184602087016116fd565b600b60fa1b920191825250600101919050565b600082516120168184602087016116fd565b605d60f81b920191825250600101919050565b6d3d91383937b532b1ba34b2111d1160911b8152825160009061205381600e8501602088016116fd565b6a1116113a34ba3632911d1160a91b600e91840191820152835161207e8160198401602088016116fd565b6a222c227461736b73223a5b60a81b60199290910191820152602401949350505050565b600082516120b48184602087016116fd565b615d7d60f01b920191825250600201919050565b6d3d913a30b9b5ba34ba3632911d1160911b815282516000906120f281600e8501602088016116fd565b6a11161134b9b237b732911d60a91b600e91840191820152835161211d8160198401602088016116fd565b607d60f81b60199290910191820152601a0194935050505056fea264697066735822122051e0524e2fd92018be4590ceb2834698bebc7cb2f4561711acdbd7fd7d65b6e264736f6c63430008140033",
  "linkReferences": {},
  "deployedLinkReferences": {}
}