{
  "_format": "hh-sol-artifact-1",
  "contractName": "TaskCon",
  "sourceName": "contracts/TaskCon.sol",
  "abi": [
    {
      "inputs": [],
      "stateMutability": "nonpayable",
      "type": "constructor"
    },
    {
      "anonymous": false,
      "inputs": [
        {
          "indexed": false,
          "internalType": "address",
          "name": "recipient",
          "type": "address"
        },
        {
          "indexed": false,
          "internalType": "uint256",
          "name": "projectid",
          "type": "uint256"
        }
      ],
      "name": "AddProject",
      "type": "event"
    },
    {
      "inputs": [],
      "name": "Counter",
      "outputs": [
        {
          "internalType": "uint256",
          "name": "",
          "type": "uint256"
        }
      ],
      "stateMutability": "view",
      "type": "function"
    },
    {
      "inputs": [
        {
          "internalType": "string",
          "name": "_title",
          "type": "string"
        },
        {
          "internalType": "string",
          "name": "_description",
          "type": "string"
        },
        {
          "internalType": "string",
          "name": "_url",
          "type": "string"
        },
        {
          "components": [
            {
              "internalType": "string",
              "name": "tasktitle",
              "type": "string"
            },
            {
              "internalType": "string",
              "name": "description",
              "type": "string"
            },
            {
              "internalType": "bool",
              "name": "isdone",
              "type": "bool"
            }
          ],
          "internalType": "struct TaskCon.task[]",
          "name": "_tasks",
          "type": "tuple[]"
        }
      ],
      "name": "addProject",
      "outputs": [],
      "stateMutability": "nonpayable",
      "type": "function"
    },
    {
      "inputs": [
        {
          "internalType": "uint256",
          "name": "projectId",
          "type": "uint256"
        },
        {
          "internalType": "string",
          "name": "tasktitle",
          "type": "string"
        },
        {
          "internalType": "string",
          "name": "description",
          "type": "string"
        }
      ],
      "name": "addtasks",
      "outputs": [],
      "stateMutability": "nonpayable",
      "type": "function"
    },
    {
      "inputs": [
        {
          "internalType": "uint256",
          "name": "projectId",
          "type": "uint256"
        },
        {
          "internalType": "string",
          "name": "tasktitle",
          "type": "string"
        }
      ],
      "name": "finishtask",
      "outputs": [],
      "stateMutability": "nonpayable",
      "type": "function"
    },
    {
      "inputs": [
        {
          "internalType": "uint256",
          "name": "projectId",
          "type": "uint256"
        }
      ],
      "name": "getProjectTasks",
      "outputs": [
        {
          "components": [
            {
              "internalType": "string",
              "name": "tasktitle",
              "type": "string"
            },
            {
              "internalType": "string",
              "name": "description",
              "type": "string"
            },
            {
              "internalType": "bool",
              "name": "isdone",
              "type": "bool"
            }
          ],
          "internalType": "struct TaskCon.task[]",
          "name": "",
          "type": "tuple[]"
        }
      ],
      "stateMutability": "view",
      "type": "function"
    },
    {
      "inputs": [],
      "name": "getfeed",
      "outputs": [
        {
          "internalType": "string",
          "name": "",
          "type": "string"
        }
      ],
      "stateMutability": "view",
      "type": "function"
    },
    {
      "inputs": [],
      "name": "owner",
      "outputs": [
        {
          "internalType": "address",
          "name": "",
          "type": "address"
        }
      ],
      "stateMutability": "view",
      "type": "function"
    },
    {
      "inputs": [
        {
          "internalType": "uint256",
          "name": "",
          "type": "uint256"
        }
      ],
      "name": "projects",
      "outputs": [
        {
          "internalType": "string",
          "name": "title",
          "type": "string"
        },
        {
          "internalType": "string",
          "name": "description",
          "type": "string"
        },
        {
          "internalType": "string",
          "name": "url",
          "type": "string"
        },
        {
          "internalType": "string",
          "name": "projectid",
          "type": "string"
        }
      ],
      "stateMutability": "view",
      "type": "function"
    },
    {
      "inputs": [],
      "name": "tokenaddress",
      "outputs": [
        {
          "internalType": "address",
          "name": "",
          "type": "address"
        }
      ],
      "stateMutability": "view",
      "type": "function"
    }
  ],
  "bytecode": "0x608060405234801561001057600080fd5b50600080546001600160a01b03191633178155600255611b5f806100356000396000f3fe608060405234801561001057600080fd5b50600436106100935760003560e01c80638da5cb5b116100665780638da5cb5b14610126578063a92a7fb714610139578063b78543281461014e578063ba5cdd5414610163578063d95deebd1461017657600080fd5b8063107046bd146100985780633feff76d146100c45780634eeca076146100ef578063591c564f14610106575b600080fd5b6100ab6100a6366004611276565b610189565b6040516100bb94939291906112df565b60405180910390f35b6001546100d7906001600160a01b031681565b6040516001600160a01b0390911681526020016100bb565b6100f860025481565b6040519081526020016100bb565b610119610114366004611276565b6103e9565b6040516100bb9190611337565b6000546100d7906001600160a01b031681565b6101416105e3565b6040516100bb91906113ca565b61016161015c3660046114c4565b610ba8565b005b61016161017136600461150b565b610cdc565b610161610184366004611578565b610db1565b6003818154811061019957600080fd5b90600052602060002090600502016000915090508060000180546101bc9061171d565b80601f01602080910402602001604051908101604052809291908181526020018280546101e89061171d565b80156102355780601f1061020a57610100808354040283529160200191610235565b820191906000526020600020905b81548152906001019060200180831161021857829003601f168201915b50505050509080600101805461024a9061171d565b80601f01602080910402602001604051908101604052809291908181526020018280546102769061171d565b80156102c35780601f10610298576101008083540402835291602001916102c3565b820191906000526020600020905b8154815290600101906020018083116102a657829003601f168201915b5050505050908060020180546102d89061171d565b80601f01602080910402602001604051908101604052809291908181526020018280546103049061171d565b80156103515780601f1061032657610100808354040283529160200191610351565b820191906000526020600020905b81548152906001019060200180831161033457829003601f168201915b5050505050908060040180546103669061171d565b80601f01602080910402602001604051908101604052809291908181526020018280546103929061171d565b80156103df5780601f106103b4576101008083540402835291602001916103df565b820191906000526020600020905b8154815290600101906020018083116103c257829003601f168201915b5050505050905084565b60606000821180156103fd57506002548211155b6104225760405162461bcd60e51b815260040161041990611757565b60405180910390fd5b600361042f600184611799565b8154811061043f5761043f6117b2565b9060005260206000209060050201600301805480602002602001604051908101604052809291908181526020016000905b828210156105d857838290600052602060002090600302016040518060600160405290816000820180546104a39061171d565b80601f01602080910402602001604051908101604052809291908181526020018280546104cf9061171d565b801561051c5780601f106104f15761010080835404028352916020019161051c565b820191906000526020600020905b8154815290600101906020018083116104ff57829003601f168201915b505050505081526020016001820180546105359061171d565b80601f01602080910402602001604051908101604052809291908181526020018280546105619061171d565b80156105ae5780601f10610583576101008083540402835291602001916105ae565b820191906000526020600020905b81548152906001019060200180831161059157829003601f168201915b50505091835250506002919091015460ff1615156020918201529082526001929092019101610470565b505050509050919050565b60035460609060009067ffffffffffffffff811115610604576106046113e4565b60405190808252806020026020018201604052801561066757816020015b6106546040518060a0016040528060608152602001606081526020016060815260200160608152602001606081525090565b8152602001906001900390816106225790505b5090506000805b600354811015610abf576003818154811061068b5761068b6117b2565b90600052602060002090600502016040518060a00160405290816000820180546106b49061171d565b80601f01602080910402602001604051908101604052809291908181526020018280546106e09061171d565b801561072d5780601f106107025761010080835404028352916020019161072d565b820191906000526020600020905b81548152906001019060200180831161071057829003601f168201915b505050505081526020016001820180546107469061171d565b80601f01602080910402602001604051908101604052809291908181526020018280546107729061171d565b80156107bf5780601f10610794576101008083540402835291602001916107bf565b820191906000526020600020905b8154815290600101906020018083116107a257829003601f168201915b505050505081526020016002820180546107d89061171d565b80601f01602080910402602001604051908101604052809291908181526020018280546108049061171d565b80156108515780601f1061082657610100808354040283529160200191610851565b820191906000526020600020905b81548152906001019060200180831161083457829003601f168201915b5050505050815260200160038201805480602002602001604051908101604052809291908181526020016000905b828210156109e757838290600052602060002090600302016040518060600160405290816000820180546108b29061171d565b80601f01602080910402602001604051908101604052809291908181526020018280546108de9061171d565b801561092b5780601f106109005761010080835404028352916020019161092b565b820191906000526020600020905b81548152906001019060200180831161090e57829003601f168201915b505050505081526020016001820180546109449061171d565b80601f01602080910402602001604051908101604052809291908181526020018280546109709061171d565b80156109bd5780601f10610992576101008083540402835291602001916109bd565b820191906000526020600020905b8154815290600101906020018083116109a057829003601f168201915b50505091835250506002919091015460ff161515602091820152908252600192909201910161087f565b5050505081526020016004820180546109ff9061171d565b80601f0160208091040260200160405190810160405280929190818152602001828054610a2b9061171d565b8015610a785780601f10610a4d57610100808354040283529160200191610a78565b820191906000526020600020905b815481529060010190602001808311610a5b57829003601f168201915b505050505081525050838381518110610a9357610a936117b2565b60200260200101819052508180610aa9906117c8565b9250508080610ab7906117c8565b91505061066e565b5060008167ffffffffffffffff811115610adb57610adb6113e4565b604051908082528060200260200182016040528015610b3e57816020015b610b2b6040518060a0016040528060608152602001606081526020016060815260200160608152602001606081525090565b815260200190600190039081610af95790505b50905060005b82811015610b9657838181518110610b5e57610b5e6117b2565b6020026020010151828281518110610b7857610b786117b2565b60200260200101819052508080610b8e906117c8565b915050610b44565b50610ba081610f22565b935050505090565b600082118015610bba57506002548211155b610bd65760405162461bcd60e51b815260040161041990611757565b60006003610be5600185611799565b81548110610bf557610bf56117b2565b9060005260206000209060050201600301905060005b8154811015610cd65782604051602001610c2591906117e1565b60405160208183030381529060405280519060200120828281548110610c4d57610c4d6117b2565b9060005260206000209060030201600001604051602001610c6e91906117fd565b6040516020818303038152906040528051906020012003610cc4576001828281548110610c9d57610c9d6117b2565b60009182526020909120600390910201600201805460ff1916911515919091179055610cd6565b80610cce816117c8565b915050610c0b565b50505050565b600083118015610cee57506002548311155b610d0a5760405162461bcd60e51b815260040161041990611757565b60408051606081018252838152602081018390526000918101919091526003610d34600186611799565b81548110610d4457610d446117b2565b6000918252602080832060036005909302018201805460018101825590845292208351849390920201908190610d7a90826118c2565b5060208201516001820190610d8f90826118c2565b50604091909101516002909101805460ff191691151591909117905550505050565b60028054906000610dc1836117c8565b9091555050600380546001810182556000919091526005027fc2575a0e9e593c00f959f8c92f12db2869c3395a3b0502d05e2516446f71f85b0180610e0686826118c2565b5060018101610e1585826118c2565b5060028101610e2484826118c2565b50610e30600254611012565b6004820190610e3f90826118c2565b5060005b8251811015610edd576000838281518110610e6057610e606117b2565b6020908102919091018101516003808601805460018101825560009182529390208251929450849390910201908190610e9990826118c2565b5060208201516001820190610eae90826118c2565b50604091909101516002909101805460ff19169115159190911790555080610ed5816117c8565b915050610e43565b506002546040805133815260208101929092527f4a31f5ac372495eeadf90f1b0d3a4693dbb858e9f2e9730987f6d93338dc06ac910160405180910390a15050505050565b60606000604051602001610f3d90605b60f81b815260010190565b604051602081830303815290604052905060005b8351811015610fe95781610f7d858381518110610f7057610f706117b2565b602002602001015161111b565b604051602001610f8e929190611982565b604051602081830303815290604052915060018451610fad9190611799565b811015610fd75781604051602001610fc591906119b1565b60405160208183030381529060405291505b80610fe1816117c8565b915050610f51565b5080604051602001610ffb91906119d6565b60408051601f198184030181529190529392505050565b6060816000036110395750506040805180820190915260018152600360fc1b602082015290565b8160005b8115611063578061104d816117c8565b915061105c9050600a83611a11565b915061103d565b60008167ffffffffffffffff81111561107e5761107e6113e4565b6040519080825280601f01601f1916602001820160405280156110a8576020820181803683370190505b5090505b8415611113576110bd600183611799565b91506110ca600a86611a25565b6110d5906030611a39565b60f81b8183815181106110ea576110ea6117b2565b60200101906001600160f81b031916908160001a90535061110c600a86611a11565b94506110ac565b949350505050565b6060600082600001516040516020016111349190611a4c565b604051602081830303815290604052905060005b8360600151518110156111ec578161117c8560600151838151811061116f5761116f6117b2565b60200260200101516111fe565b60405160200161118d929190611982565b604051602081830303815290604052915060018460600151516111b09190611799565b8110156111da57816040516020016111c891906119b1565b60405160208183030381529060405291505b806111e4816117c8565b915050611148565b5080604051602001610ffb9190611a94565b606081600001518260400151611231576040518060400160405280600581526020016466616c736560d81b81525061124f565b604051806040016040528060048152602001637472756560e01b8152505b604051602001611260929190611aba565b6040516020818303038152906040529050919050565b60006020828403121561128857600080fd5b5035919050565b60005b838110156112aa578181015183820152602001611292565b50506000910152565b600081518084526112cb81602086016020860161128f565b601f01601f19169290920160200192915050565b6080815260006112f260808301876112b3565b828103602084015261130481876112b3565b9050828103604084015261131881866112b3565b9050828103606084015261132c81856112b3565b979650505050505050565b60006020808301818452808551808352604092508286019150828160051b87010184880160005b838110156113bc57603f19898403018552815160608151818652611384828701826112b3565b915050888201518582038a87015261139c82826112b3565b92890151151595890195909552509487019492509086019060010161135e565b509098975050505050505050565b6020815260006113dd60208301846112b3565b9392505050565b634e487b7160e01b600052604160045260246000fd5b6040516060810167ffffffffffffffff8111828210171561141d5761141d6113e4565b60405290565b604051601f8201601f1916810167ffffffffffffffff8111828210171561144c5761144c6113e4565b604052919050565b600082601f83011261146557600080fd5b813567ffffffffffffffff81111561147f5761147f6113e4565b611492601f8201601f1916602001611423565b8181528460208386010111156114a757600080fd5b816020850160208301376000918101602001919091529392505050565b600080604083850312156114d757600080fd5b82359150602083013567ffffffffffffffff8111156114f557600080fd5b61150185828601611454565b9150509250929050565b60008060006060848603121561152057600080fd5b83359250602084013567ffffffffffffffff8082111561153f57600080fd5b61154b87838801611454565b9350604086013591508082111561156157600080fd5b5061156e86828701611454565b9150509250925092565b6000806000806080858703121561158e57600080fd5b67ffffffffffffffff80863511156115a557600080fd5b6115b28787358801611454565b94506020860135818111156115c657600080fd5b6115d288828901611454565b9450506040860135818111156115e757600080fd5b6115f388828901611454565b93505060608601358181111561160857600080fd5b8601601f8101881361161957600080fd5b80358281111561162b5761162b6113e4565b61163a60208260051b01611423565b8082825260208201915060208360051b85010192508a83111561165c57600080fd5b602084015b8381101561170d57858135111561167757600080fd5b803585016060818e03601f1901121561168f57600080fd5b6116976113fa565b6020820135888111156116a957600080fd5b6116b88f602083860101611454565b8252506040820135888111156116cd57600080fd5b6116dc8f602083860101611454565b6020830152506060820135915081151582146116f757600080fd5b6040810191909152835260209283019201611661565b50979a9699509497505050505050565b600181811c9082168061173157607f821691505b60208210810361175157634e487b7160e01b600052602260045260246000fd5b50919050565b602080825260129082015271125b9d985b1a59081c1c9bda9958dd08125160721b604082015260600190565b634e487b7160e01b600052601160045260246000fd5b818103818111156117ac576117ac611783565b92915050565b634e487b7160e01b600052603260045260246000fd5b6000600182016117da576117da611783565b5060010190565b600082516117f381846020870161128f565b9190910192915050565b600080835461180b8161171d565b60018281168015611823576001811461183857611867565b60ff1984168752821515830287019450611867565b8760005260208060002060005b8581101561185e5781548a820152908401908201611845565b50505082870194505b50929695505050505050565b601f8211156118bd57600081815260208120601f850160051c8101602086101561189a5750805b601f850160051c820191505b818110156118b9578281556001016118a6565b5050505b505050565b815167ffffffffffffffff8111156118dc576118dc6113e4565b6118f0816118ea845461171d565b84611873565b602080601f831160018114611925576000841561190d5750858301515b600019600386901b1c1916600185901b1785556118b9565b600085815260208120601f198616915b8281101561195457888601518255948401946001909101908401611935565b50858210156119725787850151600019600388901b60f8161c191681555b5050505050600190811b01905550565b6000835161199481846020880161128f565b8351908301906119a881836020880161128f565b01949350505050565b600082516119c381846020870161128f565b600b60fa1b920191825250600101919050565b600082516119e881846020870161128f565b605d60f81b920191825250600101919050565b634e487b7160e01b600052601260045260246000fd5b600082611a2057611a206119fb565b500490565b600082611a3457611a346119fb565b500690565b808201808211156117ac576117ac611783565b693d913a34ba3632911d1160b11b81528151600090611a7281600a85016020870161128f565b6a222c227461736b73223a5b60a81b600a939091019283015250601501919050565b60008251611aa681846020870161128f565b615d7d60f01b920191825250600201919050565b6d3d913a30b9b5ba34ba3632911d1160911b81528251600090611ae481600e85016020880161128f565b6a11161134b9b237b732911d60a91b600e918401918201528351611b0f81601984016020880161128f565b607d60f81b60199290910191820152601a0194935050505056fea26469706673582212208acc36793326935c22af83b5d64f2ef64f69d6b09d7372edd9905ceb1d1cf1b064736f6c63430008140033",
  "linkReferences": {},
  "deployedLinkReferences": {}
}