{
  "_format": "hh-sol-artifact-1",
  "contractName": "TaskCon",
  "sourceName": "contracts/TaskCon.sol",
  "abi": [
    {
      "inputs": [],
      "stateMutability": "nonpayable",
      "type": "constructor"
    },
    {
      "anonymous": false,
      "inputs": [
        {
          "indexed": false,
          "internalType": "address",
          "name": "recipient",
          "type": "address"
        },
        {
          "indexed": false,
          "internalType": "uint256",
          "name": "projectid",
          "type": "uint256"
        }
      ],
      "name": "AddProject",
      "type": "event"
    },
    {
      "anonymous": false,
      "inputs": [
        {
          "indexed": false,
          "internalType": "uint256",
          "name": "projectId",
          "type": "uint256"
        },
        {
          "indexed": false,
          "internalType": "uint256",
          "name": "taskId",
          "type": "uint256"
        }
      ],
      "name": "TaskFinished",
      "type": "event"
    },
    {
      "inputs": [],
      "name": "Counter",
      "outputs": [
        {
          "internalType": "uint256",
          "name": "",
          "type": "uint256"
        }
      ],
      "stateMutability": "view",
      "type": "function"
    },
    {
      "inputs": [
        {
          "internalType": "string",
          "name": "_title",
          "type": "string"
        },
        {
          "internalType": "string",
          "name": "_description",
          "type": "string"
        },
        {
          "internalType": "string",
          "name": "_url",
          "type": "string"
        },
        {
          "components": [
            {
              "internalType": "string",
              "name": "tasktitle",
              "type": "string"
            },
            {
              "internalType": "string",
              "name": "description",
              "type": "string"
            },
            {
              "internalType": "uint256",
              "name": "isdone",
              "type": "uint256"
            },
            {
              "internalType": "string",
              "name": "ownerman",
              "type": "string"
            },
            {
              "internalType": "string",
              "name": "collaborator",
              "type": "string"
            }
          ],
          "internalType": "struct TaskCon.task[]",
          "name": "_tasks",
          "type": "tuple[]"
        },
        {
          "internalType": "string",
          "name": "ownerman",
          "type": "string"
        }
      ],
      "name": "addProject",
      "outputs": [],
      "stateMutability": "nonpayable",
      "type": "function"
    },
    {
      "inputs": [
        {
          "internalType": "uint256",
          "name": "projectId",
          "type": "uint256"
        },
        {
          "internalType": "string",
          "name": "tasktitle",
          "type": "string"
        },
        {
          "internalType": "string",
          "name": "description",
          "type": "string"
        },
        {
          "internalType": "string",
          "name": "ownerman",
          "type": "string"
        }
      ],
      "name": "addtasks",
      "outputs": [],
      "stateMutability": "nonpayable",
      "type": "function"
    },
    {
      "inputs": [
        {
          "internalType": "uint256",
          "name": "",
          "type": "uint256"
        }
      ],
      "name": "attempts",
      "outputs": [
        {
          "internalType": "uint256",
          "name": "projectid",
          "type": "uint256"
        },
        {
          "internalType": "string",
          "name": "tasktitle",
          "type": "string"
        },
        {
          "internalType": "uint256",
          "name": "taskid",
          "type": "uint256"
        },
        {
          "internalType": "string",
          "name": "collaborator",
          "type": "string"
        },
        {
          "internalType": "uint256",
          "name": "status",
          "type": "uint256"
        }
      ],
      "stateMutability": "view",
      "type": "function"
    },
    {
      "inputs": [
        {
          "internalType": "uint256",
          "name": "projectId",
          "type": "uint256"
        },
        {
          "internalType": "uint256",
          "name": "taskId",
          "type": "uint256"
        },
        {
          "internalType": "string",
          "name": "tasktitle",
          "type": "string"
        },
        {
          "internalType": "string",
          "name": "collaborator",
          "type": "string"
        }
      ],
      "name": "create_attempt",
      "outputs": [],
      "stateMutability": "nonpayable",
      "type": "function"
    },
    {
      "inputs": [
        {
          "internalType": "uint256",
          "name": "projectId",
          "type": "uint256"
        },
        {
          "internalType": "string",
          "name": "newTitle",
          "type": "string"
        }
      ],
      "name": "editProjectTitle",
      "outputs": [],
      "stateMutability": "nonpayable",
      "type": "function"
    },
    {
      "inputs": [
        {
          "internalType": "uint256",
          "name": "projectId",
          "type": "uint256"
        },
        {
          "internalType": "uint256",
          "name": "taskId",
          "type": "uint256"
        },
        {
          "internalType": "string",
          "name": "collaborator",
          "type": "string"
        }
      ],
      "name": "finishtask",
      "outputs": [],
      "stateMutability": "nonpayable",
      "type": "function"
    },
    {
      "inputs": [
        {
          "internalType": "uint256",
          "name": "projectId",
          "type": "uint256"
        }
      ],
      "name": "getProjectTasks",
      "outputs": [
        {
          "components": [
            {
              "internalType": "string",
              "name": "tasktitle",
              "type": "string"
            },
            {
              "internalType": "string",
              "name": "description",
              "type": "string"
            },
            {
              "internalType": "uint256",
              "name": "isdone",
              "type": "uint256"
            },
            {
              "internalType": "string",
              "name": "ownerman",
              "type": "string"
            },
            {
              "internalType": "string",
              "name": "collaborator",
              "type": "string"
            }
          ],
          "internalType": "struct TaskCon.task[]",
          "name": "",
          "type": "tuple[]"
        }
      ],
      "stateMutability": "view",
      "type": "function"
    },
    {
      "inputs": [],
      "name": "getattempts",
      "outputs": [
        {
          "internalType": "string",
          "name": "",
          "type": "string"
        }
      ],
      "stateMutability": "view",
      "type": "function"
    },
    {
      "inputs": [],
      "name": "getfeed",
      "outputs": [
        {
          "internalType": "string",
          "name": "",
          "type": "string"
        }
      ],
      "stateMutability": "view",
      "type": "function"
    },
    {
      "inputs": [],
      "name": "owner",
      "outputs": [
        {
          "internalType": "address",
          "name": "",
          "type": "address"
        }
      ],
      "stateMutability": "view",
      "type": "function"
    },
    {
      "inputs": [
        {
          "internalType": "uint256",
          "name": "",
          "type": "uint256"
        }
      ],
      "name": "projects",
      "outputs": [
        {
          "internalType": "string",
          "name": "title",
          "type": "string"
        },
        {
          "internalType": "string",
          "name": "description",
          "type": "string"
        },
        {
          "internalType": "string",
          "name": "url",
          "type": "string"
        },
        {
          "internalType": "string",
          "name": "projectid",
          "type": "string"
        },
        {
          "internalType": "string",
          "name": "ownerman",
          "type": "string"
        }
      ],
      "stateMutability": "view",
      "type": "function"
    },
    {
      "inputs": [],
      "name": "tokenaddress",
      "outputs": [
        {
          "internalType": "address",
          "name": "",
          "type": "address"
        }
      ],
      "stateMutability": "view",
      "type": "function"
    }
  ],
  "bytecode": "0x608060405234801561001057600080fd5b50600080546001600160a01b03191633178155600255612a0f806100356000396000f3fe608060405234801561001057600080fd5b50600436106100cf5760003560e01c80634eeca0761161008c5780638da5cb5b116100665780638da5cb5b146101d7578063a92a7fb7146101ea578063b160b1d2146101f2578063c6edc8d31461020557600080fd5b80634eeca0761461018d578063591c564f146101a45780636f431d82146101c457600080fd5b806301162b60146100d4578063107046bd146100f25780631bc25d78146101165780633feff76d1461012b57806342b343a31461015657806346c486491461017a575b600080fd5b6100dc610218565b6040516100e99190611f25565b60405180910390f35b610105610100366004611f3f565b610540565b6040516100e9959493929190611f58565b6101296101243660046121eb565b61082e565b005b60015461013e906001600160a01b031681565b6040516001600160a01b0390911681526020016100e9565b610169610164366004611f3f565b6109ca565b6040516100e99594939291906122bc565b610129610188366004612300565b610b1c565b61019660025481565b6040519081526020016100e9565b6101b76101b2366004611f3f565b610b93565b6040516100e99190612346565b6101296101d236600461240d565b610ea0565b60005461013e906001600160a01b031681565b6100dc610f6b565b610129610200366004612483565b6116e2565b6101296102133660046124d9565b6117f7565b6004546060906000906001600160401b0381111561023857610238611fc5565b60405190808252806020026020018201604052801561029b57816020015b6102886040518060a0016040528060008152602001606081526020016000815260200160608152602001600081525090565b8152602001906001900390816102565790505b5090506000805b60045481101561045857600481815481106102bf576102bf612528565b90600052602060002090600502016040518060a0016040529081600082015481526020016001820180546102f29061253e565b80601f016020809104026020016040519081016040528092919081815260200182805461031e9061253e565b801561036b5780601f106103405761010080835404028352916020019161036b565b820191906000526020600020905b81548152906001019060200180831161034e57829003601f168201915b505050505081526020016002820154815260200160038201805461038e9061253e565b80601f01602080910402602001604051908101604052809291908181526020018280546103ba9061253e565b80156104075780601f106103dc57610100808354040283529160200191610407565b820191906000526020600020905b8154815290600101906020018083116103ea57829003601f168201915b5050505050815260200160048201548152505083838151811061042c5761042c612528565b602002602001018190525081806104429061258e565b92505080806104509061258e565b9150506102a2565b506000816001600160401b0381111561047357610473611fc5565b6040519080825280602002602001820160405280156104d657816020015b6104c36040518060a0016040528060008152602001606081526020016000815260200160608152602001600081525090565b8152602001906001900390816104915790505b50905060005b8281101561052e578381815181106104f6576104f6612528565b602002602001015182828151811061051057610510612528565b602002602001018190525080806105269061258e565b9150506104dc565b5061053881611a2e565b935050505090565b6003818154811061055057600080fd5b90600052602060002090600602016000915090508060000180546105739061253e565b80601f016020809104026020016040519081016040528092919081815260200182805461059f9061253e565b80156105ec5780601f106105c1576101008083540402835291602001916105ec565b820191906000526020600020905b8154815290600101906020018083116105cf57829003601f168201915b5050505050908060010180546106019061253e565b80601f016020809104026020016040519081016040528092919081815260200182805461062d9061253e565b801561067a5780601f1061064f5761010080835404028352916020019161067a565b820191906000526020600020905b81548152906001019060200180831161065d57829003601f168201915b50505050509080600201805461068f9061253e565b80601f01602080910402602001604051908101604052809291908181526020018280546106bb9061253e565b80156107085780601f106106dd57610100808354040283529160200191610708565b820191906000526020600020905b8154815290600101906020018083116106eb57829003601f168201915b50505050509080600401805461071d9061253e565b80601f01602080910402602001604051908101604052809291908181526020018280546107499061253e565b80156107965780601f1061076b57610100808354040283529160200191610796565b820191906000526020600020905b81548152906001019060200180831161077957829003601f168201915b5050505050908060050180546107ab9061253e565b80601f01602080910402602001604051908101604052809291908181526020018280546107d79061253e565b80156108245780601f106107f957610100808354040283529160200191610824565b820191906000526020600020905b81548152906001019060200180831161080757829003601f168201915b5050505050905085565b6002805490600061083e8361258e565b9091555050600380546001810182556000919091526006027fc2575a0e9e593c00f959f8c92f12db2869c3395a3b0502d05e2516446f71f85b018061088387826125f5565b506001810161089286826125f5565b50600281016108a185826125f5565b506108ad600254611b1e565b60048201906108bc90826125f5565b50600581016108cb83826125f5565b5060005b83518110156109845760008482815181106108ec576108ec612528565b6020908102919091018101516003850180546001810182556000918252929020815191935083926005020190819061092490826125f5565b506020820151600182019061093990826125f5565b50604082015160028201556060820151600382019061095890826125f5565b506080820151600482019061096d90826125f5565b50505050808061097c9061258e565b9150506108cf565b506002546040805133815260208101929092527f4a31f5ac372495eeadf90f1b0d3a4693dbb858e9f2e9730987f6d93338dc06ac910160405180910390a1505050505050565b600481815481106109da57600080fd5b600091825260209091206005909102018054600182018054919350906109ff9061253e565b80601f0160208091040260200160405190810160405280929190818152602001828054610a2b9061253e565b8015610a785780601f10610a4d57610100808354040283529160200191610a78565b820191906000526020600020905b815481529060010190602001808311610a5b57829003601f168201915b505050505090806002015490806003018054610a939061253e565b80601f0160208091040260200160405190810160405280929190818152602001828054610abf9061253e565b8015610b0c5780601f10610ae157610100808354040283529160200191610b0c565b820191906000526020600020905b815481529060010190602001808311610aef57829003601f168201915b5050505050908060040154905085565b600082118015610b2e57506002548211155b610b535760405162461bcd60e51b8152600401610b4a906126b4565b60405180910390fd5b806003610b616001856126e0565b81548110610b7157610b71612528565b90600052602060002090600602016000019081610b8e91906125f5565b505050565b6060600082118015610ba757506002548211155b610bc35760405162461bcd60e51b8152600401610b4a906126b4565b6003610bd06001846126e0565b81548110610be057610be0612528565b9060005260206000209060060201600301805480602002602001604051908101604052809291908181526020016000905b82821015610e9557838290600052602060002090600502016040518060a0016040529081600082018054610c449061253e565b80601f0160208091040260200160405190810160405280929190818152602001828054610c709061253e565b8015610cbd5780601f10610c9257610100808354040283529160200191610cbd565b820191906000526020600020905b815481529060010190602001808311610ca057829003601f168201915b50505050508152602001600182018054610cd69061253e565b80601f0160208091040260200160405190810160405280929190818152602001828054610d029061253e565b8015610d4f5780601f10610d2457610100808354040283529160200191610d4f565b820191906000526020600020905b815481529060010190602001808311610d3257829003601f168201915b5050505050815260200160028201548152602001600382018054610d729061253e565b80601f0160208091040260200160405190810160405280929190818152602001828054610d9e9061253e565b8015610deb5780601f10610dc057610100808354040283529160200191610deb565b820191906000526020600020905b815481529060010190602001808311610dce57829003601f168201915b50505050508152602001600482018054610e049061253e565b80601f0160208091040260200160405190810160405280929190818152602001828054610e309061253e565b8015610e7d5780601f10610e5257610100808354040283529160200191610e7d565b820191906000526020600020905b815481529060010190602001808311610e6057829003601f168201915b50505050508152505081526020019060010190610c11565b505050509050919050565b6040805160a0810182528581526020810184815291810185905260608101839052600060808201819052600480546001810182559152815160059091027f8a35acfbc15ff81a39ae7d344fd709f28e8600b4aa8c65c6b64bfe7fe36bd19b81019182559251919283927f8a35acfbc15ff81a39ae7d344fd709f28e8600b4aa8c65c6b64bfe7fe36bd19c90910190610f3890826125f5565b506040820151600282015560608201516003820190610f5790826125f5565b506080820151816004015550505050505050565b6003546060906000906001600160401b03811115610f8b57610f8b611fc5565b604051908082528060200260200182016040528015610ff557816020015b610fe26040518060c001604052806060815260200160608152602001606081526020016060815260200160608152602001606081525090565b815260200190600190039081610fa95790505b5090506000805b6003548110156115fb576003818154811061101957611019612528565b90600052602060002090600602016040518060c00160405290816000820180546110429061253e565b80601f016020809104026020016040519081016040528092919081815260200182805461106e9061253e565b80156110bb5780601f10611090576101008083540402835291602001916110bb565b820191906000526020600020905b81548152906001019060200180831161109e57829003601f168201915b505050505081526020016001820180546110d49061253e565b80601f01602080910402602001604051908101604052809291908181526020018280546111009061253e565b801561114d5780601f106111225761010080835404028352916020019161114d565b820191906000526020600020905b81548152906001019060200180831161113057829003601f168201915b505050505081526020016002820180546111669061253e565b80601f01602080910402602001604051908101604052809291908181526020018280546111929061253e565b80156111df5780601f106111b4576101008083540402835291602001916111df565b820191906000526020600020905b8154815290600101906020018083116111c257829003601f168201915b5050505050815260200160038201805480602002602001604051908101604052809291908181526020016000905b8282101561149157838290600052602060002090600502016040518060a00160405290816000820180546112409061253e565b80601f016020809104026020016040519081016040528092919081815260200182805461126c9061253e565b80156112b95780601f1061128e576101008083540402835291602001916112b9565b820191906000526020600020905b81548152906001019060200180831161129c57829003601f168201915b505050505081526020016001820180546112d29061253e565b80601f01602080910402602001604051908101604052809291908181526020018280546112fe9061253e565b801561134b5780601f106113205761010080835404028352916020019161134b565b820191906000526020600020905b81548152906001019060200180831161132e57829003601f168201915b505050505081526020016002820154815260200160038201805461136e9061253e565b80601f016020809104026020016040519081016040528092919081815260200182805461139a9061253e565b80156113e75780601f106113bc576101008083540402835291602001916113e7565b820191906000526020600020905b8154815290600101906020018083116113ca57829003601f168201915b505050505081526020016004820180546114009061253e565b80601f016020809104026020016040519081016040528092919081815260200182805461142c9061253e565b80156114795780601f1061144e57610100808354040283529160200191611479565b820191906000526020600020905b81548152906001019060200180831161145c57829003601f168201915b5050505050815250508152602001906001019061120d565b5050505081526020016004820180546114a99061253e565b80601f01602080910402602001604051908101604052809291908181526020018280546114d59061253e565b80156115225780601f106114f757610100808354040283529160200191611522565b820191906000526020600020905b81548152906001019060200180831161150557829003601f168201915b5050505050815260200160058201805461153b9061253e565b80601f01602080910402602001604051908101604052809291908181526020018280546115679061253e565b80156115b45780601f10611589576101008083540402835291602001916115b4565b820191906000526020600020905b81548152906001019060200180831161159757829003601f168201915b5050505050815250508383815181106115cf576115cf612528565b602002602001018190525081806115e59061258e565b92505080806115f39061258e565b915050610ffc565b506000816001600160401b0381111561161657611616611fc5565b60405190808252806020026020018201604052801561168057816020015b61166d6040518060c001604052806060815260200160608152602001606081526020016060815260200160608152602001606081525090565b8152602001906001900390816116345790505b50905060005b828110156116d8578381815181106116a0576116a0612528565b60200260200101518282815181106116ba576116ba612528565b602002602001018190525080806116d09061258e565b915050611686565b5061053881611c26565b6000841180156116f457506002548411155b6117105760405162461bcd60e51b8152600401610b4a906126b4565b60006040518060a0016040528085815260200184815260200160008152602001838152602001604051806020016040528060008152508152509050600360018661175a91906126e0565b8154811061176a5761176a612528565b6000918252602080832060036006909302019190910180546001810182559083529120825183926005029091019081906117a490826125f5565b50602082015160018201906117b990826125f5565b5060408201516002820155606082015160038201906117d890826125f5565b50608082015160048201906117ed90826125f5565b5050505050505050565b60008311801561180957506003548311155b6118255760405162461bcd60e51b8152600401610b4a906126b4565b6000821180156118665750600361183d6001856126e0565b8154811061184d5761184d612528565b9060005260206000209060060201600301805490508211155b6118a45760405162461bcd60e51b815260206004820152600f60248201526e125b9d985b1a59081d185cdac81251608a1b6044820152606401610b4a565b600060036118b36001866126e0565b815481106118c3576118c3612528565b906000526020600020906006020160030190506001816001856118e691906126e0565b815481106118f6576118f6612528565b600091825260209091206002600590920201015581816119176001866126e0565b8154811061192757611927612528565b9060005260206000209060050201600401908161194491906125f5565b5060005b6004548110156119ee57846004828154811061196657611966612528565b9060005260206000209060050201600001541480156119a85750836004828154811061199457611994612528565b906000526020600020906005020160020154145b156119dc576001600482815481106119c2576119c2612528565b9060005260206000209060050201600401819055506119ee565b806119e68161258e565b915050611948565b5060408051858152602081018590527fa5f5ad5a3ae74375cb014de63dd7396355489c697ef6034ca9c958d1ed6343e0910160405180910390a150505050565b60606000604051602001611a4990605b60f81b815260010190565b604051602081830303815290604052905060005b8351811015611af55781611a89858381518110611a7c57611a7c612528565b6020026020010151611ced565b604051602001611a9a9291906126f9565b604051602081830303815290604052915060018451611ab991906126e0565b811015611ae35781604051602001611ad19190612728565b60405160208183030381529060405291505b80611aed8161258e565b915050611a5d565b5080604051602001611b07919061274d565b60408051601f198184030181529190529392505050565b606081600003611b455750506040805180820190915260018152600360fc1b602082015290565b8160005b8115611b6f5780611b598161258e565b9150611b689050600a83612788565b9150611b49565b6000816001600160401b03811115611b8957611b89611fc5565b6040519080825280601f01601f191660200182016040528015611bb3576020820181803683370190505b5090505b8415611c1e57611bc86001836126e0565b9150611bd5600a8661279c565b611be09060306127b0565b60f81b818381518110611bf557611bf5612528565b60200101906001600160f81b031916908160001a905350611c17600a86612788565b9450611bb7565b949350505050565b60606000604051602001611c4190605b60f81b815260010190565b604051602081830303815290604052905060005b8351811015611af55781611c81858381518110611c7457611c74612528565b6020026020010151611d8a565b604051602001611c929291906126f9565b604051602081830303815290604052915060018451611cb191906126e0565b811015611cdb5781604051602001611cc99190612728565b60405160208183030381529060405291505b80611ce58161258e565b915050611c55565b6060611cfc8260000151611b1e565b8260200151611d0e8460400151611b1e565b84606001518560800151600114611d42576040518060400160405280600581526020016466616c736560d81b815250611d60565b604051806040016040528060048152602001637472756560e01b8152505b604051602001611d749594939291906127c3565b6040516020818303038152906040529050919050565b60808101518151604051606092600092611da6926020016128cb565b604051602081830303815290604052905060005b836060015151811015611e5e5781611dee85606001518381518110611de157611de1612528565b6020026020010151611e70565b604051602001611dff9291906126f9565b60405160208183030381529060405291506001846060015151611e2291906126e0565b811015611e4c5781604051602001611e3a9190612728565b60405160208183030381529060405291505b80611e568161258e565b915050611dba565b5080604051602001611b079190612944565b606081600001518260400151600114611ea6576040518060400160405280600581526020016466616c736560d81b815250611ec4565b604051806040016040528060048152602001637472756560e01b8152505b604051602001611d7492919061296a565b60005b83811015611ef0578181015183820152602001611ed8565b50506000910152565b60008151808452611f11816020860160208601611ed5565b601f01601f19169290920160200192915050565b602081526000611f386020830184611ef9565b9392505050565b600060208284031215611f5157600080fd5b5035919050565b60a081526000611f6b60a0830188611ef9565b8281036020840152611f7d8188611ef9565b90508281036040840152611f918187611ef9565b90508281036060840152611fa58186611ef9565b90508281036080840152611fb98185611ef9565b98975050505050505050565b634e487b7160e01b600052604160045260246000fd5b60405160a081016001600160401b0381118282101715611ffd57611ffd611fc5565b60405290565b604051601f8201601f191681016001600160401b038111828210171561202b5761202b611fc5565b604052919050565b600082601f83011261204457600080fd5b81356001600160401b0381111561205d5761205d611fc5565b612070601f8201601f1916602001612003565b81815284602083860101111561208557600080fd5b816020850160208301376000918101602001919091529392505050565b600082601f8301126120b357600080fd5b813560206001600160401b03808311156120cf576120cf611fc5565b8260051b6120de838201612003565b93845285810183019383810190888611156120f857600080fd5b84880192505b85831015611fb9578235848111156121165760008081fd5b880160a0818b03601f190181131561212e5760008081fd5b612136611fdb565b87830135878111156121485760008081fd5b6121568d8a83870101612033565b8252506040808401358881111561216d5760008081fd5b61217b8e8b83880101612033565b8a84015250606080850135828401526080915081850135898111156121a05760008081fd5b6121ae8f8c83890101612033565b828501525050828401359250878311156121c85760008081fd5b6121d68d8a85870101612033565b908201528452505091840191908401906120fe565b600080600080600060a0868803121561220357600080fd5b85356001600160401b038082111561221a57600080fd5b61222689838a01612033565b9650602088013591508082111561223c57600080fd5b61224889838a01612033565b9550604088013591508082111561225e57600080fd5b61226a89838a01612033565b9450606088013591508082111561228057600080fd5b61228c89838a016120a2565b935060808801359150808211156122a257600080fd5b506122af88828901612033565b9150509295509295909350565b85815260a0602082015260006122d560a0830187611ef9565b85604084015282810360608401526122ed8186611ef9565b9150508260808301529695505050505050565b6000806040838503121561231357600080fd5b8235915060208301356001600160401b0381111561233057600080fd5b61233c85828601612033565b9150509250929050565b60006020808301818452808551808352604092508286019150828160051b87010184880160005b838110156123ff57603f19898403018552815160a0815181865261239382870182611ef9565b915050888201518582038a8701526123ab8282611ef9565b9150508782015188860152606080830151868303828801526123cd8382611ef9565b92505050608080830151925085820381870152506123eb8183611ef9565b96890196945050509086019060010161236d565b509098975050505050505050565b6000806000806080858703121561242357600080fd5b843593506020850135925060408501356001600160401b038082111561244857600080fd5b61245488838901612033565b9350606087013591508082111561246a57600080fd5b5061247787828801612033565b91505092959194509250565b6000806000806080858703121561249957600080fd5b8435935060208501356001600160401b03808211156124b757600080fd5b6124c388838901612033565b9450604087013591508082111561244857600080fd5b6000806000606084860312156124ee57600080fd5b833592506020840135915060408401356001600160401b0381111561251257600080fd5b61251e86828701612033565b9150509250925092565b634e487b7160e01b600052603260045260246000fd5b600181811c9082168061255257607f821691505b60208210810361257257634e487b7160e01b600052602260045260246000fd5b50919050565b634e487b7160e01b600052601160045260246000fd5b6000600182016125a0576125a0612578565b5060010190565b601f821115610b8e57600081815260208120601f850160051c810160208610156125ce5750805b601f850160051c820191505b818110156125ed578281556001016125da565b505050505050565b81516001600160401b0381111561260e5761260e611fc5565b6126228161261c845461253e565b846125a7565b602080601f831160018114612657576000841561263f5750858301515b600019600386901b1c1916600185901b1785556125ed565b600085815260208120601f198616915b8281101561268657888601518255948401946001909101908401612667565b50858210156126a45787850151600019600388901b60f8161c191681555b5050505050600190811b01905550565b602080825260129082015271125b9d985b1a59081c1c9bda9958dd08125160721b604082015260600190565b818103818111156126f3576126f3612578565b92915050565b6000835161270b818460208801611ed5565b83519083019061271f818360208801611ed5565b01949350505050565b6000825161273a818460208701611ed5565b600b60fa1b920191825250600101919050565b6000825161275f818460208701611ed5565b605d60f81b920191825250600101919050565b634e487b7160e01b600052601260045260246000fd5b60008261279757612797612772565b500490565b6000826127ab576127ab612772565b500690565b808201808211156126f3576126f3612578565b6d3d91383937b532b1ba34b2111d1160911b815285516000906127ed81600e850160208b01611ed5565b6e1116113a30b9b5ba34ba3632911d1160891b600e91840191820152865161281c81601d840160208b01611ed5565b6b1116113a30b9b5b4b2111d1160a11b601d92909101918201528551612849816029840160208a01611ed5565b7111161131b7b63630b137b930ba37b9111d1160711b60299290910191820152845161287c81603b840160208901611ed5565b6a11161139ba30ba3ab9911d60a91b603b929091019182015283516128a8816046840160208801611ed5565b6128be604682840101607d60f81b815260010190565b9998505050505050505050565b6d3d91383937b532b1ba34b2111d1160911b815282516000906128f581600e850160208801611ed5565b6a1116113a34ba3632911d1160a91b600e918401918201528351612920816019840160208801611ed5565b6a222c227461736b73223a5b60a81b60199290910191820152602401949350505050565b60008251612956818460208701611ed5565b615d7d60f01b920191825250600201919050565b6d3d913a30b9b5ba34ba3632911d1160911b8152825160009061299481600e850160208801611ed5565b6a11161134b9b237b732911d60a91b600e9184019182015283516129bf816019840160208801611ed5565b607d60f81b60199290910191820152601a0194935050505056fea2646970667358221220807a4a8b2644844371d1d64345bc52393e35493a07a77a806f3d5c650aebbaa164736f6c63430008140033",
  "linkReferences": {},
  "deployedLinkReferences": {}
}