{
  "_format": "hh-sol-artifact-1",
  "contractName": "TaskCon",
  "sourceName": "contracts/TaskCon.sol",
  "abi": [
    {
      "inputs": [],
      "stateMutability": "nonpayable",
      "type": "constructor"
    },
    {
      "anonymous": false,
      "inputs": [
        {
          "indexed": false,
          "internalType": "address",
          "name": "recipient",
          "type": "address"
        },
        {
          "indexed": false,
          "internalType": "uint256",
          "name": "projectid",
          "type": "uint256"
        }
      ],
      "name": "AddProject",
      "type": "event"
    },
    {
      "anonymous": false,
      "inputs": [
        {
          "indexed": false,
          "internalType": "uint256",
          "name": "projectId",
          "type": "uint256"
        },
        {
          "indexed": false,
          "internalType": "uint256",
          "name": "taskId",
          "type": "uint256"
        }
      ],
      "name": "TaskFinished",
      "type": "event"
    },
    {
      "inputs": [],
      "name": "CollaboratorToken",
      "outputs": [
        {
          "internalType": "contract IERC20",
          "name": "",
          "type": "address"
        }
      ],
      "stateMutability": "view",
      "type": "function"
    },
    {
      "inputs": [],
      "name": "Counter",
      "outputs": [
        {
          "internalType": "uint256",
          "name": "",
          "type": "uint256"
        }
      ],
      "stateMutability": "view",
      "type": "function"
    },
    {
      "inputs": [
        {
          "internalType": "string",
          "name": "_title",
          "type": "string"
        },
        {
          "internalType": "string",
          "name": "_description",
          "type": "string"
        },
        {
          "internalType": "string",
          "name": "_url",
          "type": "string"
        },
        {
          "components": [
            {
              "internalType": "string",
              "name": "tasktitle",
              "type": "string"
            },
            {
              "internalType": "string",
              "name": "description",
              "type": "string"
            },
            {
              "internalType": "uint256",
              "name": "isdone",
              "type": "uint256"
            },
            {
              "internalType": "string",
              "name": "ownerman",
              "type": "string"
            },
            {
              "internalType": "string",
              "name": "collaborator",
              "type": "string"
            },
            {
              "internalType": "uint256",
              "name": "reward",
              "type": "uint256"
            }
          ],
          "internalType": "struct TaskCon.task[]",
          "name": "_tasks",
          "type": "tuple[]"
        },
        {
          "internalType": "string",
          "name": "ownerman",
          "type": "string"
        }
      ],
      "name": "addProject",
      "outputs": [],
      "stateMutability": "nonpayable",
      "type": "function"
    },
    {
      "inputs": [
        {
          "internalType": "uint256",
          "name": "projectId",
          "type": "uint256"
        },
        {
          "internalType": "string",
          "name": "tasktitle",
          "type": "string"
        },
        {
          "internalType": "string",
          "name": "description",
          "type": "string"
        },
        {
          "internalType": "string",
          "name": "ownerman",
          "type": "string"
        },
        {
          "internalType": "uint256",
          "name": "rewardamount",
          "type": "uint256"
        }
      ],
      "name": "addtasks",
      "outputs": [],
      "stateMutability": "nonpayable",
      "type": "function"
    },
    {
      "inputs": [
        {
          "internalType": "uint256",
          "name": "",
          "type": "uint256"
        }
      ],
      "name": "attempts",
      "outputs": [
        {
          "internalType": "uint256",
          "name": "projectid",
          "type": "uint256"
        },
        {
          "internalType": "string",
          "name": "tasktitle",
          "type": "string"
        },
        {
          "internalType": "uint256",
          "name": "taskid",
          "type": "uint256"
        },
        {
          "internalType": "string",
          "name": "collaborator",
          "type": "string"
        },
        {
          "internalType": "uint256",
          "name": "status",
          "type": "uint256"
        }
      ],
      "stateMutability": "view",
      "type": "function"
    },
    {
      "inputs": [
        {
          "internalType": "address",
          "name": "",
          "type": "address"
        }
      ],
      "name": "balances",
      "outputs": [
        {
          "internalType": "uint256",
          "name": "",
          "type": "uint256"
        }
      ],
      "stateMutability": "view",
      "type": "function"
    },
    {
      "inputs": [
        {
          "internalType": "uint256",
          "name": "projectId",
          "type": "uint256"
        },
        {
          "internalType": "uint256",
          "name": "taskId",
          "type": "uint256"
        },
        {
          "internalType": "string",
          "name": "tasktitle",
          "type": "string"
        },
        {
          "internalType": "string",
          "name": "collaborator",
          "type": "string"
        }
      ],
      "name": "create_attempt",
      "outputs": [],
      "stateMutability": "nonpayable",
      "type": "function"
    },
    {
      "inputs": [],
      "name": "deposit",
      "outputs": [],
      "stateMutability": "payable",
      "type": "function"
    },
    {
      "inputs": [
        {
          "internalType": "uint256",
          "name": "projectId",
          "type": "uint256"
        },
        {
          "internalType": "string",
          "name": "newTitle",
          "type": "string"
        }
      ],
      "name": "editProjectTitle",
      "outputs": [],
      "stateMutability": "nonpayable",
      "type": "function"
    },
    {
      "inputs": [
        {
          "internalType": "uint256",
          "name": "projectId",
          "type": "uint256"
        },
        {
          "internalType": "uint256",
          "name": "taskId",
          "type": "uint256"
        },
        {
          "internalType": "string",
          "name": "collaborator",
          "type": "string"
        }
      ],
      "name": "finishtask",
      "outputs": [],
      "stateMutability": "nonpayable",
      "type": "function"
    },
    {
      "inputs": [],
      "name": "getContractBalance",
      "outputs": [
        {
          "internalType": "uint256",
          "name": "",
          "type": "uint256"
        }
      ],
      "stateMutability": "view",
      "type": "function"
    },
    {
      "inputs": [
        {
          "internalType": "uint256",
          "name": "projectId",
          "type": "uint256"
        }
      ],
      "name": "getProjectTasks",
      "outputs": [
        {
          "components": [
            {
              "internalType": "string",
              "name": "tasktitle",
              "type": "string"
            },
            {
              "internalType": "string",
              "name": "description",
              "type": "string"
            },
            {
              "internalType": "uint256",
              "name": "isdone",
              "type": "uint256"
            },
            {
              "internalType": "string",
              "name": "ownerman",
              "type": "string"
            },
            {
              "internalType": "string",
              "name": "collaborator",
              "type": "string"
            },
            {
              "internalType": "uint256",
              "name": "reward",
              "type": "uint256"
            }
          ],
          "internalType": "struct TaskCon.task[]",
          "name": "",
          "type": "tuple[]"
        }
      ],
      "stateMutability": "view",
      "type": "function"
    },
    {
      "inputs": [],
      "name": "getattempts",
      "outputs": [
        {
          "internalType": "string",
          "name": "",
          "type": "string"
        }
      ],
      "stateMutability": "view",
      "type": "function"
    },
    {
      "inputs": [],
      "name": "getfeed",
      "outputs": [
        {
          "internalType": "string",
          "name": "",
          "type": "string"
        }
      ],
      "stateMutability": "view",
      "type": "function"
    },
    {
      "inputs": [],
      "name": "owner",
      "outputs": [
        {
          "internalType": "address",
          "name": "",
          "type": "address"
        }
      ],
      "stateMutability": "view",
      "type": "function"
    },
    {
      "inputs": [
        {
          "internalType": "uint256",
          "name": "",
          "type": "uint256"
        }
      ],
      "name": "projects",
      "outputs": [
        {
          "internalType": "string",
          "name": "title",
          "type": "string"
        },
        {
          "internalType": "string",
          "name": "description",
          "type": "string"
        },
        {
          "internalType": "string",
          "name": "url",
          "type": "string"
        },
        {
          "internalType": "string",
          "name": "projectid",
          "type": "string"
        },
        {
          "internalType": "string",
          "name": "ownerman",
          "type": "string"
        }
      ],
      "stateMutability": "view",
      "type": "function"
    },
    {
      "inputs": [],
      "name": "tokenaddress",
      "outputs": [
        {
          "internalType": "address",
          "name": "",
          "type": "address"
        }
      ],
      "stateMutability": "view",
      "type": "function"
    }
  ],
  "bytecode": "0x60806040523480156200001157600080fd5b50600280546001600160a01b03191633179055604051620000329062000084565b604051809103906000f0801580156200004f573d6000803e3d6000fd5b50600180546001600160a01b03929092166001600160a01b031992831681179091556000805490921617815560035562000092565b610c2f806200310b83390190565b61306980620000a26000396000f3fe6080604052600436106100fe5760003560e01c8063591c564f116100955780638da5cb5b116100645780638da5cb5b146102db578063a92a7fb7146102fb578063c6edc8d314610310578063d0e30db014610330578063e36ddfc51461033857600080fd5b8063591c564f1461025b5780636f431d82146102885780636f9fb98a146102a857806382788e39146102bb57600080fd5b806342b343a3116100d157806342b343a3146101d257806346c48649146102035780634eeca0761461022557806350d4be901461023b57600080fd5b806301162b6014610103578063107046bd1461012e57806327e235e31461015f5780633feff76d1461019a575b600080fd5b34801561010f57600080fd5b50610118610358565b60405161012591906123d0565b60405180910390f35b34801561013a57600080fd5b5061014e6101493660046123ea565b610680565b604051610125959493929190612403565b34801561016b57600080fd5b5061018c61017a366004612470565b60046020526000908152604090205481565b604051908152602001610125565b3480156101a657600080fd5b506001546101ba906001600160a01b031681565b6040516001600160a01b039091168152602001610125565b3480156101de57600080fd5b506101f26101ed3660046123ea565b61096e565b604051610125959493929190612499565b34801561020f57600080fd5b5061022361021e3660046125ba565b610ac0565b005b34801561023157600080fd5b5061018c60035481565b34801561024757600080fd5b506000546101ba906001600160a01b031681565b34801561026757600080fd5b5061027b6102763660046123ea565b610b37565b6040516101259190612600565b34801561029457600080fd5b506102236102a33660046126d2565b610e4e565b3480156102b457600080fd5b504761018c565b3480156102c757600080fd5b506102236102d6366004612748565b610f19565b3480156102e757600080fd5b506002546101ba906001600160a01b031681565b34801561030757600080fd5b5061011861103a565b34801561031c57600080fd5b5061022361032b3660046127e1565b6117bb565b610223611aad565b34801561034457600080fd5b50610223610353366004612987565b611b34565b6006546060906000906001600160401b03811115610378576103786124dd565b6040519080825280602002602001820160405280156103db57816020015b6103c86040518060a0016040528060008152602001606081526020016000815260200160608152602001600081525090565b8152602001906001900390816103965790505b5090506000805b60065481101561059857600681815481106103ff576103ff612a58565b90600052602060002090600502016040518060a00160405290816000820154815260200160018201805461043290612a6e565b80601f016020809104026020016040519081016040528092919081815260200182805461045e90612a6e565b80156104ab5780601f10610480576101008083540402835291602001916104ab565b820191906000526020600020905b81548152906001019060200180831161048e57829003601f168201915b50505050508152602001600282015481526020016003820180546104ce90612a6e565b80601f01602080910402602001604051908101604052809291908181526020018280546104fa90612a6e565b80156105475780601f1061051c57610100808354040283529160200191610547565b820191906000526020600020905b81548152906001019060200180831161052a57829003601f168201915b5050505050815260200160048201548152505083838151811061056c5761056c612a58565b6020026020010181905250818061058290612abe565b925050808061059090612abe565b9150506103e2565b506000816001600160401b038111156105b3576105b36124dd565b60405190808252806020026020018201604052801561061657816020015b6106036040518060a0016040528060008152602001606081526020016000815260200160608152602001600081525090565b8152602001906001900390816105d15790505b50905060005b8281101561066e5783818151811061063657610636612a58565b602002602001015182828151811061065057610650612a58565b6020026020010181905250808061066690612abe565b91505061061c565b5061067881611ccf565b935050505090565b6005818154811061069057600080fd5b90600052602060002090600602016000915090508060000180546106b390612a6e565b80601f01602080910402602001604051908101604052809291908181526020018280546106df90612a6e565b801561072c5780601f106107015761010080835404028352916020019161072c565b820191906000526020600020905b81548152906001019060200180831161070f57829003601f168201915b50505050509080600101805461074190612a6e565b80601f016020809104026020016040519081016040528092919081815260200182805461076d90612a6e565b80156107ba5780601f1061078f576101008083540402835291602001916107ba565b820191906000526020600020905b81548152906001019060200180831161079d57829003601f168201915b5050505050908060020180546107cf90612a6e565b80601f01602080910402602001604051908101604052809291908181526020018280546107fb90612a6e565b80156108485780601f1061081d57610100808354040283529160200191610848565b820191906000526020600020905b81548152906001019060200180831161082b57829003601f168201915b50505050509080600401805461085d90612a6e565b80601f016020809104026020016040519081016040528092919081815260200182805461088990612a6e565b80156108d65780601f106108ab576101008083540402835291602001916108d6565b820191906000526020600020905b8154815290600101906020018083116108b957829003601f168201915b5050505050908060050180546108eb90612a6e565b80601f016020809104026020016040519081016040528092919081815260200182805461091790612a6e565b80156109645780601f1061093957610100808354040283529160200191610964565b820191906000526020600020905b81548152906001019060200180831161094757829003601f168201915b5050505050905085565b6006818154811061097e57600080fd5b600091825260209091206005909102018054600182018054919350906109a390612a6e565b80601f01602080910402602001604051908101604052809291908181526020018280546109cf90612a6e565b8015610a1c5780601f106109f157610100808354040283529160200191610a1c565b820191906000526020600020905b8154815290600101906020018083116109ff57829003601f168201915b505050505090806002015490806003018054610a3790612a6e565b80601f0160208091040260200160405190810160405280929190818152602001828054610a6390612a6e565b8015610ab05780601f10610a8557610100808354040283529160200191610ab0565b820191906000526020600020905b815481529060010190602001808311610a9357829003601f168201915b5050505050908060040154905085565b600082118015610ad257506003548211155b610af75760405162461bcd60e51b8152600401610aee90612ad7565b60405180910390fd5b806005610b05600185612b03565b81548110610b1557610b15612a58565b90600052602060002090600602016000019081610b329190612b6a565b505050565b6060600082118015610b4b57506003548211155b610b675760405162461bcd60e51b8152600401610aee90612ad7565b6005610b74600184612b03565b81548110610b8457610b84612a58565b9060005260206000209060060201600301805480602002602001604051908101604052809291908181526020016000905b82821015610e4357838290600052602060002090600602016040518060c0016040529081600082018054610be890612a6e565b80601f0160208091040260200160405190810160405280929190818152602001828054610c1490612a6e565b8015610c615780601f10610c3657610100808354040283529160200191610c61565b820191906000526020600020905b815481529060010190602001808311610c4457829003601f168201915b50505050508152602001600182018054610c7a90612a6e565b80601f0160208091040260200160405190810160405280929190818152602001828054610ca690612a6e565b8015610cf35780601f10610cc857610100808354040283529160200191610cf3565b820191906000526020600020905b815481529060010190602001808311610cd657829003601f168201915b5050505050815260200160028201548152602001600382018054610d1690612a6e565b80601f0160208091040260200160405190810160405280929190818152602001828054610d4290612a6e565b8015610d8f5780601f10610d6457610100808354040283529160200191610d8f565b820191906000526020600020905b815481529060010190602001808311610d7257829003601f168201915b50505050508152602001600482018054610da890612a6e565b80601f0160208091040260200160405190810160405280929190818152602001828054610dd490612a6e565b8015610e215780601f10610df657610100808354040283529160200191610e21565b820191906000526020600020905b815481529060010190602001808311610e0457829003601f168201915b5050505050815260200160058201548152505081526020019060010190610bb5565b505050509050919050565b6040805160a0810182528581526020810184815291810185905260608101839052600060808201819052600680546001810182559152815160059091027ff652222313e28459528d920b65115c16c04f3efc82aaedc97be59f3f377c0d3f81019182559251919283927ff652222313e28459528d920b65115c16c04f3efc82aaedc97be59f3f377c0d4090910190610ee69082612b6a565b506040820151600282015560608201516003820190610f059082612b6a565b506080820151816004015550505050505050565b600085118015610f2b57506003548511155b610f475760405162461bcd60e51b8152600401610aee90612ad7565b60006040518060c00160405280868152602001858152602001600081526020018481526020016040518060200160405280600081525081526020018381525090506005600187610f979190612b03565b81548110610fa757610fa7612a58565b60009182526020808320600692830201600301805460018101825590845292208351849390920201908190610fdc9082612b6a565b5060208201516001820190610ff19082612b6a565b5060408201516002820155606082015160038201906110109082612b6a565b50608082015160048201906110259082612b6a565b5060a082015181600501555050505050505050565b6005546060906000906001600160401b0381111561105a5761105a6124dd565b6040519080825280602002602001820160405280156110c457816020015b6110b16040518060c001604052806060815260200160608152602001606081526020016060815260200160608152602001606081525090565b8152602001906001900390816110785790505b5090506000805b6005548110156116d457600581815481106110e8576110e8612a58565b90600052602060002090600602016040518060c001604052908160008201805461111190612a6e565b80601f016020809104026020016040519081016040528092919081815260200182805461113d90612a6e565b801561118a5780601f1061115f5761010080835404028352916020019161118a565b820191906000526020600020905b81548152906001019060200180831161116d57829003601f168201915b505050505081526020016001820180546111a390612a6e565b80601f01602080910402602001604051908101604052809291908181526020018280546111cf90612a6e565b801561121c5780601f106111f15761010080835404028352916020019161121c565b820191906000526020600020905b8154815290600101906020018083116111ff57829003601f168201915b5050505050815260200160028201805461123590612a6e565b80601f016020809104026020016040519081016040528092919081815260200182805461126190612a6e565b80156112ae5780601f10611283576101008083540402835291602001916112ae565b820191906000526020600020905b81548152906001019060200180831161129157829003601f168201915b5050505050815260200160038201805480602002602001604051908101604052809291908181526020016000905b8282101561156a57838290600052602060002090600602016040518060c001604052908160008201805461130f90612a6e565b80601f016020809104026020016040519081016040528092919081815260200182805461133b90612a6e565b80156113885780601f1061135d57610100808354040283529160200191611388565b820191906000526020600020905b81548152906001019060200180831161136b57829003601f168201915b505050505081526020016001820180546113a190612a6e565b80601f01602080910402602001604051908101604052809291908181526020018280546113cd90612a6e565b801561141a5780601f106113ef5761010080835404028352916020019161141a565b820191906000526020600020905b8154815290600101906020018083116113fd57829003601f168201915b505050505081526020016002820154815260200160038201805461143d90612a6e565b80601f016020809104026020016040519081016040528092919081815260200182805461146990612a6e565b80156114b65780601f1061148b576101008083540402835291602001916114b6565b820191906000526020600020905b81548152906001019060200180831161149957829003601f168201915b505050505081526020016004820180546114cf90612a6e565b80601f01602080910402602001604051908101604052809291908181526020018280546114fb90612a6e565b80156115485780601f1061151d57610100808354040283529160200191611548565b820191906000526020600020905b81548152906001019060200180831161152b57829003601f168201915b50505050508152602001600582015481525050815260200190600101906112dc565b50505050815260200160048201805461158290612a6e565b80601f01602080910402602001604051908101604052809291908181526020018280546115ae90612a6e565b80156115fb5780601f106115d0576101008083540402835291602001916115fb565b820191906000526020600020905b8154815290600101906020018083116115de57829003601f168201915b5050505050815260200160058201805461161490612a6e565b80601f016020809104026020016040519081016040528092919081815260200182805461164090612a6e565b801561168d5780601f106116625761010080835404028352916020019161168d565b820191906000526020600020905b81548152906001019060200180831161167057829003601f168201915b5050505050815250508383815181106116a8576116a8612a58565b602002602001018190525081806116be90612abe565b92505080806116cc90612abe565b9150506110cb565b506000816001600160401b038111156116ef576116ef6124dd565b60405190808252806020026020018201604052801561175957816020015b6117466040518060c001604052806060815260200160608152602001606081526020016060815260200160608152602001606081525090565b81526020019060019003908161170d5790505b50905060005b828110156117b15783818151811061177957611779612a58565b602002602001015182828151811061179357611793612a58565b602002602001018190525080806117a990612abe565b91505061175f565b5061067881611dbf565b6000831180156117cd57506005548311155b6117e95760405162461bcd60e51b8152600401610aee90612ad7565b60008211801561182a57506005611801600185612b03565b8154811061181157611811612a58565b9060005260206000209060060201600301805490508211155b6118685760405162461bcd60e51b815260206004820152600f60248201526e125b9d985b1a59081d185cdac81251608a1b6044820152606401610aee565b60006005611877600186612b03565b8154811061188757611887612a58565b906000526020600020906006020160030190506001816001856118aa9190612b03565b815481106118ba576118ba612a58565b600091825260209091206002600690920201015581816118db600186612b03565b815481106118eb576118eb612a58565b906000526020600020906006020160040190816119089190612b6a565b5060005b6006548110156119b257846006828154811061192a5761192a612a58565b90600052602060002090600502016000015414801561196c5750836006828154811061195857611958612a58565b906000526020600020906005020160020154145b156119a05760016006828154811061198657611986612a58565b9060005260206000209060050201600401819055506119b2565b806119aa81612abe565b91505061190c565b5060006119be83611e86565b90506000826119ce600187612b03565b815481106119de576119de612a58565b6000918252602082206006919091020160050154905460405163a9059cbb60e01b81526001600160a01b0385811660048301526024820184905292935091169063a9059cbb906044016020604051808303816000875af1158015611a46573d6000803e3d6000fd5b505050506040513d601f19601f82011682018060405250810190611a6a9190612c29565b5060408051878152602081018790527fa5f5ad5a3ae74375cb014de63dd7396355489c697ef6034ca9c958d1ed6343e091015b60405180910390a1505050505050565b60003411611b0e5760405162461bcd60e51b815260206004820152602860248201527f4465706f73697420616d6f756e74206d7573742062652067726561746572207460448201526768616e207a65726f60c01b6064820152608401610aee565b3360009081526004602052604081208054349290611b2d908490612c4b565b9091555050565b60038054906000611b4483612abe565b9091555050600580546001810182556000919091526006027f036b6384b5eca791c62761152d0c79bb0604c104a5fb6f4eb0703f3154bb3db00180611b898782612b6a565b5060018101611b988682612b6a565b5060028101611ba78582612b6a565b50611bb3600354612073565b6004820190611bc29082612b6a565b5060058101611bd18382612b6a565b5060005b8351811015611c94576000848281518110611bf257611bf2612a58565b60209081029190910181015160038501805460018101825560009182529290208151919350839260060201908190611c2a9082612b6a565b5060208201516001820190611c3f9082612b6a565b506040820151600282015560608201516003820190611c5e9082612b6a565b5060808201516004820190611c739082612b6a565b5060a082015181600501555050508080611c8c90612abe565b915050611bd5565b506003546040805133815260208101929092527f4a31f5ac372495eeadf90f1b0d3a4693dbb858e9f2e9730987f6d93338dc06ac9101611a9d565b60606000604051602001611cea90605b60f81b815260010190565b604051602081830303815290604052905060005b8351811015611d965781611d2a858381518110611d1d57611d1d612a58565b602002602001015161217b565b604051602001611d3b929190612c5e565b604051602081830303815290604052915060018451611d5a9190612b03565b811015611d845781604051602001611d729190612c8d565b60405160208183030381529060405291505b80611d8e81612abe565b915050611cfe565b5080604051602001611da89190612cb2565b60408051601f198184030181529190529392505050565b60606000604051602001611dda90605b60f81b815260010190565b604051602081830303815290604052905060005b8351811015611d965781611e1a858381518110611e0d57611e0d612a58565b6020026020010151612218565b604051602001611e2b929190612c5e565b604051602081830303815290604052915060018451611e4a9190612b03565b811015611e745781604051602001611e629190612c8d565b60405160208183030381529060405291505b80611e7e81612abe565b915050611dee565b60008181808060025b602a81101561206857611ea461010085612cd7565b9350848181518110611eb857611eb8612a58565b016020015160f81c925084611ece826001612c4b565b81518110611ede57611ede612a58565b016020015160f81c915060616001600160a01b03841610801590611f0c57506066836001600160a01b031611155b15611f2357611f1c605784612d09565b9250611f8e565b6041836001600160a01b031610158015611f4757506046836001600160a01b031611155b15611f5757611f1c603784612d09565b6030836001600160a01b031610158015611f7b57506039836001600160a01b031611155b15611f8e57611f8b603084612d09565b92505b6061826001600160a01b031610158015611fb257506066826001600160a01b031611155b15611fc957611fc2605783612d09565b9150612034565b6041826001600160a01b031610158015611fed57506046826001600160a01b031611155b15611ffd57611fc2603783612d09565b6030826001600160a01b03161015801561202157506039826001600160a01b031611155b1561203457612031603083612d09565b91505b81612040846010612cd7565b61204a9190612d30565b6120549085612d30565b9350612061600282612c4b565b9050611e8f565b509195945050505050565b60608160000361209a5750506040805180820190915260018152600360fc1b602082015290565b8160005b81156120c457806120ae81612abe565b91506120bd9050600a83612d66565b915061209e565b6000816001600160401b038111156120de576120de6124dd565b6040519080825280601f01601f191660200182016040528015612108576020820181803683370190505b5090505b84156121735761211d600183612b03565b915061212a600a86612d7a565b612135906030612c4b565b60f81b81838151811061214a5761214a612a58565b60200101906001600160f81b031916908160001a90535061216c600a86612d66565b945061210c565b949350505050565b606061218a8260000151612073565b826020015161219c8460400151612073565b846060015185608001516001146121d0576040518060400160405280600581526020016466616c736560d81b8152506121ee565b604051806040016040528060048152602001637472756560e01b8152505b604051602001612202959493929190612d8e565b6040516020818303038152906040529050919050565b6060600082608001518360200151846000015160405160200161223d93929190612e96565b604051602081830303815290604052905060005b8360600151518110156122f557816122858560600151838151811061227857612278612a58565b6020026020010151612307565b604051602001612296929190612c5e565b604051602081830303815290604052915060018460600151516122b99190612b03565b8110156122e357816040516020016122d19190612c8d565b60405160208183030381529060405291505b806122ed81612abe565b915050612251565b5080604051602001611da89190612f42565b6060816000015182602001518360400151600114612342576040518060400160405280600581526020016466616c736560d81b815250612360565b604051806040016040528060048152602001637472756560e01b8152505b61236d8560a00151612073565b6040516020016122029493929190612f68565b60005b8381101561239b578181015183820152602001612383565b50506000910152565b600081518084526123bc816020860160208601612380565b601f01601f19169290920160200192915050565b6020815260006123e360208301846123a4565b9392505050565b6000602082840312156123fc57600080fd5b5035919050565b60a08152600061241660a08301886123a4565b828103602084015261242881886123a4565b9050828103604084015261243c81876123a4565b9050828103606084015261245081866123a4565b9050828103608084015261246481856123a4565b98975050505050505050565b60006020828403121561248257600080fd5b81356001600160a01b03811681146123e357600080fd5b85815260a0602082015260006124b260a08301876123a4565b85604084015282810360608401526124ca81866123a4565b9150508260808301529695505050505050565b634e487b7160e01b600052604160045260246000fd5b60405160c081016001600160401b0381118282101715612515576125156124dd565b60405290565b604051601f8201601f191681016001600160401b0381118282101715612543576125436124dd565b604052919050565b600082601f83011261255c57600080fd5b81356001600160401b03811115612575576125756124dd565b612588601f8201601f191660200161251b565b81815284602083860101111561259d57600080fd5b816020850160208301376000918101602001919091529392505050565b600080604083850312156125cd57600080fd5b8235915060208301356001600160401b038111156125ea57600080fd5b6125f68582860161254b565b9150509250929050565b60006020808301818452808551808352604092508286019150828160051b87010184880160005b838110156126c457603f19898403018552815160c0815181865261264d828701826123a4565b915050888201518582038a87015261266582826123a4565b91505087820151888601526060808301518683038288015261268783826123a4565b92505050608080830151868303828801526126a283826123a4565b60a0948501519790940196909652505094870194925090860190600101612627565b509098975050505050505050565b600080600080608085870312156126e857600080fd5b843593506020850135925060408501356001600160401b038082111561270d57600080fd5b6127198883890161254b565b9350606087013591508082111561272f57600080fd5b5061273c8782880161254b565b91505092959194509250565b600080600080600060a0868803121561276057600080fd5b8535945060208601356001600160401b038082111561277e57600080fd5b61278a89838a0161254b565b955060408801359150808211156127a057600080fd5b6127ac89838a0161254b565b945060608801359150808211156127c257600080fd5b506127cf8882890161254b565b95989497509295608001359392505050565b6000806000606084860312156127f657600080fd5b833592506020840135915060408401356001600160401b0381111561281a57600080fd5b6128268682870161254b565b9150509250925092565b600082601f83011261284157600080fd5b813560206001600160401b038083111561285d5761285d6124dd565b8260051b61286c83820161251b565b938452858101830193838101908886111561288657600080fd5b84880192505b85831015612464578235848111156128a45760008081fd5b880160c0818b03601f19018113156128bc5760008081fd5b6128c46124f3565b87830135878111156128d65760008081fd5b6128e48d8a8387010161254b565b825250604080840135888111156128fb5760008081fd5b6129098e8b8388010161254b565b8a840152506060808501358284015260809150818501358981111561292e5760008081fd5b61293c8f8c8389010161254b565b82850152505060a080850135898111156129565760008081fd5b6129648f8c8389010161254b565b92840192909252939092013592810192909252508252918401919084019061288c565b600080600080600060a0868803121561299f57600080fd5b85356001600160401b03808211156129b657600080fd5b6129c289838a0161254b565b965060208801359150808211156129d857600080fd5b6129e489838a0161254b565b955060408801359150808211156129fa57600080fd5b612a0689838a0161254b565b94506060880135915080821115612a1c57600080fd5b612a2889838a01612830565b93506080880135915080821115612a3e57600080fd5b50612a4b8882890161254b565b9150509295509295909350565b634e487b7160e01b600052603260045260246000fd5b600181811c90821680612a8257607f821691505b602082108103612aa257634e487b7160e01b600052602260045260246000fd5b50919050565b634e487b7160e01b600052601160045260246000fd5b600060018201612ad057612ad0612aa8565b5060010190565b602080825260129082015271125b9d985b1a59081c1c9bda9958dd08125160721b604082015260600190565b81810381811115612b1657612b16612aa8565b92915050565b601f821115610b3257600081815260208120601f850160051c81016020861015612b435750805b601f850160051c820191505b81811015612b6257828155600101612b4f565b505050505050565b81516001600160401b03811115612b8357612b836124dd565b612b9781612b918454612a6e565b84612b1c565b602080601f831160018114612bcc5760008415612bb45750858301515b600019600386901b1c1916600185901b178555612b62565b600085815260208120601f198616915b82811015612bfb57888601518255948401946001909101908401612bdc565b5085821015612c195787850151600019600388901b60f8161c191681555b5050505050600190811b01905550565b600060208284031215612c3b57600080fd5b815180151581146123e357600080fd5b80820180821115612b1657612b16612aa8565b60008351612c70818460208801612380565b835190830190612c84818360208801612380565b01949350505050565b60008251612c9f818460208701612380565b600b60fa1b920191825250600101919050565b60008251612cc4818460208701612380565b605d60f81b920191825250600101919050565b6001600160a01b03828116828216818102831692918115828504821417612d0057612d00612aa8565b50505092915050565b6001600160a01b03828116828216039080821115612d2957612d29612aa8565b5092915050565b6001600160a01b03818116838216019080821115612d2957612d29612aa8565b634e487b7160e01b600052601260045260246000fd5b600082612d7557612d75612d50565b500490565b600082612d8957612d89612d50565b500690565b6d3d91383937b532b1ba34b2111d1160911b81528551600090612db881600e850160208b01612380565b6e1116113a30b9b5ba34ba3632911d1160891b600e918401918201528651612de781601d840160208b01612380565b6b1116113a30b9b5b4b2111d1160a11b601d92909101918201528551612e14816029840160208a01612380565b7111161131b7b63630b137b930ba37b9111d1160711b602992909101918201528451612e4781603b840160208901612380565b6a11161139ba30ba3ab9911d60a91b603b92909101918201528351612e73816046840160208801612380565b612e89604682840101607d60f81b815260010190565b9998505050505050505050565b6d3d91383937b532b1ba34b2111d1160911b81528351600090612ec081600e850160208901612380565b701116113232b9b1b934b83a34b7b7111d1160791b600e918401918201528451612ef181601f840160208901612380565b6a1116113a34ba3632911d1160a91b601f92909101918201528351612f1d81602a840160208801612380565b6a222c227461736b73223a5b60a81b602a929091019182015260350195945050505050565b60008251612f54818460208701612380565b615d7d60f01b920191825250600201919050565b6d3d913a30b9b5ba34ba3632911d1160911b81528451600090612f9281600e850160208a01612380565b6d1116113a30b9b5b232b9b1911d1160911b600e918401918201528551612fc081601c840160208a01612380565b6a11161134b9b237b732911d60a91b601c92909101918201528451612fec816027840160208901612380565b6916113932bbb0b932111d60b11b602792909101918201528351613017816031840160208801612380565b607d60f81b60319290910191820152603201969550505050505056fea2646970667358221220c9eabef2a9d74c1b3f5a1173c271b7b550ad4a4be7e9adb79baca63772fda8cc64736f6c6343000814003360806040523480156200001157600080fd5b506040518060400160405280601181526020017021b7b63630b137b930ba37b92a37b5b2b760791b81525060405180604001604052806002815260200161434b60f01b8152508160039081620000689190620002d6565b506004620000778282620002d6565b505050620000b1336200008f620000b760201b60201c565b6200009c90600a620004b7565b620000ab90620f4240620004cf565b620000bc565b620004ff565b601290565b6001600160a01b038216620000ec5760405163ec442f0560e01b8152600060048201526024015b60405180910390fd5b620000fa60008383620000fe565b5050565b6001600160a01b0383166200012d578060026000828254620001219190620004e9565b90915550620001a19050565b6001600160a01b03831660009081526020819052604090205481811015620001825760405163391434e360e21b81526001600160a01b03851660048201526024810182905260448101839052606401620000e3565b6001600160a01b03841660009081526020819052604090209082900390555b6001600160a01b038216620001bf57600280548290039055620001de565b6001600160a01b03821660009081526020819052604090208054820190555b816001600160a01b0316836001600160a01b03167fddf252ad1be2c89b69c2b068fc378daa952ba7f163c4a11628f55a4df523b3ef836040516200022491815260200190565b60405180910390a3505050565b634e487b7160e01b600052604160045260246000fd5b600181811c908216806200025c57607f821691505b6020821081036200027d57634e487b7160e01b600052602260045260246000fd5b50919050565b601f821115620002d157600081815260208120601f850160051c81016020861015620002ac5750805b601f850160051c820191505b81811015620002cd57828155600101620002b8565b5050505b505050565b81516001600160401b03811115620002f257620002f262000231565b6200030a8162000303845462000247565b8462000283565b602080601f831160018114620003425760008415620003295750858301515b600019600386901b1c1916600185901b178555620002cd565b600085815260208120601f198616915b82811015620003735788860151825594840194600190910190840162000352565b5085821015620003925787850151600019600388901b60f8161c191681555b5050505050600190811b01905550565b634e487b7160e01b600052601160045260246000fd5b600181815b80851115620003f9578160001904821115620003dd57620003dd620003a2565b80851615620003eb57918102915b93841c9390800290620003bd565b509250929050565b6000826200041257506001620004b1565b816200042157506000620004b1565b81600181146200043a5760028114620004455762000465565b6001915050620004b1565b60ff841115620004595762000459620003a2565b50506001821b620004b1565b5060208310610133831016604e8410600b84101617156200048a575081810a620004b1565b620004968383620003b8565b8060001904821115620004ad57620004ad620003a2565b0290505b92915050565b6000620004c860ff84168362000401565b9392505050565b8082028115828204841417620004b157620004b1620003a2565b80820180821115620004b157620004b1620003a2565b610720806200050f6000396000f3fe608060405234801561001057600080fd5b50600436106100935760003560e01c8063313ce56711610066578063313ce567146100fe57806370a082311461010d57806395d89b4114610136578063a9059cbb1461013e578063dd62ed3e1461015157600080fd5b806306fdde0314610098578063095ea7b3146100b657806318160ddd146100d957806323b872dd146100eb575b600080fd5b6100a061018a565b6040516100ad919061056a565b60405180910390f35b6100c96100c43660046105d4565b61021c565b60405190151581526020016100ad565b6002545b6040519081526020016100ad565b6100c96100f93660046105fe565b610236565b604051601281526020016100ad565b6100dd61011b36600461063a565b6001600160a01b031660009081526020819052604090205490565b6100a061025a565b6100c961014c3660046105d4565b610269565b6100dd61015f36600461065c565b6001600160a01b03918216600090815260016020908152604080832093909416825291909152205490565b6060600380546101999061068f565b80601f01602080910402602001604051908101604052809291908181526020018280546101c59061068f565b80156102125780601f106101e757610100808354040283529160200191610212565b820191906000526020600020905b8154815290600101906020018083116101f557829003601f168201915b5050505050905090565b60003361022a818585610277565b60019150505b92915050565b600033610244858285610289565b61024f85858561030c565b506001949350505050565b6060600480546101999061068f565b60003361022a81858561030c565b610284838383600161036b565b505050565b6001600160a01b03838116600090815260016020908152604080832093861683529290522054600019811461030657818110156102f757604051637dc7a0d960e11b81526001600160a01b038416600482015260248101829052604481018390526064015b60405180910390fd5b6103068484848403600061036b565b50505050565b6001600160a01b03831661033657604051634b637e8f60e11b8152600060048201526024016102ee565b6001600160a01b0382166103605760405163ec442f0560e01b8152600060048201526024016102ee565b610284838383610440565b6001600160a01b0384166103955760405163e602df0560e01b8152600060048201526024016102ee565b6001600160a01b0383166103bf57604051634a1406b160e11b8152600060048201526024016102ee565b6001600160a01b038085166000908152600160209081526040808320938716835292905220829055801561030657826001600160a01b0316846001600160a01b03167f8c5be1e5ebec7d5bd14f71427d1e84f3dd0314c0f7b2291e5b200ac8c7c3b9258460405161043291815260200190565b60405180910390a350505050565b6001600160a01b03831661046b57806002600082825461046091906106c9565b909155506104dd9050565b6001600160a01b038316600090815260208190526040902054818110156104be5760405163391434e360e21b81526001600160a01b038516600482015260248101829052604481018390526064016102ee565b6001600160a01b03841660009081526020819052604090209082900390555b6001600160a01b0382166104f957600280548290039055610518565b6001600160a01b03821660009081526020819052604090208054820190555b816001600160a01b0316836001600160a01b03167fddf252ad1be2c89b69c2b068fc378daa952ba7f163c4a11628f55a4df523b3ef8360405161055d91815260200190565b60405180910390a3505050565b600060208083528351808285015260005b818110156105975785810183015185820160400152820161057b565b506000604082860101526040601f19601f8301168501019250505092915050565b80356001600160a01b03811681146105cf57600080fd5b919050565b600080604083850312156105e757600080fd5b6105f0836105b8565b946020939093013593505050565b60008060006060848603121561061357600080fd5b61061c846105b8565b925061062a602085016105b8565b9150604084013590509250925092565b60006020828403121561064c57600080fd5b610655826105b8565b9392505050565b6000806040838503121561066f57600080fd5b610678836105b8565b9150610686602084016105b8565b90509250929050565b600181811c908216806106a357607f821691505b6020821081036106c357634e487b7160e01b600052602260045260246000fd5b50919050565b8082018082111561023057634e487b7160e01b600052601160045260246000fdfea264697066735822122034a82d6635d83e2f7607e76434c19be811c224f2eb0619e72bde1f4d03ff9d2464736f6c63430008140033",
  "linkReferences": {},
  "deployedLinkReferences": {}
}