{
  "_format": "hh-sol-artifact-1",
  "contractName": "TaskCon",
  "sourceName": "contracts/TaskCon.sol",
  "abi": [
    {
      "inputs": [],
      "stateMutability": "nonpayable",
      "type": "constructor"
    },
    {
      "anonymous": false,
      "inputs": [
        {
          "indexed": false,
          "internalType": "address",
          "name": "recipient",
          "type": "address"
        },
        {
          "indexed": false,
          "internalType": "uint256",
          "name": "projectid",
          "type": "uint256"
        }
      ],
      "name": "AddProject",
      "type": "event"
    },
    {
      "anonymous": false,
      "inputs": [
        {
          "indexed": false,
          "internalType": "uint256",
          "name": "projectId",
          "type": "uint256"
        },
        {
          "indexed": false,
          "internalType": "uint256",
          "name": "taskId",
          "type": "uint256"
        }
      ],
      "name": "TaskFinished",
      "type": "event"
    },
    {
      "inputs": [],
      "name": "Counter",
      "outputs": [
        {
          "internalType": "uint256",
          "name": "",
          "type": "uint256"
        }
      ],
      "stateMutability": "view",
      "type": "function"
    },
    {
      "inputs": [
        {
          "internalType": "string",
          "name": "_title",
          "type": "string"
        },
        {
          "internalType": "string",
          "name": "_description",
          "type": "string"
        },
        {
          "internalType": "string",
          "name": "_url",
          "type": "string"
        },
        {
          "components": [
            {
              "internalType": "string",
              "name": "tasktitle",
              "type": "string"
            },
            {
              "internalType": "string",
              "name": "description",
              "type": "string"
            },
            {
              "internalType": "uint256",
              "name": "isdone",
              "type": "uint256"
            },
            {
              "internalType": "string",
              "name": "ownerman",
              "type": "string"
            }
          ],
          "internalType": "struct TaskCon.task[]",
          "name": "_tasks",
          "type": "tuple[]"
        },
        {
          "internalType": "string",
          "name": "ownerman",
          "type": "string"
        }
      ],
      "name": "addProject",
      "outputs": [],
      "stateMutability": "nonpayable",
      "type": "function"
    },
    {
      "inputs": [
        {
          "internalType": "uint256",
          "name": "projectId",
          "type": "uint256"
        },
        {
          "internalType": "string",
          "name": "tasktitle",
          "type": "string"
        },
        {
          "internalType": "string",
          "name": "description",
          "type": "string"
        },
        {
          "internalType": "string",
          "name": "ownerman",
          "type": "string"
        }
      ],
      "name": "addtasks",
      "outputs": [],
      "stateMutability": "nonpayable",
      "type": "function"
    },
    {
      "inputs": [
        {
          "internalType": "uint256",
          "name": "projectId",
          "type": "uint256"
        },
        {
          "internalType": "string",
          "name": "newTitle",
          "type": "string"
        }
      ],
      "name": "editProjectTitle",
      "outputs": [],
      "stateMutability": "nonpayable",
      "type": "function"
    },
    {
      "inputs": [
        {
          "internalType": "uint256",
          "name": "projectId",
          "type": "uint256"
        },
        {
          "internalType": "uint256",
          "name": "taskId",
          "type": "uint256"
        }
      ],
      "name": "finishtask",
      "outputs": [],
      "stateMutability": "nonpayable",
      "type": "function"
    },
    {
      "inputs": [
        {
          "internalType": "uint256",
          "name": "projectId",
          "type": "uint256"
        }
      ],
      "name": "getProjectTasks",
      "outputs": [
        {
          "components": [
            {
              "internalType": "string",
              "name": "tasktitle",
              "type": "string"
            },
            {
              "internalType": "string",
              "name": "description",
              "type": "string"
            },
            {
              "internalType": "uint256",
              "name": "isdone",
              "type": "uint256"
            },
            {
              "internalType": "string",
              "name": "ownerman",
              "type": "string"
            }
          ],
          "internalType": "struct TaskCon.task[]",
          "name": "",
          "type": "tuple[]"
        }
      ],
      "stateMutability": "view",
      "type": "function"
    },
    {
      "inputs": [],
      "name": "getfeed",
      "outputs": [
        {
          "internalType": "string",
          "name": "",
          "type": "string"
        }
      ],
      "stateMutability": "view",
      "type": "function"
    },
    {
      "inputs": [],
      "name": "owner",
      "outputs": [
        {
          "internalType": "address",
          "name": "",
          "type": "address"
        }
      ],
      "stateMutability": "view",
      "type": "function"
    },
    {
      "inputs": [
        {
          "internalType": "uint256",
          "name": "",
          "type": "uint256"
        }
      ],
      "name": "projects",
      "outputs": [
        {
          "internalType": "string",
          "name": "title",
          "type": "string"
        },
        {
          "internalType": "string",
          "name": "description",
          "type": "string"
        },
        {
          "internalType": "string",
          "name": "url",
          "type": "string"
        },
        {
          "internalType": "string",
          "name": "projectid",
          "type": "string"
        },
        {
          "internalType": "string",
          "name": "ownerman",
          "type": "string"
        }
      ],
      "stateMutability": "view",
      "type": "function"
    },
    {
      "inputs": [],
      "name": "tokenaddress",
      "outputs": [
        {
          "internalType": "address",
          "name": "",
          "type": "address"
        }
      ],
      "stateMutability": "view",
      "type": "function"
    }
  ],
  "bytecode": "0x608060405234801561001057600080fd5b50600080546001600160a01b031916331790556001600255611ee5806100376000396000f3fe608060405234801561001057600080fd5b506004361061009e5760003560e01c8063591c564f11610066578063591c564f1461013a57806381e65bcd1461015a5780638da5cb5b1461016d578063a92a7fb714610180578063b160b1d21461019557600080fd5b8063107046bd146100a357806313ff2cba146100d05780633feff76d146100e557806346c48649146101105780634eeca07614610123575b600080fd5b6100b66100b136600461159a565b6101a8565b6040516100c7959493929190611603565b60405180910390f35b6100e36100de366004611670565b610496565b005b6001546100f8906001600160a01b031681565b6040516001600160a01b0390911681526020016100c7565b6100e361011e366004611772565b6105fa565b61012c60025481565b6040519081526020016100c7565b61014d61014836600461159a565b610668565b6040516100c791906117b9565b6100e3610168366004611987565b6108e3565b6000546100f8906001600160a01b031681565b610188610a6a565b6040516100c79190611a59565b6100e36101a3366004611a73565b611159565b600381815481106101b857600080fd5b90600052602060002090600602016000915090508060000180546101db90611b05565b80601f016020809104026020016040519081016040528092919081815260200182805461020790611b05565b80156102545780601f1061022957610100808354040283529160200191610254565b820191906000526020600020905b81548152906001019060200180831161023757829003601f168201915b50505050509080600101805461026990611b05565b80601f016020809104026020016040519081016040528092919081815260200182805461029590611b05565b80156102e25780601f106102b7576101008083540402835291602001916102e2565b820191906000526020600020905b8154815290600101906020018083116102c557829003601f168201915b5050505050908060020180546102f790611b05565b80601f016020809104026020016040519081016040528092919081815260200182805461032390611b05565b80156103705780601f1061034557610100808354040283529160200191610370565b820191906000526020600020905b81548152906001019060200180831161035357829003601f168201915b50505050509080600401805461038590611b05565b80601f01602080910402602001604051908101604052809291908181526020018280546103b190611b05565b80156103fe5780601f106103d3576101008083540402835291602001916103fe565b820191906000526020600020905b8154815290600101906020018083116103e157829003601f168201915b50505050509080600501805461041390611b05565b80601f016020809104026020016040519081016040528092919081815260200182805461043f90611b05565b801561048c5780601f106104615761010080835404028352916020019161048c565b820191906000526020600020905b81548152906001019060200180831161046f57829003601f168201915b5050505050905085565b6000821180156104a857506003548211155b6104cd5760405162461bcd60e51b81526004016104c490611b3f565b60405180910390fd5b60008111801561050e575060036104e5600184611b81565b815481106104f5576104f5611b9a565b9060005260206000209060060201600301805490508111155b61054c5760405162461bcd60e51b815260206004820152600f60248201526e125b9d985b1a59081d185cdac81251608a1b60448201526064016104c4565b6000600361055b600185611b81565b8154811061056b5761056b611b9a565b9060005260206000209060060201600301905060018160018461058e9190611b81565b8154811061059e5761059e611b9a565b9060005260206000209060040201600201819055507fa5f5ad5a3ae74375cb014de63dd7396355489c697ef6034ca9c958d1ed6343e083836040516105ed929190918252602082015260400190565b60405180910390a1505050565b60008211801561060c57506002548211155b6106285760405162461bcd60e51b81526004016104c490611b3f565b806003610636600185611b81565b8154811061064657610646611b9a565b906000526020600020906006020160000190816106639190611bfe565b505050565b606060008211801561067c57506002548211155b6106985760405162461bcd60e51b81526004016104c490611b3f565b60036106a5600184611b81565b815481106106b5576106b5611b9a565b9060005260206000209060060201600301805480602002602001604051908101604052809291908181526020016000905b828210156108d8578382906000526020600020906004020160405180608001604052908160008201805461071990611b05565b80601f016020809104026020016040519081016040528092919081815260200182805461074590611b05565b80156107925780601f1061076757610100808354040283529160200191610792565b820191906000526020600020905b81548152906001019060200180831161077557829003601f168201915b505050505081526020016001820180546107ab90611b05565b80601f01602080910402602001604051908101604052809291908181526020018280546107d790611b05565b80156108245780601f106107f957610100808354040283529160200191610824565b820191906000526020600020905b81548152906001019060200180831161080757829003601f168201915b505050505081526020016002820154815260200160038201805461084790611b05565b80601f016020809104026020016040519081016040528092919081815260200182805461087390611b05565b80156108c05780601f10610895576101008083540402835291602001916108c0565b820191906000526020600020905b8154815290600101906020018083116108a357829003601f168201915b505050505081525050815260200190600101906106e6565b505050509050919050565b600280549060006108f383611cbe565b9091555050600380546001810182556000919091526006027fc2575a0e9e593c00f959f8c92f12db2869c3395a3b0502d05e2516446f71f85b01806109388782611bfe565b50600181016109478682611bfe565b50600281016109568582611bfe565b50610962600254611240565b60048201906109719082611bfe565b50600581016109808382611bfe565b5060005b8351811015610a245760008482815181106109a1576109a1611b9a565b602090810291909101810151600385018054600181018255600091825292902081519193508392600402019081906109d99082611bfe565b50602082015160018201906109ee9082611bfe565b506040820151600282015560608201516003820190610a0d9082611bfe565b505050508080610a1c90611cbe565b915050610984565b506002546040805133815260208101929092527f4a31f5ac372495eeadf90f1b0d3a4693dbb858e9f2e9730987f6d93338dc06ac910160405180910390a1505050505050565b60035460609060009067ffffffffffffffff811115610a8b57610a8b611692565b604051908082528060200260200182016040528015610af557816020015b610ae26040518060c001604052806060815260200160608152602001606081526020016060815260200160608152602001606081525090565b815260200190600190039081610aa95790505b5090506000805b6003548110156110695760038181548110610b1957610b19611b9a565b90600052602060002090600602016040518060c0016040529081600082018054610b4290611b05565b80601f0160208091040260200160405190810160405280929190818152602001828054610b6e90611b05565b8015610bbb5780601f10610b9057610100808354040283529160200191610bbb565b820191906000526020600020905b815481529060010190602001808311610b9e57829003601f168201915b50505050508152602001600182018054610bd490611b05565b80601f0160208091040260200160405190810160405280929190818152602001828054610c0090611b05565b8015610c4d5780601f10610c2257610100808354040283529160200191610c4d565b820191906000526020600020905b815481529060010190602001808311610c3057829003601f168201915b50505050508152602001600282018054610c6690611b05565b80601f0160208091040260200160405190810160405280929190818152602001828054610c9290611b05565b8015610cdf5780601f10610cb457610100808354040283529160200191610cdf565b820191906000526020600020905b815481529060010190602001808311610cc257829003601f168201915b5050505050815260200160038201805480602002602001604051908101604052809291908181526020016000905b82821015610eff5783829060005260206000209060040201604051806080016040529081600082018054610d4090611b05565b80601f0160208091040260200160405190810160405280929190818152602001828054610d6c90611b05565b8015610db95780601f10610d8e57610100808354040283529160200191610db9565b820191906000526020600020905b815481529060010190602001808311610d9c57829003601f168201915b50505050508152602001600182018054610dd290611b05565b80601f0160208091040260200160405190810160405280929190818152602001828054610dfe90611b05565b8015610e4b5780601f10610e2057610100808354040283529160200191610e4b565b820191906000526020600020905b815481529060010190602001808311610e2e57829003601f168201915b5050505050815260200160028201548152602001600382018054610e6e90611b05565b80601f0160208091040260200160405190810160405280929190818152602001828054610e9a90611b05565b8015610ee75780601f10610ebc57610100808354040283529160200191610ee7565b820191906000526020600020905b815481529060010190602001808311610eca57829003601f168201915b50505050508152505081526020019060010190610d0d565b505050508152602001600482018054610f1790611b05565b80601f0160208091040260200160405190810160405280929190818152602001828054610f4390611b05565b8015610f905780601f10610f6557610100808354040283529160200191610f90565b820191906000526020600020905b815481529060010190602001808311610f7357829003601f168201915b50505050508152602001600582018054610fa990611b05565b80601f0160208091040260200160405190810160405280929190818152602001828054610fd590611b05565b80156110225780601f10610ff757610100808354040283529160200191611022565b820191906000526020600020905b81548152906001019060200180831161100557829003601f168201915b50505050508152505083838151811061103d5761103d611b9a565b6020026020010181905250818061105390611cbe565b925050808061106190611cbe565b915050610afc565b5060008167ffffffffffffffff81111561108557611085611692565b6040519080825280602002602001820160405280156110ef57816020015b6110dc6040518060c001604052806060815260200160608152602001606081526020016060815260200160608152602001606081525090565b8152602001906001900390816110a35790505b50905060005b828110156111475783818151811061110f5761110f611b9a565b602002602001015182828151811061112957611129611b9a565b6020026020010181905250808061113f90611cbe565b9150506110f5565b5061115181611349565b935050505090565b60008411801561116b57506002548411155b6111875760405162461bcd60e51b81526004016104c490611b3f565b60408051608081018252848152602081018490526000918101919091526060810182905260036111b8600187611b81565b815481106111c8576111c8611b9a565b6000918252602080832060036006909302019190910180546001810182559083529120825183926004029091019081906112029082611bfe565b50602082015160018201906112179082611bfe565b5060408201516002820155606082015160038201906112369082611bfe565b5050505050505050565b6060816000036112675750506040805180820190915260018152600360fc1b602082015290565b8160005b8115611291578061127b81611cbe565b915061128a9050600a83611ced565b915061126b565b60008167ffffffffffffffff8111156112ac576112ac611692565b6040519080825280601f01601f1916602001820160405280156112d6576020820181803683370190505b5090505b8415611341576112eb600183611b81565b91506112f8600a86611d01565b611303906030611d15565b60f81b81838151811061131857611318611b9a565b60200101906001600160f81b031916908160001a90535061133a600a86611ced565b94506112da565b949350505050565b6060600060405160200161136490605b60f81b815260010190565b604051602081830303815290604052905060005b835181101561141057816113a485838151811061139757611397611b9a565b6020026020010151611439565b6040516020016113b5929190611d28565b6040516020818303038152906040529150600184516113d49190611b81565b8110156113fe57816040516020016113ec9190611d57565b60405160208183030381529060405291505b8061140881611cbe565b915050611378565b50806040516020016114229190611d7c565b60408051601f198184030181529190529392505050565b6080810151815160405160609260009261145592602001611da1565b604051602081830303815290604052905060005b83606001515181101561150d578161149d8560600151838151811061149057611490611b9a565b602002602001015161151f565b6040516020016114ae929190611d28565b604051602081830303815290604052915060018460600151516114d19190611b81565b8110156114fb57816040516020016114e99190611d57565b60405160208183030381529060405291505b8061150581611cbe565b915050611469565b50806040516020016114229190611e1a565b606081600001518260400151600114611555576040518060400160405280600581526020016466616c736560d81b815250611573565b604051806040016040528060048152602001637472756560e01b8152505b604051602001611584929190611e40565b6040516020818303038152906040529050919050565b6000602082840312156115ac57600080fd5b5035919050565b60005b838110156115ce5781810151838201526020016115b6565b50506000910152565b600081518084526115ef8160208601602086016115b3565b601f01601f19169290920160200192915050565b60a08152600061161660a08301886115d7565b828103602084015261162881886115d7565b9050828103604084015261163c81876115d7565b9050828103606084015261165081866115d7565b9050828103608084015261166481856115d7565b98975050505050505050565b6000806040838503121561168357600080fd5b50508035926020909101359150565b634e487b7160e01b600052604160045260246000fd5b6040516080810167ffffffffffffffff811182821017156116cb576116cb611692565b60405290565b604051601f8201601f1916810167ffffffffffffffff811182821017156116fa576116fa611692565b604052919050565b600082601f83011261171357600080fd5b813567ffffffffffffffff81111561172d5761172d611692565b611740601f8201601f19166020016116d1565b81815284602083860101111561175557600080fd5b816020850160208301376000918101602001919091529392505050565b6000806040838503121561178557600080fd5b82359150602083013567ffffffffffffffff8111156117a357600080fd5b6117af85828601611702565b9150509250929050565b60006020808301818452808551808352604092508286019150828160051b87010184880160005b8381101561185757603f19898403018552815160808151818652611806828701826115d7565b915050888201518582038a87015261181e82826115d7565b91505087820151888601526060808301519250858203818701525061184381836115d7565b9689019694505050908601906001016117e0565b509098975050505050505050565b600082601f83011261187657600080fd5b8135602067ffffffffffffffff8083111561189357611893611692565b8260051b6118a28382016116d1565b93845285810183019383810190888611156118bc57600080fd5b84880192505b85831015611664578235848111156118da5760008081fd5b88016080818b03601f19018113156118f25760008081fd5b6118fa6116a8565b878301358781111561190c5760008081fd5b61191a8d8a83870101611702565b825250604080840135888111156119315760008081fd5b61193f8e8b83880101611702565b838b0152506060848101358284015292840135928884111561196357600091508182fd5b6119718e8b86880101611702565b90830152508452505091840191908401906118c2565b600080600080600060a0868803121561199f57600080fd5b853567ffffffffffffffff808211156119b757600080fd5b6119c389838a01611702565b965060208801359150808211156119d957600080fd5b6119e589838a01611702565b955060408801359150808211156119fb57600080fd5b611a0789838a01611702565b94506060880135915080821115611a1d57600080fd5b611a2989838a01611865565b93506080880135915080821115611a3f57600080fd5b50611a4c88828901611702565b9150509295509295909350565b602081526000611a6c60208301846115d7565b9392505050565b60008060008060808587031215611a8957600080fd5b84359350602085013567ffffffffffffffff80821115611aa857600080fd5b611ab488838901611702565b94506040870135915080821115611aca57600080fd5b611ad688838901611702565b93506060870135915080821115611aec57600080fd5b50611af987828801611702565b91505092959194509250565b600181811c90821680611b1957607f821691505b602082108103611b3957634e487b7160e01b600052602260045260246000fd5b50919050565b602080825260129082015271125b9d985b1a59081c1c9bda9958dd08125160721b604082015260600190565b634e487b7160e01b600052601160045260246000fd5b81810381811115611b9457611b94611b6b565b92915050565b634e487b7160e01b600052603260045260246000fd5b601f82111561066357600081815260208120601f850160051c81016020861015611bd75750805b601f850160051c820191505b81811015611bf657828155600101611be3565b505050505050565b815167ffffffffffffffff811115611c1857611c18611692565b611c2c81611c268454611b05565b84611bb0565b602080601f831160018114611c615760008415611c495750858301515b600019600386901b1c1916600185901b178555611bf6565b600085815260208120601f198616915b82811015611c9057888601518255948401946001909101908401611c71565b5085821015611cae5787850151600019600388901b60f8161c191681555b5050505050600190811b01905550565b600060018201611cd057611cd0611b6b565b5060010190565b634e487b7160e01b600052601260045260246000fd5b600082611cfc57611cfc611cd7565b500490565b600082611d1057611d10611cd7565b500690565b80820180821115611b9457611b94611b6b565b60008351611d3a8184602088016115b3565b835190830190611d4e8183602088016115b3565b01949350505050565b60008251611d698184602087016115b3565b600b60fa1b920191825250600101919050565b60008251611d8e8184602087016115b3565b605d60f81b920191825250600101919050565b6d3d91383937b532b1ba34b2111d1160911b81528251600090611dcb81600e8501602088016115b3565b6a1116113a34ba3632911d1160a91b600e918401918201528351611df68160198401602088016115b3565b6a222c227461736b73223a5b60a81b60199290910191820152602401949350505050565b60008251611e2c8184602087016115b3565b615d7d60f01b920191825250600201919050565b6d3d913a30b9b5ba34ba3632911d1160911b81528251600090611e6a81600e8501602088016115b3565b6a11161134b9b237b732911d60a91b600e918401918201528351611e958160198401602088016115b3565b607d60f81b60199290910191820152601a0194935050505056fea26469706673582212200fab3118777d857030c7ebfc2e4aff6c7f3b5a99bd1a2517ad5f3648525116d564736f6c63430008140033",
  "linkReferences": {},
  "deployedLinkReferences": {}
}