{
  "_format": "hh-sol-artifact-1",
  "contractName": "TaskCon",
  "sourceName": "contracts/TaskCon.sol",
  "abi": [
    {
      "inputs": [],
      "stateMutability": "nonpayable",
      "type": "constructor"
    },
    {
      "anonymous": false,
      "inputs": [
        {
          "indexed": false,
          "internalType": "address",
          "name": "recipient",
          "type": "address"
        },
        {
          "indexed": false,
          "internalType": "uint256",
          "name": "projectid",
          "type": "uint256"
        }
      ],
      "name": "AddProject",
      "type": "event"
    },
    {
      "anonymous": false,
      "inputs": [
        {
          "indexed": false,
          "internalType": "uint256",
          "name": "projectId",
          "type": "uint256"
        },
        {
          "indexed": false,
          "internalType": "string",
          "name": "tasktitle",
          "type": "string"
        },
        {
          "indexed": false,
          "internalType": "string",
          "name": "collaborator",
          "type": "string"
        }
      ],
      "name": "TaskFinished",
      "type": "event"
    },
    {
      "inputs": [],
      "name": "Counter",
      "outputs": [
        {
          "internalType": "uint256",
          "name": "",
          "type": "uint256"
        }
      ],
      "stateMutability": "view",
      "type": "function"
    },
    {
      "inputs": [
        {
          "internalType": "string",
          "name": "_title",
          "type": "string"
        },
        {
          "internalType": "string",
          "name": "_description",
          "type": "string"
        },
        {
          "internalType": "string",
          "name": "_url",
          "type": "string"
        },
        {
          "components": [
            {
              "internalType": "string",
              "name": "tasktitle",
              "type": "string"
            },
            {
              "internalType": "string",
              "name": "description",
              "type": "string"
            },
            {
              "internalType": "bool",
              "name": "isdone",
              "type": "bool"
            },
            {
              "internalType": "string",
              "name": "ownerman",
              "type": "string"
            }
          ],
          "internalType": "struct TaskCon.task[]",
          "name": "_tasks",
          "type": "tuple[]"
        },
        {
          "internalType": "string",
          "name": "ownerman",
          "type": "string"
        }
      ],
      "name": "addProject",
      "outputs": [],
      "stateMutability": "nonpayable",
      "type": "function"
    },
    {
      "inputs": [
        {
          "internalType": "uint256",
          "name": "projectId",
          "type": "uint256"
        },
        {
          "internalType": "string",
          "name": "tasktitle",
          "type": "string"
        },
        {
          "internalType": "string",
          "name": "description",
          "type": "string"
        },
        {
          "internalType": "string",
          "name": "ownerman",
          "type": "string"
        }
      ],
      "name": "addtasks",
      "outputs": [],
      "stateMutability": "nonpayable",
      "type": "function"
    },
    {
      "inputs": [
        {
          "internalType": "string",
          "name": "projectTitle",
          "type": "string"
        },
        {
          "internalType": "string",
          "name": "tasktitle",
          "type": "string"
        },
        {
          "internalType": "string",
          "name": "collaborator",
          "type": "string"
        }
      ],
      "name": "finishtask",
      "outputs": [],
      "stateMutability": "nonpayable",
      "type": "function"
    },
    {
      "inputs": [
        {
          "internalType": "uint256",
          "name": "projectId",
          "type": "uint256"
        }
      ],
      "name": "getProjectTasks",
      "outputs": [
        {
          "components": [
            {
              "internalType": "string",
              "name": "tasktitle",
              "type": "string"
            },
            {
              "internalType": "string",
              "name": "description",
              "type": "string"
            },
            {
              "internalType": "bool",
              "name": "isdone",
              "type": "bool"
            },
            {
              "internalType": "string",
              "name": "ownerman",
              "type": "string"
            }
          ],
          "internalType": "struct TaskCon.task[]",
          "name": "",
          "type": "tuple[]"
        }
      ],
      "stateMutability": "view",
      "type": "function"
    },
    {
      "inputs": [],
      "name": "getfeed",
      "outputs": [
        {
          "internalType": "string",
          "name": "",
          "type": "string"
        }
      ],
      "stateMutability": "view",
      "type": "function"
    },
    {
      "inputs": [],
      "name": "owner",
      "outputs": [
        {
          "internalType": "address",
          "name": "",
          "type": "address"
        }
      ],
      "stateMutability": "view",
      "type": "function"
    },
    {
      "inputs": [
        {
          "internalType": "uint256",
          "name": "",
          "type": "uint256"
        }
      ],
      "name": "projects",
      "outputs": [
        {
          "internalType": "string",
          "name": "title",
          "type": "string"
        },
        {
          "internalType": "string",
          "name": "description",
          "type": "string"
        },
        {
          "internalType": "string",
          "name": "url",
          "type": "string"
        },
        {
          "internalType": "string",
          "name": "projectid",
          "type": "string"
        },
        {
          "internalType": "string",
          "name": "ownerman",
          "type": "string"
        }
      ],
      "stateMutability": "view",
      "type": "function"
    },
    {
      "inputs": [],
      "name": "tokenaddress",
      "outputs": [
        {
          "internalType": "address",
          "name": "",
          "type": "address"
        }
      ],
      "stateMutability": "view",
      "type": "function"
    }
  ],
  "bytecode": "0x608060405234801561001057600080fd5b50600080546001600160a01b0319163317905560016002556120b5806100376000396000f3fe608060405234801561001057600080fd5b50600436106100935760003560e01c80638278cf25116100665780638278cf25146101275780638da5cb5b1461013c578063a92a7fb71461014f578063b160b1d214610164578063f2c9a9091461017757600080fd5b8063107046bd146100985780633feff76d146100c55780634eeca076146100f0578063591c564f14610107575b600080fd5b6100ab6100a636600461169e565b61018a565b6040516100bc959493929190611707565b60405180910390f35b6001546100d8906001600160a01b031681565b6040516001600160a01b0390911681526020016100bc565b6100f960025481565b6040519081526020016100bc565b61011a61011536600461169e565b610478565b6040516100bc9190611774565b61013a610135366004611a33565b610726565b005b6000546100d8906001600160a01b031681565b6101576108bb565b6040516100bc9190611b05565b61013a610172366004611b1f565b610fb3565b61013a610185366004611bb1565b6110cd565b6003818154811061019a57600080fd5b90600052602060002090600602016000915090508060000180546101bd90611c39565b80601f01602080910402602001604051908101604052809291908181526020018280546101e990611c39565b80156102365780601f1061020b57610100808354040283529160200191610236565b820191906000526020600020905b81548152906001019060200180831161021957829003601f168201915b50505050509080600101805461024b90611c39565b80601f016020809104026020016040519081016040528092919081815260200182805461027790611c39565b80156102c45780601f10610299576101008083540402835291602001916102c4565b820191906000526020600020905b8154815290600101906020018083116102a757829003601f168201915b5050505050908060020180546102d990611c39565b80601f016020809104026020016040519081016040528092919081815260200182805461030590611c39565b80156103525780601f1061032757610100808354040283529160200191610352565b820191906000526020600020905b81548152906001019060200180831161033557829003601f168201915b50505050509080600401805461036790611c39565b80601f016020809104026020016040519081016040528092919081815260200182805461039390611c39565b80156103e05780601f106103b5576101008083540402835291602001916103e0565b820191906000526020600020905b8154815290600101906020018083116103c357829003601f168201915b5050505050908060050180546103f590611c39565b80601f016020809104026020016040519081016040528092919081815260200182805461042190611c39565b801561046e5780601f106104435761010080835404028352916020019161046e565b820191906000526020600020905b81548152906001019060200180831161045157829003601f168201915b5050505050905085565b606060008211801561048c57506002548211155b6104d25760405162461bcd60e51b8152602060048201526012602482015271125b9d985b1a59081c1c9bda9958dd08125160721b60448201526064015b60405180910390fd5b60036104df600184611c89565b815481106104ef576104ef611ca2565b9060005260206000209060060201600301805480602002602001604051908101604052809291908181526020016000905b8282101561071b578382906000526020600020906004020160405180608001604052908160008201805461055390611c39565b80601f016020809104026020016040519081016040528092919081815260200182805461057f90611c39565b80156105cc5780601f106105a1576101008083540402835291602001916105cc565b820191906000526020600020905b8154815290600101906020018083116105af57829003601f168201915b505050505081526020016001820180546105e590611c39565b80601f016020809104026020016040519081016040528092919081815260200182805461061190611c39565b801561065e5780601f106106335761010080835404028352916020019161065e565b820191906000526020600020905b81548152906001019060200180831161064157829003601f168201915b5050509183525050600282015460ff161515602082015260038201805460409092019161068a90611c39565b80601f01602080910402602001604051908101604052809291908181526020018280546106b690611c39565b80156107035780601f106106d857610100808354040283529160200191610703565b820191906000526020600020905b8154815290600101906020018083116106e657829003601f168201915b50505050508152505081526020019060010190610520565b505050509050919050565b6002805490600061073683611cb8565b9091555050600380546001810182556000919091526006027fc2575a0e9e593c00f959f8c92f12db2869c3395a3b0502d05e2516446f71f85b018061077b8782611d20565b506001810161078a8682611d20565b50600281016107998582611d20565b506107a5600254611347565b60048201906107b49082611d20565b50600581016107c38382611d20565b5060005b83518110156108755760008482815181106107e4576107e4611ca2565b6020908102919091018101516003850180546001810182556000918252929020815191935083926004020190819061081c9082611d20565b50602082015160018201906108319082611d20565b50604082015160028201805460ff19169115159190911790556060820151600382019061085e9082611d20565b50505050808061086d90611cb8565b9150506107c7565b506002546040805133815260208101929092527f4a31f5ac372495eeadf90f1b0d3a4693dbb858e9f2e9730987f6d93338dc06ac910160405180910390a1505050505050565b60035460609060009067ffffffffffffffff8111156108dc576108dc611822565b60405190808252806020026020018201604052801561094657816020015b6109336040518060c001604052806060815260200160608152602001606081526020016060815260200160608152602001606081525090565b8152602001906001900390816108fa5790505b5090506000805b600354811015610ec3576003818154811061096a5761096a611ca2565b90600052602060002090600602016040518060c001604052908160008201805461099390611c39565b80601f01602080910402602001604051908101604052809291908181526020018280546109bf90611c39565b8015610a0c5780601f106109e157610100808354040283529160200191610a0c565b820191906000526020600020905b8154815290600101906020018083116109ef57829003601f168201915b50505050508152602001600182018054610a2590611c39565b80601f0160208091040260200160405190810160405280929190818152602001828054610a5190611c39565b8015610a9e5780601f10610a7357610100808354040283529160200191610a9e565b820191906000526020600020905b815481529060010190602001808311610a8157829003601f168201915b50505050508152602001600282018054610ab790611c39565b80601f0160208091040260200160405190810160405280929190818152602001828054610ae390611c39565b8015610b305780601f10610b0557610100808354040283529160200191610b30565b820191906000526020600020905b815481529060010190602001808311610b1357829003601f168201915b5050505050815260200160038201805480602002602001604051908101604052809291908181526020016000905b82821015610d595783829060005260206000209060040201604051806080016040529081600082018054610b9190611c39565b80601f0160208091040260200160405190810160405280929190818152602001828054610bbd90611c39565b8015610c0a5780601f10610bdf57610100808354040283529160200191610c0a565b820191906000526020600020905b815481529060010190602001808311610bed57829003601f168201915b50505050508152602001600182018054610c2390611c39565b80601f0160208091040260200160405190810160405280929190818152602001828054610c4f90611c39565b8015610c9c5780601f10610c7157610100808354040283529160200191610c9c565b820191906000526020600020905b815481529060010190602001808311610c7f57829003601f168201915b5050509183525050600282015460ff1615156020820152600382018054604090920191610cc890611c39565b80601f0160208091040260200160405190810160405280929190818152602001828054610cf490611c39565b8015610d415780601f10610d1657610100808354040283529160200191610d41565b820191906000526020600020905b815481529060010190602001808311610d2457829003601f168201915b50505050508152505081526020019060010190610b5e565b505050508152602001600482018054610d7190611c39565b80601f0160208091040260200160405190810160405280929190818152602001828054610d9d90611c39565b8015610dea5780601f10610dbf57610100808354040283529160200191610dea565b820191906000526020600020905b815481529060010190602001808311610dcd57829003601f168201915b50505050508152602001600582018054610e0390611c39565b80601f0160208091040260200160405190810160405280929190818152602001828054610e2f90611c39565b8015610e7c5780601f10610e5157610100808354040283529160200191610e7c565b820191906000526020600020905b815481529060010190602001808311610e5f57829003601f168201915b505050505081525050838381518110610e9757610e97611ca2565b60200260200101819052508180610ead90611cb8565b9250508080610ebb90611cb8565b91505061094d565b5060008167ffffffffffffffff811115610edf57610edf611822565b604051908082528060200260200182016040528015610f4957816020015b610f366040518060c001604052806060815260200160608152602001606081526020016060815260200160608152602001606081525090565b815260200190600190039081610efd5790505b50905060005b82811015610fa157838181518110610f6957610f69611ca2565b6020026020010151828281518110610f8357610f83611ca2565b60200260200101819052508080610f9990611cb8565b915050610f4f565b50610fab81611450565b935050505090565b600084118015610fc557506002548411155b6110065760405162461bcd60e51b8152602060048201526012602482015271125b9d985b1a59081c1c9bda9958dd08125160721b60448201526064016104c9565b6040805160808101825284815260208101849052600091810191909152606081018290526003611037600187611c89565b8154811061104757611047611ca2565b6000918252602080832060036006909302019190910180546001810182559083529120825183926004029091019081906110819082611d20565b50602082015160018201906110969082611d20565b50604082015160028201805460ff1916911515919091179055606082015160038201906110c39082611d20565b5050505050505050565b60005b60035481101561134157836040516020016110eb9190611de0565b604051602081830303815290604052805190602001206003828154811061111457611114611ca2565b90600052602060002090600602016000016040516020016111359190611dfc565b604051602081830303815290604052805190602001200361132f5760006003828154811061116557611165611ca2565b9060005260206000209060060201600301905060005b815481101561132857846040516020016111959190611de0565b604051602081830303815290604052805190602001208282815481106111bd576111bd611ca2565b90600052602060002090600402016000016040516020016111de9190611dfc565b6040516020818303038152906040528051906020012014801561126e57508360405160200161120d9190611de0565b6040516020818303038152906040528051906020012082828154811061123557611235611ca2565b90600052602060002090600402016003016040516020016112569190611dfc565b60405160208183030381529060405280519060200120145b156113165760016003848154811061128857611288611ca2565b906000526020600020906006020160030182815481106112aa576112aa611ca2565b60009182526020909120600490910201600201805460ff19169115159190911790557f53206b036c54237caf9bcabddaa2d626abe8101bf96c1351562cdfcb8429ae276112f8846001611e72565b868660405161130993929190611e85565b60405180910390a1611328565b8061132081611cb8565b91505061117b565b5050611341565b8061133981611cb8565b9150506110d0565b50505050565b60608160000361136e5750506040805180820190915260018152600360fc1b602082015290565b8160005b8115611398578061138281611cb8565b91506113919050600a83611ed0565b9150611372565b60008167ffffffffffffffff8111156113b3576113b3611822565b6040519080825280601f01601f1916602001820160405280156113dd576020820181803683370190505b5090505b8415611448576113f2600183611c89565b91506113ff600a86611ee4565b61140a906030611e72565b60f81b81838151811061141f5761141f611ca2565b60200101906001600160f81b031916908160001a905350611441600a86611ed0565b94506113e1565b949350505050565b6060600060405160200161146b90605b60f81b815260010190565b604051602081830303815290604052905060005b835181101561151757816114ab85838151811061149e5761149e611ca2565b6020026020010151611540565b6040516020016114bc929190611ef8565b6040516020818303038152906040529150600184516114db9190611c89565b81101561150557816040516020016114f39190611f27565b60405160208183030381529060405291505b8061150f81611cb8565b91505061147f565b50806040516020016115299190611f4c565b60408051601f198184030181529190529392505050565b6080810151815160405160609260009261155c92602001611f71565b604051602081830303815290604052905060005b83606001515181101561161457816115a48560600151838151811061159757611597611ca2565b6020026020010151611626565b6040516020016115b5929190611ef8565b604051602081830303815290604052915060018460600151516115d89190611c89565b81101561160257816040516020016115f09190611f27565b60405160208183030381529060405291505b8061160c81611cb8565b915050611570565b50806040516020016115299190611fea565b606081600001518260400151611659576040518060400160405280600581526020016466616c736560d81b815250611677565b604051806040016040528060048152602001637472756560e01b8152505b604051602001611688929190612010565b6040516020818303038152906040529050919050565b6000602082840312156116b057600080fd5b5035919050565b60005b838110156116d25781810151838201526020016116ba565b50506000910152565b600081518084526116f38160208601602086016116b7565b601f01601f19169290920160200192915050565b60a08152600061171a60a08301886116db565b828103602084015261172c81886116db565b9050828103604084015261174081876116db565b9050828103606084015261175481866116db565b9050828103608084015261176881856116db565b98975050505050505050565b60006020808301818452808551808352604092508286019150828160051b87010184880160005b8381101561181457603f198984030185528151608081518186526117c1828701826116db565b915050888201518582038a8701526117d982826116db565b915050878201511515888601526060808301519250858203818701525061180081836116db565b96890196945050509086019060010161179b565b509098975050505050505050565b634e487b7160e01b600052604160045260246000fd5b6040516080810167ffffffffffffffff8111828210171561185b5761185b611822565b60405290565b604051601f8201601f1916810167ffffffffffffffff8111828210171561188a5761188a611822565b604052919050565b600082601f8301126118a357600080fd5b813567ffffffffffffffff8111156118bd576118bd611822565b6118d0601f8201601f1916602001611861565b8181528460208386010111156118e557600080fd5b816020850160208301376000918101602001919091529392505050565b600082601f83011261191357600080fd5b8135602067ffffffffffffffff8083111561193057611930611822565b8260051b61193f838201611861565b938452858101830193838101908886111561195957600080fd5b84880192505b85831015611768578235848111156119775760008081fd5b88016080818b03601f190181131561198f5760008081fd5b611997611838565b87830135878111156119a95760008081fd5b6119b78d8a83870101611892565b825250604080840135888111156119ce5760008081fd5b6119dc8e8b83880101611892565b8a8401525060608085013580151581146119f65760008081fd5b83830152928401359288841115611a0f57600091508182fd5b611a1d8e8b86880101611892565b908301525084525050918401919084019061195f565b600080600080600060a08688031215611a4b57600080fd5b853567ffffffffffffffff80821115611a6357600080fd5b611a6f89838a01611892565b96506020880135915080821115611a8557600080fd5b611a9189838a01611892565b95506040880135915080821115611aa757600080fd5b611ab389838a01611892565b94506060880135915080821115611ac957600080fd5b611ad589838a01611902565b93506080880135915080821115611aeb57600080fd5b50611af888828901611892565b9150509295509295909350565b602081526000611b1860208301846116db565b9392505050565b60008060008060808587031215611b3557600080fd5b84359350602085013567ffffffffffffffff80821115611b5457600080fd5b611b6088838901611892565b94506040870135915080821115611b7657600080fd5b611b8288838901611892565b93506060870135915080821115611b9857600080fd5b50611ba587828801611892565b91505092959194509250565b600080600060608486031215611bc657600080fd5b833567ffffffffffffffff80821115611bde57600080fd5b611bea87838801611892565b94506020860135915080821115611c0057600080fd5b611c0c87838801611892565b93506040860135915080821115611c2257600080fd5b50611c2f86828701611892565b9150509250925092565b600181811c90821680611c4d57607f821691505b602082108103611c6d57634e487b7160e01b600052602260045260246000fd5b50919050565b634e487b7160e01b600052601160045260246000fd5b81810381811115611c9c57611c9c611c73565b92915050565b634e487b7160e01b600052603260045260246000fd5b600060018201611cca57611cca611c73565b5060010190565b601f821115611d1b57600081815260208120601f850160051c81016020861015611cf85750805b601f850160051c820191505b81811015611d1757828155600101611d04565b5050505b505050565b815167ffffffffffffffff811115611d3a57611d3a611822565b611d4e81611d488454611c39565b84611cd1565b602080601f831160018114611d835760008415611d6b5750858301515b600019600386901b1c1916600185901b178555611d17565b600085815260208120601f198616915b82811015611db257888601518255948401946001909101908401611d93565b5085821015611dd05787850151600019600388901b60f8161c191681555b5050505050600190811b01905550565b60008251611df28184602087016116b7565b9190910192915050565b6000808354611e0a81611c39565b60018281168015611e225760018114611e3757611e66565b60ff1984168752821515830287019450611e66565b8760005260208060002060005b85811015611e5d5781548a820152908401908201611e44565b50505082870194505b50929695505050505050565b80820180821115611c9c57611c9c611c73565b838152606060208201526000611e9e60608301856116db565b8281036040840152611eb081856116db565b9695505050505050565b634e487b7160e01b600052601260045260246000fd5b600082611edf57611edf611eba565b500490565b600082611ef357611ef3611eba565b500690565b60008351611f0a8184602088016116b7565b835190830190611f1e8183602088016116b7565b01949350505050565b60008251611f398184602087016116b7565b600b60fa1b920191825250600101919050565b60008251611f5e8184602087016116b7565b605d60f81b920191825250600101919050565b6d3d91383937b532b1ba34b2111d1160911b81528251600090611f9b81600e8501602088016116b7565b6a1116113a34ba3632911d1160a91b600e918401918201528351611fc68160198401602088016116b7565b6a222c227461736b73223a5b60a81b60199290910191820152602401949350505050565b60008251611ffc8184602087016116b7565b615d7d60f01b920191825250600201919050565b6d3d913a30b9b5ba34ba3632911d1160911b8152825160009061203a81600e8501602088016116b7565b6a11161134b9b237b732911d60a91b600e9184019182015283516120658160198401602088016116b7565b607d60f81b60199290910191820152601a0194935050505056fea2646970667358221220be54fac8f3a7d0aa52a413a053e0737f4befd0de106e4ce6b73a221193f1217f64736f6c63430008140033",
  "linkReferences": {},
  "deployedLinkReferences": {}
}