{
  "_format": "hh-sol-artifact-1",
  "contractName": "TaskCon",
  "sourceName": "contracts/TaskCon.sol",
  "abi": [
    {
      "inputs": [],
      "stateMutability": "nonpayable",
      "type": "constructor"
    },
    {
      "anonymous": false,
      "inputs": [
        {
          "indexed": false,
          "internalType": "address",
          "name": "recipient",
          "type": "address"
        },
        {
          "indexed": false,
          "internalType": "uint256",
          "name": "projectid",
          "type": "uint256"
        }
      ],
      "name": "AddProject",
      "type": "event"
    },
    {
      "inputs": [],
      "name": "Counter",
      "outputs": [
        {
          "internalType": "uint256",
          "name": "",
          "type": "uint256"
        }
      ],
      "stateMutability": "view",
      "type": "function"
    },
    {
      "inputs": [
        {
          "internalType": "string",
          "name": "_title",
          "type": "string"
        },
        {
          "internalType": "string",
          "name": "_description",
          "type": "string"
        },
        {
          "internalType": "string",
          "name": "_url",
          "type": "string"
        },
        {
          "components": [
            {
              "internalType": "string",
              "name": "tasktitle",
              "type": "string"
            },
            {
              "internalType": "string",
              "name": "description",
              "type": "string"
            },
            {
              "internalType": "bool",
              "name": "isdone",
              "type": "bool"
            }
          ],
          "internalType": "struct TaskCon.task[]",
          "name": "_tasks",
          "type": "tuple[]"
        }
      ],
      "name": "addProject",
      "outputs": [],
      "stateMutability": "nonpayable",
      "type": "function"
    },
    {
      "inputs": [
        {
          "internalType": "uint256",
          "name": "projectId",
          "type": "uint256"
        },
        {
          "internalType": "string",
          "name": "tasktitle",
          "type": "string"
        },
        {
          "internalType": "string",
          "name": "description",
          "type": "string"
        }
      ],
      "name": "addtasks",
      "outputs": [],
      "stateMutability": "nonpayable",
      "type": "function"
    },
    {
      "inputs": [
        {
          "internalType": "uint256",
          "name": "projectId",
          "type": "uint256"
        },
        {
          "internalType": "string",
          "name": "tasktitle",
          "type": "string"
        }
      ],
      "name": "finishtasks",
      "outputs": [],
      "stateMutability": "nonpayable",
      "type": "function"
    },
    {
      "inputs": [
        {
          "internalType": "uint256",
          "name": "projectId",
          "type": "uint256"
        }
      ],
      "name": "getProjectTasks",
      "outputs": [
        {
          "components": [
            {
              "internalType": "string",
              "name": "tasktitle",
              "type": "string"
            },
            {
              "internalType": "string",
              "name": "description",
              "type": "string"
            },
            {
              "internalType": "bool",
              "name": "isdone",
              "type": "bool"
            }
          ],
          "internalType": "struct TaskCon.task[]",
          "name": "",
          "type": "tuple[]"
        }
      ],
      "stateMutability": "view",
      "type": "function"
    },
    {
      "inputs": [],
      "name": "getfeed",
      "outputs": [
        {
          "components": [
            {
              "internalType": "string",
              "name": "title",
              "type": "string"
            },
            {
              "internalType": "string",
              "name": "description",
              "type": "string"
            },
            {
              "internalType": "string",
              "name": "url",
              "type": "string"
            },
            {
              "components": [
                {
                  "internalType": "string",
                  "name": "tasktitle",
                  "type": "string"
                },
                {
                  "internalType": "string",
                  "name": "description",
                  "type": "string"
                },
                {
                  "internalType": "bool",
                  "name": "isdone",
                  "type": "bool"
                }
              ],
              "internalType": "struct TaskCon.task[]",
              "name": "tasks",
              "type": "tuple[]"
            },
            {
              "internalType": "string",
              "name": "projectid",
              "type": "string"
            }
          ],
          "internalType": "struct TaskCon.project[]",
          "name": "",
          "type": "tuple[]"
        }
      ],
      "stateMutability": "view",
      "type": "function"
    },
    {
      "inputs": [],
      "name": "owner",
      "outputs": [
        {
          "internalType": "address",
          "name": "",
          "type": "address"
        }
      ],
      "stateMutability": "view",
      "type": "function"
    },
    {
      "inputs": [
        {
          "internalType": "uint256",
          "name": "",
          "type": "uint256"
        }
      ],
      "name": "projects",
      "outputs": [
        {
          "internalType": "string",
          "name": "title",
          "type": "string"
        },
        {
          "internalType": "string",
          "name": "description",
          "type": "string"
        },
        {
          "internalType": "string",
          "name": "url",
          "type": "string"
        },
        {
          "internalType": "string",
          "name": "projectid",
          "type": "string"
        }
      ],
      "stateMutability": "view",
      "type": "function"
    },
    {
      "inputs": [],
      "name": "tokenaddress",
      "outputs": [
        {
          "internalType": "address",
          "name": "",
          "type": "address"
        }
      ],
      "stateMutability": "view",
      "type": "function"
    }
  ],
  "bytecode": "0x608060405234801561001057600080fd5b50600080546001600160a01b03191633178155600255611771806100356000396000f3fe608060405234801561001057600080fd5b50600436106100935760003560e01c80635a69e55b116100665780635a69e55b146101265780638da5cb5b1461013b578063a92a7fb71461014e578063ba5cdd5414610163578063d95deebd1461017657600080fd5b8063107046bd146100985780633feff76d146100c45780634eeca076146100ef578063591c564f14610106575b600080fd5b6100ab6100a6366004610ea2565b610189565b6040516100bb9493929190610f0b565b60405180910390f35b6001546100d7906001600160a01b031681565b6040516001600160a01b0390911681526020016100bb565b6100f860025481565b6040519081526020016100bb565b610119610114366004610ea2565b6103e9565b6040516100bb9190610f63565b6101396101343660046110d6565b6105e3565b005b6000546100d7906001600160a01b031681565b610156610717565b6040516100bb919061111d565b610139610171366004611273565b610b53565b6101396101843660046112e0565b610c28565b6003818154811061019957600080fd5b90600052602060002090600502016000915090508060000180546101bc90611485565b80601f01602080910402602001604051908101604052809291908181526020018280546101e890611485565b80156102355780601f1061020a57610100808354040283529160200191610235565b820191906000526020600020905b81548152906001019060200180831161021857829003601f168201915b50505050509080600101805461024a90611485565b80601f016020809104026020016040519081016040528092919081815260200182805461027690611485565b80156102c35780601f10610298576101008083540402835291602001916102c3565b820191906000526020600020905b8154815290600101906020018083116102a657829003601f168201915b5050505050908060020180546102d890611485565b80601f016020809104026020016040519081016040528092919081815260200182805461030490611485565b80156103515780601f1061032657610100808354040283529160200191610351565b820191906000526020600020905b81548152906001019060200180831161033457829003601f168201915b50505050509080600401805461036690611485565b80601f016020809104026020016040519081016040528092919081815260200182805461039290611485565b80156103df5780601f106103b4576101008083540402835291602001916103df565b820191906000526020600020905b8154815290600101906020018083116103c257829003601f168201915b5050505050905084565b60606000821180156103fd57506002548211155b6104225760405162461bcd60e51b8152600401610419906114bf565b60405180910390fd5b600361042f600184611501565b8154811061043f5761043f61151a565b9060005260206000209060050201600301805480602002602001604051908101604052809291908181526020016000905b828210156105d857838290600052602060002090600302016040518060600160405290816000820180546104a390611485565b80601f01602080910402602001604051908101604052809291908181526020018280546104cf90611485565b801561051c5780601f106104f15761010080835404028352916020019161051c565b820191906000526020600020905b8154815290600101906020018083116104ff57829003601f168201915b5050505050815260200160018201805461053590611485565b80601f016020809104026020016040519081016040528092919081815260200182805461056190611485565b80156105ae5780601f10610583576101008083540402835291602001916105ae565b820191906000526020600020905b81548152906001019060200180831161059157829003601f168201915b50505091835250506002919091015460ff1615156020918201529082526001929092019101610470565b505050509050919050565b6000821180156105f557506002548211155b6106115760405162461bcd60e51b8152600401610419906114bf565b60006003610620600185611501565b815481106106305761063061151a565b9060005260206000209060050201600301905060005b815481101561071157826040516020016106609190611530565b604051602081830303815290604052805190602001208282815481106106885761068861151a565b90600052602060002090600302016000016040516020016106a9919061154c565b60405160208183030381529060405280519060200120036106ff5760018282815481106106d8576106d861151a565b60009182526020909120600390910201600201805460ff1916911515919091179055610711565b80610709816115c2565b915050610646565b50505050565b60606003805480602002602001604051908101604052809291908181526020016000905b82821015610b4a57838290600052602060002090600502016040518060a001604052908160008201805461076e90611485565b80601f016020809104026020016040519081016040528092919081815260200182805461079a90611485565b80156107e75780601f106107bc576101008083540402835291602001916107e7565b820191906000526020600020905b8154815290600101906020018083116107ca57829003601f168201915b5050505050815260200160018201805461080090611485565b80601f016020809104026020016040519081016040528092919081815260200182805461082c90611485565b80156108795780601f1061084e57610100808354040283529160200191610879565b820191906000526020600020905b81548152906001019060200180831161085c57829003601f168201915b5050505050815260200160028201805461089290611485565b80601f01602080910402602001604051908101604052809291908181526020018280546108be90611485565b801561090b5780601f106108e05761010080835404028352916020019161090b565b820191906000526020600020905b8154815290600101906020018083116108ee57829003601f168201915b5050505050815260200160038201805480602002602001604051908101604052809291908181526020016000905b82821015610aa1578382906000526020600020906003020160405180606001604052908160008201805461096c90611485565b80601f016020809104026020016040519081016040528092919081815260200182805461099890611485565b80156109e55780601f106109ba576101008083540402835291602001916109e5565b820191906000526020600020905b8154815290600101906020018083116109c857829003601f168201915b505050505081526020016001820180546109fe90611485565b80601f0160208091040260200160405190810160405280929190818152602001828054610a2a90611485565b8015610a775780601f10610a4c57610100808354040283529160200191610a77565b820191906000526020600020905b815481529060010190602001808311610a5a57829003601f168201915b50505091835250506002919091015460ff1615156020918201529082526001929092019101610939565b505050508152602001600482018054610ab990611485565b80601f0160208091040260200160405190810160405280929190818152602001828054610ae590611485565b8015610b325780601f10610b0757610100808354040283529160200191610b32565b820191906000526020600020905b815481529060010190602001808311610b1557829003601f168201915b5050505050815250508152602001906001019061073b565b50505050905090565b600083118015610b6557506002548311155b610b815760405162461bcd60e51b8152600401610419906114bf565b60408051606081018252838152602081018390526000918101919091526003610bab600186611501565b81548110610bbb57610bbb61151a565b6000918252602080832060036005909302018201805460018101825590845292208351849390920201908190610bf1908261162a565b5060208201516001820190610c06908261162a565b50604091909101516002909101805460ff191691151591909117905550505050565b60028054906000610c38836115c2565b9091555050600380546001810182556000919091526005027fc2575a0e9e593c00f959f8c92f12db2869c3395a3b0502d05e2516446f71f85b0180610c7d868261162a565b5060018101610c8c858261162a565b5060028101610c9b848261162a565b50610ca7600254610d99565b6004820190610cb6908261162a565b5060005b8251811015610d54576000838281518110610cd757610cd761151a565b6020908102919091018101516003808601805460018101825560009182529390208251929450849390910201908190610d10908261162a565b5060208201516001820190610d25908261162a565b50604091909101516002909101805460ff19169115159190911790555080610d4c816115c2565b915050610cba565b506002546040805133815260208101929092527f4a31f5ac372495eeadf90f1b0d3a4693dbb858e9f2e9730987f6d93338dc06ac910160405180910390a15050505050565b606081600003610dc05750506040805180820190915260018152600360fc1b602082015290565b8160005b8115610dea5780610dd4816115c2565b9150610de39050600a83611700565b9150610dc4565b60008167ffffffffffffffff811115610e0557610e05610ff6565b6040519080825280601f01601f191660200182016040528015610e2f576020820181803683370190505b5090505b8415610e9a57610e44600183611501565b9150610e51600a86611714565b610e5c906030611728565b60f81b818381518110610e7157610e7161151a565b60200101906001600160f81b031916908160001a905350610e93600a86611700565b9450610e33565b949350505050565b600060208284031215610eb457600080fd5b5035919050565b60005b83811015610ed6578181015183820152602001610ebe565b50506000910152565b60008151808452610ef7816020860160208601610ebb565b601f01601f19169290920160200192915050565b608081526000610f1e6080830187610edf565b8281036020840152610f308187610edf565b90508281036040840152610f448186610edf565b90508281036060840152610f588185610edf565b979650505050505050565b60006020808301818452808551808352604092508286019150828160051b87010184880160005b83811015610fe857603f19898403018552815160608151818652610fb082870182610edf565b915050888201518582038a870152610fc88282610edf565b928901511515958901959095525094870194925090860190600101610f8a565b509098975050505050505050565b634e487b7160e01b600052604160045260246000fd5b6040516060810167ffffffffffffffff8111828210171561102f5761102f610ff6565b60405290565b604051601f8201601f1916810167ffffffffffffffff8111828210171561105e5761105e610ff6565b604052919050565b600082601f83011261107757600080fd5b813567ffffffffffffffff81111561109157611091610ff6565b6110a4601f8201601f1916602001611035565b8181528460208386010111156110b957600080fd5b816020850160208301376000918101602001919091529392505050565b600080604083850312156110e957600080fd5b82359150602083013567ffffffffffffffff81111561110757600080fd5b61111385828601611066565b9150509250929050565b60208152600060208201835180825260408401915060408160051b8501016020860160005b8381101561126757603f198784030185528151805160a0855261116860a0860182610edf565b9050602082015185820360208701526111818282610edf565b9150506040820151858203604087015261119b8282610edf565b9150506060820151858203606087015281815180845260208401915060208160051b85010160208401935060005b8281101561122e57601f1986830301845284518051606084526111ef6060850182610edf565b9050602082015184820360208601526112088282610edf565b6040938401511515959093019490945250602095860195949094019391506001016111c9565b506080860151955088810360808a01526112488187610edf565b9850505050505050602082019150602085019450600181019050611142565b50909695505050505050565b60008060006060848603121561128857600080fd5b83359250602084013567ffffffffffffffff808211156112a757600080fd5b6112b387838801611066565b935060408601359150808211156112c957600080fd5b506112d686828701611066565b9150509250925092565b600080600080608085870312156112f657600080fd5b67ffffffffffffffff808635111561130d57600080fd5b61131a8787358801611066565b945060208601358181111561132e57600080fd5b61133a88828901611066565b94505060408601358181111561134f57600080fd5b61135b88828901611066565b93505060608601358181111561137057600080fd5b8601601f8101881361138157600080fd5b80358281111561139357611393610ff6565b6113a260208260051b01611035565b8082825260208201915060208360051b85010192508a8311156113c457600080fd5b602084015b838110156114755785813511156113df57600080fd5b803585016060818e03601f190112156113f757600080fd5b6113ff61100c565b60208201358881111561141157600080fd5b6114208f602083860101611066565b82525060408201358881111561143557600080fd5b6114448f602083860101611066565b60208301525060608201359150811515821461145f57600080fd5b60408101919091528352602092830192016113c9565b50979a9699509497505050505050565b600181811c9082168061149957607f821691505b6020821081036114b957634e487b7160e01b600052602260045260246000fd5b50919050565b602080825260129082015271125b9d985b1a59081c1c9bda9958dd08125160721b604082015260600190565b634e487b7160e01b600052601160045260246000fd5b81810381811115611514576115146114eb565b92915050565b634e487b7160e01b600052603260045260246000fd5b60008251611542818460208701610ebb565b9190910192915050565b600080835461155a81611485565b600182811680156115725760018114611587576115b6565b60ff19841687528215158302870194506115b6565b8760005260208060002060005b858110156115ad5781548a820152908401908201611594565b50505082870194505b50929695505050505050565b6000600182016115d4576115d46114eb565b5060010190565b601f82111561162557600081815260208120601f850160051c810160208610156116025750805b601f850160051c820191505b818110156116215782815560010161160e565b5050505b505050565b815167ffffffffffffffff81111561164457611644610ff6565b611658816116528454611485565b846115db565b602080601f83116001811461168d57600084156116755750858301515b600019600386901b1c1916600185901b178555611621565b600085815260208120601f198616915b828110156116bc5788860151825594840194600190910190840161169d565b50858210156116da5787850151600019600388901b60f8161c191681555b5050505050600190811b01905550565b634e487b7160e01b600052601260045260246000fd5b60008261170f5761170f6116ea565b500490565b600082611723576117236116ea565b500690565b80820180821115611514576115146114eb56fea2646970667358221220c5af340f3b32be50576eb0f3a5f7980a31f98436c7db8f144fa95164cc7815d364736f6c63430008140033",
  "linkReferences": {},
  "deployedLinkReferences": {}
}