{
  "_format": "hh-sol-artifact-1",
  "contractName": "TaskCon",
  "sourceName": "contracts/TaskCon.sol",
  "abi": [
    {
      "inputs": [],
      "stateMutability": "nonpayable",
      "type": "constructor"
    },
    {
      "anonymous": false,
      "inputs": [
        {
          "indexed": false,
          "internalType": "address",
          "name": "recipient",
          "type": "address"
        },
        {
          "indexed": false,
          "internalType": "uint256",
          "name": "projectid",
          "type": "uint256"
        }
      ],
      "name": "AddProject",
      "type": "event"
    },
    {
      "inputs": [],
      "name": "Counter",
      "outputs": [
        {
          "internalType": "uint256",
          "name": "",
          "type": "uint256"
        }
      ],
      "stateMutability": "view",
      "type": "function"
    },
    {
      "inputs": [
        {
          "internalType": "string",
          "name": "_title",
          "type": "string"
        },
        {
          "internalType": "string",
          "name": "_description",
          "type": "string"
        },
        {
          "internalType": "string",
          "name": "_url",
          "type": "string"
        },
        {
          "components": [
            {
              "internalType": "string",
              "name": "tasktitle",
              "type": "string"
            },
            {
              "internalType": "string",
              "name": "description",
              "type": "string"
            },
            {
              "internalType": "bool",
              "name": "isdone",
              "type": "bool"
            },
            {
              "internalType": "string",
              "name": "ownerman",
              "type": "string"
            }
          ],
          "internalType": "struct TaskCon.task[]",
          "name": "_tasks",
          "type": "tuple[]"
        },
        {
          "internalType": "string",
          "name": "ownerman",
          "type": "string"
        }
      ],
      "name": "addProject",
      "outputs": [],
      "stateMutability": "nonpayable",
      "type": "function"
    },
    {
      "inputs": [
        {
          "internalType": "uint256",
          "name": "projectId",
          "type": "uint256"
        },
        {
          "internalType": "string",
          "name": "tasktitle",
          "type": "string"
        },
        {
          "internalType": "string",
          "name": "description",
          "type": "string"
        },
        {
          "internalType": "string",
          "name": "ownerman",
          "type": "string"
        }
      ],
      "name": "addtasks",
      "outputs": [],
      "stateMutability": "nonpayable",
      "type": "function"
    },
    {
      "inputs": [
        {
          "internalType": "uint256",
          "name": "projectId",
          "type": "uint256"
        },
        {
          "internalType": "string",
          "name": "tasktitle",
          "type": "string"
        },
        {
          "internalType": "string",
          "name": "collaborator",
          "type": "string"
        }
      ],
      "name": "finishtask",
      "outputs": [],
      "stateMutability": "nonpayable",
      "type": "function"
    },
    {
      "inputs": [
        {
          "internalType": "uint256",
          "name": "projectId",
          "type": "uint256"
        }
      ],
      "name": "getProjectTasks",
      "outputs": [
        {
          "components": [
            {
              "internalType": "string",
              "name": "tasktitle",
              "type": "string"
            },
            {
              "internalType": "string",
              "name": "description",
              "type": "string"
            },
            {
              "internalType": "bool",
              "name": "isdone",
              "type": "bool"
            },
            {
              "internalType": "string",
              "name": "ownerman",
              "type": "string"
            }
          ],
          "internalType": "struct TaskCon.task[]",
          "name": "",
          "type": "tuple[]"
        }
      ],
      "stateMutability": "view",
      "type": "function"
    },
    {
      "inputs": [],
      "name": "getfeed",
      "outputs": [
        {
          "internalType": "string",
          "name": "",
          "type": "string"
        }
      ],
      "stateMutability": "view",
      "type": "function"
    },
    {
      "inputs": [],
      "name": "owner",
      "outputs": [
        {
          "internalType": "address",
          "name": "",
          "type": "address"
        }
      ],
      "stateMutability": "view",
      "type": "function"
    },
    {
      "inputs": [
        {
          "internalType": "uint256",
          "name": "",
          "type": "uint256"
        }
      ],
      "name": "projects",
      "outputs": [
        {
          "internalType": "string",
          "name": "title",
          "type": "string"
        },
        {
          "internalType": "string",
          "name": "description",
          "type": "string"
        },
        {
          "internalType": "string",
          "name": "url",
          "type": "string"
        },
        {
          "internalType": "string",
          "name": "projectid",
          "type": "string"
        },
        {
          "internalType": "string",
          "name": "ownerman",
          "type": "string"
        }
      ],
      "stateMutability": "view",
      "type": "function"
    },
    {
      "inputs": [],
      "name": "tokenaddress",
      "outputs": [
        {
          "internalType": "address",
          "name": "",
          "type": "address"
        }
      ],
      "stateMutability": "view",
      "type": "function"
    }
  ],
  "bytecode": "0x608060405234801561001057600080fd5b50600080546001600160a01b03191633178155600255611f4c806100356000396000f3fe608060405234801561001057600080fd5b50600436106100935760003560e01c80638278cf25116100665780638278cf25146101275780638da5cb5b1461013c578063a92a7fb71461014f578063afc6b8c514610164578063b160b1d21461017757600080fd5b8063107046bd146100985780633feff76d146100c55780634eeca076146100f0578063591c564f14610107575b600080fd5b6100ab6100a636600461158a565b61018a565b6040516100bc9594939291906115f3565b60405180910390f35b6001546100d8906001600160a01b031681565b6040516001600160a01b0390911681526020016100bc565b6100f960025481565b6040519081526020016100bc565b61011a61011536600461158a565b610478565b6040516100bc9190611660565b61013a61013536600461191f565b610705565b005b6000546100d8906001600160a01b031681565b61015761089a565b6040516100bc91906119f1565b61013a610172366004611a0b565b610f92565b61013a610185366004611a78565b611141565b6003818154811061019a57600080fd5b90600052602060002090600602016000915090508060000180546101bd90611b0a565b80601f01602080910402602001604051908101604052809291908181526020018280546101e990611b0a565b80156102365780601f1061020b57610100808354040283529160200191610236565b820191906000526020600020905b81548152906001019060200180831161021957829003601f168201915b50505050509080600101805461024b90611b0a565b80601f016020809104026020016040519081016040528092919081815260200182805461027790611b0a565b80156102c45780601f10610299576101008083540402835291602001916102c4565b820191906000526020600020905b8154815290600101906020018083116102a757829003601f168201915b5050505050908060020180546102d990611b0a565b80601f016020809104026020016040519081016040528092919081815260200182805461030590611b0a565b80156103525780601f1061032757610100808354040283529160200191610352565b820191906000526020600020905b81548152906001019060200180831161033557829003601f168201915b50505050509080600401805461036790611b0a565b80601f016020809104026020016040519081016040528092919081815260200182805461039390611b0a565b80156103e05780601f106103b5576101008083540402835291602001916103e0565b820191906000526020600020905b8154815290600101906020018083116103c357829003601f168201915b5050505050908060050180546103f590611b0a565b80601f016020809104026020016040519081016040528092919081815260200182805461042190611b0a565b801561046e5780601f106104435761010080835404028352916020019161046e565b820191906000526020600020905b81548152906001019060200180831161045157829003601f168201915b5050505050905085565b606060008211801561048c57506002548211155b6104b15760405162461bcd60e51b81526004016104a890611b44565b60405180910390fd5b60036104be600184611b86565b815481106104ce576104ce611b9f565b9060005260206000209060060201600301805480602002602001604051908101604052809291908181526020016000905b828210156106fa578382906000526020600020906004020160405180608001604052908160008201805461053290611b0a565b80601f016020809104026020016040519081016040528092919081815260200182805461055e90611b0a565b80156105ab5780601f10610580576101008083540402835291602001916105ab565b820191906000526020600020905b81548152906001019060200180831161058e57829003601f168201915b505050505081526020016001820180546105c490611b0a565b80601f01602080910402602001604051908101604052809291908181526020018280546105f090611b0a565b801561063d5780601f106106125761010080835404028352916020019161063d565b820191906000526020600020905b81548152906001019060200180831161062057829003601f168201915b5050509183525050600282015460ff161515602082015260038201805460409092019161066990611b0a565b80601f016020809104026020016040519081016040528092919081815260200182805461069590611b0a565b80156106e25780601f106106b7576101008083540402835291602001916106e2565b820191906000526020600020905b8154815290600101906020018083116106c557829003601f168201915b505050505081525050815260200190600101906104ff565b505050509050919050565b6002805490600061071583611bb5565b9091555050600380546001810182556000919091526006027fc2575a0e9e593c00f959f8c92f12db2869c3395a3b0502d05e2516446f71f85b018061075a8782611c1d565b50600181016107698682611c1d565b50600281016107788582611c1d565b50610784600254611236565b60048201906107939082611c1d565b50600581016107a28382611c1d565b5060005b83518110156108545760008482815181106107c3576107c3611b9f565b602090810291909101810151600385018054600181018255600091825292902081519193508392600402019081906107fb9082611c1d565b50602082015160018201906108109082611c1d565b50604082015160028201805460ff19169115159190911790556060820151600382019061083d9082611c1d565b50505050808061084c90611bb5565b9150506107a6565b506002546040805133815260208101929092527f4a31f5ac372495eeadf90f1b0d3a4693dbb858e9f2e9730987f6d93338dc06ac910160405180910390a1505050505050565b60035460609060009067ffffffffffffffff8111156108bb576108bb61170e565b60405190808252806020026020018201604052801561092557816020015b6109126040518060c001604052806060815260200160608152602001606081526020016060815260200160608152602001606081525090565b8152602001906001900390816108d95790505b5090506000805b600354811015610ea2576003818154811061094957610949611b9f565b90600052602060002090600602016040518060c001604052908160008201805461097290611b0a565b80601f016020809104026020016040519081016040528092919081815260200182805461099e90611b0a565b80156109eb5780601f106109c0576101008083540402835291602001916109eb565b820191906000526020600020905b8154815290600101906020018083116109ce57829003601f168201915b50505050508152602001600182018054610a0490611b0a565b80601f0160208091040260200160405190810160405280929190818152602001828054610a3090611b0a565b8015610a7d5780601f10610a5257610100808354040283529160200191610a7d565b820191906000526020600020905b815481529060010190602001808311610a6057829003601f168201915b50505050508152602001600282018054610a9690611b0a565b80601f0160208091040260200160405190810160405280929190818152602001828054610ac290611b0a565b8015610b0f5780601f10610ae457610100808354040283529160200191610b0f565b820191906000526020600020905b815481529060010190602001808311610af257829003601f168201915b5050505050815260200160038201805480602002602001604051908101604052809291908181526020016000905b82821015610d385783829060005260206000209060040201604051806080016040529081600082018054610b7090611b0a565b80601f0160208091040260200160405190810160405280929190818152602001828054610b9c90611b0a565b8015610be95780601f10610bbe57610100808354040283529160200191610be9565b820191906000526020600020905b815481529060010190602001808311610bcc57829003601f168201915b50505050508152602001600182018054610c0290611b0a565b80601f0160208091040260200160405190810160405280929190818152602001828054610c2e90611b0a565b8015610c7b5780601f10610c5057610100808354040283529160200191610c7b565b820191906000526020600020905b815481529060010190602001808311610c5e57829003601f168201915b5050509183525050600282015460ff1615156020820152600382018054604090920191610ca790611b0a565b80601f0160208091040260200160405190810160405280929190818152602001828054610cd390611b0a565b8015610d205780601f10610cf557610100808354040283529160200191610d20565b820191906000526020600020905b815481529060010190602001808311610d0357829003601f168201915b50505050508152505081526020019060010190610b3d565b505050508152602001600482018054610d5090611b0a565b80601f0160208091040260200160405190810160405280929190818152602001828054610d7c90611b0a565b8015610dc95780601f10610d9e57610100808354040283529160200191610dc9565b820191906000526020600020905b815481529060010190602001808311610dac57829003601f168201915b50505050508152602001600582018054610de290611b0a565b80601f0160208091040260200160405190810160405280929190818152602001828054610e0e90611b0a565b8015610e5b5780601f10610e3057610100808354040283529160200191610e5b565b820191906000526020600020905b815481529060010190602001808311610e3e57829003601f168201915b505050505081525050838381518110610e7657610e76611b9f565b60200260200101819052508180610e8c90611bb5565b9250508080610e9a90611bb5565b91505061092c565b5060008167ffffffffffffffff811115610ebe57610ebe61170e565b604051908082528060200260200182016040528015610f2857816020015b610f156040518060c001604052806060815260200160608152602001606081526020016060815260200160608152602001606081525090565b815260200190600190039081610edc5790505b50905060005b82811015610f8057838181518110610f4857610f48611b9f565b6020026020010151828281518110610f6257610f62611b9f565b60200260200101819052508080610f7890611bb5565b915050610f2e565b50610f8a8161133f565b935050505090565b600083118015610fa457506002548311155b610fc05760405162461bcd60e51b81526004016104a890611b44565b60006003610fcf600186611b86565b81548110610fdf57610fdf611b9f565b9060005260206000209060060201600301905060005b815481101561113a578360405160200161100f9190611cdd565b6040516020818303038152906040528051906020012082828154811061103757611037611b9f565b90600052602060002090600402016000016040516020016110589190611cf9565b604051602081830303815290604052805190602001201480156110e85750826040516020016110879190611cdd565b604051602081830303815290604052805190602001208282815481106110af576110af611b9f565b90600052602060002090600402016003016040516020016110d09190611cf9565b60405160208183030381529060405280519060200120145b1561112857600182828154811061110157611101611b9f565b60009182526020909120600490910201600201805460ff191691151591909117905561113a565b8061113281611bb5565b915050610ff5565b5050505050565b60008411801561115357506002548411155b61116f5760405162461bcd60e51b81526004016104a890611b44565b60408051608081018252848152602081018490526000918101919091526060810182905260036111a0600187611b86565b815481106111b0576111b0611b9f565b6000918252602080832060036006909302019190910180546001810182559083529120825183926004029091019081906111ea9082611c1d565b50602082015160018201906111ff9082611c1d565b50604082015160028201805460ff19169115159190911790556060820151600382019061122c9082611c1d565b5050505050505050565b60608160000361125d5750506040805180820190915260018152600360fc1b602082015290565b8160005b8115611287578061127181611bb5565b91506112809050600a83611d85565b9150611261565b60008167ffffffffffffffff8111156112a2576112a261170e565b6040519080825280601f01601f1916602001820160405280156112cc576020820181803683370190505b5090505b8415611337576112e1600183611b86565b91506112ee600a86611d99565b6112f9906030611dad565b60f81b81838151811061130e5761130e611b9f565b60200101906001600160f81b031916908160001a905350611330600a86611d85565b94506112d0565b949350505050565b6060600060405160200161135a90605b60f81b815260010190565b604051602081830303815290604052905060005b8351811015611406578161139a85838151811061138d5761138d611b9f565b602002602001015161142f565b6040516020016113ab929190611dc0565b6040516020818303038152906040529150600184516113ca9190611b86565b8110156113f457816040516020016113e29190611def565b60405160208183030381529060405291505b806113fe81611bb5565b91505061136e565b50806040516020016114189190611e14565b60408051601f198184030181529190529392505050565b6060600082600001516040516020016114489190611e39565b604051602081830303815290604052905060005b83606001515181101561150057816114908560600151838151811061148357611483611b9f565b6020026020010151611512565b6040516020016114a1929190611dc0565b604051602081830303815290604052915060018460600151516114c49190611b86565b8110156114ee57816040516020016114dc9190611def565b60405160208183030381529060405291505b806114f881611bb5565b91505061145c565b50806040516020016114189190611e81565b606081600001518260400151611545576040518060400160405280600581526020016466616c736560d81b815250611563565b604051806040016040528060048152602001637472756560e01b8152505b604051602001611574929190611ea7565b6040516020818303038152906040529050919050565b60006020828403121561159c57600080fd5b5035919050565b60005b838110156115be5781810151838201526020016115a6565b50506000910152565b600081518084526115df8160208601602086016115a3565b601f01601f19169290920160200192915050565b60a08152600061160660a08301886115c7565b828103602084015261161881886115c7565b9050828103604084015261162c81876115c7565b9050828103606084015261164081866115c7565b9050828103608084015261165481856115c7565b98975050505050505050565b60006020808301818452808551808352604092508286019150828160051b87010184880160005b8381101561170057603f198984030185528151608081518186526116ad828701826115c7565b915050888201518582038a8701526116c582826115c7565b91505087820151151588860152606080830151925085820381870152506116ec81836115c7565b968901969450505090860190600101611687565b509098975050505050505050565b634e487b7160e01b600052604160045260246000fd5b6040516080810167ffffffffffffffff811182821017156117475761174761170e565b60405290565b604051601f8201601f1916810167ffffffffffffffff811182821017156117765761177661170e565b604052919050565b600082601f83011261178f57600080fd5b813567ffffffffffffffff8111156117a9576117a961170e565b6117bc601f8201601f191660200161174d565b8181528460208386010111156117d157600080fd5b816020850160208301376000918101602001919091529392505050565b600082601f8301126117ff57600080fd5b8135602067ffffffffffffffff8083111561181c5761181c61170e565b8260051b61182b83820161174d565b938452858101830193838101908886111561184557600080fd5b84880192505b85831015611654578235848111156118635760008081fd5b88016080818b03601f190181131561187b5760008081fd5b611883611724565b87830135878111156118955760008081fd5b6118a38d8a8387010161177e565b825250604080840135888111156118ba5760008081fd5b6118c88e8b8388010161177e565b8a8401525060608085013580151581146118e25760008081fd5b838301529284013592888411156118fb57600091508182fd5b6119098e8b8688010161177e565b908301525084525050918401919084019061184b565b600080600080600060a0868803121561193757600080fd5b853567ffffffffffffffff8082111561194f57600080fd5b61195b89838a0161177e565b9650602088013591508082111561197157600080fd5b61197d89838a0161177e565b9550604088013591508082111561199357600080fd5b61199f89838a0161177e565b945060608801359150808211156119b557600080fd5b6119c189838a016117ee565b935060808801359150808211156119d757600080fd5b506119e48882890161177e565b9150509295509295909350565b602081526000611a0460208301846115c7565b9392505050565b600080600060608486031215611a2057600080fd5b83359250602084013567ffffffffffffffff80821115611a3f57600080fd5b611a4b8783880161177e565b93506040860135915080821115611a6157600080fd5b50611a6e8682870161177e565b9150509250925092565b60008060008060808587031215611a8e57600080fd5b84359350602085013567ffffffffffffffff80821115611aad57600080fd5b611ab98883890161177e565b94506040870135915080821115611acf57600080fd5b611adb8883890161177e565b93506060870135915080821115611af157600080fd5b50611afe8782880161177e565b91505092959194509250565b600181811c90821680611b1e57607f821691505b602082108103611b3e57634e487b7160e01b600052602260045260246000fd5b50919050565b602080825260129082015271125b9d985b1a59081c1c9bda9958dd08125160721b604082015260600190565b634e487b7160e01b600052601160045260246000fd5b81810381811115611b9957611b99611b70565b92915050565b634e487b7160e01b600052603260045260246000fd5b600060018201611bc757611bc7611b70565b5060010190565b601f821115611c1857600081815260208120601f850160051c81016020861015611bf55750805b601f850160051c820191505b81811015611c1457828155600101611c01565b5050505b505050565b815167ffffffffffffffff811115611c3757611c3761170e565b611c4b81611c458454611b0a565b84611bce565b602080601f831160018114611c805760008415611c685750858301515b600019600386901b1c1916600185901b178555611c14565b600085815260208120601f198616915b82811015611caf57888601518255948401946001909101908401611c90565b5085821015611ccd5787850151600019600388901b60f8161c191681555b5050505050600190811b01905550565b60008251611cef8184602087016115a3565b9190910192915050565b6000808354611d0781611b0a565b60018281168015611d1f5760018114611d3457611d63565b60ff1984168752821515830287019450611d63565b8760005260208060002060005b85811015611d5a5781548a820152908401908201611d41565b50505082870194505b50929695505050505050565b634e487b7160e01b600052601260045260246000fd5b600082611d9457611d94611d6f565b500490565b600082611da857611da8611d6f565b500690565b80820180821115611b9957611b99611b70565b60008351611dd28184602088016115a3565b835190830190611de68183602088016115a3565b01949350505050565b60008251611e018184602087016115a3565b600b60fa1b920191825250600101919050565b60008251611e268184602087016115a3565b605d60f81b920191825250600101919050565b693d913a34ba3632911d1160b11b81528151600090611e5f81600a8501602087016115a3565b6a222c227461736b73223a5b60a81b600a939091019283015250601501919050565b60008251611e938184602087016115a3565b615d7d60f01b920191825250600201919050565b6d3d913a30b9b5ba34ba3632911d1160911b81528251600090611ed181600e8501602088016115a3565b6a11161134b9b237b732911d60a91b600e918401918201528351611efc8160198401602088016115a3565b607d60f81b60199290910191820152601a0194935050505056fea26469706673582212205071fb0247236bb7b4129b1ea8b2404bd49b18b9bf4438e6dd6d6877f6be99d864736f6c63430008140033",
  "linkReferences": {},
  "deployedLinkReferences": {}
}