{
  "_format": "hh-sol-artifact-1",
  "contractName": "TestTokenReward",
  "sourceName": "contracts/TokenTest.sol",
  "abi": [
    {
      "inputs": [],
      "stateMutability": "nonpayable",
      "type": "constructor"
    },
    {
      "anonymous": false,
      "inputs": [
        {
          "indexed": false,
          "internalType": "address",
          "name": "user",
          "type": "address"
        },
        {
          "indexed": false,
          "internalType": "uint256",
          "name": "amount",
          "type": "uint256"
        }
      ],
      "name": "TokensClaimed",
      "type": "event"
    },
    {
      "inputs": [
        {
          "internalType": "address",
          "name": "",
          "type": "address"
        }
      ],
      "name": "balances",
      "outputs": [
        {
          "internalType": "uint256",
          "name": "",
          "type": "uint256"
        }
      ],
      "stateMutability": "view",
      "type": "function"
    },
    {
      "inputs": [],
      "name": "claimTokens",
      "outputs": [],
      "stateMutability": "nonpayable",
      "type": "function"
    },
    {
      "inputs": [
        {
          "internalType": "address",
          "name": "user",
          "type": "address"
        }
      ],
      "name": "getBalance",
      "outputs": [
        {
          "internalType": "uint256",
          "name": "",
          "type": "uint256"
        }
      ],
      "stateMutability": "view",
      "type": "function"
    },
    {
      "inputs": [],
      "name": "tokenAmount",
      "outputs": [
        {
          "internalType": "uint256",
          "name": "",
          "type": "uint256"
        }
      ],
      "stateMutability": "view",
      "type": "function"
    }
  ],
  "bytecode": "0x608060405268056bc75e2d6310000060015534801561001d57600080fd5b5033600090815260208190526040902069d3c21bcecceda10000009055610268806100496000396000f3fe608060405234801561001057600080fd5b506004361061004c5760003560e01c806327e235e31461005157806348c54b9d14610083578063eec7faa11461008d578063f8b2cb4f14610096575b600080fd5b61007161005f3660046101c0565b60006020819052908152604090205481565b60405190815260200160405180910390f35b61008b6100bf565b005b61007160015481565b6100716100a43660046101c0565b6001600160a01b031660009081526020819052604090205490565b33600081815260208190526040902054156101205760405162461bcd60e51b815260206004820152601f60248201527f557365722068617320616c726561647920636c61696d656420746f6b656e7300604482015260640160405180910390fd5b6001546001600160a01b0382166000908152602081905260408120805490919061014b908490610206565b9091555050600154306000908152602081905260408120805490919061017290849061021f565b9091555050600154604080516001600160a01b038416815260208101929092527f896e034966eaaf1adc54acc0f257056febbd300c9e47182cf761982cf1f5e430910160405180910390a150565b6000602082840312156101d257600080fd5b81356001600160a01b03811681146101e957600080fd5b9392505050565b634e487b7160e01b600052601160045260246000fd5b80820180821115610219576102196101f0565b92915050565b81810381811115610219576102196101f056fea264697066735822122056ba133b336efd15760e5a5ef14d6c5cd089b975bcb9418e59f75269063a72dc64736f6c63430008140033",
  "linkReferences": {},
  "deployedLinkReferences": {}
}